{
  "_format": "hh-sol-artifact-1",
  "contractName": "CarbonToken",
  "sourceName": "contracts/CarbonToken.sol",
  "abi": [
    {
      "inputs": [
        {
          "internalType": "address",
          "name": "initialOwner",
          "type": "address"
        },
        {
          "internalType": "string",
          "name": "_secretKey",
          "type": "string"
        }
      ],
      "stateMutability": "nonpayable",
      "type": "constructor"
    },
    {
      "inputs": [],
      "name": "ECDSAInvalidSignature",
      "type": "error"
    },
    {
      "inputs": [
        {
          "internalType": "uint256",
          "name": "length",
          "type": "uint256"
        }
      ],
      "name": "ECDSAInvalidSignatureLength",
      "type": "error"
    },
    {
      "inputs": [
        {
          "internalType": "bytes32",
          "name": "s",
          "type": "bytes32"
        }
      ],
      "name": "ECDSAInvalidSignatureS",
      "type": "error"
    },
    {
      "inputs": [
        {
          "internalType": "address",
          "name": "spender",
          "type": "address"
        },
        {
          "internalType": "uint256",
          "name": "allowance",
          "type": "uint256"
        },
        {
          "internalType": "uint256",
          "name": "needed",
          "type": "uint256"
        }
      ],
      "name": "ERC20InsufficientAllowance",
      "type": "error"
    },
    {
      "inputs": [
        {
          "internalType": "address",
          "name": "sender",
          "type": "address"
        },
        {
          "internalType": "uint256",
          "name": "balance",
          "type": "uint256"
        },
        {
          "internalType": "uint256",
          "name": "needed",
          "type": "uint256"
        }
      ],
      "name": "ERC20InsufficientBalance",
      "type": "error"
    },
    {
      "inputs": [
        {
          "internalType": "address",
          "name": "approver",
          "type": "address"
        }
      ],
      "name": "ERC20InvalidApprover",
      "type": "error"
    },
    {
      "inputs": [
        {
          "internalType": "address",
          "name": "receiver",
          "type": "address"
        }
      ],
      "name": "ERC20InvalidReceiver",
      "type": "error"
    },
    {
      "inputs": [
        {
          "internalType": "address",
          "name": "sender",
          "type": "address"
        }
      ],
      "name": "ERC20InvalidSender",
      "type": "error"
    },
    {
      "inputs": [
        {
          "internalType": "address",
          "name": "spender",
          "type": "address"
        }
      ],
      "name": "ERC20InvalidSpender",
      "type": "error"
    },
    {
      "inputs": [
        {
          "internalType": "uint256",
          "name": "deadline",
          "type": "uint256"
        }
      ],
      "name": "ERC2612ExpiredSignature",
      "type": "error"
    },
    {
      "inputs": [
        {
          "internalType": "address",
          "name": "signer",
          "type": "address"
        },
        {
          "internalType": "address",
          "name": "owner",
          "type": "address"
        }
      ],
      "name": "ERC2612InvalidSigner",
      "type": "error"
    },
    {
      "inputs": [
        {
          "internalType": "address",
          "name": "account",
          "type": "address"
        },
        {
          "internalType": "uint256",
          "name": "currentNonce",
          "type": "uint256"
        }
      ],
      "name": "InvalidAccountNonce",
      "type": "error"
    },
    {
      "inputs": [],
      "name": "InvalidShortString",
      "type": "error"
    },
    {
      "inputs": [
        {
          "internalType": "address",
          "name": "owner",
          "type": "address"
        }
      ],
      "name": "OwnableInvalidOwner",
      "type": "error"
    },
    {
      "inputs": [
        {
          "internalType": "address",
          "name": "account",
          "type": "address"
        }
      ],
      "name": "OwnableUnauthorizedAccount",
      "type": "error"
    },
    {
      "inputs": [
        {
          "internalType": "string",
          "name": "str",
          "type": "string"
        }
      ],
      "name": "StringTooLong",
      "type": "error"
    },
    {
      "anonymous": false,
      "inputs": [
        {
          "indexed": true,
          "internalType": "address",
          "name": "owner",
          "type": "address"
        },
        {
          "indexed": true,
          "internalType": "address",
          "name": "spender",
          "type": "address"
        },
        {
          "indexed": false,
          "internalType": "uint256",
          "name": "value",
          "type": "uint256"
        }
      ],
      "name": "Approval",
      "type": "event"
    },
    {
      "anonymous": false,
      "inputs": [
        {
          "indexed": true,
          "internalType": "address",
          "name": "account",
          "type": "address"
        },
        {
          "indexed": false,
          "internalType": "uint256",
          "name": "amount",
          "type": "uint256"
        },
        {
          "indexed": false,
          "internalType": "string",
          "name": "ipfsHash",
          "type": "string"
        }
      ],
      "name": "CertificateMinted",
      "type": "event"
    },
    {
      "anonymous": false,
      "inputs": [],
      "name": "EIP712DomainChanged",
      "type": "event"
    },
    {
      "anonymous": false,
      "inputs": [
        {
          "indexed": true,
          "internalType": "address",
          "name": "seller",
          "type": "address"
        },
        {
          "indexed": false,
          "internalType": "uint256",
          "name": "listingIndex",
          "type": "uint256"
        }
      ],
      "name": "ListingDeleted",
      "type": "event"
    },
    {
      "anonymous": false,
      "inputs": [
        {
          "indexed": true,
          "internalType": "address",
          "name": "previousOwner",
          "type": "address"
        },
        {
          "indexed": true,
          "internalType": "address",
          "name": "newOwner",
          "type": "address"
        }
      ],
      "name": "OwnershipTransferred",
      "type": "event"
    },
    {
      "anonymous": false,
      "inputs": [
        {
          "indexed": true,
          "internalType": "address",
          "name": "seller",
          "type": "address"
        },
        {
          "indexed": false,
          "internalType": "uint256",
          "name": "amountCTKN",
          "type": "uint256"
        },
        {
          "indexed": false,
          "internalType": "uint256",
          "name": "priceETH",
          "type": "uint256"
        },
        {
          "indexed": false,
          "internalType": "uint256",
          "name": "listingIndex",
          "type": "uint256"
        }
      ],
      "name": "TokenListed",
      "type": "event"
    },
    {
      "anonymous": false,
      "inputs": [
        {
          "indexed": true,
          "internalType": "address",
          "name": "buyer",
          "type": "address"
        },
        {
          "indexed": true,
          "internalType": "address",
          "name": "seller",
          "type": "address"
        },
        {
          "indexed": false,
          "internalType": "uint256",
          "name": "amountCTKN",
          "type": "uint256"
        },
        {
          "indexed": false,
          "internalType": "uint256",
          "name": "priceETH",
          "type": "uint256"
        },
        {
          "indexed": false,
          "internalType": "uint256",
          "name": "listingIndex",
          "type": "uint256"
        }
      ],
      "name": "TokenPurchased",
      "type": "event"
    },
    {
      "anonymous": false,
      "inputs": [
        {
          "indexed": true,
          "internalType": "address",
          "name": "from",
          "type": "address"
        },
        {
          "indexed": true,
          "internalType": "address",
          "name": "to",
          "type": "address"
        },
        {
          "indexed": false,
          "internalType": "uint256",
          "name": "value",
          "type": "uint256"
        }
      ],
      "name": "Transfer",
      "type": "event"
    },
    {
      "inputs": [],
      "name": "DOMAIN_SEPARATOR",
      "outputs": [
        {
          "internalType": "bytes32",
          "name": "",
          "type": "bytes32"
        }
      ],
      "stateMutability": "view",
      "type": "function"
    },
    {
      "inputs": [
        {
          "internalType": "address",
          "name": "owner",
          "type": "address"
        },
        {
          "internalType": "address",
          "name": "spender",
          "type": "address"
        }
      ],
      "name": "allowance",
      "outputs": [
        {
          "internalType": "uint256",
          "name": "",
          "type": "uint256"
        }
      ],
      "stateMutability": "view",
      "type": "function"
    },
    {
      "inputs": [
        {
          "internalType": "address",
          "name": "spender",
          "type": "address"
        },
        {
          "internalType": "uint256",
          "name": "value",
          "type": "uint256"
        }
      ],
      "name": "approve",
      "outputs": [
        {
          "internalType": "bool",
          "name": "",
          "type": "bool"
        }
      ],
      "stateMutability": "nonpayable",
      "type": "function"
    },
    {
      "inputs": [
        {
          "internalType": "address",
          "name": "account",
          "type": "address"
        }
      ],
      "name": "balanceOf",
      "outputs": [
        {
          "internalType": "uint256",
          "name": "",
          "type": "uint256"
        }
      ],
      "stateMutability": "view",
      "type": "function"
    },
    {
      "inputs": [
        {
          "internalType": "uint256",
          "name": "value",
          "type": "uint256"
        }
      ],
      "name": "burn",
      "outputs": [],
      "stateMutability": "nonpayable",
      "type": "function"
    },
    {
      "inputs": [
        {
          "internalType": "address",
          "name": "account",
          "type": "address"
        },
        {
          "internalType": "uint256",
          "name": "value",
          "type": "uint256"
        }
      ],
      "name": "burnFrom",
      "outputs": [],
      "stateMutability": "nonpayable",
      "type": "function"
    },
    {
      "inputs": [
        {
          "internalType": "address",
          "name": "seller",
          "type": "address"
        },
        {
          "internalType": "uint256",
          "name": "listingIndex",
          "type": "uint256"
        },
        {
          "internalType": "bytes32",
          "name": "_key",
          "type": "bytes32"
        }
      ],
      "name": "buyToken",
      "outputs": [],
      "stateMutability": "payable",
      "type": "function"
    },
    {
      "inputs": [],
      "name": "decimals",
      "outputs": [
        {
          "internalType": "uint8",
          "name": "",
          "type": "uint8"
        }
      ],
      "stateMutability": "view",
      "type": "function"
    },
    {
      "inputs": [
        {
          "internalType": "uint256",
          "name": "listingIndex",
          "type": "uint256"
        },
        {
          "internalType": "bytes32",
          "name": "_key",
          "type": "bytes32"
        }
      ],
      "name": "deleteListing",
      "outputs": [],
      "stateMutability": "nonpayable",
      "type": "function"
    },
    {
      "inputs": [],
      "name": "eip712Domain",
      "outputs": [
        {
          "internalType": "bytes1",
          "name": "fields",
          "type": "bytes1"
        },
        {
          "internalType": "string",
          "name": "name",
          "type": "string"
        },
        {
          "internalType": "string",
          "name": "version",
          "type": "string"
        },
        {
          "internalType": "uint256",
          "name": "chainId",
          "type": "uint256"
        },
        {
          "internalType": "address",
          "name": "verifyingContract",
          "type": "address"
        },
        {
          "internalType": "bytes32",
          "name": "salt",
          "type": "bytes32"
        },
        {
          "internalType": "uint256[]",
          "name": "extensions",
          "type": "uint256[]"
        }
      ],
      "stateMutability": "view",
      "type": "function"
    },
    {
      "inputs": [
        {
          "internalType": "uint256",
          "name": "amountCTKN",
          "type": "uint256"
        },
        {
          "internalType": "uint256",
          "name": "priceETH",
          "type": "uint256"
        },
        {
          "internalType": "bytes32",
          "name": "_key",
          "type": "bytes32"
        }
      ],
      "name": "listTokenForSale",
      "outputs": [],
      "stateMutability": "nonpayable",
      "type": "function"
    },
    {
      "inputs": [
        {
          "internalType": "address",
          "name": "",
          "type": "address"
        },
        {
          "internalType": "uint256",
          "name": "",
          "type": "uint256"
        }
      ],
      "name": "listings",
      "outputs": [
        {
          "internalType": "uint256",
          "name": "amountCTKN",
          "type": "uint256"
        },
        {
          "internalType": "uint256",
          "name": "priceETH",
          "type": "uint256"
        },
        {
          "internalType": "bool",
          "name": "active",
          "type": "bool"
        }
      ],
      "stateMutability": "view",
      "type": "function"
    },
    {
      "inputs": [
        {
          "internalType": "address",
          "name": "to",
          "type": "address"
        },
        {
          "internalType": "uint256",
          "name": "amount",
          "type": "uint256"
        },
        {
          "internalType": "bytes32",
          "name": "_key",
          "type": "bytes32"
        },
        {
          "internalType": "string",
          "name": "ipfsHash",
          "type": "string"
        }
      ],
      "name": "mint",
      "outputs": [],
      "stateMutability": "nonpayable",
      "type": "function"
    },
    {
      "inputs": [],
      "name": "name",
      "outputs": [
        {
          "internalType": "string",
          "name": "",
          "type": "string"
        }
      ],
      "stateMutability": "view",
      "type": "function"
    },
    {
      "inputs": [
        {
          "internalType": "address",
          "name": "owner",
          "type": "address"
        }
      ],
      "name": "nonces",
      "outputs": [
        {
          "internalType": "uint256",
          "name": "",
          "type": "uint256"
        }
      ],
      "stateMutability": "view",
      "type": "function"
    },
    {
      "inputs": [],
      "name": "owner",
      "outputs": [
        {
          "internalType": "address",
          "name": "",
          "type": "address"
        }
      ],
      "stateMutability": "view",
      "type": "function"
    },
    {
      "inputs": [
        {
          "internalType": "address",
          "name": "owner",
          "type": "address"
        },
        {
          "internalType": "address",
          "name": "spender",
          "type": "address"
        },
        {
          "internalType": "uint256",
          "name": "value",
          "type": "uint256"
        },
        {
          "internalType": "uint256",
          "name": "deadline",
          "type": "uint256"
        },
        {
          "internalType": "uint8",
          "name": "v",
          "type": "uint8"
        },
        {
          "internalType": "bytes32",
          "name": "r",
          "type": "bytes32"
        },
        {
          "internalType": "bytes32",
          "name": "s",
          "type": "bytes32"
        }
      ],
      "name": "permit",
      "outputs": [],
      "stateMutability": "nonpayable",
      "type": "function"
    },
    {
      "inputs": [],
      "name": "renounceOwnership",
      "outputs": [],
      "stateMutability": "nonpayable",
      "type": "function"
    },
    {
      "inputs": [],
      "name": "symbol",
      "outputs": [
        {
          "internalType": "string",
          "name": "",
          "type": "string"
        }
      ],
      "stateMutability": "view",
      "type": "function"
    },
    {
      "inputs": [],
      "name": "totalSupply",
      "outputs": [
        {
          "internalType": "uint256",
          "name": "",
          "type": "uint256"
        }
      ],
      "stateMutability": "view",
      "type": "function"
    },
    {
      "inputs": [
        {
          "internalType": "address",
          "name": "to",
          "type": "address"
        },
        {
          "internalType": "uint256",
          "name": "value",
          "type": "uint256"
        }
      ],
      "name": "transfer",
      "outputs": [
        {
          "internalType": "bool",
          "name": "",
          "type": "bool"
        }
      ],
      "stateMutability": "nonpayable",
      "type": "function"
    },
    {
      "inputs": [
        {
          "internalType": "address",
          "name": "from",
          "type": "address"
        },
        {
          "internalType": "address",
          "name": "to",
          "type": "address"
        },
        {
          "internalType": "uint256",
          "name": "value",
          "type": "uint256"
        }
      ],
      "name": "transferFrom",
      "outputs": [
        {
          "internalType": "bool",
          "name": "",
          "type": "bool"
        }
      ],
      "stateMutability": "nonpayable",
      "type": "function"
    },
    {
      "inputs": [
        {
          "internalType": "address",
          "name": "newOwner",
          "type": "address"
        }
      ],
      "name": "transferOwnership",
      "outputs": [],
      "stateMutability": "nonpayable",
      "type": "function"
    },
    {
      "inputs": [
        {
          "internalType": "string",
          "name": "newSecretKey",
          "type": "string"
        }
      ],
      "name": "updateSecretKey",
      "outputs": [],
      "stateMutability": "nonpayable",
      "type": "function"
    },
    {
      "stateMutability": "payable",
      "type": "receive"
    }
  ],
  "bytecode": "0x6101606040523480156200001257600080fd5b5060405162003d4638038062003d46833981810160405281019062000038919062000691565b6040518060400160405280600b81526020017f436172626f6e546f6b656e000000000000000000000000000000000000000000815250806040518060400160405280600181526020017f3100000000000000000000000000000000000000000000000000000000000000815250846040518060400160405280600b81526020017f436172626f6e546f6b656e0000000000000000000000000000000000000000008152506040518060400160405280600481526020017f43544b4e00000000000000000000000000000000000000000000000000000000815250816003908162000123919062000942565b50806004908162000135919062000942565b505050600073ffffffffffffffffffffffffffffffffffffffff168173ffffffffffffffffffffffffffffffffffffffff1603620001ad5760006040517f1e4fbdf7000000000000000000000000000000000000000000000000000000008152600401620001a4919062000a3a565b60405180910390fd5b620001be81620002a760201b60201c565b50620001d56006836200036d60201b90919060201c565b6101208181525050620001f36007826200036d60201b90919060201c565b6101408181525050818051906020012060e08181525050808051906020012061010081815250504660a0818152505062000232620003c560201b60201c565b608081815250503073ffffffffffffffffffffffffffffffffffffffff1660c08173ffffffffffffffffffffffffffffffffffffffff16815250505050508060405160200162000283919062000a99565b60405160208183030381529060405280519060200120600a81905550505062000c53565b6000600560009054906101000a900473ffffffffffffffffffffffffffffffffffffffff16905081600560006101000a81548173ffffffffffffffffffffffffffffffffffffffff021916908373ffffffffffffffffffffffffffffffffffffffff1602179055508173ffffffffffffffffffffffffffffffffffffffff168173ffffffffffffffffffffffffffffffffffffffff167f8be0079c531659141344cd1fd0a4f28419497f9722a3daafe3b4186f6b6457e060405160405180910390a35050565b600060208351101562000393576200038b836200042260201b60201c565b9050620003bf565b82620003a5836200048f60201b60201c565b6000019081620003b6919062000942565b5060ff60001b90505b92915050565b60007f8b73c3c69bb8fe3d512ecc4cf759cc79239f7b179b0ffacaa9a75d522b39400f60e0516101005146306040516020016200040795949392919062000ade565b60405160208183030381529060405280519060200120905090565b600080829050601f815111156200047257826040517f305a27a900000000000000000000000000000000000000000000000000000000815260040162000469919062000b8d565b60405180910390fd5b805181620004809062000be3565b60001c1760001b915050919050565b6000819050919050565b6000604051905090565b600080fd5b600080fd5b600073ffffffffffffffffffffffffffffffffffffffff82169050919050565b6000620004da82620004ad565b9050919050565b620004ec81620004cd565b8114620004f857600080fd5b50565b6000815190506200050c81620004e1565b92915050565b600080fd5b600080fd5b6000601f19601f8301169050919050565b7f4e487b7100000000000000000000000000000000000000000000000000000000600052604160045260246000fd5b62000567826200051c565b810181811067ffffffffffffffff821117156200058957620005886200052d565b5b80604052505050565b60006200059e62000499565b9050620005ac82826200055c565b919050565b600067ffffffffffffffff821115620005cf57620005ce6200052d565b5b620005da826200051c565b9050602081019050919050565b60005b8381101562000607578082015181840152602081019050620005ea565b60008484015250505050565b60006200062a6200062484620005b1565b62000592565b90508281526020810184848401111562000649576200064862000517565b5b62000656848285620005e7565b509392505050565b600082601f83011262000676576200067562000512565b5b81516200068884826020860162000613565b91505092915050565b60008060408385031215620006ab57620006aa620004a3565b5b6000620006bb85828601620004fb565b925050602083015167ffffffffffffffff811115620006df57620006de620004a8565b5b620006ed858286016200065e565b9150509250929050565b600081519050919050565b7f4e487b7100000000000000000000000000000000000000000000000000000000600052602260045260246000fd5b600060028204905060018216806200074a57607f821691505b60208210810362000760576200075f62000702565b5b50919050565b60008190508160005260206000209050919050565b60006020601f8301049050919050565b600082821b905092915050565b600060088302620007ca7fffffffffffffffffffffffffffffffffffffffffffffffffffffffffffffffff826200078b565b620007d686836200078b565b95508019841693508086168417925050509392505050565b6000819050919050565b6000819050919050565b6000620008236200081d6200081784620007ee565b620007f8565b620007ee565b9050919050565b6000819050919050565b6200083f8362000802565b620008576200084e826200082a565b84845462000798565b825550505050565b600090565b6200086e6200085f565b6200087b81848462000834565b505050565b5b81811015620008a3576200089760008262000864565b60018101905062000881565b5050565b601f821115620008f257620008bc8162000766565b620008c7846200077b565b81016020851015620008d7578190505b620008ef620008e6856200077b565b83018262000880565b50505b505050565b600082821c905092915050565b60006200091760001984600802620008f7565b1980831691505092915050565b600062000932838362000904565b9150826002028217905092915050565b6200094d82620006f7565b67ffffffffffffffff8111156200096957620009686200052d565b5b62000975825462000731565b62000982828285620008a7565b600060209050601f831160018114620009ba5760008415620009a5578287015190505b620009b1858262000924565b86555062000a21565b601f198416620009ca8662000766565b60005b82811015620009f457848901518255600182019150602085019450602081019050620009cd565b8683101562000a14578489015162000a10601f89168262000904565b8355505b6001600288020188555050505b505050505050565b62000a3481620004cd565b82525050565b600060208201905062000a51600083018462000a29565b92915050565b600081905092915050565b600062000a6f82620006f7565b62000a7b818562000a57565b935062000a8d818560208601620005e7565b80840191505092915050565b600062000aa7828462000a62565b915081905092915050565b6000819050919050565b62000ac78162000ab2565b82525050565b62000ad881620007ee565b82525050565b600060a08201905062000af5600083018862000abc565b62000b04602083018762000abc565b62000b13604083018662000abc565b62000b22606083018562000acd565b62000b31608083018462000a29565b9695505050505050565b600082825260208201905092915050565b600062000b5982620006f7565b62000b65818562000b3b565b935062000b77818560208601620005e7565b62000b82816200051c565b840191505092915050565b6000602082019050818103600083015262000ba9818462000b4c565b905092915050565b600081519050919050565b6000819050602082019050919050565b600062000bda825162000ab2565b80915050919050565b600062000bf08262000bb1565b8262000bfc8462000bbc565b905062000c098162000bcc565b9250602082101562000c4c5762000c477fffffffffffffffffffffffffffffffffffffffffffffffffffffffffffffffff836020036008026200078b565b831692505b5050919050565b60805160a05160c05160e05161010051610120516101405161309862000cae60003960006117470152600061170c01526000611cde01526000611cbd015260006114380152600061148e015260006114b701526130986000f3fe60806040526004361061014e5760003560e01c80637ecebe00116100b6578063d1cb75611161006f578063d1cb7561146104ab578063d505accf146104d4578063dd62ed3e146104fd578063e489374c1461053a578063ee2d12b414610563578063f2fde38b1461058c57610155565b80637ecebe001461038e57806384b0196e146103cb5780638da5cb5b146103fc57806395d89b4114610427578063a9059cbb14610452578063aefd8f741461048f57610155565b806333ce9bfc1161010857806333ce9bfc146102945780633644e515146102bd57806342966c68146102e857806370a0823114610311578063715018a61461034e57806379cc67901461036557610155565b806207df301461015a57806306fdde0314610199578063095ea7b3146101c457806318160ddd1461020157806323b872dd1461022c578063313ce5671461026957610155565b3661015557005b600080fd5b34801561016657600080fd5b50610181600480360381019061017c91906121e3565b6105b5565b6040516101909392919061224d565b60405180910390f35b3480156101a557600080fd5b506101ae610609565b6040516101bb9190612314565b60405180910390f35b3480156101d057600080fd5b506101eb60048036038101906101e691906121e3565b61069b565b6040516101f89190612336565b60405180910390f35b34801561020d57600080fd5b506102166106be565b6040516102239190612351565b60405180910390f35b34801561023857600080fd5b50610253600480360381019061024e919061236c565b6106c8565b6040516102609190612336565b60405180910390f35b34801561027557600080fd5b5061027e6106f7565b60405161028b91906123db565b60405180910390f35b3480156102a057600080fd5b506102bb60048036038101906102b6919061242c565b610700565b005b3480156102c957600080fd5b506102d26108fd565b6040516102df919061248e565b60405180910390f35b3480156102f457600080fd5b5061030f600480360381019061030a91906124a9565b61090c565b005b34801561031d57600080fd5b50610338600480360381019061033391906124d6565b610920565b6040516103459190612351565b60405180910390f35b34801561035a57600080fd5b50610363610968565b005b34801561037157600080fd5b5061038c600480360381019061038791906121e3565b61097c565b005b34801561039a57600080fd5b506103b560048036038101906103b091906124d6565b61099c565b6040516103c29190612351565b60405180910390f35b3480156103d757600080fd5b506103e06109ae565b6040516103f3979695949392919061260b565b60405180910390f35b34801561040857600080fd5b50610411610a58565b60405161041e919061268f565b60405180910390f35b34801561043357600080fd5b5061043c610a82565b6040516104499190612314565b60405180910390f35b34801561045e57600080fd5b50610479600480360381019061047491906121e3565b610b14565b6040516104869190612336565b60405180910390f35b6104a960048036038101906104a491906126aa565b610b37565b005b3480156104b757600080fd5b506104d260048036038101906104cd9190612832565b610d62565b005b3480156104e057600080fd5b506104fb60048036038101906104f691906128e1565b610e08565b005b34801561050957600080fd5b50610524600480360381019061051f9190612983565b610f50565b6040516105319190612351565b60405180910390f35b34801561054657600080fd5b50610561600480360381019061055c91906129c3565b610fd7565b005b34801561056f57600080fd5b5061058a60048036038101906105859190612a03565b6111d4565b005b34801561059857600080fd5b506105b360048036038101906105ae91906124d6565b61120c565b005b600960205281600052604060002081815481106105d157600080fd5b9060005260206000209060030201600091509150508060000154908060010154908060020160009054906101000a900460ff16905083565b60606003805461061890612a7b565b80601f016020809104026020016040519081016040528092919081815260200182805461064490612a7b565b80156106915780601f1061066657610100808354040283529160200191610691565b820191906000526020600020905b81548152906001019060200180831161067457829003601f168201915b5050505050905090565b6000806106a6611292565b90506106b381858561129a565b600191505092915050565b6000600254905090565b6000806106d3611292565b90506106e08582856112ac565b6106eb858585611340565b60019150509392505050565b60006012905090565b80600a548114610745576040517f08c379a000000000000000000000000000000000000000000000000000000000815260040161073c90612af8565b60405180910390fd5b8361074f33610920565b1015610790576040517f08c379a000000000000000000000000000000000000000000000000000000000815260040161078790612b64565b60405180910390fd5b61079b333086611340565b600960003373ffffffffffffffffffffffffffffffffffffffff1673ffffffffffffffffffffffffffffffffffffffff1681526020019081526020016000206040518060600160405280868152602001858152602001600115158152509080600181540180825580915050600190039060005260206000209060030201600090919091909150600082015181600001556020820151816001015560408201518160020160006101000a81548160ff02191690831515021790555050503373ffffffffffffffffffffffffffffffffffffffff167fda2d7fa13c443a4ce51bb68b8ce92f41fac2c10d9d5bdb6a9e9a91429020b7c385856001600960003373ffffffffffffffffffffffffffffffffffffffff1673ffffffffffffffffffffffffffffffffffffffff168152602001908152602001600020805490506108e09190612bb3565b6040516108ef93929190612be7565b60405180910390a250505050565b6000610907611434565b905090565b61091d610917611292565b826114eb565b50565b60008060008373ffffffffffffffffffffffffffffffffffffffff1673ffffffffffffffffffffffffffffffffffffffff168152602001908152602001600020549050919050565b61097061156d565b61097a60006115f4565b565b61098e82610988611292565b836112ac565b61099882826114eb565b5050565b60006109a7826116ba565b9050919050565b6000606080600080600060606109c2611703565b6109ca61173e565b46306000801b600067ffffffffffffffff8111156109eb576109ea612707565b5b604051908082528060200260200182016040528015610a195781602001602082028036833780820191505090505b507f0f00000000000000000000000000000000000000000000000000000000000000959493929190965096509650965096509650965090919293949596565b6000600560009054906101000a900473ffffffffffffffffffffffffffffffffffffffff16905090565b606060048054610a9190612a7b565b80601f0160208091040260200160405190810160405280929190818152602001828054610abd90612a7b565b8015610b0a5780601f10610adf57610100808354040283529160200191610b0a565b820191906000526020600020905b815481529060010190602001808311610aed57829003601f168201915b5050505050905090565b600080610b1f611292565b9050610b2c818585611340565b600191505092915050565b80600a548114610b7c576040517f08c379a0000000000000000000000000000000000000000000000000000000008152600401610b7390612af8565b60405180910390fd5b6000600960008673ffffffffffffffffffffffffffffffffffffffff1673ffffffffffffffffffffffffffffffffffffffff1681526020019081526020016000208481548110610bcf57610bce612c1e565b5b906000526020600020906003020190508060020160009054906101000a900460ff16610c30576040517f08c379a0000000000000000000000000000000000000000000000000000000008152600401610c2790612c99565b60405180910390fd5b8060010154341015610c77576040517f08c379a0000000000000000000000000000000000000000000000000000000008152600401610c6e90612d05565b60405180910390fd5b610c8630338360000154611340565b8473ffffffffffffffffffffffffffffffffffffffff166108fc349081150290604051600060405180830381858888f19350505050158015610ccc573d6000803e3d6000fd5b5060008160020160006101000a81548160ff0219169083151502179055508473ffffffffffffffffffffffffffffffffffffffff163373ffffffffffffffffffffffffffffffffffffffff167f0a9521815fb3c5bc7dd6f4c9f89dc270322e46b945b104c18981f81c3f2cd1aa8360000154846001015488604051610d5393929190612be7565b60405180910390a35050505050565b81600a548114610da7576040517f08c379a0000000000000000000000000000000000000000000000000000000008152600401610d9e90612af8565b60405180910390fd5b610db18585611779565b8473ffffffffffffffffffffffffffffffffffffffff167fde5d6fd45e32fffb472bcbaeedf6a2e3944633c9701eec7d99adfa07ad6104c18584604051610df9929190612d25565b60405180910390a25050505050565b83421115610e4d57836040517f62791302000000000000000000000000000000000000000000000000000000008152600401610e449190612351565b60405180910390fd5b60007f6e71edae12b1b97f4d1f60370fef10105fa2faae0126114a169c64845d6126c9888888610e7c8c6117fb565b89604051602001610e9296959493929190612d55565b6040516020818303038152906040528051906020012090506000610eb582611852565b90506000610ec58287878761186c565b90508973ffffffffffffffffffffffffffffffffffffffff168173ffffffffffffffffffffffffffffffffffffffff1614610f3957808a6040517f4b800e46000000000000000000000000000000000000000000000000000000008152600401610f30929190612db6565b60405180910390fd5b610f448a8a8a61129a565b50505050505050505050565b6000600160008473ffffffffffffffffffffffffffffffffffffffff1673ffffffffffffffffffffffffffffffffffffffff16815260200190815260200160002060008373ffffffffffffffffffffffffffffffffffffffff1673ffffffffffffffffffffffffffffffffffffffff16815260200190815260200160002054905092915050565b80600a54811461101c576040517f08c379a000000000000000000000000000000000000000000000000000000000815260040161101390612af8565b60405180910390fd5b600960003373ffffffffffffffffffffffffffffffffffffffff1673ffffffffffffffffffffffffffffffffffffffff1681526020019081526020016000208054905083106110a0576040517f08c379a000000000000000000000000000000000000000000000000000000000815260040161109790612e2b565b60405180910390fd5b6000600960003373ffffffffffffffffffffffffffffffffffffffff1673ffffffffffffffffffffffffffffffffffffffff16815260200190815260200160002084815481106110f3576110f2612c1e565b5b906000526020600020906003020190508060020160009054906101000a900460ff16611154576040517f08c379a000000000000000000000000000000000000000000000000000000000815260040161114b90612ebd565b60405180910390fd5b61116330338360000154611340565b60008160020160006101000a81548160ff0219169083151502179055503373ffffffffffffffffffffffffffffffffffffffff167f53df6f80c006573b58e17d6440b870b40592881a21c175cde20004a4135dd460856040516111c69190612351565b60405180910390a250505050565b6111dc61156d565b806040516020016111ed9190612f19565b60405160208183030381529060405280519060200120600a8190555050565b61121461156d565b600073ffffffffffffffffffffffffffffffffffffffff168173ffffffffffffffffffffffffffffffffffffffff16036112865760006040517f1e4fbdf700000000000000000000000000000000000000000000000000000000815260040161127d919061268f565b60405180910390fd5b61128f816115f4565b50565b600033905090565b6112a7838383600161189c565b505050565b60006112b88484610f50565b90507fffffffffffffffffffffffffffffffffffffffffffffffffffffffffffffffff811461133a578181101561132a578281836040517ffb8f41b200000000000000000000000000000000000000000000000000000000815260040161132193929190612f30565b60405180910390fd5b6113398484848403600061189c565b5b50505050565b600073ffffffffffffffffffffffffffffffffffffffff168373ffffffffffffffffffffffffffffffffffffffff16036113b25760006040517f96c6fd1e0000000000000000000000000000000000000000000000000000000081526004016113a9919061268f565b60405180910390fd5b600073ffffffffffffffffffffffffffffffffffffffff168273ffffffffffffffffffffffffffffffffffffffff16036114245760006040517fec442f0500000000000000000000000000000000000000000000000000000000815260040161141b919061268f565b60405180910390fd5b61142f838383611a73565b505050565b60007f000000000000000000000000000000000000000000000000000000000000000073ffffffffffffffffffffffffffffffffffffffff163073ffffffffffffffffffffffffffffffffffffffff161480156114b057507f000000000000000000000000000000000000000000000000000000000000000046145b156114dd577f000000000000000000000000000000000000000000000000000000000000000090506114e8565b6114e5611c98565b90505b90565b600073ffffffffffffffffffffffffffffffffffffffff168273ffffffffffffffffffffffffffffffffffffffff160361155d5760006040517f96c6fd1e000000000000000000000000000000000000000000000000000000008152600401611554919061268f565b60405180910390fd5b61156982600083611a73565b5050565b611575611292565b73ffffffffffffffffffffffffffffffffffffffff16611593610a58565b73ffffffffffffffffffffffffffffffffffffffff16146115f2576115b6611292565b6040517f118cdaa70000000000000000000000000000000000000000000000000000000081526004016115e9919061268f565b60405180910390fd5b565b6000600560009054906101000a900473ffffffffffffffffffffffffffffffffffffffff16905081600560006101000a81548173ffffffffffffffffffffffffffffffffffffffff021916908373ffffffffffffffffffffffffffffffffffffffff1602179055508173ffffffffffffffffffffffffffffffffffffffff168173ffffffffffffffffffffffffffffffffffffffff167f8be0079c531659141344cd1fd0a4f28419497f9722a3daafe3b4186f6b6457e060405160405180910390a35050565b6000600860008373ffffffffffffffffffffffffffffffffffffffff1673ffffffffffffffffffffffffffffffffffffffff168152602001908152602001600020549050919050565b606061173960067f0000000000000000000000000000000000000000000000000000000000000000611d2e90919063ffffffff16565b905090565b606061177460077f0000000000000000000000000000000000000000000000000000000000000000611d2e90919063ffffffff16565b905090565b600073ffffffffffffffffffffffffffffffffffffffff168273ffffffffffffffffffffffffffffffffffffffff16036117eb5760006040517fec442f050000000000000000000000000000000000000000000000000000000081526004016117e2919061268f565b60405180910390fd5b6117f760008383611a73565b5050565b6000600860008373ffffffffffffffffffffffffffffffffffffffff1673ffffffffffffffffffffffffffffffffffffffff1681526020019081526020016000206000815480929190600101919050559050919050565b600061186561185f611434565b83611dde565b9050919050565b60008060008061187e88888888611e1f565b92509250925061188e8282611f13565b829350505050949350505050565b600073ffffffffffffffffffffffffffffffffffffffff168473ffffffffffffffffffffffffffffffffffffffff160361190e5760006040517fe602df05000000000000000000000000000000000000000000000000000000008152600401611905919061268f565b60405180910390fd5b600073ffffffffffffffffffffffffffffffffffffffff168373ffffffffffffffffffffffffffffffffffffffff16036119805760006040517f94280d62000000000000000000000000000000000000000000000000000000008152600401611977919061268f565b60405180910390fd5b81600160008673ffffffffffffffffffffffffffffffffffffffff1673ffffffffffffffffffffffffffffffffffffffff16815260200190815260200160002060008573ffffffffffffffffffffffffffffffffffffffff1673ffffffffffffffffffffffffffffffffffffffff168152602001908152602001600020819055508015611a6d578273ffffffffffffffffffffffffffffffffffffffff168473ffffffffffffffffffffffffffffffffffffffff167f8c5be1e5ebec7d5bd14f71427d1e84f3dd0314c0f7b2291e5b200ac8c7c3b92584604051611a649190612351565b60405180910390a35b50505050565b600073ffffffffffffffffffffffffffffffffffffffff168373ffffffffffffffffffffffffffffffffffffffff1603611ac5578060026000828254611ab99190612f67565b92505081905550611b98565b60008060008573ffffffffffffffffffffffffffffffffffffffff1673ffffffffffffffffffffffffffffffffffffffff16815260200190815260200160002054905081811015611b51578381836040517fe450d38c000000000000000000000000000000000000000000000000000000008152600401611b4893929190612f30565b60405180910390fd5b8181036000808673ffffffffffffffffffffffffffffffffffffffff1673ffffffffffffffffffffffffffffffffffffffff16815260200190815260200160002081905550505b600073ffffffffffffffffffffffffffffffffffffffff168273ffffffffffffffffffffffffffffffffffffffff1603611be15780600260008282540392505081905550611c2e565b806000808473ffffffffffffffffffffffffffffffffffffffff1673ffffffffffffffffffffffffffffffffffffffff168152602001908152602001600020600082825401925050819055505b8173ffffffffffffffffffffffffffffffffffffffff168373ffffffffffffffffffffffffffffffffffffffff167fddf252ad1be2c89b69c2b068fc378daa952ba7f163c4a11628f55a4df523b3ef83604051611c8b9190612351565b60405180910390a3505050565b60007f8b73c3c69bb8fe3d512ecc4cf759cc79239f7b179b0ffacaa9a75d522b39400f7f00000000000000000000000000000000000000000000000000000000000000007f00000000000000000000000000000000000000000000000000000000000000004630604051602001611d13959493929190612f9b565b60405160208183030381529060405280519060200120905090565b606060ff60001b8314611d4b57611d4483612077565b9050611dd8565b818054611d5790612a7b565b80601f0160208091040260200160405190810160405280929190818152602001828054611d8390612a7b565b8015611dd05780601f10611da557610100808354040283529160200191611dd0565b820191906000526020600020905b815481529060010190602001808311611db357829003601f168201915b505050505090505b92915050565b60006040517f190100000000000000000000000000000000000000000000000000000000000081528360028201528260228201526042812091505092915050565b60008060007f7fffffffffffffffffffffffffffffff5d576e7357a4501ddfe92f46681b20a08460001c1115611e5f576000600385925092509250611f09565b600060018888888860405160008152602001604052604051611e849493929190612fee565b6020604051602081039080840390855afa158015611ea6573d6000803e3d6000fd5b505050602060405103519050600073ffffffffffffffffffffffffffffffffffffffff168173ffffffffffffffffffffffffffffffffffffffff1603611efa57600060016000801b93509350935050611f09565b8060008060001b935093509350505b9450945094915050565b60006003811115611f2757611f26613033565b5b826003811115611f3a57611f39613033565b5b03156120735760016003811115611f5457611f53613033565b5b826003811115611f6757611f66613033565b5b03611f9e576040517ff645eedf00000000000000000000000000000000000000000000000000000000815260040160405180910390fd5b60026003811115611fb257611fb1613033565b5b826003811115611fc557611fc4613033565b5b0361200a578060001c6040517ffce698f70000000000000000000000000000000000000000000000000000000081526004016120019190612351565b60405180910390fd5b60038081111561201d5761201c613033565b5b8260038111156120305761202f613033565b5b0361207257806040517fd78bce0c000000000000000000000000000000000000000000000000000000008152600401612069919061248e565b60405180910390fd5b5b5050565b60606000612084836120eb565b90506000602067ffffffffffffffff8111156120a3576120a2612707565b5b6040519080825280601f01601f1916602001820160405280156120d55781602001600182028036833780820191505090505b5090508181528360208201528092505050919050565b60008060ff8360001c169050601f811115612132576040517fb3512b0c00000000000000000000000000000000000000000000000000000000815260040160405180910390fd5b80915050919050565b6000604051905090565b600080fd5b600080fd5b600073ffffffffffffffffffffffffffffffffffffffff82169050919050565b600061217a8261214f565b9050919050565b61218a8161216f565b811461219557600080fd5b50565b6000813590506121a781612181565b92915050565b6000819050919050565b6121c0816121ad565b81146121cb57600080fd5b50565b6000813590506121dd816121b7565b92915050565b600080604083850312156121fa576121f9612145565b5b600061220885828601612198565b9250506020612219858286016121ce565b9150509250929050565b61222c816121ad565b82525050565b60008115159050919050565b61224781612232565b82525050565b60006060820190506122626000830186612223565b61226f6020830185612223565b61227c604083018461223e565b949350505050565b600081519050919050565b600082825260208201905092915050565b60005b838110156122be5780820151818401526020810190506122a3565b60008484015250505050565b6000601f19601f8301169050919050565b60006122e682612284565b6122f0818561228f565b93506123008185602086016122a0565b612309816122ca565b840191505092915050565b6000602082019050818103600083015261232e81846122db565b905092915050565b600060208201905061234b600083018461223e565b92915050565b60006020820190506123666000830184612223565b92915050565b60008060006060848603121561238557612384612145565b5b600061239386828701612198565b93505060206123a486828701612198565b92505060406123b5868287016121ce565b9150509250925092565b600060ff82169050919050565b6123d5816123bf565b82525050565b60006020820190506123f060008301846123cc565b92915050565b6000819050919050565b612409816123f6565b811461241457600080fd5b50565b60008135905061242681612400565b92915050565b60008060006060848603121561244557612444612145565b5b6000612453868287016121ce565b9350506020612464868287016121ce565b925050604061247586828701612417565b9150509250925092565b612488816123f6565b82525050565b60006020820190506124a3600083018461247f565b92915050565b6000602082840312156124bf576124be612145565b5b60006124cd848285016121ce565b91505092915050565b6000602082840312156124ec576124eb612145565b5b60006124fa84828501612198565b91505092915050565b60007fff0000000000000000000000000000000000000000000000000000000000000082169050919050565b61253881612503565b82525050565b6125478161216f565b82525050565b600081519050919050565b600082825260208201905092915050565b6000819050602082019050919050565b612582816121ad565b82525050565b60006125948383612579565b60208301905092915050565b6000602082019050919050565b60006125b88261254d565b6125c28185612558565b93506125cd83612569565b8060005b838110156125fe5781516125e58882612588565b97506125f0836125a0565b9250506001810190506125d1565b5085935050505092915050565b600060e082019050612620600083018a61252f565b818103602083015261263281896122db565b9050818103604083015261264681886122db565b90506126556060830187612223565b612662608083018661253e565b61266f60a083018561247f565b81810360c083015261268181846125ad565b905098975050505050505050565b60006020820190506126a4600083018461253e565b92915050565b6000806000606084860312156126c3576126c2612145565b5b60006126d186828701612198565b93505060206126e2868287016121ce565b92505060406126f386828701612417565b9150509250925092565b600080fd5b600080fd5b7f4e487b7100000000000000000000000000000000000000000000000000000000600052604160045260246000fd5b61273f826122ca565b810181811067ffffffffffffffff8211171561275e5761275d612707565b5b80604052505050565b600061277161213b565b905061277d8282612736565b919050565b600067ffffffffffffffff82111561279d5761279c612707565b5b6127a6826122ca565b9050602081019050919050565b82818337600083830152505050565b60006127d56127d084612782565b612767565b9050828152602081018484840111156127f1576127f0612702565b5b6127fc8482856127b3565b509392505050565b600082601f830112612819576128186126fd565b5b81356128298482602086016127c2565b91505092915050565b6000806000806080858703121561284c5761284b612145565b5b600061285a87828801612198565b945050602061286b878288016121ce565b935050604061287c87828801612417565b925050606085013567ffffffffffffffff81111561289d5761289c61214a565b5b6128a987828801612804565b91505092959194509250565b6128be816123bf565b81146128c957600080fd5b50565b6000813590506128db816128b5565b92915050565b600080600080600080600060e0888a031215612900576128ff612145565b5b600061290e8a828b01612198565b975050602061291f8a828b01612198565b96505060406129308a828b016121ce565b95505060606129418a828b016121ce565b94505060806129528a828b016128cc565b93505060a06129638a828b01612417565b92505060c06129748a828b01612417565b91505092959891949750929550565b6000806040838503121561299a57612999612145565b5b60006129a885828601612198565b92505060206129b985828601612198565b9150509250929050565b600080604083850312156129da576129d9612145565b5b60006129e8858286016121ce565b92505060206129f985828601612417565b9150509250929050565b600060208284031215612a1957612a18612145565b5b600082013567ffffffffffffffff811115612a3757612a3661214a565b5b612a4384828501612804565b91505092915050565b7f4e487b7100000000000000000000000000000000000000000000000000000000600052602260045260246000fd5b60006002820490506001821680612a9357607f821691505b602082108103612aa657612aa5612a4c565b5b50919050565b7f496e76616c696420736563726574206b65790000000000000000000000000000600082015250565b6000612ae260128361228f565b9150612aed82612aac565b602082019050919050565b60006020820190508181036000830152612b1181612ad5565b9050919050565b7f496e73756666696369656e742043544b4e2062616c616e636500000000000000600082015250565b6000612b4e60198361228f565b9150612b5982612b18565b602082019050919050565b60006020820190508181036000830152612b7d81612b41565b9050919050565b7f4e487b7100000000000000000000000000000000000000000000000000000000600052601160045260246000fd5b6000612bbe826121ad565b9150612bc9836121ad565b9250828203905081811115612be157612be0612b84565b5b92915050565b6000606082019050612bfc6000830186612223565b612c096020830185612223565b612c166040830184612223565b949350505050565b7f4e487b7100000000000000000000000000000000000000000000000000000000600052603260045260246000fd5b7f4c697374696e67206973206e6f74206163746976650000000000000000000000600082015250565b6000612c8360158361228f565b9150612c8e82612c4d565b602082019050919050565b60006020820190508181036000830152612cb281612c76565b9050919050565b7f496e73756666696369656e74204554482073656e740000000000000000000000600082015250565b6000612cef60158361228f565b9150612cfa82612cb9565b602082019050919050565b60006020820190508181036000830152612d1e81612ce2565b9050919050565b6000604082019050612d3a6000830185612223565b8181036020830152612d4c81846122db565b90509392505050565b600060c082019050612d6a600083018961247f565b612d77602083018861253e565b612d84604083018761253e565b612d916060830186612223565b612d9e6080830185612223565b612dab60a0830184612223565b979650505050505050565b6000604082019050612dcb600083018561253e565b612dd8602083018461253e565b9392505050565b7f496e76616c6964206c697374696e6720696e6465780000000000000000000000600082015250565b6000612e1560158361228f565b9150612e2082612ddf565b602082019050919050565b60006020820190508181036000830152612e4481612e08565b9050919050565b7f43616e6e6f742064656c65746520616e20696e616374697665206c697374696e60008201527f6700000000000000000000000000000000000000000000000000000000000000602082015250565b6000612ea760218361228f565b9150612eb282612e4b565b604082019050919050565b60006020820190508181036000830152612ed681612e9a565b9050919050565b600081905092915050565b6000612ef382612284565b612efd8185612edd565b9350612f0d8185602086016122a0565b80840191505092915050565b6000612f258284612ee8565b915081905092915050565b6000606082019050612f45600083018661253e565b612f526020830185612223565b612f5f6040830184612223565b949350505050565b6000612f72826121ad565b9150612f7d836121ad565b9250828201905080821115612f9557612f94612b84565b5b92915050565b600060a082019050612fb0600083018861247f565b612fbd602083018761247f565b612fca604083018661247f565b612fd76060830185612223565b612fe4608083018461253e565b9695505050505050565b6000608082019050613003600083018761247f565b61301060208301866123cc565b61301d604083018561247f565b61302a606083018461247f565b95945050505050565b7f4e487b7100000000000000000000000000000000000000000000000000000000600052602160045260246000fdfea26469706673582212200a000369528e8743791bc893d843902b9ec580c2a72e8fa933acae96966a35a064736f6c63430008180033",
  "linkReferences": {},
  "deployedLinkReferences": {}
}