{
  "_format": "hh-sol-artifact-1",
  "contractName": "CarbonToken",
  "sourceName": "contracts/CarbonToken.sol",
  "abi": [
    {
      "inputs": [
        {
          "internalType": "address",
          "name": "initialOwner",
          "type": "address"
        }
      ],
      "stateMutability": "nonpayable",
      "type": "constructor"
    },
    {
      "inputs": [],
      "name": "ECDSAInvalidSignature",
      "type": "error"
    },
    {
      "inputs": [
        {
          "internalType": "uint256",
          "name": "length",
          "type": "uint256"
        }
      ],
      "name": "ECDSAInvalidSignatureLength",
      "type": "error"
    },
    {
      "inputs": [
        {
          "internalType": "bytes32",
          "name": "s",
          "type": "bytes32"
        }
      ],
      "name": "ECDSAInvalidSignatureS",
      "type": "error"
    },
    {
      "inputs": [
        {
          "internalType": "address",
          "name": "spender",
          "type": "address"
        },
        {
          "internalType": "uint256",
          "name": "allowance",
          "type": "uint256"
        },
        {
          "internalType": "uint256",
          "name": "needed",
          "type": "uint256"
        }
      ],
      "name": "ERC20InsufficientAllowance",
      "type": "error"
    },
    {
      "inputs": [
        {
          "internalType": "address",
          "name": "sender",
          "type": "address"
        },
        {
          "internalType": "uint256",
          "name": "balance",
          "type": "uint256"
        },
        {
          "internalType": "uint256",
          "name": "needed",
          "type": "uint256"
        }
      ],
      "name": "ERC20InsufficientBalance",
      "type": "error"
    },
    {
      "inputs": [
        {
          "internalType": "address",
          "name": "approver",
          "type": "address"
        }
      ],
      "name": "ERC20InvalidApprover",
      "type": "error"
    },
    {
      "inputs": [
        {
          "internalType": "address",
          "name": "receiver",
          "type": "address"
        }
      ],
      "name": "ERC20InvalidReceiver",
      "type": "error"
    },
    {
      "inputs": [
        {
          "internalType": "address",
          "name": "sender",
          "type": "address"
        }
      ],
      "name": "ERC20InvalidSender",
      "type": "error"
    },
    {
      "inputs": [
        {
          "internalType": "address",
          "name": "spender",
          "type": "address"
        }
      ],
      "name": "ERC20InvalidSpender",
      "type": "error"
    },
    {
      "inputs": [
        {
          "internalType": "uint256",
          "name": "deadline",
          "type": "uint256"
        }
      ],
      "name": "ERC2612ExpiredSignature",
      "type": "error"
    },
    {
      "inputs": [
        {
          "internalType": "address",
          "name": "signer",
          "type": "address"
        },
        {
          "internalType": "address",
          "name": "owner",
          "type": "address"
        }
      ],
      "name": "ERC2612InvalidSigner",
      "type": "error"
    },
    {
      "inputs": [
        {
          "internalType": "address",
          "name": "account",
          "type": "address"
        },
        {
          "internalType": "uint256",
          "name": "currentNonce",
          "type": "uint256"
        }
      ],
      "name": "InvalidAccountNonce",
      "type": "error"
    },
    {
      "inputs": [],
      "name": "InvalidShortString",
      "type": "error"
    },
    {
      "inputs": [
        {
          "internalType": "address",
          "name": "owner",
          "type": "address"
        }
      ],
      "name": "OwnableInvalidOwner",
      "type": "error"
    },
    {
      "inputs": [
        {
          "internalType": "address",
          "name": "account",
          "type": "address"
        }
      ],
      "name": "OwnableUnauthorizedAccount",
      "type": "error"
    },
    {
      "inputs": [
        {
          "internalType": "string",
          "name": "str",
          "type": "string"
        }
      ],
      "name": "StringTooLong",
      "type": "error"
    },
    {
      "anonymous": false,
      "inputs": [
        {
          "indexed": true,
          "internalType": "address",
          "name": "owner",
          "type": "address"
        },
        {
          "indexed": true,
          "internalType": "address",
          "name": "spender",
          "type": "address"
        },
        {
          "indexed": false,
          "internalType": "uint256",
          "name": "value",
          "type": "uint256"
        }
      ],
      "name": "Approval",
      "type": "event"
    },
    {
      "anonymous": false,
      "inputs": [],
      "name": "EIP712DomainChanged",
      "type": "event"
    },
    {
      "anonymous": false,
      "inputs": [
        {
          "indexed": true,
          "internalType": "address",
          "name": "previousOwner",
          "type": "address"
        },
        {
          "indexed": true,
          "internalType": "address",
          "name": "newOwner",
          "type": "address"
        }
      ],
      "name": "OwnershipTransferred",
      "type": "event"
    },
    {
      "anonymous": false,
      "inputs": [
        {
          "indexed": true,
          "internalType": "address",
          "name": "seller",
          "type": "address"
        },
        {
          "indexed": false,
          "internalType": "uint256",
          "name": "amountCTKN",
          "type": "uint256"
        },
        {
          "indexed": false,
          "internalType": "uint256",
          "name": "priceETH",
          "type": "uint256"
        },
        {
          "indexed": false,
          "internalType": "uint256",
          "name": "listingIndex",
          "type": "uint256"
        }
      ],
      "name": "TokenListed",
      "type": "event"
    },
    {
      "anonymous": false,
      "inputs": [
        {
          "indexed": true,
          "internalType": "address",
          "name": "buyer",
          "type": "address"
        },
        {
          "indexed": true,
          "internalType": "address",
          "name": "seller",
          "type": "address"
        },
        {
          "indexed": false,
          "internalType": "uint256",
          "name": "amountCTKN",
          "type": "uint256"
        },
        {
          "indexed": false,
          "internalType": "uint256",
          "name": "priceETH",
          "type": "uint256"
        },
        {
          "indexed": false,
          "internalType": "uint256",
          "name": "listingIndex",
          "type": "uint256"
        }
      ],
      "name": "TokenPurchased",
      "type": "event"
    },
    {
      "anonymous": false,
      "inputs": [
        {
          "indexed": true,
          "internalType": "address",
          "name": "from",
          "type": "address"
        },
        {
          "indexed": true,
          "internalType": "address",
          "name": "to",
          "type": "address"
        },
        {
          "indexed": false,
          "internalType": "uint256",
          "name": "value",
          "type": "uint256"
        }
      ],
      "name": "Transfer",
      "type": "event"
    },
    {
      "inputs": [],
      "name": "DOMAIN_SEPARATOR",
      "outputs": [
        {
          "internalType": "bytes32",
          "name": "",
          "type": "bytes32"
        }
      ],
      "stateMutability": "view",
      "type": "function"
    },
    {
      "inputs": [
        {
          "internalType": "address",
          "name": "owner",
          "type": "address"
        },
        {
          "internalType": "address",
          "name": "spender",
          "type": "address"
        }
      ],
      "name": "allowance",
      "outputs": [
        {
          "internalType": "uint256",
          "name": "",
          "type": "uint256"
        }
      ],
      "stateMutability": "view",
      "type": "function"
    },
    {
      "inputs": [
        {
          "internalType": "address",
          "name": "spender",
          "type": "address"
        },
        {
          "internalType": "uint256",
          "name": "value",
          "type": "uint256"
        }
      ],
      "name": "approve",
      "outputs": [
        {
          "internalType": "bool",
          "name": "",
          "type": "bool"
        }
      ],
      "stateMutability": "nonpayable",
      "type": "function"
    },
    {
      "inputs": [
        {
          "internalType": "address",
          "name": "account",
          "type": "address"
        }
      ],
      "name": "balanceOf",
      "outputs": [
        {
          "internalType": "uint256",
          "name": "",
          "type": "uint256"
        }
      ],
      "stateMutability": "view",
      "type": "function"
    },
    {
      "inputs": [
        {
          "internalType": "uint256",
          "name": "value",
          "type": "uint256"
        }
      ],
      "name": "burn",
      "outputs": [],
      "stateMutability": "nonpayable",
      "type": "function"
    },
    {
      "inputs": [
        {
          "internalType": "address",
          "name": "account",
          "type": "address"
        },
        {
          "internalType": "uint256",
          "name": "value",
          "type": "uint256"
        }
      ],
      "name": "burnFrom",
      "outputs": [],
      "stateMutability": "nonpayable",
      "type": "function"
    },
    {
      "inputs": [
        {
          "internalType": "address",
          "name": "seller",
          "type": "address"
        },
        {
          "internalType": "uint256",
          "name": "listingIndex",
          "type": "uint256"
        }
      ],
      "name": "buyToken",
      "outputs": [],
      "stateMutability": "payable",
      "type": "function"
    },
    {
      "inputs": [],
      "name": "decimals",
      "outputs": [
        {
          "internalType": "uint8",
          "name": "",
          "type": "uint8"
        }
      ],
      "stateMutability": "view",
      "type": "function"
    },
    {
      "inputs": [],
      "name": "eip712Domain",
      "outputs": [
        {
          "internalType": "bytes1",
          "name": "fields",
          "type": "bytes1"
        },
        {
          "internalType": "string",
          "name": "name",
          "type": "string"
        },
        {
          "internalType": "string",
          "name": "version",
          "type": "string"
        },
        {
          "internalType": "uint256",
          "name": "chainId",
          "type": "uint256"
        },
        {
          "internalType": "address",
          "name": "verifyingContract",
          "type": "address"
        },
        {
          "internalType": "bytes32",
          "name": "salt",
          "type": "bytes32"
        },
        {
          "internalType": "uint256[]",
          "name": "extensions",
          "type": "uint256[]"
        }
      ],
      "stateMutability": "view",
      "type": "function"
    },
    {
      "inputs": [
        {
          "internalType": "uint256",
          "name": "amountCTKN",
          "type": "uint256"
        },
        {
          "internalType": "uint256",
          "name": "priceETH",
          "type": "uint256"
        }
      ],
      "name": "listTokenForSale",
      "outputs": [],
      "stateMutability": "nonpayable",
      "type": "function"
    },
    {
      "inputs": [
        {
          "internalType": "address",
          "name": "",
          "type": "address"
        },
        {
          "internalType": "uint256",
          "name": "",
          "type": "uint256"
        }
      ],
      "name": "listings",
      "outputs": [
        {
          "internalType": "address",
          "name": "seller",
          "type": "address"
        },
        {
          "internalType": "uint256",
          "name": "amountCTKN",
          "type": "uint256"
        },
        {
          "internalType": "uint256",
          "name": "priceETH",
          "type": "uint256"
        },
        {
          "internalType": "bool",
          "name": "active",
          "type": "bool"
        }
      ],
      "stateMutability": "view",
      "type": "function"
    },
    {
      "inputs": [
        {
          "internalType": "address",
          "name": "to",
          "type": "address"
        },
        {
          "internalType": "uint256",
          "name": "amount",
          "type": "uint256"
        }
      ],
      "name": "mint",
      "outputs": [],
      "stateMutability": "nonpayable",
      "type": "function"
    },
    {
      "inputs": [],
      "name": "name",
      "outputs": [
        {
          "internalType": "string",
          "name": "",
          "type": "string"
        }
      ],
      "stateMutability": "view",
      "type": "function"
    },
    {
      "inputs": [
        {
          "internalType": "address",
          "name": "owner",
          "type": "address"
        }
      ],
      "name": "nonces",
      "outputs": [
        {
          "internalType": "uint256",
          "name": "",
          "type": "uint256"
        }
      ],
      "stateMutability": "view",
      "type": "function"
    },
    {
      "inputs": [],
      "name": "owner",
      "outputs": [
        {
          "internalType": "address",
          "name": "",
          "type": "address"
        }
      ],
      "stateMutability": "view",
      "type": "function"
    },
    {
      "inputs": [
        {
          "internalType": "address",
          "name": "owner",
          "type": "address"
        },
        {
          "internalType": "address",
          "name": "spender",
          "type": "address"
        },
        {
          "internalType": "uint256",
          "name": "value",
          "type": "uint256"
        },
        {
          "internalType": "uint256",
          "name": "deadline",
          "type": "uint256"
        },
        {
          "internalType": "uint8",
          "name": "v",
          "type": "uint8"
        },
        {
          "internalType": "bytes32",
          "name": "r",
          "type": "bytes32"
        },
        {
          "internalType": "bytes32",
          "name": "s",
          "type": "bytes32"
        }
      ],
      "name": "permit",
      "outputs": [],
      "stateMutability": "nonpayable",
      "type": "function"
    },
    {
      "inputs": [],
      "name": "renounceOwnership",
      "outputs": [],
      "stateMutability": "nonpayable",
      "type": "function"
    },
    {
      "inputs": [],
      "name": "symbol",
      "outputs": [
        {
          "internalType": "string",
          "name": "",
          "type": "string"
        }
      ],
      "stateMutability": "view",
      "type": "function"
    },
    {
      "inputs": [],
      "name": "totalSupply",
      "outputs": [
        {
          "internalType": "uint256",
          "name": "",
          "type": "uint256"
        }
      ],
      "stateMutability": "view",
      "type": "function"
    },
    {
      "inputs": [
        {
          "internalType": "address",
          "name": "to",
          "type": "address"
        },
        {
          "internalType": "uint256",
          "name": "value",
          "type": "uint256"
        }
      ],
      "name": "transfer",
      "outputs": [
        {
          "internalType": "bool",
          "name": "",
          "type": "bool"
        }
      ],
      "stateMutability": "nonpayable",
      "type": "function"
    },
    {
      "inputs": [
        {
          "internalType": "address",
          "name": "recipient",
          "type": "address"
        },
        {
          "internalType": "uint256",
          "name": "amountCTKN",
          "type": "uint256"
        },
        {
          "internalType": "uint256",
          "name": "amountETH",
          "type": "uint256"
        }
      ],
      "name": "transferCTKNWithETHBack",
      "outputs": [],
      "stateMutability": "payable",
      "type": "function"
    },
    {
      "inputs": [
        {
          "internalType": "address",
          "name": "from",
          "type": "address"
        },
        {
          "internalType": "address",
          "name": "to",
          "type": "address"
        },
        {
          "internalType": "uint256",
          "name": "value",
          "type": "uint256"
        }
      ],
      "name": "transferFrom",
      "outputs": [
        {
          "internalType": "bool",
          "name": "",
          "type": "bool"
        }
      ],
      "stateMutability": "nonpayable",
      "type": "function"
    },
    {
      "inputs": [
        {
          "internalType": "address",
          "name": "newOwner",
          "type": "address"
        }
      ],
      "name": "transferOwnership",
      "outputs": [],
      "stateMutability": "nonpayable",
      "type": "function"
    },
    {
      "stateMutability": "payable",
      "type": "receive"
    }
  ],
  "bytecode": "0x6101606040523480156200001257600080fd5b5060405162003d5c38038062003d5c8339818101604052810190620000389190620007d7565b6040518060400160405280600b81526020017f436172626f6e546f6b656e000000000000000000000000000000000000000000815250806040518060400160405280600181526020017f3100000000000000000000000000000000000000000000000000000000000000815250836040518060400160405280600b81526020017f436172626f6e546f6b656e0000000000000000000000000000000000000000008152506040518060400160405280600481526020017f43544b4e00000000000000000000000000000000000000000000000000000000815250816003908162000123919062000a83565b50806004908162000135919062000a83565b505050600073ffffffffffffffffffffffffffffffffffffffff168173ffffffffffffffffffffffffffffffffffffffff1603620001ad5760006040517f1e4fbdf7000000000000000000000000000000000000000000000000000000008152600401620001a4919062000b7b565b60405180910390fd5b620001be81620002b560201b60201c565b50620001d56006836200037b60201b90919060201c565b6101208181525050620001f36007826200037b60201b90919060201c565b6101408181525050818051906020012060e08181525050808051906020012061010081815250504660a0818152505062000232620003d360201b60201c565b608081815250503073ffffffffffffffffffffffffffffffffffffffff1660c08173ffffffffffffffffffffffffffffffffffffffff1681525050505050620002ae33620002856200043060201b60201c565b600a62000293919062000d28565b612710620002a2919062000d79565b6200043960201b60201c565b5062001037565b6000600560009054906101000a900473ffffffffffffffffffffffffffffffffffffffff16905081600560006101000a81548173ffffffffffffffffffffffffffffffffffffffff021916908373ffffffffffffffffffffffffffffffffffffffff1602179055508173ffffffffffffffffffffffffffffffffffffffff168173ffffffffffffffffffffffffffffffffffffffff167f8be0079c531659141344cd1fd0a4f28419497f9722a3daafe3b4186f6b6457e060405160405180910390a35050565b6000602083511015620003a1576200039983620004c660201b60201c565b9050620003cd565b82620003b3836200053360201b60201c565b6000019081620003c4919062000a83565b5060ff60001b90505b92915050565b60007f8b73c3c69bb8fe3d512ecc4cf759cc79239f7b179b0ffacaa9a75d522b39400f60e0516101005146306040516020016200041595949392919062000df0565b60405160208183030381529060405280519060200120905090565b60006012905090565b600073ffffffffffffffffffffffffffffffffffffffff168273ffffffffffffffffffffffffffffffffffffffff1603620004ae5760006040517fec442f05000000000000000000000000000000000000000000000000000000008152600401620004a5919062000b7b565b60405180910390fd5b620004c2600083836200053d60201b60201c565b5050565b600080829050601f815111156200051657826040517f305a27a90000000000000000000000000000000000000000000000000000000081526004016200050d919062000edc565b60405180910390fd5b805181620005249062000f32565b60001c1760001b915050919050565b6000819050919050565b600073ffffffffffffffffffffffffffffffffffffffff168373ffffffffffffffffffffffffffffffffffffffff16036200059357806002600082825462000586919062000fa2565b9250508190555062000669565b60008060008573ffffffffffffffffffffffffffffffffffffffff1673ffffffffffffffffffffffffffffffffffffffff1681526020019081526020016000205490508181101562000622578381836040517fe450d38c000000000000000000000000000000000000000000000000000000008152600401620006199392919062000fdd565b60405180910390fd5b8181036000808673ffffffffffffffffffffffffffffffffffffffff1673ffffffffffffffffffffffffffffffffffffffff16815260200190815260200160002081905550505b600073ffffffffffffffffffffffffffffffffffffffff168273ffffffffffffffffffffffffffffffffffffffff1603620006b4578060026000828254039250508190555062000701565b806000808473ffffffffffffffffffffffffffffffffffffffff1673ffffffffffffffffffffffffffffffffffffffff168152602001908152602001600020600082825401925050819055505b8173ffffffffffffffffffffffffffffffffffffffff168373ffffffffffffffffffffffffffffffffffffffff167fddf252ad1be2c89b69c2b068fc378daa952ba7f163c4a11628f55a4df523b3ef836040516200076091906200101a565b60405180910390a3505050565b600080fd5b600073ffffffffffffffffffffffffffffffffffffffff82169050919050565b60006200079f8262000772565b9050919050565b620007b18162000792565b8114620007bd57600080fd5b50565b600081519050620007d181620007a6565b92915050565b600060208284031215620007f057620007ef6200076d565b5b60006200080084828501620007c0565b91505092915050565b600081519050919050565b7f4e487b7100000000000000000000000000000000000000000000000000000000600052604160045260246000fd5b7f4e487b7100000000000000000000000000000000000000000000000000000000600052602260045260246000fd5b600060028204905060018216806200088b57607f821691505b602082108103620008a157620008a062000843565b5b50919050565b60008190508160005260206000209050919050565b60006020601f8301049050919050565b600082821b905092915050565b6000600883026200090b7fffffffffffffffffffffffffffffffffffffffffffffffffffffffffffffffff82620008cc565b620009178683620008cc565b95508019841693508086168417925050509392505050565b6000819050919050565b6000819050919050565b6000620009646200095e62000958846200092f565b62000939565b6200092f565b9050919050565b6000819050919050565b620009808362000943565b620009986200098f826200096b565b848454620008d9565b825550505050565b600090565b620009af620009a0565b620009bc81848462000975565b505050565b5b81811015620009e457620009d8600082620009a5565b600181019050620009c2565b5050565b601f82111562000a3357620009fd81620008a7565b62000a0884620008bc565b8101602085101562000a18578190505b62000a3062000a2785620008bc565b830182620009c1565b50505b505050565b600082821c905092915050565b600062000a586000198460080262000a38565b1980831691505092915050565b600062000a73838362000a45565b9150826002028217905092915050565b62000a8e8262000809565b67ffffffffffffffff81111562000aaa5762000aa962000814565b5b62000ab6825462000872565b62000ac3828285620009e8565b600060209050601f83116001811462000afb576000841562000ae6578287015190505b62000af2858262000a65565b86555062000b62565b601f19841662000b0b86620008a7565b60005b8281101562000b355784890151825560018201915060208501945060208101905062000b0e565b8683101562000b55578489015162000b51601f89168262000a45565b8355505b6001600288020188555050505b505050505050565b62000b758162000792565b82525050565b600060208201905062000b92600083018462000b6a565b92915050565b7f4e487b7100000000000000000000000000000000000000000000000000000000600052601160045260246000fd5b60008160011c9050919050565b6000808291508390505b600185111562000c265780860481111562000bfe5762000bfd62000b98565b5b600185161562000c0e5780820291505b808102905062000c1e8562000bc7565b945062000bde565b94509492505050565b60008262000c41576001905062000d14565b8162000c51576000905062000d14565b816001811462000c6a576002811462000c755762000cab565b600191505062000d14565b60ff84111562000c8a5762000c8962000b98565b5b8360020a91508482111562000ca45762000ca362000b98565b5b5062000d14565b5060208310610133831016604e8410600b841016171562000ce55782820a90508381111562000cdf5762000cde62000b98565b5b62000d14565b62000cf4848484600162000bd4565b9250905081840481111562000d0e5762000d0d62000b98565b5b81810290505b9392505050565b600060ff82169050919050565b600062000d35826200092f565b915062000d428362000d1b565b925062000d717fffffffffffffffffffffffffffffffffffffffffffffffffffffffffffffffff848462000c2f565b905092915050565b600062000d86826200092f565b915062000d93836200092f565b925082820262000da3816200092f565b9150828204841483151762000dbd5762000dbc62000b98565b5b5092915050565b6000819050919050565b62000dd98162000dc4565b82525050565b62000dea816200092f565b82525050565b600060a08201905062000e07600083018862000dce565b62000e16602083018762000dce565b62000e25604083018662000dce565b62000e34606083018562000ddf565b62000e43608083018462000b6a565b9695505050505050565b600082825260208201905092915050565b60005b8381101562000e7e57808201518184015260208101905062000e61565b60008484015250505050565b6000601f19601f8301169050919050565b600062000ea88262000809565b62000eb4818562000e4d565b935062000ec681856020860162000e5e565b62000ed18162000e8a565b840191505092915050565b6000602082019050818103600083015262000ef8818462000e9b565b905092915050565b600081519050919050565b6000819050602082019050919050565b600062000f29825162000dc4565b80915050919050565b600062000f3f8262000f00565b8262000f4b8462000f0b565b905062000f588162000f1b565b9250602082101562000f9b5762000f967fffffffffffffffffffffffffffffffffffffffffffffffffffffffffffffffff83602003600802620008cc565b831692505b5050919050565b600062000faf826200092f565b915062000fbc836200092f565b925082820190508082111562000fd75762000fd662000b98565b5b92915050565b600060608201905062000ff4600083018662000b6a565b62001003602083018562000ddf565b62001012604083018462000ddf565b949350505050565b600060208201905062001031600083018462000ddf565b92915050565b60805160a05160c05160e051610100516101205161014051612cca62001092600039600061166c0152600061163101526000611b8101526000611b60015260006112db015260006113310152600061135a0152612cca6000f3fe6080604052600436106101435760003560e01c806368f8fc10116100b65780638da5cb5b1161006f5780638da5cb5b1461045357806395d89b411461047e578063a9059cbb146104a9578063d505accf146104e6578063dd62ed3e1461050f578063f2fde38b1461054c5761014a565b806368f8fc101461034c57806370a0823114610368578063715018a6146103a557806379cc6790146103bc5780637ecebe00146103e557806384b0196e146104225761014a565b806323b872dd1161010857806323b872dd1461023e5780632406e6771461027b578063313ce567146102a45780633644e515146102cf57806340c10f19146102fa57806342966c68146103235761014a565b806207df301461014f57806303f72ba21461018f57806306fdde03146101ab578063095ea7b3146101d657806318160ddd146102135761014a565b3661014a57005b600080fd5b34801561015b57600080fd5b5061017660048036038101906101719190612077565b610575565b60405161018694939291906120f0565b60405180910390f35b6101a960048036038101906101a49190612135565b6105ef565b005b3480156101b757600080fd5b506101c06106ef565b6040516101cd9190612218565b60405180910390f35b3480156101e257600080fd5b506101fd60048036038101906101f89190612077565b610781565b60405161020a919061223a565b60405180910390f35b34801561021f57600080fd5b506102286107a4565b6040516102359190612255565b60405180910390f35b34801561024a57600080fd5b5061026560048036038101906102609190612270565b6107ae565b604051610272919061223a565b60405180910390f35b34801561028757600080fd5b506102a2600480360381019061029d91906122c3565b6107dd565b005b3480156102b057600080fd5b506102b96109e5565b6040516102c6919061231f565b60405180910390f35b3480156102db57600080fd5b506102e46109ee565b6040516102f19190612353565b60405180910390f35b34801561030657600080fd5b50610321600480360381019061031c9190612077565b6109fd565b005b34801561032f57600080fd5b5061034a6004803603810190610345919061236e565b610a13565b005b61036660048036038101906103619190612077565b610a27565b005b34801561037457600080fd5b5061038f600480360381019061038a919061239b565b610cc9565b60405161039c9190612255565b60405180910390f35b3480156103b157600080fd5b506103ba610d11565b005b3480156103c857600080fd5b506103e360048036038101906103de9190612077565b610d25565b005b3480156103f157600080fd5b5061040c6004803603810190610407919061239b565b610d45565b6040516104199190612255565b60405180910390f35b34801561042e57600080fd5b50610437610d57565b60405161044a97969594939291906124c1565b60405180910390f35b34801561045f57600080fd5b50610468610e01565b6040516104759190612545565b60405180910390f35b34801561048a57600080fd5b50610493610e2b565b6040516104a09190612218565b60405180910390f35b3480156104b557600080fd5b506104d060048036038101906104cb9190612077565b610ebd565b6040516104dd919061223a565b60405180910390f35b3480156104f257600080fd5b5061050d600480360381019061050891906125b8565b610ee0565b005b34801561051b57600080fd5b506105366004803603810190610531919061265a565b611028565b6040516105439190612255565b60405180910390f35b34801561055857600080fd5b50610573600480360381019061056e919061239b565b6110af565b005b6009602052816000526040600020818154811061059157600080fd5b9060005260206000209060040201600091509150508060000160009054906101000a900473ffffffffffffffffffffffffffffffffffffffff16908060010154908060020154908060030160009054906101000a900460ff16905084565b80471015610632576040517f08c379a00000000000000000000000000000000000000000000000000000000081526004016106299061270c565b60405180910390fd5b61063d338484611135565b60008373ffffffffffffffffffffffffffffffffffffffff16826040516106639061275d565b60006040518083038185875af1925050503d80600081146106a0576040519150601f19603f3d011682016040523d82523d6000602084013e6106a5565b606091505b50509050806106e9576040517f08c379a00000000000000000000000000000000000000000000000000000000081526004016106e0906127e4565b60405180910390fd5b50505050565b6060600380546106fe90612833565b80601f016020809104026020016040519081016040528092919081815260200182805461072a90612833565b80156107775780601f1061074c57610100808354040283529160200191610777565b820191906000526020600020905b81548152906001019060200180831161075a57829003601f168201915b5050505050905090565b60008061078c611229565b9050610799818585611231565b600191505092915050565b6000600254905090565b6000806107b9611229565b90506107c6858285611243565b6107d1858585611135565b60019150509392505050565b816107e733610cc9565b1015610828576040517f08c379a000000000000000000000000000000000000000000000000000000000815260040161081f906128b0565b60405180910390fd5b6000600960003373ffffffffffffffffffffffffffffffffffffffff1673ffffffffffffffffffffffffffffffffffffffff168152602001908152602001600020805490509050600960003373ffffffffffffffffffffffffffffffffffffffff1673ffffffffffffffffffffffffffffffffffffffff16815260200190815260200160002060405180608001604052803373ffffffffffffffffffffffffffffffffffffffff16815260200185815260200184815260200160011515815250908060018154018082558091505060019003906000526020600020906004020160009091909190915060008201518160000160006101000a81548173ffffffffffffffffffffffffffffffffffffffff021916908373ffffffffffffffffffffffffffffffffffffffff160217905550602082015181600101556040820151816002015560608201518160030160006101000a81548160ff02191690831515021790555050503373ffffffffffffffffffffffffffffffffffffffff167fda2d7fa13c443a4ce51bb68b8ce92f41fac2c10d9d5bdb6a9e9a91429020b7c38484846040516109d8939291906128d0565b60405180910390a2505050565b60006012905090565b60006109f86112d7565b905090565b610a0561138e565b610a0f8282611415565b5050565b610a24610a1e611229565b82611497565b50565b6000600960008473ffffffffffffffffffffffffffffffffffffffff1673ffffffffffffffffffffffffffffffffffffffff1681526020019081526020016000208281548110610a7a57610a79612907565b5b906000526020600020906004020190508060030160009054906101000a900460ff16610adb576040517f08c379a0000000000000000000000000000000000000000000000000000000008152600401610ad290612982565b60405180910390fd5b34816002015414610b21576040517f08c379a0000000000000000000000000000000000000000000000000000000008152600401610b18906129ee565b60405180910390fd5b8060010154610b538260000160009054906101000a900473ffffffffffffffffffffffffffffffffffffffff16610cc9565b1015610b94576040517f08c379a0000000000000000000000000000000000000000000000000000000008152600401610b8b90612a5a565b60405180910390fd5b610bc78160000160009054906101000a900473ffffffffffffffffffffffffffffffffffffffff16338360010154611135565b8060000160009054906101000a900473ffffffffffffffffffffffffffffffffffffffff1673ffffffffffffffffffffffffffffffffffffffff166108fc82600201549081150290604051600060405180830381858888f19350505050158015610c35573d6000803e3d6000fd5b5060008160030160006101000a81548160ff0219169083151502179055508273ffffffffffffffffffffffffffffffffffffffff163373ffffffffffffffffffffffffffffffffffffffff167f0a9521815fb3c5bc7dd6f4c9f89dc270322e46b945b104c18981f81c3f2cd1aa8360010154846002015486604051610cbc939291906128d0565b60405180910390a3505050565b60008060008373ffffffffffffffffffffffffffffffffffffffff1673ffffffffffffffffffffffffffffffffffffffff168152602001908152602001600020549050919050565b610d1961138e565b610d236000611519565b565b610d3782610d31611229565b83611243565b610d418282611497565b5050565b6000610d50826115df565b9050919050565b600060608060008060006060610d6b611628565b610d73611663565b46306000801b600067ffffffffffffffff811115610d9457610d93612a7a565b5b604051908082528060200260200182016040528015610dc25781602001602082028036833780820191505090505b507f0f00000000000000000000000000000000000000000000000000000000000000959493929190965096509650965096509650965090919293949596565b6000600560009054906101000a900473ffffffffffffffffffffffffffffffffffffffff16905090565b606060048054610e3a90612833565b80601f0160208091040260200160405190810160405280929190818152602001828054610e6690612833565b8015610eb35780601f10610e8857610100808354040283529160200191610eb3565b820191906000526020600020905b815481529060010190602001808311610e9657829003601f168201915b5050505050905090565b600080610ec8611229565b9050610ed5818585611135565b600191505092915050565b83421115610f2557836040517f62791302000000000000000000000000000000000000000000000000000000008152600401610f1c9190612255565b60405180910390fd5b60007f6e71edae12b1b97f4d1f60370fef10105fa2faae0126114a169c64845d6126c9888888610f548c61169e565b89604051602001610f6a96959493929190612aa9565b6040516020818303038152906040528051906020012090506000610f8d826116f5565b90506000610f9d8287878761170f565b90508973ffffffffffffffffffffffffffffffffffffffff168173ffffffffffffffffffffffffffffffffffffffff161461101157808a6040517f4b800e46000000000000000000000000000000000000000000000000000000008152600401611008929190612b0a565b60405180910390fd5b61101c8a8a8a611231565b50505050505050505050565b6000600160008473ffffffffffffffffffffffffffffffffffffffff1673ffffffffffffffffffffffffffffffffffffffff16815260200190815260200160002060008373ffffffffffffffffffffffffffffffffffffffff1673ffffffffffffffffffffffffffffffffffffffff16815260200190815260200160002054905092915050565b6110b761138e565b600073ffffffffffffffffffffffffffffffffffffffff168173ffffffffffffffffffffffffffffffffffffffff16036111295760006040517f1e4fbdf70000000000000000000000000000000000000000000000000000000081526004016111209190612545565b60405180910390fd5b61113281611519565b50565b600073ffffffffffffffffffffffffffffffffffffffff168373ffffffffffffffffffffffffffffffffffffffff16036111a75760006040517f96c6fd1e00000000000000000000000000000000000000000000000000000000815260040161119e9190612545565b60405180910390fd5b600073ffffffffffffffffffffffffffffffffffffffff168273ffffffffffffffffffffffffffffffffffffffff16036112195760006040517fec442f050000000000000000000000000000000000000000000000000000000081526004016112109190612545565b60405180910390fd5b61122483838361173f565b505050565b600033905090565b61123e8383836001611964565b505050565b600061124f8484611028565b90507fffffffffffffffffffffffffffffffffffffffffffffffffffffffffffffffff81146112d157818110156112c1578281836040517ffb8f41b20000000000000000000000000000000000000000000000000000000081526004016112b893929190612b33565b60405180910390fd5b6112d084848484036000611964565b5b50505050565b60007f000000000000000000000000000000000000000000000000000000000000000073ffffffffffffffffffffffffffffffffffffffff163073ffffffffffffffffffffffffffffffffffffffff1614801561135357507f000000000000000000000000000000000000000000000000000000000000000046145b15611380577f0000000000000000000000000000000000000000000000000000000000000000905061138b565b611388611b3b565b90505b90565b611396611229565b73ffffffffffffffffffffffffffffffffffffffff166113b4610e01565b73ffffffffffffffffffffffffffffffffffffffff1614611413576113d7611229565b6040517f118cdaa700000000000000000000000000000000000000000000000000000000815260040161140a9190612545565b60405180910390fd5b565b600073ffffffffffffffffffffffffffffffffffffffff168273ffffffffffffffffffffffffffffffffffffffff16036114875760006040517fec442f0500000000000000000000000000000000000000000000000000000000815260040161147e9190612545565b60405180910390fd5b6114936000838361173f565b5050565b600073ffffffffffffffffffffffffffffffffffffffff168273ffffffffffffffffffffffffffffffffffffffff16036115095760006040517f96c6fd1e0000000000000000000000000000000000000000000000000000000081526004016115009190612545565b60405180910390fd5b6115158260008361173f565b5050565b6000600560009054906101000a900473ffffffffffffffffffffffffffffffffffffffff16905081600560006101000a81548173ffffffffffffffffffffffffffffffffffffffff021916908373ffffffffffffffffffffffffffffffffffffffff1602179055508173ffffffffffffffffffffffffffffffffffffffff168173ffffffffffffffffffffffffffffffffffffffff167f8be0079c531659141344cd1fd0a4f28419497f9722a3daafe3b4186f6b6457e060405160405180910390a35050565b6000600860008373ffffffffffffffffffffffffffffffffffffffff1673ffffffffffffffffffffffffffffffffffffffff168152602001908152602001600020549050919050565b606061165e60067f0000000000000000000000000000000000000000000000000000000000000000611bd190919063ffffffff16565b905090565b606061169960077f0000000000000000000000000000000000000000000000000000000000000000611bd190919063ffffffff16565b905090565b6000600860008373ffffffffffffffffffffffffffffffffffffffff1673ffffffffffffffffffffffffffffffffffffffff1681526020019081526020016000206000815480929190600101919050559050919050565b60006117086117026112d7565b83611c81565b9050919050565b60008060008061172188888888611cc2565b9250925092506117318282611db6565b829350505050949350505050565b600073ffffffffffffffffffffffffffffffffffffffff168373ffffffffffffffffffffffffffffffffffffffff16036117915780600260008282546117859190612b99565b92505081905550611864565b60008060008573ffffffffffffffffffffffffffffffffffffffff1673ffffffffffffffffffffffffffffffffffffffff1681526020019081526020016000205490508181101561181d578381836040517fe450d38c00000000000000000000000000000000000000000000000000000000815260040161181493929190612b33565b60405180910390fd5b8181036000808673ffffffffffffffffffffffffffffffffffffffff1673ffffffffffffffffffffffffffffffffffffffff16815260200190815260200160002081905550505b600073ffffffffffffffffffffffffffffffffffffffff168273ffffffffffffffffffffffffffffffffffffffff16036118ad57806002600082825403925050819055506118fa565b806000808473ffffffffffffffffffffffffffffffffffffffff1673ffffffffffffffffffffffffffffffffffffffff168152602001908152602001600020600082825401925050819055505b8173ffffffffffffffffffffffffffffffffffffffff168373ffffffffffffffffffffffffffffffffffffffff167fddf252ad1be2c89b69c2b068fc378daa952ba7f163c4a11628f55a4df523b3ef836040516119579190612255565b60405180910390a3505050565b600073ffffffffffffffffffffffffffffffffffffffff168473ffffffffffffffffffffffffffffffffffffffff16036119d65760006040517fe602df050000000000000000000000000000000000000000000000000000000081526004016119cd9190612545565b60405180910390fd5b600073ffffffffffffffffffffffffffffffffffffffff168373ffffffffffffffffffffffffffffffffffffffff1603611a485760006040517f94280d62000000000000000000000000000000000000000000000000000000008152600401611a3f9190612545565b60405180910390fd5b81600160008673ffffffffffffffffffffffffffffffffffffffff1673ffffffffffffffffffffffffffffffffffffffff16815260200190815260200160002060008573ffffffffffffffffffffffffffffffffffffffff1673ffffffffffffffffffffffffffffffffffffffff168152602001908152602001600020819055508015611b35578273ffffffffffffffffffffffffffffffffffffffff168473ffffffffffffffffffffffffffffffffffffffff167f8c5be1e5ebec7d5bd14f71427d1e84f3dd0314c0f7b2291e5b200ac8c7c3b92584604051611b2c9190612255565b60405180910390a35b50505050565b60007f8b73c3c69bb8fe3d512ecc4cf759cc79239f7b179b0ffacaa9a75d522b39400f7f00000000000000000000000000000000000000000000000000000000000000007f00000000000000000000000000000000000000000000000000000000000000004630604051602001611bb6959493929190612bcd565b60405160208183030381529060405280519060200120905090565b606060ff60001b8314611bee57611be783611f1a565b9050611c7b565b818054611bfa90612833565b80601f0160208091040260200160405190810160405280929190818152602001828054611c2690612833565b8015611c735780601f10611c4857610100808354040283529160200191611c73565b820191906000526020600020905b815481529060010190602001808311611c5657829003601f168201915b505050505090505b92915050565b60006040517f190100000000000000000000000000000000000000000000000000000000000081528360028201528260228201526042812091505092915050565b60008060007f7fffffffffffffffffffffffffffffff5d576e7357a4501ddfe92f46681b20a08460001c1115611d02576000600385925092509250611dac565b600060018888888860405160008152602001604052604051611d279493929190612c20565b6020604051602081039080840390855afa158015611d49573d6000803e3d6000fd5b505050602060405103519050600073ffffffffffffffffffffffffffffffffffffffff168173ffffffffffffffffffffffffffffffffffffffff1603611d9d57600060016000801b93509350935050611dac565b8060008060001b935093509350505b9450945094915050565b60006003811115611dca57611dc9612c65565b5b826003811115611ddd57611ddc612c65565b5b0315611f165760016003811115611df757611df6612c65565b5b826003811115611e0a57611e09612c65565b5b03611e41576040517ff645eedf00000000000000000000000000000000000000000000000000000000815260040160405180910390fd5b60026003811115611e5557611e54612c65565b5b826003811115611e6857611e67612c65565b5b03611ead578060001c6040517ffce698f7000000000000000000000000000000000000000000000000000000008152600401611ea49190612255565b60405180910390fd5b600380811115611ec057611ebf612c65565b5b826003811115611ed357611ed2612c65565b5b03611f1557806040517fd78bce0c000000000000000000000000000000000000000000000000000000008152600401611f0c9190612353565b60405180910390fd5b5b5050565b60606000611f2783611f8e565b90506000602067ffffffffffffffff811115611f4657611f45612a7a565b5b6040519080825280601f01601f191660200182016040528015611f785781602001600182028036833780820191505090505b5090508181528360208201528092505050919050565b60008060ff8360001c169050601f811115611fd5576040517fb3512b0c00000000000000000000000000000000000000000000000000000000815260040160405180910390fd5b80915050919050565b600080fd5b600073ffffffffffffffffffffffffffffffffffffffff82169050919050565b600061200e82611fe3565b9050919050565b61201e81612003565b811461202957600080fd5b50565b60008135905061203b81612015565b92915050565b6000819050919050565b61205481612041565b811461205f57600080fd5b50565b6000813590506120718161204b565b92915050565b6000806040838503121561208e5761208d611fde565b5b600061209c8582860161202c565b92505060206120ad85828601612062565b9150509250929050565b6120c081612003565b82525050565b6120cf81612041565b82525050565b60008115159050919050565b6120ea816120d5565b82525050565b600060808201905061210560008301876120b7565b61211260208301866120c6565b61211f60408301856120c6565b61212c60608301846120e1565b95945050505050565b60008060006060848603121561214e5761214d611fde565b5b600061215c8682870161202c565b935050602061216d86828701612062565b925050604061217e86828701612062565b9150509250925092565b600081519050919050565b600082825260208201905092915050565b60005b838110156121c25780820151818401526020810190506121a7565b60008484015250505050565b6000601f19601f8301169050919050565b60006121ea82612188565b6121f48185612193565b93506122048185602086016121a4565b61220d816121ce565b840191505092915050565b6000602082019050818103600083015261223281846121df565b905092915050565b600060208201905061224f60008301846120e1565b92915050565b600060208201905061226a60008301846120c6565b92915050565b60008060006060848603121561228957612288611fde565b5b60006122978682870161202c565b93505060206122a88682870161202c565b92505060406122b986828701612062565b9150509250925092565b600080604083850312156122da576122d9611fde565b5b60006122e885828601612062565b92505060206122f985828601612062565b9150509250929050565b600060ff82169050919050565b61231981612303565b82525050565b60006020820190506123346000830184612310565b92915050565b6000819050919050565b61234d8161233a565b82525050565b60006020820190506123686000830184612344565b92915050565b60006020828403121561238457612383611fde565b5b600061239284828501612062565b91505092915050565b6000602082840312156123b1576123b0611fde565b5b60006123bf8482850161202c565b91505092915050565b60007fff0000000000000000000000000000000000000000000000000000000000000082169050919050565b6123fd816123c8565b82525050565b600081519050919050565b600082825260208201905092915050565b6000819050602082019050919050565b61243881612041565b82525050565b600061244a838361242f565b60208301905092915050565b6000602082019050919050565b600061246e82612403565b612478818561240e565b93506124838361241f565b8060005b838110156124b457815161249b888261243e565b97506124a683612456565b925050600181019050612487565b5085935050505092915050565b600060e0820190506124d6600083018a6123f4565b81810360208301526124e881896121df565b905081810360408301526124fc81886121df565b905061250b60608301876120c6565b61251860808301866120b7565b61252560a0830185612344565b81810360c08301526125378184612463565b905098975050505050505050565b600060208201905061255a60008301846120b7565b92915050565b61256981612303565b811461257457600080fd5b50565b60008135905061258681612560565b92915050565b6125958161233a565b81146125a057600080fd5b50565b6000813590506125b28161258c565b92915050565b600080600080600080600060e0888a0312156125d7576125d6611fde565b5b60006125e58a828b0161202c565b97505060206125f68a828b0161202c565b96505060406126078a828b01612062565b95505060606126188a828b01612062565b94505060806126298a828b01612577565b93505060a061263a8a828b016125a3565b92505060c061264b8a828b016125a3565b91505092959891949750929550565b6000806040838503121561267157612670611fde565b5b600061267f8582860161202c565b92505060206126908582860161202c565b9150509250929050565b7f436f6e747261637420646f6573206e6f74206861766520656e6f75676820455460008201527f4800000000000000000000000000000000000000000000000000000000000000602082015250565b60006126f6602183612193565b91506127018261269a565b604082019050919050565b60006020820190508181036000830152612725816126e9565b9050919050565b600081905092915050565b50565b600061274760008361272c565b915061275282612737565b600082019050919050565b60006127688261273a565b9150819050919050565b7f4661696c656420746f2073656e6420455448206261636b20746f2073656e646560008201527f7200000000000000000000000000000000000000000000000000000000000000602082015250565b60006127ce602183612193565b91506127d982612772565b604082019050919050565b600060208201905081810360008301526127fd816127c1565b9050919050565b7f4e487b7100000000000000000000000000000000000000000000000000000000600052602260045260246000fd5b6000600282049050600182168061284b57607f821691505b60208210810361285e5761285d612804565b5b50919050565b7f496e73756666696369656e742043544b4e2062616c616e636500000000000000600082015250565b600061289a601983612193565b91506128a582612864565b602082019050919050565b600060208201905081810360008301526128c98161288d565b9050919050565b60006060820190506128e560008301866120c6565b6128f260208301856120c6565b6128ff60408301846120c6565b949350505050565b7f4e487b7100000000000000000000000000000000000000000000000000000000600052603260045260246000fd5b7f4c697374696e67206973206e6f74206163746976650000000000000000000000600082015250565b600061296c601583612193565b915061297782612936565b602082019050919050565b6000602082019050818103600083015261299b8161295f565b9050919050565b7f496e636f72726563742045544820616d6f756e742073656e7400000000000000600082015250565b60006129d8601983612193565b91506129e3826129a2565b602082019050919050565b60006020820190508181036000830152612a07816129cb565b9050919050565b7f53656c6c657220646f6573206e6f74206861766520656e6f7567682043544b4e600082015250565b6000612a44602083612193565b9150612a4f82612a0e565b602082019050919050565b60006020820190508181036000830152612a7381612a37565b9050919050565b7f4e487b7100000000000000000000000000000000000000000000000000000000600052604160045260246000fd5b600060c082019050612abe6000830189612344565b612acb60208301886120b7565b612ad860408301876120b7565b612ae560608301866120c6565b612af260808301856120c6565b612aff60a08301846120c6565b979650505050505050565b6000604082019050612b1f60008301856120b7565b612b2c60208301846120b7565b9392505050565b6000606082019050612b4860008301866120b7565b612b5560208301856120c6565b612b6260408301846120c6565b949350505050565b7f4e487b7100000000000000000000000000000000000000000000000000000000600052601160045260246000fd5b6000612ba482612041565b9150612baf83612041565b9250828201905080821115612bc757612bc6612b6a565b5b92915050565b600060a082019050612be26000830188612344565b612bef6020830187612344565b612bfc6040830186612344565b612c0960608301856120c6565b612c1660808301846120b7565b9695505050505050565b6000608082019050612c356000830187612344565b612c426020830186612310565b612c4f6040830185612344565b612c5c6060830184612344565b95945050505050565b7f4e487b7100000000000000000000000000000000000000000000000000000000600052602160045260246000fdfea2646970667358221220f90629d653bf9542b6867b99e5df8bab4e0a66b056a0c9e2e01c9443bcaa41d564736f6c63430008180033",
  "linkReferences": {},
  "deployedLinkReferences": {}
}