{
  "_format": "hh-sol-artifact-1",
  "contractName": "CarbonToken",
  "sourceName": "contracts/CarbonToken.sol",
  "abi": [
    {
      "inputs": [
        {
          "internalType": "address",
          "name": "initialOwner",
          "type": "address"
        }
      ],
      "stateMutability": "nonpayable",
      "type": "constructor"
    },
    {
      "inputs": [],
      "name": "ECDSAInvalidSignature",
      "type": "error"
    },
    {
      "inputs": [
        {
          "internalType": "uint256",
          "name": "length",
          "type": "uint256"
        }
      ],
      "name": "ECDSAInvalidSignatureLength",
      "type": "error"
    },
    {
      "inputs": [
        {
          "internalType": "bytes32",
          "name": "s",
          "type": "bytes32"
        }
      ],
      "name": "ECDSAInvalidSignatureS",
      "type": "error"
    },
    {
      "inputs": [
        {
          "internalType": "address",
          "name": "spender",
          "type": "address"
        },
        {
          "internalType": "uint256",
          "name": "allowance",
          "type": "uint256"
        },
        {
          "internalType": "uint256",
          "name": "needed",
          "type": "uint256"
        }
      ],
      "name": "ERC20InsufficientAllowance",
      "type": "error"
    },
    {
      "inputs": [
        {
          "internalType": "address",
          "name": "sender",
          "type": "address"
        },
        {
          "internalType": "uint256",
          "name": "balance",
          "type": "uint256"
        },
        {
          "internalType": "uint256",
          "name": "needed",
          "type": "uint256"
        }
      ],
      "name": "ERC20InsufficientBalance",
      "type": "error"
    },
    {
      "inputs": [
        {
          "internalType": "address",
          "name": "approver",
          "type": "address"
        }
      ],
      "name": "ERC20InvalidApprover",
      "type": "error"
    },
    {
      "inputs": [
        {
          "internalType": "address",
          "name": "receiver",
          "type": "address"
        }
      ],
      "name": "ERC20InvalidReceiver",
      "type": "error"
    },
    {
      "inputs": [
        {
          "internalType": "address",
          "name": "sender",
          "type": "address"
        }
      ],
      "name": "ERC20InvalidSender",
      "type": "error"
    },
    {
      "inputs": [
        {
          "internalType": "address",
          "name": "spender",
          "type": "address"
        }
      ],
      "name": "ERC20InvalidSpender",
      "type": "error"
    },
    {
      "inputs": [
        {
          "internalType": "uint256",
          "name": "deadline",
          "type": "uint256"
        }
      ],
      "name": "ERC2612ExpiredSignature",
      "type": "error"
    },
    {
      "inputs": [
        {
          "internalType": "address",
          "name": "signer",
          "type": "address"
        },
        {
          "internalType": "address",
          "name": "owner",
          "type": "address"
        }
      ],
      "name": "ERC2612InvalidSigner",
      "type": "error"
    },
    {
      "inputs": [
        {
          "internalType": "address",
          "name": "account",
          "type": "address"
        },
        {
          "internalType": "uint256",
          "name": "currentNonce",
          "type": "uint256"
        }
      ],
      "name": "InvalidAccountNonce",
      "type": "error"
    },
    {
      "inputs": [],
      "name": "InvalidShortString",
      "type": "error"
    },
    {
      "inputs": [
        {
          "internalType": "address",
          "name": "owner",
          "type": "address"
        }
      ],
      "name": "OwnableInvalidOwner",
      "type": "error"
    },
    {
      "inputs": [
        {
          "internalType": "address",
          "name": "account",
          "type": "address"
        }
      ],
      "name": "OwnableUnauthorizedAccount",
      "type": "error"
    },
    {
      "inputs": [
        {
          "internalType": "string",
          "name": "str",
          "type": "string"
        }
      ],
      "name": "StringTooLong",
      "type": "error"
    },
    {
      "anonymous": false,
      "inputs": [
        {
          "indexed": true,
          "internalType": "address",
          "name": "owner",
          "type": "address"
        },
        {
          "indexed": true,
          "internalType": "address",
          "name": "spender",
          "type": "address"
        },
        {
          "indexed": false,
          "internalType": "uint256",
          "name": "value",
          "type": "uint256"
        }
      ],
      "name": "Approval",
      "type": "event"
    },
    {
      "anonymous": false,
      "inputs": [],
      "name": "EIP712DomainChanged",
      "type": "event"
    },
    {
      "anonymous": false,
      "inputs": [
        {
          "indexed": true,
          "internalType": "address",
          "name": "previousOwner",
          "type": "address"
        },
        {
          "indexed": true,
          "internalType": "address",
          "name": "newOwner",
          "type": "address"
        }
      ],
      "name": "OwnershipTransferred",
      "type": "event"
    },
    {
      "anonymous": false,
      "inputs": [
        {
          "indexed": true,
          "internalType": "address",
          "name": "seller",
          "type": "address"
        },
        {
          "indexed": false,
          "internalType": "uint256",
          "name": "amountCTKN",
          "type": "uint256"
        },
        {
          "indexed": false,
          "internalType": "uint256",
          "name": "priceETH",
          "type": "uint256"
        }
      ],
      "name": "TokenListed",
      "type": "event"
    },
    {
      "anonymous": false,
      "inputs": [
        {
          "indexed": true,
          "internalType": "address",
          "name": "buyer",
          "type": "address"
        },
        {
          "indexed": true,
          "internalType": "address",
          "name": "seller",
          "type": "address"
        },
        {
          "indexed": false,
          "internalType": "uint256",
          "name": "amountCTKN",
          "type": "uint256"
        },
        {
          "indexed": false,
          "internalType": "uint256",
          "name": "priceETH",
          "type": "uint256"
        }
      ],
      "name": "TokenPurchased",
      "type": "event"
    },
    {
      "anonymous": false,
      "inputs": [
        {
          "indexed": true,
          "internalType": "address",
          "name": "from",
          "type": "address"
        },
        {
          "indexed": true,
          "internalType": "address",
          "name": "to",
          "type": "address"
        },
        {
          "indexed": false,
          "internalType": "uint256",
          "name": "value",
          "type": "uint256"
        }
      ],
      "name": "Transfer",
      "type": "event"
    },
    {
      "inputs": [],
      "name": "DOMAIN_SEPARATOR",
      "outputs": [
        {
          "internalType": "bytes32",
          "name": "",
          "type": "bytes32"
        }
      ],
      "stateMutability": "view",
      "type": "function"
    },
    {
      "inputs": [
        {
          "internalType": "address",
          "name": "owner",
          "type": "address"
        },
        {
          "internalType": "address",
          "name": "spender",
          "type": "address"
        }
      ],
      "name": "allowance",
      "outputs": [
        {
          "internalType": "uint256",
          "name": "",
          "type": "uint256"
        }
      ],
      "stateMutability": "view",
      "type": "function"
    },
    {
      "inputs": [
        {
          "internalType": "address",
          "name": "spender",
          "type": "address"
        },
        {
          "internalType": "uint256",
          "name": "value",
          "type": "uint256"
        }
      ],
      "name": "approve",
      "outputs": [
        {
          "internalType": "bool",
          "name": "",
          "type": "bool"
        }
      ],
      "stateMutability": "nonpayable",
      "type": "function"
    },
    {
      "inputs": [
        {
          "internalType": "address",
          "name": "account",
          "type": "address"
        }
      ],
      "name": "balanceOf",
      "outputs": [
        {
          "internalType": "uint256",
          "name": "",
          "type": "uint256"
        }
      ],
      "stateMutability": "view",
      "type": "function"
    },
    {
      "inputs": [
        {
          "internalType": "uint256",
          "name": "value",
          "type": "uint256"
        }
      ],
      "name": "burn",
      "outputs": [],
      "stateMutability": "nonpayable",
      "type": "function"
    },
    {
      "inputs": [
        {
          "internalType": "address",
          "name": "account",
          "type": "address"
        },
        {
          "internalType": "uint256",
          "name": "value",
          "type": "uint256"
        }
      ],
      "name": "burnFrom",
      "outputs": [],
      "stateMutability": "nonpayable",
      "type": "function"
    },
    {
      "inputs": [
        {
          "internalType": "address",
          "name": "seller",
          "type": "address"
        },
        {
          "internalType": "uint256",
          "name": "listingIndex",
          "type": "uint256"
        }
      ],
      "name": "buyToken",
      "outputs": [],
      "stateMutability": "payable",
      "type": "function"
    },
    {
      "inputs": [],
      "name": "decimals",
      "outputs": [
        {
          "internalType": "uint8",
          "name": "",
          "type": "uint8"
        }
      ],
      "stateMutability": "view",
      "type": "function"
    },
    {
      "inputs": [],
      "name": "eip712Domain",
      "outputs": [
        {
          "internalType": "bytes1",
          "name": "fields",
          "type": "bytes1"
        },
        {
          "internalType": "string",
          "name": "name",
          "type": "string"
        },
        {
          "internalType": "string",
          "name": "version",
          "type": "string"
        },
        {
          "internalType": "uint256",
          "name": "chainId",
          "type": "uint256"
        },
        {
          "internalType": "address",
          "name": "verifyingContract",
          "type": "address"
        },
        {
          "internalType": "bytes32",
          "name": "salt",
          "type": "bytes32"
        },
        {
          "internalType": "uint256[]",
          "name": "extensions",
          "type": "uint256[]"
        }
      ],
      "stateMutability": "view",
      "type": "function"
    },
    {
      "inputs": [
        {
          "internalType": "uint256",
          "name": "amountCTKN",
          "type": "uint256"
        },
        {
          "internalType": "uint256",
          "name": "priceETH",
          "type": "uint256"
        }
      ],
      "name": "listTokenForSale",
      "outputs": [],
      "stateMutability": "nonpayable",
      "type": "function"
    },
    {
      "inputs": [
        {
          "internalType": "address",
          "name": "",
          "type": "address"
        },
        {
          "internalType": "uint256",
          "name": "",
          "type": "uint256"
        }
      ],
      "name": "listings",
      "outputs": [
        {
          "internalType": "address",
          "name": "seller",
          "type": "address"
        },
        {
          "internalType": "uint256",
          "name": "amountCTKN",
          "type": "uint256"
        },
        {
          "internalType": "uint256",
          "name": "priceETH",
          "type": "uint256"
        },
        {
          "internalType": "bool",
          "name": "active",
          "type": "bool"
        }
      ],
      "stateMutability": "view",
      "type": "function"
    },
    {
      "inputs": [
        {
          "internalType": "address",
          "name": "to",
          "type": "address"
        },
        {
          "internalType": "uint256",
          "name": "amount",
          "type": "uint256"
        }
      ],
      "name": "mint",
      "outputs": [],
      "stateMutability": "nonpayable",
      "type": "function"
    },
    {
      "inputs": [],
      "name": "name",
      "outputs": [
        {
          "internalType": "string",
          "name": "",
          "type": "string"
        }
      ],
      "stateMutability": "view",
      "type": "function"
    },
    {
      "inputs": [
        {
          "internalType": "address",
          "name": "owner",
          "type": "address"
        }
      ],
      "name": "nonces",
      "outputs": [
        {
          "internalType": "uint256",
          "name": "",
          "type": "uint256"
        }
      ],
      "stateMutability": "view",
      "type": "function"
    },
    {
      "inputs": [],
      "name": "owner",
      "outputs": [
        {
          "internalType": "address",
          "name": "",
          "type": "address"
        }
      ],
      "stateMutability": "view",
      "type": "function"
    },
    {
      "inputs": [
        {
          "internalType": "address",
          "name": "owner",
          "type": "address"
        },
        {
          "internalType": "address",
          "name": "spender",
          "type": "address"
        },
        {
          "internalType": "uint256",
          "name": "value",
          "type": "uint256"
        },
        {
          "internalType": "uint256",
          "name": "deadline",
          "type": "uint256"
        },
        {
          "internalType": "uint8",
          "name": "v",
          "type": "uint8"
        },
        {
          "internalType": "bytes32",
          "name": "r",
          "type": "bytes32"
        },
        {
          "internalType": "bytes32",
          "name": "s",
          "type": "bytes32"
        }
      ],
      "name": "permit",
      "outputs": [],
      "stateMutability": "nonpayable",
      "type": "function"
    },
    {
      "inputs": [],
      "name": "renounceOwnership",
      "outputs": [],
      "stateMutability": "nonpayable",
      "type": "function"
    },
    {
      "inputs": [],
      "name": "symbol",
      "outputs": [
        {
          "internalType": "string",
          "name": "",
          "type": "string"
        }
      ],
      "stateMutability": "view",
      "type": "function"
    },
    {
      "inputs": [],
      "name": "totalSupply",
      "outputs": [
        {
          "internalType": "uint256",
          "name": "",
          "type": "uint256"
        }
      ],
      "stateMutability": "view",
      "type": "function"
    },
    {
      "inputs": [
        {
          "internalType": "address",
          "name": "to",
          "type": "address"
        },
        {
          "internalType": "uint256",
          "name": "value",
          "type": "uint256"
        }
      ],
      "name": "transfer",
      "outputs": [
        {
          "internalType": "bool",
          "name": "",
          "type": "bool"
        }
      ],
      "stateMutability": "nonpayable",
      "type": "function"
    },
    {
      "inputs": [
        {
          "internalType": "address",
          "name": "recipient",
          "type": "address"
        },
        {
          "internalType": "uint256",
          "name": "amountCTKN",
          "type": "uint256"
        },
        {
          "internalType": "uint256",
          "name": "amountETH",
          "type": "uint256"
        }
      ],
      "name": "transferCTKNWithETHBack",
      "outputs": [],
      "stateMutability": "payable",
      "type": "function"
    },
    {
      "inputs": [
        {
          "internalType": "address",
          "name": "from",
          "type": "address"
        },
        {
          "internalType": "address",
          "name": "to",
          "type": "address"
        },
        {
          "internalType": "uint256",
          "name": "value",
          "type": "uint256"
        }
      ],
      "name": "transferFrom",
      "outputs": [
        {
          "internalType": "bool",
          "name": "",
          "type": "bool"
        }
      ],
      "stateMutability": "nonpayable",
      "type": "function"
    },
    {
      "inputs": [
        {
          "internalType": "address",
          "name": "newOwner",
          "type": "address"
        }
      ],
      "name": "transferOwnership",
      "outputs": [],
      "stateMutability": "nonpayable",
      "type": "function"
    },
    {
      "stateMutability": "payable",
      "type": "receive"
    }
  ],
  "bytecode": "0x6101606040523480156200001257600080fd5b5060405162003d0238038062003d028339818101604052810190620000389190620007d7565b6040518060400160405280600b81526020017f436172626f6e546f6b656e000000000000000000000000000000000000000000815250806040518060400160405280600181526020017f3100000000000000000000000000000000000000000000000000000000000000815250836040518060400160405280600b81526020017f436172626f6e546f6b656e0000000000000000000000000000000000000000008152506040518060400160405280600481526020017f43544b4e00000000000000000000000000000000000000000000000000000000815250816003908162000123919062000a83565b50806004908162000135919062000a83565b505050600073ffffffffffffffffffffffffffffffffffffffff168173ffffffffffffffffffffffffffffffffffffffff1603620001ad5760006040517f1e4fbdf7000000000000000000000000000000000000000000000000000000008152600401620001a4919062000b7b565b60405180910390fd5b620001be81620002b560201b60201c565b50620001d56006836200037b60201b90919060201c565b6101208181525050620001f36007826200037b60201b90919060201c565b6101408181525050818051906020012060e08181525050808051906020012061010081815250504660a0818152505062000232620003d360201b60201c565b608081815250503073ffffffffffffffffffffffffffffffffffffffff1660c08173ffffffffffffffffffffffffffffffffffffffff1681525050505050620002ae33620002856200043060201b60201c565b600a62000293919062000d28565b612710620002a2919062000d79565b6200043960201b60201c565b5062001037565b6000600560009054906101000a900473ffffffffffffffffffffffffffffffffffffffff16905081600560006101000a81548173ffffffffffffffffffffffffffffffffffffffff021916908373ffffffffffffffffffffffffffffffffffffffff1602179055508173ffffffffffffffffffffffffffffffffffffffff168173ffffffffffffffffffffffffffffffffffffffff167f8be0079c531659141344cd1fd0a4f28419497f9722a3daafe3b4186f6b6457e060405160405180910390a35050565b6000602083511015620003a1576200039983620004c660201b60201c565b9050620003cd565b82620003b3836200053360201b60201c565b6000019081620003c4919062000a83565b5060ff60001b90505b92915050565b60007f8b73c3c69bb8fe3d512ecc4cf759cc79239f7b179b0ffacaa9a75d522b39400f60e0516101005146306040516020016200041595949392919062000df0565b60405160208183030381529060405280519060200120905090565b60006012905090565b600073ffffffffffffffffffffffffffffffffffffffff168273ffffffffffffffffffffffffffffffffffffffff1603620004ae5760006040517fec442f05000000000000000000000000000000000000000000000000000000008152600401620004a5919062000b7b565b60405180910390fd5b620004c2600083836200053d60201b60201c565b5050565b600080829050601f815111156200051657826040517f305a27a90000000000000000000000000000000000000000000000000000000081526004016200050d919062000edc565b60405180910390fd5b805181620005249062000f32565b60001c1760001b915050919050565b6000819050919050565b600073ffffffffffffffffffffffffffffffffffffffff168373ffffffffffffffffffffffffffffffffffffffff16036200059357806002600082825462000586919062000fa2565b9250508190555062000669565b60008060008573ffffffffffffffffffffffffffffffffffffffff1673ffffffffffffffffffffffffffffffffffffffff1681526020019081526020016000205490508181101562000622578381836040517fe450d38c000000000000000000000000000000000000000000000000000000008152600401620006199392919062000fdd565b60405180910390fd5b8181036000808673ffffffffffffffffffffffffffffffffffffffff1673ffffffffffffffffffffffffffffffffffffffff16815260200190815260200160002081905550505b600073ffffffffffffffffffffffffffffffffffffffff168273ffffffffffffffffffffffffffffffffffffffff1603620006b4578060026000828254039250508190555062000701565b806000808473ffffffffffffffffffffffffffffffffffffffff1673ffffffffffffffffffffffffffffffffffffffff168152602001908152602001600020600082825401925050819055505b8173ffffffffffffffffffffffffffffffffffffffff168373ffffffffffffffffffffffffffffffffffffffff167fddf252ad1be2c89b69c2b068fc378daa952ba7f163c4a11628f55a4df523b3ef836040516200076091906200101a565b60405180910390a3505050565b600080fd5b600073ffffffffffffffffffffffffffffffffffffffff82169050919050565b60006200079f8262000772565b9050919050565b620007b18162000792565b8114620007bd57600080fd5b50565b600081519050620007d181620007a6565b92915050565b600060208284031215620007f057620007ef6200076d565b5b60006200080084828501620007c0565b91505092915050565b600081519050919050565b7f4e487b7100000000000000000000000000000000000000000000000000000000600052604160045260246000fd5b7f4e487b7100000000000000000000000000000000000000000000000000000000600052602260045260246000fd5b600060028204905060018216806200088b57607f821691505b602082108103620008a157620008a062000843565b5b50919050565b60008190508160005260206000209050919050565b60006020601f8301049050919050565b600082821b905092915050565b6000600883026200090b7fffffffffffffffffffffffffffffffffffffffffffffffffffffffffffffffff82620008cc565b620009178683620008cc565b95508019841693508086168417925050509392505050565b6000819050919050565b6000819050919050565b6000620009646200095e62000958846200092f565b62000939565b6200092f565b9050919050565b6000819050919050565b620009808362000943565b620009986200098f826200096b565b848454620008d9565b825550505050565b600090565b620009af620009a0565b620009bc81848462000975565b505050565b5b81811015620009e457620009d8600082620009a5565b600181019050620009c2565b5050565b601f82111562000a3357620009fd81620008a7565b62000a0884620008bc565b8101602085101562000a18578190505b62000a3062000a2785620008bc565b830182620009c1565b50505b505050565b600082821c905092915050565b600062000a586000198460080262000a38565b1980831691505092915050565b600062000a73838362000a45565b9150826002028217905092915050565b62000a8e8262000809565b67ffffffffffffffff81111562000aaa5762000aa962000814565b5b62000ab6825462000872565b62000ac3828285620009e8565b600060209050601f83116001811462000afb576000841562000ae6578287015190505b62000af2858262000a65565b86555062000b62565b601f19841662000b0b86620008a7565b60005b8281101562000b355784890151825560018201915060208501945060208101905062000b0e565b8683101562000b55578489015162000b51601f89168262000a45565b8355505b6001600288020188555050505b505050505050565b62000b758162000792565b82525050565b600060208201905062000b92600083018462000b6a565b92915050565b7f4e487b7100000000000000000000000000000000000000000000000000000000600052601160045260246000fd5b60008160011c9050919050565b6000808291508390505b600185111562000c265780860481111562000bfe5762000bfd62000b98565b5b600185161562000c0e5780820291505b808102905062000c1e8562000bc7565b945062000bde565b94509492505050565b60008262000c41576001905062000d14565b8162000c51576000905062000d14565b816001811462000c6a576002811462000c755762000cab565b600191505062000d14565b60ff84111562000c8a5762000c8962000b98565b5b8360020a91508482111562000ca45762000ca362000b98565b5b5062000d14565b5060208310610133831016604e8410600b841016171562000ce55782820a90508381111562000cdf5762000cde62000b98565b5b62000d14565b62000cf4848484600162000bd4565b9250905081840481111562000d0e5762000d0d62000b98565b5b81810290505b9392505050565b600060ff82169050919050565b600062000d35826200092f565b915062000d428362000d1b565b925062000d717fffffffffffffffffffffffffffffffffffffffffffffffffffffffffffffffff848462000c2f565b905092915050565b600062000d86826200092f565b915062000d93836200092f565b925082820262000da3816200092f565b9150828204841483151762000dbd5762000dbc62000b98565b5b5092915050565b6000819050919050565b62000dd98162000dc4565b82525050565b62000dea816200092f565b82525050565b600060a08201905062000e07600083018862000dce565b62000e16602083018762000dce565b62000e25604083018662000dce565b62000e34606083018562000ddf565b62000e43608083018462000b6a565b9695505050505050565b600082825260208201905092915050565b60005b8381101562000e7e57808201518184015260208101905062000e61565b60008484015250505050565b6000601f19601f8301169050919050565b600062000ea88262000809565b62000eb4818562000e4d565b935062000ec681856020860162000e5e565b62000ed18162000e8a565b840191505092915050565b6000602082019050818103600083015262000ef8818462000e9b565b905092915050565b600081519050919050565b6000819050602082019050919050565b600062000f29825162000dc4565b80915050919050565b600062000f3f8262000f00565b8262000f4b8462000f0b565b905062000f588162000f1b565b9250602082101562000f9b5762000f967fffffffffffffffffffffffffffffffffffffffffffffffffffffffffffffffff83602003600802620008cc565b831692505b5050919050565b600062000faf826200092f565b915062000fbc836200092f565b925082820190508082111562000fd75762000fd662000b98565b5b92915050565b600060608201905062000ff4600083018662000b6a565b62001003602083018562000ddf565b62001012604083018462000ddf565b949350505050565b600060208201905062001031600083018462000ddf565b92915050565b60805160a05160c05160e051610100516101205161014051612c70620010926000396000611620015260006115e501526000611b3501526000611b140152600061128f015260006112e50152600061130e0152612c706000f3fe6080604052600436106101435760003560e01c806368f8fc10116100b65780638da5cb5b1161006f5780638da5cb5b1461045357806395d89b411461047e578063a9059cbb146104a9578063d505accf146104e6578063dd62ed3e1461050f578063f2fde38b1461054c5761014a565b806368f8fc101461034c57806370a0823114610368578063715018a6146103a557806379cc6790146103bc5780637ecebe00146103e557806384b0196e146104225761014a565b806323b872dd1161010857806323b872dd1461023e5780632406e6771461027b578063313ce567146102a45780633644e515146102cf57806340c10f19146102fa57806342966c68146103235761014a565b806207df301461014f57806303f72ba21461018f57806306fdde03146101ab578063095ea7b3146101d657806318160ddd146102135761014a565b3661014a57005b600080fd5b34801561015b57600080fd5b506101766004803603810190610171919061202b565b610575565b60405161018694939291906120a4565b60405180910390f35b6101a960048036038101906101a491906120e9565b6105ef565b005b3480156101b757600080fd5b506101c06106ef565b6040516101cd91906121cc565b60405180910390f35b3480156101e257600080fd5b506101fd60048036038101906101f8919061202b565b610781565b60405161020a91906121ee565b60405180910390f35b34801561021f57600080fd5b506102286107a4565b6040516102359190612209565b60405180910390f35b34801561024a57600080fd5b5061026560048036038101906102609190612224565b6107ae565b60405161027291906121ee565b60405180910390f35b34801561028757600080fd5b506102a2600480360381019061029d9190612277565b6107dd565b005b3480156102b057600080fd5b506102b961099b565b6040516102c691906122d3565b60405180910390f35b3480156102db57600080fd5b506102e46109a4565b6040516102f19190612307565b60405180910390f35b34801561030657600080fd5b50610321600480360381019061031c919061202b565b6109b3565b005b34801561032f57600080fd5b5061034a60048036038101906103459190612322565b6109c9565b005b6103666004803603810190610361919061202b565b6109dd565b005b34801561037457600080fd5b5061038f600480360381019061038a919061234f565b610c7d565b60405161039c9190612209565b60405180910390f35b3480156103b157600080fd5b506103ba610cc5565b005b3480156103c857600080fd5b506103e360048036038101906103de919061202b565b610cd9565b005b3480156103f157600080fd5b5061040c6004803603810190610407919061234f565b610cf9565b6040516104199190612209565b60405180910390f35b34801561042e57600080fd5b50610437610d0b565b60405161044a9796959493929190612475565b60405180910390f35b34801561045f57600080fd5b50610468610db5565b60405161047591906124f9565b60405180910390f35b34801561048a57600080fd5b50610493610ddf565b6040516104a091906121cc565b60405180910390f35b3480156104b557600080fd5b506104d060048036038101906104cb919061202b565b610e71565b6040516104dd91906121ee565b60405180910390f35b3480156104f257600080fd5b5061050d6004803603810190610508919061256c565b610e94565b005b34801561051b57600080fd5b506105366004803603810190610531919061260e565b610fdc565b6040516105439190612209565b60405180910390f35b34801561055857600080fd5b50610573600480360381019061056e919061234f565b611063565b005b6009602052816000526040600020818154811061059157600080fd5b9060005260206000209060040201600091509150508060000160009054906101000a900473ffffffffffffffffffffffffffffffffffffffff16908060010154908060020154908060030160009054906101000a900460ff16905084565b80471015610632576040517f08c379a0000000000000000000000000000000000000000000000000000000008152600401610629906126c0565b60405180910390fd5b61063d3384846110e9565b60008373ffffffffffffffffffffffffffffffffffffffff168260405161066390612711565b60006040518083038185875af1925050503d80600081146106a0576040519150601f19603f3d011682016040523d82523d6000602084013e6106a5565b606091505b50509050806106e9576040517f08c379a00000000000000000000000000000000000000000000000000000000081526004016106e090612798565b60405180910390fd5b50505050565b6060600380546106fe906127e7565b80601f016020809104026020016040519081016040528092919081815260200182805461072a906127e7565b80156107775780601f1061074c57610100808354040283529160200191610777565b820191906000526020600020905b81548152906001019060200180831161075a57829003601f168201915b5050505050905090565b60008061078c6111dd565b90506107998185856111e5565b600191505092915050565b6000600254905090565b6000806107b96111dd565b90506107c68582856111f7565b6107d18585856110e9565b60019150509392505050565b816107e733610c7d565b1015610828576040517f08c379a000000000000000000000000000000000000000000000000000000000815260040161081f90612864565b60405180910390fd5b600960003373ffffffffffffffffffffffffffffffffffffffff1673ffffffffffffffffffffffffffffffffffffffff16815260200190815260200160002060405180608001604052803373ffffffffffffffffffffffffffffffffffffffff16815260200184815260200183815260200160011515815250908060018154018082558091505060019003906000526020600020906004020160009091909190915060008201518160000160006101000a81548173ffffffffffffffffffffffffffffffffffffffff021916908373ffffffffffffffffffffffffffffffffffffffff160217905550602082015181600101556040820151816002015560608201518160030160006101000a81548160ff02191690831515021790555050503373ffffffffffffffffffffffffffffffffffffffff167f5dc96537cbae524775a674b6a810d9a1ba04a9e279f172d156b352151394677a838360405161098f929190612884565b60405180910390a25050565b60006012905090565b60006109ae61128b565b905090565b6109bb611342565b6109c582826113c9565b5050565b6109da6109d46111dd565b8261144b565b50565b6000600960008473ffffffffffffffffffffffffffffffffffffffff1673ffffffffffffffffffffffffffffffffffffffff1681526020019081526020016000208281548110610a3057610a2f6128ad565b5b906000526020600020906004020190508060030160009054906101000a900460ff16610a91576040517f08c379a0000000000000000000000000000000000000000000000000000000008152600401610a8890612928565b60405180910390fd5b34816002015414610ad7576040517f08c379a0000000000000000000000000000000000000000000000000000000008152600401610ace90612994565b60405180910390fd5b8060010154610b098260000160009054906101000a900473ffffffffffffffffffffffffffffffffffffffff16610c7d565b1015610b4a576040517f08c379a0000000000000000000000000000000000000000000000000000000008152600401610b4190612a00565b60405180910390fd5b610b7d8160000160009054906101000a900473ffffffffffffffffffffffffffffffffffffffff163383600101546110e9565b8060000160009054906101000a900473ffffffffffffffffffffffffffffffffffffffff1673ffffffffffffffffffffffffffffffffffffffff166108fc82600201549081150290604051600060405180830381858888f19350505050158015610beb573d6000803e3d6000fd5b5060008160030160006101000a81548160ff0219169083151502179055508273ffffffffffffffffffffffffffffffffffffffff163373ffffffffffffffffffffffffffffffffffffffff167f8daf503382665d950e449b86172be5222275c90f4ddf69c29fdaa8237a562a6d83600101548460020154604051610c70929190612884565b60405180910390a3505050565b60008060008373ffffffffffffffffffffffffffffffffffffffff1673ffffffffffffffffffffffffffffffffffffffff168152602001908152602001600020549050919050565b610ccd611342565b610cd760006114cd565b565b610ceb82610ce56111dd565b836111f7565b610cf5828261144b565b5050565b6000610d0482611593565b9050919050565b600060608060008060006060610d1f6115dc565b610d27611617565b46306000801b600067ffffffffffffffff811115610d4857610d47612a20565b5b604051908082528060200260200182016040528015610d765781602001602082028036833780820191505090505b507f0f00000000000000000000000000000000000000000000000000000000000000959493929190965096509650965096509650965090919293949596565b6000600560009054906101000a900473ffffffffffffffffffffffffffffffffffffffff16905090565b606060048054610dee906127e7565b80601f0160208091040260200160405190810160405280929190818152602001828054610e1a906127e7565b8015610e675780601f10610e3c57610100808354040283529160200191610e67565b820191906000526020600020905b815481529060010190602001808311610e4a57829003601f168201915b5050505050905090565b600080610e7c6111dd565b9050610e898185856110e9565b600191505092915050565b83421115610ed957836040517f62791302000000000000000000000000000000000000000000000000000000008152600401610ed09190612209565b60405180910390fd5b60007f6e71edae12b1b97f4d1f60370fef10105fa2faae0126114a169c64845d6126c9888888610f088c611652565b89604051602001610f1e96959493929190612a4f565b6040516020818303038152906040528051906020012090506000610f41826116a9565b90506000610f51828787876116c3565b90508973ffffffffffffffffffffffffffffffffffffffff168173ffffffffffffffffffffffffffffffffffffffff1614610fc557808a6040517f4b800e46000000000000000000000000000000000000000000000000000000008152600401610fbc929190612ab0565b60405180910390fd5b610fd08a8a8a6111e5565b50505050505050505050565b6000600160008473ffffffffffffffffffffffffffffffffffffffff1673ffffffffffffffffffffffffffffffffffffffff16815260200190815260200160002060008373ffffffffffffffffffffffffffffffffffffffff1673ffffffffffffffffffffffffffffffffffffffff16815260200190815260200160002054905092915050565b61106b611342565b600073ffffffffffffffffffffffffffffffffffffffff168173ffffffffffffffffffffffffffffffffffffffff16036110dd5760006040517f1e4fbdf70000000000000000000000000000000000000000000000000000000081526004016110d491906124f9565b60405180910390fd5b6110e6816114cd565b50565b600073ffffffffffffffffffffffffffffffffffffffff168373ffffffffffffffffffffffffffffffffffffffff160361115b5760006040517f96c6fd1e00000000000000000000000000000000000000000000000000000000815260040161115291906124f9565b60405180910390fd5b600073ffffffffffffffffffffffffffffffffffffffff168273ffffffffffffffffffffffffffffffffffffffff16036111cd5760006040517fec442f050000000000000000000000000000000000000000000000000000000081526004016111c491906124f9565b60405180910390fd5b6111d88383836116f3565b505050565b600033905090565b6111f28383836001611918565b505050565b60006112038484610fdc565b90507fffffffffffffffffffffffffffffffffffffffffffffffffffffffffffffffff81146112855781811015611275578281836040517ffb8f41b200000000000000000000000000000000000000000000000000000000815260040161126c93929190612ad9565b60405180910390fd5b61128484848484036000611918565b5b50505050565b60007f000000000000000000000000000000000000000000000000000000000000000073ffffffffffffffffffffffffffffffffffffffff163073ffffffffffffffffffffffffffffffffffffffff1614801561130757507f000000000000000000000000000000000000000000000000000000000000000046145b15611334577f0000000000000000000000000000000000000000000000000000000000000000905061133f565b61133c611aef565b90505b90565b61134a6111dd565b73ffffffffffffffffffffffffffffffffffffffff16611368610db5565b73ffffffffffffffffffffffffffffffffffffffff16146113c75761138b6111dd565b6040517f118cdaa70000000000000000000000000000000000000000000000000000000081526004016113be91906124f9565b60405180910390fd5b565b600073ffffffffffffffffffffffffffffffffffffffff168273ffffffffffffffffffffffffffffffffffffffff160361143b5760006040517fec442f0500000000000000000000000000000000000000000000000000000000815260040161143291906124f9565b60405180910390fd5b611447600083836116f3565b5050565b600073ffffffffffffffffffffffffffffffffffffffff168273ffffffffffffffffffffffffffffffffffffffff16036114bd5760006040517f96c6fd1e0000000000000000000000000000000000000000000000000000000081526004016114b491906124f9565b60405180910390fd5b6114c9826000836116f3565b5050565b6000600560009054906101000a900473ffffffffffffffffffffffffffffffffffffffff16905081600560006101000a81548173ffffffffffffffffffffffffffffffffffffffff021916908373ffffffffffffffffffffffffffffffffffffffff1602179055508173ffffffffffffffffffffffffffffffffffffffff168173ffffffffffffffffffffffffffffffffffffffff167f8be0079c531659141344cd1fd0a4f28419497f9722a3daafe3b4186f6b6457e060405160405180910390a35050565b6000600860008373ffffffffffffffffffffffffffffffffffffffff1673ffffffffffffffffffffffffffffffffffffffff168152602001908152602001600020549050919050565b606061161260067f0000000000000000000000000000000000000000000000000000000000000000611b8590919063ffffffff16565b905090565b606061164d60077f0000000000000000000000000000000000000000000000000000000000000000611b8590919063ffffffff16565b905090565b6000600860008373ffffffffffffffffffffffffffffffffffffffff1673ffffffffffffffffffffffffffffffffffffffff1681526020019081526020016000206000815480929190600101919050559050919050565b60006116bc6116b661128b565b83611c35565b9050919050565b6000806000806116d588888888611c76565b9250925092506116e58282611d6a565b829350505050949350505050565b600073ffffffffffffffffffffffffffffffffffffffff168373ffffffffffffffffffffffffffffffffffffffff16036117455780600260008282546117399190612b3f565b92505081905550611818565b60008060008573ffffffffffffffffffffffffffffffffffffffff1673ffffffffffffffffffffffffffffffffffffffff168152602001908152602001600020549050818110156117d1578381836040517fe450d38c0000000000000000000000000000000000000000000000000000000081526004016117c893929190612ad9565b60405180910390fd5b8181036000808673ffffffffffffffffffffffffffffffffffffffff1673ffffffffffffffffffffffffffffffffffffffff16815260200190815260200160002081905550505b600073ffffffffffffffffffffffffffffffffffffffff168273ffffffffffffffffffffffffffffffffffffffff160361186157806002600082825403925050819055506118ae565b806000808473ffffffffffffffffffffffffffffffffffffffff1673ffffffffffffffffffffffffffffffffffffffff168152602001908152602001600020600082825401925050819055505b8173ffffffffffffffffffffffffffffffffffffffff168373ffffffffffffffffffffffffffffffffffffffff167fddf252ad1be2c89b69c2b068fc378daa952ba7f163c4a11628f55a4df523b3ef8360405161190b9190612209565b60405180910390a3505050565b600073ffffffffffffffffffffffffffffffffffffffff168473ffffffffffffffffffffffffffffffffffffffff160361198a5760006040517fe602df0500000000000000000000000000000000000000000000000000000000815260040161198191906124f9565b60405180910390fd5b600073ffffffffffffffffffffffffffffffffffffffff168373ffffffffffffffffffffffffffffffffffffffff16036119fc5760006040517f94280d620000000000000000000000000000000000000000000000000000000081526004016119f391906124f9565b60405180910390fd5b81600160008673ffffffffffffffffffffffffffffffffffffffff1673ffffffffffffffffffffffffffffffffffffffff16815260200190815260200160002060008573ffffffffffffffffffffffffffffffffffffffff1673ffffffffffffffffffffffffffffffffffffffff168152602001908152602001600020819055508015611ae9578273ffffffffffffffffffffffffffffffffffffffff168473ffffffffffffffffffffffffffffffffffffffff167f8c5be1e5ebec7d5bd14f71427d1e84f3dd0314c0f7b2291e5b200ac8c7c3b92584604051611ae09190612209565b60405180910390a35b50505050565b60007f8b73c3c69bb8fe3d512ecc4cf759cc79239f7b179b0ffacaa9a75d522b39400f7f00000000000000000000000000000000000000000000000000000000000000007f00000000000000000000000000000000000000000000000000000000000000004630604051602001611b6a959493929190612b73565b60405160208183030381529060405280519060200120905090565b606060ff60001b8314611ba257611b9b83611ece565b9050611c2f565b818054611bae906127e7565b80601f0160208091040260200160405190810160405280929190818152602001828054611bda906127e7565b8015611c275780601f10611bfc57610100808354040283529160200191611c27565b820191906000526020600020905b815481529060010190602001808311611c0a57829003601f168201915b505050505090505b92915050565b60006040517f190100000000000000000000000000000000000000000000000000000000000081528360028201528260228201526042812091505092915050565b60008060007f7fffffffffffffffffffffffffffffff5d576e7357a4501ddfe92f46681b20a08460001c1115611cb6576000600385925092509250611d60565b600060018888888860405160008152602001604052604051611cdb9493929190612bc6565b6020604051602081039080840390855afa158015611cfd573d6000803e3d6000fd5b505050602060405103519050600073ffffffffffffffffffffffffffffffffffffffff168173ffffffffffffffffffffffffffffffffffffffff1603611d5157600060016000801b93509350935050611d60565b8060008060001b935093509350505b9450945094915050565b60006003811115611d7e57611d7d612c0b565b5b826003811115611d9157611d90612c0b565b5b0315611eca5760016003811115611dab57611daa612c0b565b5b826003811115611dbe57611dbd612c0b565b5b03611df5576040517ff645eedf00000000000000000000000000000000000000000000000000000000815260040160405180910390fd5b60026003811115611e0957611e08612c0b565b5b826003811115611e1c57611e1b612c0b565b5b03611e61578060001c6040517ffce698f7000000000000000000000000000000000000000000000000000000008152600401611e589190612209565b60405180910390fd5b600380811115611e7457611e73612c0b565b5b826003811115611e8757611e86612c0b565b5b03611ec957806040517fd78bce0c000000000000000000000000000000000000000000000000000000008152600401611ec09190612307565b60405180910390fd5b5b5050565b60606000611edb83611f42565b90506000602067ffffffffffffffff811115611efa57611ef9612a20565b5b6040519080825280601f01601f191660200182016040528015611f2c5781602001600182028036833780820191505090505b5090508181528360208201528092505050919050565b60008060ff8360001c169050601f811115611f89576040517fb3512b0c00000000000000000000000000000000000000000000000000000000815260040160405180910390fd5b80915050919050565b600080fd5b600073ffffffffffffffffffffffffffffffffffffffff82169050919050565b6000611fc282611f97565b9050919050565b611fd281611fb7565b8114611fdd57600080fd5b50565b600081359050611fef81611fc9565b92915050565b6000819050919050565b61200881611ff5565b811461201357600080fd5b50565b60008135905061202581611fff565b92915050565b6000806040838503121561204257612041611f92565b5b600061205085828601611fe0565b925050602061206185828601612016565b9150509250929050565b61207481611fb7565b82525050565b61208381611ff5565b82525050565b60008115159050919050565b61209e81612089565b82525050565b60006080820190506120b9600083018761206b565b6120c6602083018661207a565b6120d3604083018561207a565b6120e06060830184612095565b95945050505050565b60008060006060848603121561210257612101611f92565b5b600061211086828701611fe0565b935050602061212186828701612016565b925050604061213286828701612016565b9150509250925092565b600081519050919050565b600082825260208201905092915050565b60005b8381101561217657808201518184015260208101905061215b565b60008484015250505050565b6000601f19601f8301169050919050565b600061219e8261213c565b6121a88185612147565b93506121b8818560208601612158565b6121c181612182565b840191505092915050565b600060208201905081810360008301526121e68184612193565b905092915050565b60006020820190506122036000830184612095565b92915050565b600060208201905061221e600083018461207a565b92915050565b60008060006060848603121561223d5761223c611f92565b5b600061224b86828701611fe0565b935050602061225c86828701611fe0565b925050604061226d86828701612016565b9150509250925092565b6000806040838503121561228e5761228d611f92565b5b600061229c85828601612016565b92505060206122ad85828601612016565b9150509250929050565b600060ff82169050919050565b6122cd816122b7565b82525050565b60006020820190506122e860008301846122c4565b92915050565b6000819050919050565b612301816122ee565b82525050565b600060208201905061231c60008301846122f8565b92915050565b60006020828403121561233857612337611f92565b5b600061234684828501612016565b91505092915050565b60006020828403121561236557612364611f92565b5b600061237384828501611fe0565b91505092915050565b60007fff0000000000000000000000000000000000000000000000000000000000000082169050919050565b6123b18161237c565b82525050565b600081519050919050565b600082825260208201905092915050565b6000819050602082019050919050565b6123ec81611ff5565b82525050565b60006123fe83836123e3565b60208301905092915050565b6000602082019050919050565b6000612422826123b7565b61242c81856123c2565b9350612437836123d3565b8060005b8381101561246857815161244f88826123f2565b975061245a8361240a565b92505060018101905061243b565b5085935050505092915050565b600060e08201905061248a600083018a6123a8565b818103602083015261249c8189612193565b905081810360408301526124b08188612193565b90506124bf606083018761207a565b6124cc608083018661206b565b6124d960a08301856122f8565b81810360c08301526124eb8184612417565b905098975050505050505050565b600060208201905061250e600083018461206b565b92915050565b61251d816122b7565b811461252857600080fd5b50565b60008135905061253a81612514565b92915050565b612549816122ee565b811461255457600080fd5b50565b60008135905061256681612540565b92915050565b600080600080600080600060e0888a03121561258b5761258a611f92565b5b60006125998a828b01611fe0565b97505060206125aa8a828b01611fe0565b96505060406125bb8a828b01612016565b95505060606125cc8a828b01612016565b94505060806125dd8a828b0161252b565b93505060a06125ee8a828b01612557565b92505060c06125ff8a828b01612557565b91505092959891949750929550565b6000806040838503121561262557612624611f92565b5b600061263385828601611fe0565b925050602061264485828601611fe0565b9150509250929050565b7f436f6e747261637420646f6573206e6f74206861766520656e6f75676820455460008201527f4800000000000000000000000000000000000000000000000000000000000000602082015250565b60006126aa602183612147565b91506126b58261264e565b604082019050919050565b600060208201905081810360008301526126d98161269d565b9050919050565b600081905092915050565b50565b60006126fb6000836126e0565b9150612706826126eb565b600082019050919050565b600061271c826126ee565b9150819050919050565b7f4661696c656420746f2073656e6420455448206261636b20746f2073656e646560008201527f7200000000000000000000000000000000000000000000000000000000000000602082015250565b6000612782602183612147565b915061278d82612726565b604082019050919050565b600060208201905081810360008301526127b181612775565b9050919050565b7f4e487b7100000000000000000000000000000000000000000000000000000000600052602260045260246000fd5b600060028204905060018216806127ff57607f821691505b602082108103612812576128116127b8565b5b50919050565b7f496e73756666696369656e742043544b4e2062616c616e636500000000000000600082015250565b600061284e601983612147565b915061285982612818565b602082019050919050565b6000602082019050818103600083015261287d81612841565b9050919050565b6000604082019050612899600083018561207a565b6128a6602083018461207a565b9392505050565b7f4e487b7100000000000000000000000000000000000000000000000000000000600052603260045260246000fd5b7f4c697374696e67206973206e6f74206163746976650000000000000000000000600082015250565b6000612912601583612147565b915061291d826128dc565b602082019050919050565b6000602082019050818103600083015261294181612905565b9050919050565b7f496e636f72726563742045544820616d6f756e742073656e7400000000000000600082015250565b600061297e601983612147565b915061298982612948565b602082019050919050565b600060208201905081810360008301526129ad81612971565b9050919050565b7f53656c6c657220646f6573206e6f74206861766520656e6f7567682043544b4e600082015250565b60006129ea602083612147565b91506129f5826129b4565b602082019050919050565b60006020820190508181036000830152612a19816129dd565b9050919050565b7f4e487b7100000000000000000000000000000000000000000000000000000000600052604160045260246000fd5b600060c082019050612a6460008301896122f8565b612a71602083018861206b565b612a7e604083018761206b565b612a8b606083018661207a565b612a98608083018561207a565b612aa560a083018461207a565b979650505050505050565b6000604082019050612ac5600083018561206b565b612ad2602083018461206b565b9392505050565b6000606082019050612aee600083018661206b565b612afb602083018561207a565b612b08604083018461207a565b949350505050565b7f4e487b7100000000000000000000000000000000000000000000000000000000600052601160045260246000fd5b6000612b4a82611ff5565b9150612b5583611ff5565b9250828201905080821115612b6d57612b6c612b10565b5b92915050565b600060a082019050612b8860008301886122f8565b612b9560208301876122f8565b612ba260408301866122f8565b612baf606083018561207a565b612bbc608083018461206b565b9695505050505050565b6000608082019050612bdb60008301876122f8565b612be860208301866122c4565b612bf560408301856122f8565b612c0260608301846122f8565b95945050505050565b7f4e487b7100000000000000000000000000000000000000000000000000000000600052602160045260246000fdfea264697066735822122005d0a4ddaec1fb710fe0da71d5a8cf83408526ae2f7b6b5561c0826ad264667e64736f6c63430008180033",
  "linkReferences": {},
  "deployedLinkReferences": {}
}