{
  "_format": "hh-sol-artifact-1",
  "contractName": "CarbonToken",
  "sourceName": "contracts/CarbonToken.sol",
  "abi": [
    {
      "inputs": [
        {
          "internalType": "address",
          "name": "initialOwner",
          "type": "address"
        },
        {
          "internalType": "string",
          "name": "_secretKey",
          "type": "string"
        }
      ],
      "stateMutability": "nonpayable",
      "type": "constructor"
    },
    {
      "inputs": [],
      "name": "ECDSAInvalidSignature",
      "type": "error"
    },
    {
      "inputs": [
        {
          "internalType": "uint256",
          "name": "length",
          "type": "uint256"
        }
      ],
      "name": "ECDSAInvalidSignatureLength",
      "type": "error"
    },
    {
      "inputs": [
        {
          "internalType": "bytes32",
          "name": "s",
          "type": "bytes32"
        }
      ],
      "name": "ECDSAInvalidSignatureS",
      "type": "error"
    },
    {
      "inputs": [
        {
          "internalType": "address",
          "name": "spender",
          "type": "address"
        },
        {
          "internalType": "uint256",
          "name": "allowance",
          "type": "uint256"
        },
        {
          "internalType": "uint256",
          "name": "needed",
          "type": "uint256"
        }
      ],
      "name": "ERC20InsufficientAllowance",
      "type": "error"
    },
    {
      "inputs": [
        {
          "internalType": "address",
          "name": "sender",
          "type": "address"
        },
        {
          "internalType": "uint256",
          "name": "balance",
          "type": "uint256"
        },
        {
          "internalType": "uint256",
          "name": "needed",
          "type": "uint256"
        }
      ],
      "name": "ERC20InsufficientBalance",
      "type": "error"
    },
    {
      "inputs": [
        {
          "internalType": "address",
          "name": "approver",
          "type": "address"
        }
      ],
      "name": "ERC20InvalidApprover",
      "type": "error"
    },
    {
      "inputs": [
        {
          "internalType": "address",
          "name": "receiver",
          "type": "address"
        }
      ],
      "name": "ERC20InvalidReceiver",
      "type": "error"
    },
    {
      "inputs": [
        {
          "internalType": "address",
          "name": "sender",
          "type": "address"
        }
      ],
      "name": "ERC20InvalidSender",
      "type": "error"
    },
    {
      "inputs": [
        {
          "internalType": "address",
          "name": "spender",
          "type": "address"
        }
      ],
      "name": "ERC20InvalidSpender",
      "type": "error"
    },
    {
      "inputs": [
        {
          "internalType": "uint256",
          "name": "deadline",
          "type": "uint256"
        }
      ],
      "name": "ERC2612ExpiredSignature",
      "type": "error"
    },
    {
      "inputs": [
        {
          "internalType": "address",
          "name": "signer",
          "type": "address"
        },
        {
          "internalType": "address",
          "name": "owner",
          "type": "address"
        }
      ],
      "name": "ERC2612InvalidSigner",
      "type": "error"
    },
    {
      "inputs": [
        {
          "internalType": "address",
          "name": "account",
          "type": "address"
        },
        {
          "internalType": "uint256",
          "name": "currentNonce",
          "type": "uint256"
        }
      ],
      "name": "InvalidAccountNonce",
      "type": "error"
    },
    {
      "inputs": [],
      "name": "InvalidShortString",
      "type": "error"
    },
    {
      "inputs": [
        {
          "internalType": "address",
          "name": "owner",
          "type": "address"
        }
      ],
      "name": "OwnableInvalidOwner",
      "type": "error"
    },
    {
      "inputs": [
        {
          "internalType": "address",
          "name": "account",
          "type": "address"
        }
      ],
      "name": "OwnableUnauthorizedAccount",
      "type": "error"
    },
    {
      "inputs": [
        {
          "internalType": "string",
          "name": "str",
          "type": "string"
        }
      ],
      "name": "StringTooLong",
      "type": "error"
    },
    {
      "anonymous": false,
      "inputs": [
        {
          "indexed": true,
          "internalType": "address",
          "name": "owner",
          "type": "address"
        },
        {
          "indexed": true,
          "internalType": "address",
          "name": "spender",
          "type": "address"
        },
        {
          "indexed": false,
          "internalType": "uint256",
          "name": "value",
          "type": "uint256"
        }
      ],
      "name": "Approval",
      "type": "event"
    },
    {
      "anonymous": false,
      "inputs": [
        {
          "indexed": true,
          "internalType": "address",
          "name": "account",
          "type": "address"
        },
        {
          "indexed": false,
          "internalType": "uint256",
          "name": "amount",
          "type": "uint256"
        },
        {
          "indexed": false,
          "internalType": "string",
          "name": "ipfsHash",
          "type": "string"
        }
      ],
      "name": "CertificateMinted",
      "type": "event"
    },
    {
      "anonymous": false,
      "inputs": [],
      "name": "EIP712DomainChanged",
      "type": "event"
    },
    {
      "anonymous": false,
      "inputs": [
        {
          "indexed": true,
          "internalType": "address",
          "name": "seller",
          "type": "address"
        },
        {
          "indexed": false,
          "internalType": "uint256",
          "name": "listingIndex",
          "type": "uint256"
        }
      ],
      "name": "ListingDeleted",
      "type": "event"
    },
    {
      "anonymous": false,
      "inputs": [
        {
          "indexed": true,
          "internalType": "address",
          "name": "previousOwner",
          "type": "address"
        },
        {
          "indexed": true,
          "internalType": "address",
          "name": "newOwner",
          "type": "address"
        }
      ],
      "name": "OwnershipTransferred",
      "type": "event"
    },
    {
      "anonymous": false,
      "inputs": [
        {
          "indexed": true,
          "internalType": "address",
          "name": "seller",
          "type": "address"
        },
        {
          "indexed": false,
          "internalType": "uint256",
          "name": "amountCTKN",
          "type": "uint256"
        },
        {
          "indexed": false,
          "internalType": "uint256",
          "name": "priceETH",
          "type": "uint256"
        },
        {
          "indexed": false,
          "internalType": "uint256",
          "name": "listingIndex",
          "type": "uint256"
        }
      ],
      "name": "TokenListed",
      "type": "event"
    },
    {
      "anonymous": false,
      "inputs": [
        {
          "indexed": true,
          "internalType": "address",
          "name": "buyer",
          "type": "address"
        },
        {
          "indexed": true,
          "internalType": "address",
          "name": "seller",
          "type": "address"
        },
        {
          "indexed": false,
          "internalType": "uint256",
          "name": "amountCTKN",
          "type": "uint256"
        },
        {
          "indexed": false,
          "internalType": "uint256",
          "name": "priceETH",
          "type": "uint256"
        },
        {
          "indexed": false,
          "internalType": "uint256",
          "name": "listingIndex",
          "type": "uint256"
        }
      ],
      "name": "TokenPurchased",
      "type": "event"
    },
    {
      "anonymous": false,
      "inputs": [
        {
          "indexed": true,
          "internalType": "address",
          "name": "from",
          "type": "address"
        },
        {
          "indexed": true,
          "internalType": "address",
          "name": "to",
          "type": "address"
        },
        {
          "indexed": false,
          "internalType": "uint256",
          "name": "value",
          "type": "uint256"
        }
      ],
      "name": "Transfer",
      "type": "event"
    },
    {
      "inputs": [],
      "name": "DOMAIN_SEPARATOR",
      "outputs": [
        {
          "internalType": "bytes32",
          "name": "",
          "type": "bytes32"
        }
      ],
      "stateMutability": "view",
      "type": "function"
    },
    {
      "inputs": [
        {
          "internalType": "address",
          "name": "owner",
          "type": "address"
        },
        {
          "internalType": "address",
          "name": "spender",
          "type": "address"
        }
      ],
      "name": "allowance",
      "outputs": [
        {
          "internalType": "uint256",
          "name": "",
          "type": "uint256"
        }
      ],
      "stateMutability": "view",
      "type": "function"
    },
    {
      "inputs": [
        {
          "internalType": "address",
          "name": "spender",
          "type": "address"
        },
        {
          "internalType": "uint256",
          "name": "value",
          "type": "uint256"
        }
      ],
      "name": "approve",
      "outputs": [
        {
          "internalType": "bool",
          "name": "",
          "type": "bool"
        }
      ],
      "stateMutability": "nonpayable",
      "type": "function"
    },
    {
      "inputs": [
        {
          "internalType": "address",
          "name": "account",
          "type": "address"
        }
      ],
      "name": "balanceOf",
      "outputs": [
        {
          "internalType": "uint256",
          "name": "",
          "type": "uint256"
        }
      ],
      "stateMutability": "view",
      "type": "function"
    },
    {
      "inputs": [
        {
          "internalType": "uint256",
          "name": "value",
          "type": "uint256"
        }
      ],
      "name": "burn",
      "outputs": [],
      "stateMutability": "nonpayable",
      "type": "function"
    },
    {
      "inputs": [
        {
          "internalType": "address",
          "name": "account",
          "type": "address"
        },
        {
          "internalType": "uint256",
          "name": "value",
          "type": "uint256"
        }
      ],
      "name": "burnFrom",
      "outputs": [],
      "stateMutability": "nonpayable",
      "type": "function"
    },
    {
      "inputs": [
        {
          "internalType": "address",
          "name": "seller",
          "type": "address"
        },
        {
          "internalType": "uint256",
          "name": "listingIndex",
          "type": "uint256"
        },
        {
          "internalType": "string",
          "name": "_key",
          "type": "string"
        }
      ],
      "name": "buyToken",
      "outputs": [],
      "stateMutability": "payable",
      "type": "function"
    },
    {
      "inputs": [],
      "name": "decimals",
      "outputs": [
        {
          "internalType": "uint8",
          "name": "",
          "type": "uint8"
        }
      ],
      "stateMutability": "view",
      "type": "function"
    },
    {
      "inputs": [
        {
          "internalType": "uint256",
          "name": "listingIndex",
          "type": "uint256"
        },
        {
          "internalType": "string",
          "name": "_key",
          "type": "string"
        }
      ],
      "name": "deleteListing",
      "outputs": [],
      "stateMutability": "nonpayable",
      "type": "function"
    },
    {
      "inputs": [],
      "name": "eip712Domain",
      "outputs": [
        {
          "internalType": "bytes1",
          "name": "fields",
          "type": "bytes1"
        },
        {
          "internalType": "string",
          "name": "name",
          "type": "string"
        },
        {
          "internalType": "string",
          "name": "version",
          "type": "string"
        },
        {
          "internalType": "uint256",
          "name": "chainId",
          "type": "uint256"
        },
        {
          "internalType": "address",
          "name": "verifyingContract",
          "type": "address"
        },
        {
          "internalType": "bytes32",
          "name": "salt",
          "type": "bytes32"
        },
        {
          "internalType": "uint256[]",
          "name": "extensions",
          "type": "uint256[]"
        }
      ],
      "stateMutability": "view",
      "type": "function"
    },
    {
      "inputs": [
        {
          "internalType": "uint256",
          "name": "amountCTKN",
          "type": "uint256"
        },
        {
          "internalType": "uint256",
          "name": "priceETH",
          "type": "uint256"
        },
        {
          "internalType": "string",
          "name": "_key",
          "type": "string"
        }
      ],
      "name": "listTokenForSale",
      "outputs": [],
      "stateMutability": "nonpayable",
      "type": "function"
    },
    {
      "inputs": [
        {
          "internalType": "address",
          "name": "",
          "type": "address"
        },
        {
          "internalType": "uint256",
          "name": "",
          "type": "uint256"
        }
      ],
      "name": "listings",
      "outputs": [
        {
          "internalType": "uint256",
          "name": "amountCTKN",
          "type": "uint256"
        },
        {
          "internalType": "uint256",
          "name": "priceETH",
          "type": "uint256"
        },
        {
          "internalType": "bool",
          "name": "active",
          "type": "bool"
        }
      ],
      "stateMutability": "view",
      "type": "function"
    },
    {
      "inputs": [
        {
          "internalType": "address",
          "name": "to",
          "type": "address"
        },
        {
          "internalType": "uint256",
          "name": "amount",
          "type": "uint256"
        },
        {
          "internalType": "string",
          "name": "_key",
          "type": "string"
        },
        {
          "internalType": "string",
          "name": "ipfsHash",
          "type": "string"
        }
      ],
      "name": "mint",
      "outputs": [],
      "stateMutability": "nonpayable",
      "type": "function"
    },
    {
      "inputs": [],
      "name": "name",
      "outputs": [
        {
          "internalType": "string",
          "name": "",
          "type": "string"
        }
      ],
      "stateMutability": "view",
      "type": "function"
    },
    {
      "inputs": [
        {
          "internalType": "address",
          "name": "owner",
          "type": "address"
        }
      ],
      "name": "nonces",
      "outputs": [
        {
          "internalType": "uint256",
          "name": "",
          "type": "uint256"
        }
      ],
      "stateMutability": "view",
      "type": "function"
    },
    {
      "inputs": [],
      "name": "owner",
      "outputs": [
        {
          "internalType": "address",
          "name": "",
          "type": "address"
        }
      ],
      "stateMutability": "view",
      "type": "function"
    },
    {
      "inputs": [
        {
          "internalType": "address",
          "name": "owner",
          "type": "address"
        },
        {
          "internalType": "address",
          "name": "spender",
          "type": "address"
        },
        {
          "internalType": "uint256",
          "name": "value",
          "type": "uint256"
        },
        {
          "internalType": "uint256",
          "name": "deadline",
          "type": "uint256"
        },
        {
          "internalType": "uint8",
          "name": "v",
          "type": "uint8"
        },
        {
          "internalType": "bytes32",
          "name": "r",
          "type": "bytes32"
        },
        {
          "internalType": "bytes32",
          "name": "s",
          "type": "bytes32"
        }
      ],
      "name": "permit",
      "outputs": [],
      "stateMutability": "nonpayable",
      "type": "function"
    },
    {
      "inputs": [],
      "name": "renounceOwnership",
      "outputs": [],
      "stateMutability": "nonpayable",
      "type": "function"
    },
    {
      "inputs": [],
      "name": "symbol",
      "outputs": [
        {
          "internalType": "string",
          "name": "",
          "type": "string"
        }
      ],
      "stateMutability": "view",
      "type": "function"
    },
    {
      "inputs": [],
      "name": "totalSupply",
      "outputs": [
        {
          "internalType": "uint256",
          "name": "",
          "type": "uint256"
        }
      ],
      "stateMutability": "view",
      "type": "function"
    },
    {
      "inputs": [
        {
          "internalType": "address",
          "name": "to",
          "type": "address"
        },
        {
          "internalType": "uint256",
          "name": "value",
          "type": "uint256"
        }
      ],
      "name": "transfer",
      "outputs": [
        {
          "internalType": "bool",
          "name": "",
          "type": "bool"
        }
      ],
      "stateMutability": "nonpayable",
      "type": "function"
    },
    {
      "inputs": [
        {
          "internalType": "address",
          "name": "from",
          "type": "address"
        },
        {
          "internalType": "address",
          "name": "to",
          "type": "address"
        },
        {
          "internalType": "uint256",
          "name": "value",
          "type": "uint256"
        }
      ],
      "name": "transferFrom",
      "outputs": [
        {
          "internalType": "bool",
          "name": "",
          "type": "bool"
        }
      ],
      "stateMutability": "nonpayable",
      "type": "function"
    },
    {
      "inputs": [
        {
          "internalType": "address",
          "name": "newOwner",
          "type": "address"
        }
      ],
      "name": "transferOwnership",
      "outputs": [],
      "stateMutability": "nonpayable",
      "type": "function"
    },
    {
      "inputs": [
        {
          "internalType": "string",
          "name": "newSecretKey",
          "type": "string"
        }
      ],
      "name": "updateSecretKey",
      "outputs": [],
      "stateMutability": "nonpayable",
      "type": "function"
    },
    {
      "stateMutability": "payable",
      "type": "receive"
    }
  ],
  "bytecode": "0x6101606040523480156200001257600080fd5b5060405162003e4e38038062003e4e833981810160405281019062000038919062000691565b6040518060400160405280600b81526020017f436172626f6e546f6b656e000000000000000000000000000000000000000000815250806040518060400160405280600181526020017f3100000000000000000000000000000000000000000000000000000000000000815250846040518060400160405280600b81526020017f436172626f6e546f6b656e0000000000000000000000000000000000000000008152506040518060400160405280600481526020017f43544b4e00000000000000000000000000000000000000000000000000000000815250816003908162000123919062000942565b50806004908162000135919062000942565b505050600073ffffffffffffffffffffffffffffffffffffffff168173ffffffffffffffffffffffffffffffffffffffff1603620001ad5760006040517f1e4fbdf7000000000000000000000000000000000000000000000000000000008152600401620001a4919062000a3a565b60405180910390fd5b620001be81620002a760201b60201c565b50620001d56006836200036d60201b90919060201c565b6101208181525050620001f36007826200036d60201b90919060201c565b6101408181525050818051906020012060e08181525050808051906020012061010081815250504660a0818152505062000232620003c560201b60201c565b608081815250503073ffffffffffffffffffffffffffffffffffffffff1660c08173ffffffffffffffffffffffffffffffffffffffff16815250505050508060405160200162000283919062000a99565b60405160208183030381529060405280519060200120600a81905550505062000c53565b6000600560009054906101000a900473ffffffffffffffffffffffffffffffffffffffff16905081600560006101000a81548173ffffffffffffffffffffffffffffffffffffffff021916908373ffffffffffffffffffffffffffffffffffffffff1602179055508173ffffffffffffffffffffffffffffffffffffffff168173ffffffffffffffffffffffffffffffffffffffff167f8be0079c531659141344cd1fd0a4f28419497f9722a3daafe3b4186f6b6457e060405160405180910390a35050565b600060208351101562000393576200038b836200042260201b60201c565b9050620003bf565b82620003a5836200048f60201b60201c565b6000019081620003b6919062000942565b5060ff60001b90505b92915050565b60007f8b73c3c69bb8fe3d512ecc4cf759cc79239f7b179b0ffacaa9a75d522b39400f60e0516101005146306040516020016200040795949392919062000ade565b60405160208183030381529060405280519060200120905090565b600080829050601f815111156200047257826040517f305a27a900000000000000000000000000000000000000000000000000000000815260040162000469919062000b8d565b60405180910390fd5b805181620004809062000be3565b60001c1760001b915050919050565b6000819050919050565b6000604051905090565b600080fd5b600080fd5b600073ffffffffffffffffffffffffffffffffffffffff82169050919050565b6000620004da82620004ad565b9050919050565b620004ec81620004cd565b8114620004f857600080fd5b50565b6000815190506200050c81620004e1565b92915050565b600080fd5b600080fd5b6000601f19601f8301169050919050565b7f4e487b7100000000000000000000000000000000000000000000000000000000600052604160045260246000fd5b62000567826200051c565b810181811067ffffffffffffffff821117156200058957620005886200052d565b5b80604052505050565b60006200059e62000499565b9050620005ac82826200055c565b919050565b600067ffffffffffffffff821115620005cf57620005ce6200052d565b5b620005da826200051c565b9050602081019050919050565b60005b8381101562000607578082015181840152602081019050620005ea565b60008484015250505050565b60006200062a6200062484620005b1565b62000592565b90508281526020810184848401111562000649576200064862000517565b5b62000656848285620005e7565b509392505050565b600082601f83011262000676576200067562000512565b5b81516200068884826020860162000613565b91505092915050565b60008060408385031215620006ab57620006aa620004a3565b5b6000620006bb85828601620004fb565b925050602083015167ffffffffffffffff811115620006df57620006de620004a8565b5b620006ed858286016200065e565b9150509250929050565b600081519050919050565b7f4e487b7100000000000000000000000000000000000000000000000000000000600052602260045260246000fd5b600060028204905060018216806200074a57607f821691505b60208210810362000760576200075f62000702565b5b50919050565b60008190508160005260206000209050919050565b60006020601f8301049050919050565b600082821b905092915050565b600060088302620007ca7fffffffffffffffffffffffffffffffffffffffffffffffffffffffffffffffff826200078b565b620007d686836200078b565b95508019841693508086168417925050509392505050565b6000819050919050565b6000819050919050565b6000620008236200081d6200081784620007ee565b620007f8565b620007ee565b9050919050565b6000819050919050565b6200083f8362000802565b620008576200084e826200082a565b84845462000798565b825550505050565b600090565b6200086e6200085f565b6200087b81848462000834565b505050565b5b81811015620008a3576200089760008262000864565b60018101905062000881565b5050565b601f821115620008f257620008bc8162000766565b620008c7846200077b565b81016020851015620008d7578190505b620008ef620008e6856200077b565b83018262000880565b50505b505050565b600082821c905092915050565b60006200091760001984600802620008f7565b1980831691505092915050565b600062000932838362000904565b9150826002028217905092915050565b6200094d82620006f7565b67ffffffffffffffff8111156200096957620009686200052d565b5b62000975825462000731565b62000982828285620008a7565b600060209050601f831160018114620009ba5760008415620009a5578287015190505b620009b1858262000924565b86555062000a21565b601f198416620009ca8662000766565b60005b82811015620009f457848901518255600182019150602085019450602081019050620009cd565b8683101562000a14578489015162000a10601f89168262000904565b8355505b6001600288020188555050505b505050505050565b62000a3481620004cd565b82525050565b600060208201905062000a51600083018462000a29565b92915050565b600081905092915050565b600062000a6f82620006f7565b62000a7b818562000a57565b935062000a8d818560208601620005e7565b80840191505092915050565b600062000aa7828462000a62565b915081905092915050565b6000819050919050565b62000ac78162000ab2565b82525050565b62000ad881620007ee565b82525050565b600060a08201905062000af5600083018862000abc565b62000b04602083018762000abc565b62000b13604083018662000abc565b62000b22606083018562000acd565b62000b31608083018462000a29565b9695505050505050565b600082825260208201905092915050565b600062000b5982620006f7565b62000b65818562000b3b565b935062000b77818560208601620005e7565b62000b82816200051c565b840191505092915050565b6000602082019050818103600083015262000ba9818462000b4c565b905092915050565b600081519050919050565b6000819050602082019050919050565b600062000bda825162000ab2565b80915050919050565b600062000bf08262000bb1565b8262000bfc8462000bbc565b905062000c098162000bcc565b9250602082101562000c4c5762000c477fffffffffffffffffffffffffffffffffffffffffffffffffffffffffffffffff836020036008026200078b565b831692505b5050919050565b60805160a05160c05160e0516101005161012051610140516131a062000cae60003960006118610152600061182601526000611d7601526000611d5501526000611552015260006115a8015260006115d101526131a06000f3fe60806040526004361061014e5760003560e01c806370a08231116100b657806395d89b411161006f57806395d89b4114610495578063a9059cbb146104c0578063d505accf146104fd578063dd62ed3e14610526578063ee2d12b414610563578063f2fde38b1461058c57610155565b806370a082311461037f578063715018a6146103bc57806379cc6790146103d35780637ecebe00146103fc57806384b0196e146104395780638da5cb5b1461046a57610155565b80632fb102cf116101085780632fb102cf14610292578063313ce567146102bb5780633644e515146102e657806337f4ce0b1461031157806342966c681461032d578063578eaf441461035657610155565b806207df301461015a57806306fdde0314610199578063095ea7b3146101c4578063102b32231461020157806318160ddd1461022a57806323b872dd1461025557610155565b3661015557005b600080fd5b34801561016657600080fd5b50610181600480360381019061017c919061227b565b6105b5565b604051610190939291906122e5565b60405180910390f35b3480156101a557600080fd5b506101ae610609565b6040516101bb91906123ac565b60405180910390f35b3480156101d057600080fd5b506101eb60048036038101906101e6919061227b565b61069b565b6040516101f891906123ce565b60405180910390f35b34801561020d57600080fd5b506102286004803603810190610223919061251e565b6106be565b005b34801561023657600080fd5b5061023f6108e1565b60405161024c919061257a565b60405180910390f35b34801561026157600080fd5b5061027c60048036038101906102779190612595565b6108eb565b60405161028991906123ce565b60405180910390f35b34801561029e57600080fd5b506102b960048036038101906102b491906125e8565b61091a565b005b3480156102c757600080fd5b506102d06109e6565b6040516102dd91906126a3565b60405180910390f35b3480156102f257600080fd5b506102fb6109ef565b60405161030891906126d7565b60405180910390f35b61032b600480360381019061032691906126f2565b6109fe565b005b34801561033957600080fd5b50610354600480360381019061034f9190612761565b610c4f565b005b34801561036257600080fd5b5061037d6004803603810190610378919061278e565b610c63565b005b34801561038b57600080fd5b506103a660048036038101906103a191906127fd565b610e86565b6040516103b3919061257a565b60405180910390f35b3480156103c857600080fd5b506103d1610ece565b005b3480156103df57600080fd5b506103fa60048036038101906103f5919061227b565b610ee2565b005b34801561040857600080fd5b50610423600480360381019061041e91906127fd565b610f02565b604051610430919061257a565b60405180910390f35b34801561044557600080fd5b5061044e610f14565b6040516104619796959493929190612932565b60405180910390f35b34801561047657600080fd5b5061047f610fbe565b60405161048c91906129b6565b60405180910390f35b3480156104a157600080fd5b506104aa610fe8565b6040516104b791906123ac565b60405180910390f35b3480156104cc57600080fd5b506104e760048036038101906104e2919061227b565b61107a565b6040516104f491906123ce565b60405180910390f35b34801561050957600080fd5b50610524600480360381019061051f9190612a29565b61109d565b005b34801561053257600080fd5b5061054d60048036038101906105489190612acb565b6111e5565b60405161055a919061257a565b60405180910390f35b34801561056f57600080fd5b5061058a60048036038101906105859190612b0b565b61126c565b005b34801561059857600080fd5b506105b360048036038101906105ae91906127fd565b6112a4565b005b600960205281600052604060002081815481106105d157600080fd5b9060005260206000209060030201600091509150508060000154908060010154908060020160009054906101000a900460ff16905083565b60606003805461061890612b83565b80601f016020809104026020016040519081016040528092919081815260200182805461064490612b83565b80156106915780601f1061066657610100808354040283529160200191610691565b820191906000526020600020905b81548152906001019060200180831161067457829003601f168201915b5050505050905090565b6000806106a661132a565b90506106b3818585611332565b600191505092915050565b80600a54816040516020016106d39190612bf0565b6040516020818303038152906040528051906020012014610729576040517f08c379a000000000000000000000000000000000000000000000000000000000815260040161072090612c53565b60405180910390fd5b600960003373ffffffffffffffffffffffffffffffffffffffff1673ffffffffffffffffffffffffffffffffffffffff1681526020019081526020016000208054905083106107ad576040517f08c379a00000000000000000000000000000000000000000000000000000000081526004016107a490612cbf565b60405180910390fd5b6000600960003373ffffffffffffffffffffffffffffffffffffffff1673ffffffffffffffffffffffffffffffffffffffff1681526020019081526020016000208481548110610800576107ff612cdf565b5b906000526020600020906003020190508060020160009054906101000a900460ff16610861576040517f08c379a000000000000000000000000000000000000000000000000000000000815260040161085890612d80565b60405180910390fd5b61087030338360000154611344565b60008160020160006101000a81548160ff0219169083151502179055503373ffffffffffffffffffffffffffffffffffffffff167f53df6f80c006573b58e17d6440b870b40592881a21c175cde20004a4135dd460856040516108d3919061257a565b60405180910390a250505050565b6000600254905090565b6000806108f661132a565b9050610903858285611438565b61090e858585611344565b60019150509392505050565b81600a548160405160200161092f9190612bf0565b6040516020818303038152906040528051906020012014610985576040517f08c379a000000000000000000000000000000000000000000000000000000000815260040161097c90612c53565b60405180910390fd5b61098f85856114cc565b8473ffffffffffffffffffffffffffffffffffffffff167fde5d6fd45e32fffb472bcbaeedf6a2e3944633c9701eec7d99adfa07ad6104c185846040516109d7929190612da0565b60405180910390a25050505050565b60006012905090565b60006109f961154e565b905090565b80600a5481604051602001610a139190612bf0565b6040516020818303038152906040528051906020012014610a69576040517f08c379a0000000000000000000000000000000000000000000000000000000008152600401610a6090612c53565b60405180910390fd5b6000600960008673ffffffffffffffffffffffffffffffffffffffff1673ffffffffffffffffffffffffffffffffffffffff1681526020019081526020016000208481548110610abc57610abb612cdf565b5b906000526020600020906003020190508060020160009054906101000a900460ff16610b1d576040517f08c379a0000000000000000000000000000000000000000000000000000000008152600401610b1490612e1c565b60405180910390fd5b8060010154341015610b64576040517f08c379a0000000000000000000000000000000000000000000000000000000008152600401610b5b90612e88565b60405180910390fd5b610b7330338360000154611344565b8473ffffffffffffffffffffffffffffffffffffffff166108fc349081150290604051600060405180830381858888f19350505050158015610bb9573d6000803e3d6000fd5b5060008160020160006101000a81548160ff0219169083151502179055508473ffffffffffffffffffffffffffffffffffffffff163373ffffffffffffffffffffffffffffffffffffffff167f0a9521815fb3c5bc7dd6f4c9f89dc270322e46b945b104c18981f81c3f2cd1aa8360000154846001015488604051610c4093929190612ea8565b60405180910390a35050505050565b610c60610c5a61132a565b82611605565b50565b80600a5481604051602001610c789190612bf0565b6040516020818303038152906040528051906020012014610cce576040517f08c379a0000000000000000000000000000000000000000000000000000000008152600401610cc590612c53565b60405180910390fd5b83610cd833610e86565b1015610d19576040517f08c379a0000000000000000000000000000000000000000000000000000000008152600401610d1090612f2b565b60405180910390fd5b610d24333086611344565b600960003373ffffffffffffffffffffffffffffffffffffffff1673ffffffffffffffffffffffffffffffffffffffff1681526020019081526020016000206040518060600160405280868152602001858152602001600115158152509080600181540180825580915050600190039060005260206000209060030201600090919091909150600082015181600001556020820151816001015560408201518160020160006101000a81548160ff02191690831515021790555050503373ffffffffffffffffffffffffffffffffffffffff167fda2d7fa13c443a4ce51bb68b8ce92f41fac2c10d9d5bdb6a9e9a91429020b7c385856001600960003373ffffffffffffffffffffffffffffffffffffffff1673ffffffffffffffffffffffffffffffffffffffff16815260200190815260200160002080549050610e699190612f7a565b604051610e7893929190612ea8565b60405180910390a250505050565b60008060008373ffffffffffffffffffffffffffffffffffffffff1673ffffffffffffffffffffffffffffffffffffffff168152602001908152602001600020549050919050565b610ed6611687565b610ee0600061170e565b565b610ef482610eee61132a565b83611438565b610efe8282611605565b5050565b6000610f0d826117d4565b9050919050565b600060608060008060006060610f2861181d565b610f30611858565b46306000801b600067ffffffffffffffff811115610f5157610f506123f3565b5b604051908082528060200260200182016040528015610f7f5781602001602082028036833780820191505090505b507f0f00000000000000000000000000000000000000000000000000000000000000959493929190965096509650965096509650965090919293949596565b6000600560009054906101000a900473ffffffffffffffffffffffffffffffffffffffff16905090565b606060048054610ff790612b83565b80601f016020809104026020016040519081016040528092919081815260200182805461102390612b83565b80156110705780601f1061104557610100808354040283529160200191611070565b820191906000526020600020905b81548152906001019060200180831161105357829003601f168201915b5050505050905090565b60008061108561132a565b9050611092818585611344565b600191505092915050565b834211156110e257836040517f627913020000000000000000000000000000000000000000000000000000000081526004016110d9919061257a565b60405180910390fd5b60007f6e71edae12b1b97f4d1f60370fef10105fa2faae0126114a169c64845d6126c98888886111118c611893565b8960405160200161112796959493929190612fae565b604051602081830303815290604052805190602001209050600061114a826118ea565b9050600061115a82878787611904565b90508973ffffffffffffffffffffffffffffffffffffffff168173ffffffffffffffffffffffffffffffffffffffff16146111ce57808a6040517f4b800e460000000000000000000000000000000000000000000000000000000081526004016111c592919061300f565b60405180910390fd5b6111d98a8a8a611332565b50505050505050505050565b6000600160008473ffffffffffffffffffffffffffffffffffffffff1673ffffffffffffffffffffffffffffffffffffffff16815260200190815260200160002060008373ffffffffffffffffffffffffffffffffffffffff1673ffffffffffffffffffffffffffffffffffffffff16815260200190815260200160002054905092915050565b611274611687565b806040516020016112859190612bf0565b60405160208183030381529060405280519060200120600a8190555050565b6112ac611687565b600073ffffffffffffffffffffffffffffffffffffffff168173ffffffffffffffffffffffffffffffffffffffff160361131e5760006040517f1e4fbdf700000000000000000000000000000000000000000000000000000000815260040161131591906129b6565b60405180910390fd5b6113278161170e565b50565b600033905090565b61133f8383836001611934565b505050565b600073ffffffffffffffffffffffffffffffffffffffff168373ffffffffffffffffffffffffffffffffffffffff16036113b65760006040517f96c6fd1e0000000000000000000000000000000000000000000000000000000081526004016113ad91906129b6565b60405180910390fd5b600073ffffffffffffffffffffffffffffffffffffffff168273ffffffffffffffffffffffffffffffffffffffff16036114285760006040517fec442f0500000000000000000000000000000000000000000000000000000000815260040161141f91906129b6565b60405180910390fd5b611433838383611b0b565b505050565b600061144484846111e5565b90507fffffffffffffffffffffffffffffffffffffffffffffffffffffffffffffffff81146114c657818110156114b6578281836040517ffb8f41b20000000000000000000000000000000000000000000000000000000081526004016114ad93929190613038565b60405180910390fd5b6114c584848484036000611934565b5b50505050565b600073ffffffffffffffffffffffffffffffffffffffff168273ffffffffffffffffffffffffffffffffffffffff160361153e5760006040517fec442f0500000000000000000000000000000000000000000000000000000000815260040161153591906129b6565b60405180910390fd5b61154a60008383611b0b565b5050565b60007f000000000000000000000000000000000000000000000000000000000000000073ffffffffffffffffffffffffffffffffffffffff163073ffffffffffffffffffffffffffffffffffffffff161480156115ca57507f000000000000000000000000000000000000000000000000000000000000000046145b156115f7577f00000000000000000000000000000000000000000000000000000000000000009050611602565b6115ff611d30565b90505b90565b600073ffffffffffffffffffffffffffffffffffffffff168273ffffffffffffffffffffffffffffffffffffffff16036116775760006040517f96c6fd1e00000000000000000000000000000000000000000000000000000000815260040161166e91906129b6565b60405180910390fd5b61168382600083611b0b565b5050565b61168f61132a565b73ffffffffffffffffffffffffffffffffffffffff166116ad610fbe565b73ffffffffffffffffffffffffffffffffffffffff161461170c576116d061132a565b6040517f118cdaa700000000000000000000000000000000000000000000000000000000815260040161170391906129b6565b60405180910390fd5b565b6000600560009054906101000a900473ffffffffffffffffffffffffffffffffffffffff16905081600560006101000a81548173ffffffffffffffffffffffffffffffffffffffff021916908373ffffffffffffffffffffffffffffffffffffffff1602179055508173ffffffffffffffffffffffffffffffffffffffff168173ffffffffffffffffffffffffffffffffffffffff167f8be0079c531659141344cd1fd0a4f28419497f9722a3daafe3b4186f6b6457e060405160405180910390a35050565b6000600860008373ffffffffffffffffffffffffffffffffffffffff1673ffffffffffffffffffffffffffffffffffffffff168152602001908152602001600020549050919050565b606061185360067f0000000000000000000000000000000000000000000000000000000000000000611dc690919063ffffffff16565b905090565b606061188e60077f0000000000000000000000000000000000000000000000000000000000000000611dc690919063ffffffff16565b905090565b6000600860008373ffffffffffffffffffffffffffffffffffffffff1673ffffffffffffffffffffffffffffffffffffffff1681526020019081526020016000206000815480929190600101919050559050919050565b60006118fd6118f761154e565b83611e76565b9050919050565b60008060008061191688888888611eb7565b9250925092506119268282611fab565b829350505050949350505050565b600073ffffffffffffffffffffffffffffffffffffffff168473ffffffffffffffffffffffffffffffffffffffff16036119a65760006040517fe602df0500000000000000000000000000000000000000000000000000000000815260040161199d91906129b6565b60405180910390fd5b600073ffffffffffffffffffffffffffffffffffffffff168373ffffffffffffffffffffffffffffffffffffffff1603611a185760006040517f94280d62000000000000000000000000000000000000000000000000000000008152600401611a0f91906129b6565b60405180910390fd5b81600160008673ffffffffffffffffffffffffffffffffffffffff1673ffffffffffffffffffffffffffffffffffffffff16815260200190815260200160002060008573ffffffffffffffffffffffffffffffffffffffff1673ffffffffffffffffffffffffffffffffffffffff168152602001908152602001600020819055508015611b05578273ffffffffffffffffffffffffffffffffffffffff168473ffffffffffffffffffffffffffffffffffffffff167f8c5be1e5ebec7d5bd14f71427d1e84f3dd0314c0f7b2291e5b200ac8c7c3b92584604051611afc919061257a565b60405180910390a35b50505050565b600073ffffffffffffffffffffffffffffffffffffffff168373ffffffffffffffffffffffffffffffffffffffff1603611b5d578060026000828254611b51919061306f565b92505081905550611c30565b60008060008573ffffffffffffffffffffffffffffffffffffffff1673ffffffffffffffffffffffffffffffffffffffff16815260200190815260200160002054905081811015611be9578381836040517fe450d38c000000000000000000000000000000000000000000000000000000008152600401611be093929190613038565b60405180910390fd5b8181036000808673ffffffffffffffffffffffffffffffffffffffff1673ffffffffffffffffffffffffffffffffffffffff16815260200190815260200160002081905550505b600073ffffffffffffffffffffffffffffffffffffffff168273ffffffffffffffffffffffffffffffffffffffff1603611c795780600260008282540392505081905550611cc6565b806000808473ffffffffffffffffffffffffffffffffffffffff1673ffffffffffffffffffffffffffffffffffffffff168152602001908152602001600020600082825401925050819055505b8173ffffffffffffffffffffffffffffffffffffffff168373ffffffffffffffffffffffffffffffffffffffff167fddf252ad1be2c89b69c2b068fc378daa952ba7f163c4a11628f55a4df523b3ef83604051611d23919061257a565b60405180910390a3505050565b60007f8b73c3c69bb8fe3d512ecc4cf759cc79239f7b179b0ffacaa9a75d522b39400f7f00000000000000000000000000000000000000000000000000000000000000007f00000000000000000000000000000000000000000000000000000000000000004630604051602001611dab9594939291906130a3565b60405160208183030381529060405280519060200120905090565b606060ff60001b8314611de357611ddc8361210f565b9050611e70565b818054611def90612b83565b80601f0160208091040260200160405190810160405280929190818152602001828054611e1b90612b83565b8015611e685780601f10611e3d57610100808354040283529160200191611e68565b820191906000526020600020905b815481529060010190602001808311611e4b57829003601f168201915b505050505090505b92915050565b60006040517f190100000000000000000000000000000000000000000000000000000000000081528360028201528260228201526042812091505092915050565b60008060007f7fffffffffffffffffffffffffffffff5d576e7357a4501ddfe92f46681b20a08460001c1115611ef7576000600385925092509250611fa1565b600060018888888860405160008152602001604052604051611f1c94939291906130f6565b6020604051602081039080840390855afa158015611f3e573d6000803e3d6000fd5b505050602060405103519050600073ffffffffffffffffffffffffffffffffffffffff168173ffffffffffffffffffffffffffffffffffffffff1603611f9257600060016000801b93509350935050611fa1565b8060008060001b935093509350505b9450945094915050565b60006003811115611fbf57611fbe61313b565b5b826003811115611fd257611fd161313b565b5b031561210b5760016003811115611fec57611feb61313b565b5b826003811115611fff57611ffe61313b565b5b03612036576040517ff645eedf00000000000000000000000000000000000000000000000000000000815260040160405180910390fd5b6002600381111561204a5761204961313b565b5b82600381111561205d5761205c61313b565b5b036120a2578060001c6040517ffce698f7000000000000000000000000000000000000000000000000000000008152600401612099919061257a565b60405180910390fd5b6003808111156120b5576120b461313b565b5b8260038111156120c8576120c761313b565b5b0361210a57806040517fd78bce0c00000000000000000000000000000000000000000000000000000000815260040161210191906126d7565b60405180910390fd5b5b5050565b6060600061211c83612183565b90506000602067ffffffffffffffff81111561213b5761213a6123f3565b5b6040519080825280601f01601f19166020018201604052801561216d5781602001600182028036833780820191505090505b5090508181528360208201528092505050919050565b60008060ff8360001c169050601f8111156121ca576040517fb3512b0c00000000000000000000000000000000000000000000000000000000815260040160405180910390fd5b80915050919050565b6000604051905090565b600080fd5b600080fd5b600073ffffffffffffffffffffffffffffffffffffffff82169050919050565b6000612212826121e7565b9050919050565b61222281612207565b811461222d57600080fd5b50565b60008135905061223f81612219565b92915050565b6000819050919050565b61225881612245565b811461226357600080fd5b50565b6000813590506122758161224f565b92915050565b60008060408385031215612292576122916121dd565b5b60006122a085828601612230565b92505060206122b185828601612266565b9150509250929050565b6122c481612245565b82525050565b60008115159050919050565b6122df816122ca565b82525050565b60006060820190506122fa60008301866122bb565b61230760208301856122bb565b61231460408301846122d6565b949350505050565b600081519050919050565b600082825260208201905092915050565b60005b8381101561235657808201518184015260208101905061233b565b60008484015250505050565b6000601f19601f8301169050919050565b600061237e8261231c565b6123888185612327565b9350612398818560208601612338565b6123a181612362565b840191505092915050565b600060208201905081810360008301526123c68184612373565b905092915050565b60006020820190506123e360008301846122d6565b92915050565b600080fd5b600080fd5b7f4e487b7100000000000000000000000000000000000000000000000000000000600052604160045260246000fd5b61242b82612362565b810181811067ffffffffffffffff8211171561244a576124496123f3565b5b80604052505050565b600061245d6121d3565b90506124698282612422565b919050565b600067ffffffffffffffff821115612489576124886123f3565b5b61249282612362565b9050602081019050919050565b82818337600083830152505050565b60006124c16124bc8461246e565b612453565b9050828152602081018484840111156124dd576124dc6123ee565b5b6124e884828561249f565b509392505050565b600082601f830112612505576125046123e9565b5b81356125158482602086016124ae565b91505092915050565b60008060408385031215612535576125346121dd565b5b600061254385828601612266565b925050602083013567ffffffffffffffff811115612564576125636121e2565b5b612570858286016124f0565b9150509250929050565b600060208201905061258f60008301846122bb565b92915050565b6000806000606084860312156125ae576125ad6121dd565b5b60006125bc86828701612230565b93505060206125cd86828701612230565b92505060406125de86828701612266565b9150509250925092565b60008060008060808587031215612602576126016121dd565b5b600061261087828801612230565b945050602061262187828801612266565b935050604085013567ffffffffffffffff811115612642576126416121e2565b5b61264e878288016124f0565b925050606085013567ffffffffffffffff81111561266f5761266e6121e2565b5b61267b878288016124f0565b91505092959194509250565b600060ff82169050919050565b61269d81612687565b82525050565b60006020820190506126b86000830184612694565b92915050565b6000819050919050565b6126d1816126be565b82525050565b60006020820190506126ec60008301846126c8565b92915050565b60008060006060848603121561270b5761270a6121dd565b5b600061271986828701612230565b935050602061272a86828701612266565b925050604084013567ffffffffffffffff81111561274b5761274a6121e2565b5b612757868287016124f0565b9150509250925092565b600060208284031215612777576127766121dd565b5b600061278584828501612266565b91505092915050565b6000806000606084860312156127a7576127a66121dd565b5b60006127b586828701612266565b93505060206127c686828701612266565b925050604084013567ffffffffffffffff8111156127e7576127e66121e2565b5b6127f3868287016124f0565b9150509250925092565b600060208284031215612813576128126121dd565b5b600061282184828501612230565b91505092915050565b60007fff0000000000000000000000000000000000000000000000000000000000000082169050919050565b61285f8161282a565b82525050565b61286e81612207565b82525050565b600081519050919050565b600082825260208201905092915050565b6000819050602082019050919050565b6128a981612245565b82525050565b60006128bb83836128a0565b60208301905092915050565b6000602082019050919050565b60006128df82612874565b6128e9818561287f565b93506128f483612890565b8060005b8381101561292557815161290c88826128af565b9750612917836128c7565b9250506001810190506128f8565b5085935050505092915050565b600060e082019050612947600083018a612856565b81810360208301526129598189612373565b9050818103604083015261296d8188612373565b905061297c60608301876122bb565b6129896080830186612865565b61299660a08301856126c8565b81810360c08301526129a881846128d4565b905098975050505050505050565b60006020820190506129cb6000830184612865565b92915050565b6129da81612687565b81146129e557600080fd5b50565b6000813590506129f7816129d1565b92915050565b612a06816126be565b8114612a1157600080fd5b50565b600081359050612a23816129fd565b92915050565b600080600080600080600060e0888a031215612a4857612a476121dd565b5b6000612a568a828b01612230565b9750506020612a678a828b01612230565b9650506040612a788a828b01612266565b9550506060612a898a828b01612266565b9450506080612a9a8a828b016129e8565b93505060a0612aab8a828b01612a14565b92505060c0612abc8a828b01612a14565b91505092959891949750929550565b60008060408385031215612ae257612ae16121dd565b5b6000612af085828601612230565b9250506020612b0185828601612230565b9150509250929050565b600060208284031215612b2157612b206121dd565b5b600082013567ffffffffffffffff811115612b3f57612b3e6121e2565b5b612b4b848285016124f0565b91505092915050565b7f4e487b7100000000000000000000000000000000000000000000000000000000600052602260045260246000fd5b60006002820490506001821680612b9b57607f821691505b602082108103612bae57612bad612b54565b5b50919050565b600081905092915050565b6000612bca8261231c565b612bd48185612bb4565b9350612be4818560208601612338565b80840191505092915050565b6000612bfc8284612bbf565b915081905092915050565b7f496e76616c696420736563726574206b65790000000000000000000000000000600082015250565b6000612c3d601283612327565b9150612c4882612c07565b602082019050919050565b60006020820190508181036000830152612c6c81612c30565b9050919050565b7f496e76616c6964206c697374696e6720696e6465780000000000000000000000600082015250565b6000612ca9601583612327565b9150612cb482612c73565b602082019050919050565b60006020820190508181036000830152612cd881612c9c565b9050919050565b7f4e487b7100000000000000000000000000000000000000000000000000000000600052603260045260246000fd5b7f43616e6e6f742064656c65746520616e20696e616374697665206c697374696e60008201527f6700000000000000000000000000000000000000000000000000000000000000602082015250565b6000612d6a602183612327565b9150612d7582612d0e565b604082019050919050565b60006020820190508181036000830152612d9981612d5d565b9050919050565b6000604082019050612db560008301856122bb565b8181036020830152612dc78184612373565b90509392505050565b7f4c697374696e67206973206e6f74206163746976650000000000000000000000600082015250565b6000612e06601583612327565b9150612e1182612dd0565b602082019050919050565b60006020820190508181036000830152612e3581612df9565b9050919050565b7f496e73756666696369656e74204554482073656e740000000000000000000000600082015250565b6000612e72601583612327565b9150612e7d82612e3c565b602082019050919050565b60006020820190508181036000830152612ea181612e65565b9050919050565b6000606082019050612ebd60008301866122bb565b612eca60208301856122bb565b612ed760408301846122bb565b949350505050565b7f496e73756666696369656e742043544b4e2062616c616e636500000000000000600082015250565b6000612f15601983612327565b9150612f2082612edf565b602082019050919050565b60006020820190508181036000830152612f4481612f08565b9050919050565b7f4e487b7100000000000000000000000000000000000000000000000000000000600052601160045260246000fd5b6000612f8582612245565b9150612f9083612245565b9250828203905081811115612fa857612fa7612f4b565b5b92915050565b600060c082019050612fc360008301896126c8565b612fd06020830188612865565b612fdd6040830187612865565b612fea60608301866122bb565b612ff760808301856122bb565b61300460a08301846122bb565b979650505050505050565b60006040820190506130246000830185612865565b6130316020830184612865565b9392505050565b600060608201905061304d6000830186612865565b61305a60208301856122bb565b61306760408301846122bb565b949350505050565b600061307a82612245565b915061308583612245565b925082820190508082111561309d5761309c612f4b565b5b92915050565b600060a0820190506130b860008301886126c8565b6130c560208301876126c8565b6130d260408301866126c8565b6130df60608301856122bb565b6130ec6080830184612865565b9695505050505050565b600060808201905061310b60008301876126c8565b6131186020830186612694565b61312560408301856126c8565b61313260608301846126c8565b95945050505050565b7f4e487b7100000000000000000000000000000000000000000000000000000000600052602160045260246000fdfea26469706673582212205e89f139c344973aa7208f51447ed9678750ef1defdcae2a082709a8e685978764736f6c63430008180033",
  "linkReferences": {},
  "deployedLinkReferences": {}
}