{
  "_format": "hh-sol-artifact-1",
  "contractName": "CarbonToken",
  "sourceName": "contracts/CarbonToken.sol",
  "abi": [
    {
      "inputs": [
        {
          "internalType": "address",
          "name": "initialOwner",
          "type": "address"
        }
      ],
      "stateMutability": "nonpayable",
      "type": "constructor"
    },
    {
      "inputs": [],
      "name": "ECDSAInvalidSignature",
      "type": "error"
    },
    {
      "inputs": [
        {
          "internalType": "uint256",
          "name": "length",
          "type": "uint256"
        }
      ],
      "name": "ECDSAInvalidSignatureLength",
      "type": "error"
    },
    {
      "inputs": [
        {
          "internalType": "bytes32",
          "name": "s",
          "type": "bytes32"
        }
      ],
      "name": "ECDSAInvalidSignatureS",
      "type": "error"
    },
    {
      "inputs": [
        {
          "internalType": "address",
          "name": "spender",
          "type": "address"
        },
        {
          "internalType": "uint256",
          "name": "allowance",
          "type": "uint256"
        },
        {
          "internalType": "uint256",
          "name": "needed",
          "type": "uint256"
        }
      ],
      "name": "ERC20InsufficientAllowance",
      "type": "error"
    },
    {
      "inputs": [
        {
          "internalType": "address",
          "name": "sender",
          "type": "address"
        },
        {
          "internalType": "uint256",
          "name": "balance",
          "type": "uint256"
        },
        {
          "internalType": "uint256",
          "name": "needed",
          "type": "uint256"
        }
      ],
      "name": "ERC20InsufficientBalance",
      "type": "error"
    },
    {
      "inputs": [
        {
          "internalType": "address",
          "name": "approver",
          "type": "address"
        }
      ],
      "name": "ERC20InvalidApprover",
      "type": "error"
    },
    {
      "inputs": [
        {
          "internalType": "address",
          "name": "receiver",
          "type": "address"
        }
      ],
      "name": "ERC20InvalidReceiver",
      "type": "error"
    },
    {
      "inputs": [
        {
          "internalType": "address",
          "name": "sender",
          "type": "address"
        }
      ],
      "name": "ERC20InvalidSender",
      "type": "error"
    },
    {
      "inputs": [
        {
          "internalType": "address",
          "name": "spender",
          "type": "address"
        }
      ],
      "name": "ERC20InvalidSpender",
      "type": "error"
    },
    {
      "inputs": [
        {
          "internalType": "uint256",
          "name": "deadline",
          "type": "uint256"
        }
      ],
      "name": "ERC2612ExpiredSignature",
      "type": "error"
    },
    {
      "inputs": [
        {
          "internalType": "address",
          "name": "signer",
          "type": "address"
        },
        {
          "internalType": "address",
          "name": "owner",
          "type": "address"
        }
      ],
      "name": "ERC2612InvalidSigner",
      "type": "error"
    },
    {
      "inputs": [
        {
          "internalType": "address",
          "name": "account",
          "type": "address"
        },
        {
          "internalType": "uint256",
          "name": "currentNonce",
          "type": "uint256"
        }
      ],
      "name": "InvalidAccountNonce",
      "type": "error"
    },
    {
      "inputs": [],
      "name": "InvalidShortString",
      "type": "error"
    },
    {
      "inputs": [
        {
          "internalType": "address",
          "name": "owner",
          "type": "address"
        }
      ],
      "name": "OwnableInvalidOwner",
      "type": "error"
    },
    {
      "inputs": [
        {
          "internalType": "address",
          "name": "account",
          "type": "address"
        }
      ],
      "name": "OwnableUnauthorizedAccount",
      "type": "error"
    },
    {
      "inputs": [
        {
          "internalType": "string",
          "name": "str",
          "type": "string"
        }
      ],
      "name": "StringTooLong",
      "type": "error"
    },
    {
      "anonymous": false,
      "inputs": [
        {
          "indexed": true,
          "internalType": "address",
          "name": "owner",
          "type": "address"
        },
        {
          "indexed": true,
          "internalType": "address",
          "name": "spender",
          "type": "address"
        },
        {
          "indexed": false,
          "internalType": "uint256",
          "name": "value",
          "type": "uint256"
        }
      ],
      "name": "Approval",
      "type": "event"
    },
    {
      "anonymous": false,
      "inputs": [],
      "name": "EIP712DomainChanged",
      "type": "event"
    },
    {
      "anonymous": false,
      "inputs": [
        {
          "indexed": true,
          "internalType": "address",
          "name": "previousOwner",
          "type": "address"
        },
        {
          "indexed": true,
          "internalType": "address",
          "name": "newOwner",
          "type": "address"
        }
      ],
      "name": "OwnershipTransferred",
      "type": "event"
    },
    {
      "anonymous": false,
      "inputs": [
        {
          "indexed": true,
          "internalType": "address",
          "name": "from",
          "type": "address"
        },
        {
          "indexed": true,
          "internalType": "address",
          "name": "to",
          "type": "address"
        },
        {
          "indexed": false,
          "internalType": "uint256",
          "name": "value",
          "type": "uint256"
        }
      ],
      "name": "Transfer",
      "type": "event"
    },
    {
      "inputs": [],
      "name": "DOMAIN_SEPARATOR",
      "outputs": [
        {
          "internalType": "bytes32",
          "name": "",
          "type": "bytes32"
        }
      ],
      "stateMutability": "view",
      "type": "function"
    },
    {
      "inputs": [
        {
          "internalType": "address",
          "name": "owner",
          "type": "address"
        },
        {
          "internalType": "address",
          "name": "spender",
          "type": "address"
        }
      ],
      "name": "allowance",
      "outputs": [
        {
          "internalType": "uint256",
          "name": "",
          "type": "uint256"
        }
      ],
      "stateMutability": "view",
      "type": "function"
    },
    {
      "inputs": [
        {
          "internalType": "address",
          "name": "spender",
          "type": "address"
        },
        {
          "internalType": "uint256",
          "name": "value",
          "type": "uint256"
        }
      ],
      "name": "approve",
      "outputs": [
        {
          "internalType": "bool",
          "name": "",
          "type": "bool"
        }
      ],
      "stateMutability": "nonpayable",
      "type": "function"
    },
    {
      "inputs": [
        {
          "internalType": "address",
          "name": "account",
          "type": "address"
        }
      ],
      "name": "balanceOf",
      "outputs": [
        {
          "internalType": "uint256",
          "name": "",
          "type": "uint256"
        }
      ],
      "stateMutability": "view",
      "type": "function"
    },
    {
      "inputs": [
        {
          "internalType": "uint256",
          "name": "value",
          "type": "uint256"
        }
      ],
      "name": "burn",
      "outputs": [],
      "stateMutability": "nonpayable",
      "type": "function"
    },
    {
      "inputs": [
        {
          "internalType": "address",
          "name": "account",
          "type": "address"
        },
        {
          "internalType": "uint256",
          "name": "value",
          "type": "uint256"
        }
      ],
      "name": "burnFrom",
      "outputs": [],
      "stateMutability": "nonpayable",
      "type": "function"
    },
    {
      "inputs": [],
      "name": "decimals",
      "outputs": [
        {
          "internalType": "uint8",
          "name": "",
          "type": "uint8"
        }
      ],
      "stateMutability": "view",
      "type": "function"
    },
    {
      "inputs": [],
      "name": "eip712Domain",
      "outputs": [
        {
          "internalType": "bytes1",
          "name": "fields",
          "type": "bytes1"
        },
        {
          "internalType": "string",
          "name": "name",
          "type": "string"
        },
        {
          "internalType": "string",
          "name": "version",
          "type": "string"
        },
        {
          "internalType": "uint256",
          "name": "chainId",
          "type": "uint256"
        },
        {
          "internalType": "address",
          "name": "verifyingContract",
          "type": "address"
        },
        {
          "internalType": "bytes32",
          "name": "salt",
          "type": "bytes32"
        },
        {
          "internalType": "uint256[]",
          "name": "extensions",
          "type": "uint256[]"
        }
      ],
      "stateMutability": "view",
      "type": "function"
    },
    {
      "inputs": [
        {
          "internalType": "address",
          "name": "to",
          "type": "address"
        },
        {
          "internalType": "uint256",
          "name": "amount",
          "type": "uint256"
        }
      ],
      "name": "mint",
      "outputs": [],
      "stateMutability": "nonpayable",
      "type": "function"
    },
    {
      "inputs": [],
      "name": "name",
      "outputs": [
        {
          "internalType": "string",
          "name": "",
          "type": "string"
        }
      ],
      "stateMutability": "view",
      "type": "function"
    },
    {
      "inputs": [
        {
          "internalType": "address",
          "name": "owner",
          "type": "address"
        }
      ],
      "name": "nonces",
      "outputs": [
        {
          "internalType": "uint256",
          "name": "",
          "type": "uint256"
        }
      ],
      "stateMutability": "view",
      "type": "function"
    },
    {
      "inputs": [],
      "name": "owner",
      "outputs": [
        {
          "internalType": "address",
          "name": "",
          "type": "address"
        }
      ],
      "stateMutability": "view",
      "type": "function"
    },
    {
      "inputs": [
        {
          "internalType": "address",
          "name": "owner",
          "type": "address"
        },
        {
          "internalType": "address",
          "name": "spender",
          "type": "address"
        },
        {
          "internalType": "uint256",
          "name": "value",
          "type": "uint256"
        },
        {
          "internalType": "uint256",
          "name": "deadline",
          "type": "uint256"
        },
        {
          "internalType": "uint8",
          "name": "v",
          "type": "uint8"
        },
        {
          "internalType": "bytes32",
          "name": "r",
          "type": "bytes32"
        },
        {
          "internalType": "bytes32",
          "name": "s",
          "type": "bytes32"
        }
      ],
      "name": "permit",
      "outputs": [],
      "stateMutability": "nonpayable",
      "type": "function"
    },
    {
      "inputs": [],
      "name": "renounceOwnership",
      "outputs": [],
      "stateMutability": "nonpayable",
      "type": "function"
    },
    {
      "inputs": [],
      "name": "symbol",
      "outputs": [
        {
          "internalType": "string",
          "name": "",
          "type": "string"
        }
      ],
      "stateMutability": "view",
      "type": "function"
    },
    {
      "inputs": [],
      "name": "totalSupply",
      "outputs": [
        {
          "internalType": "uint256",
          "name": "",
          "type": "uint256"
        }
      ],
      "stateMutability": "view",
      "type": "function"
    },
    {
      "inputs": [
        {
          "internalType": "address",
          "name": "to",
          "type": "address"
        },
        {
          "internalType": "uint256",
          "name": "value",
          "type": "uint256"
        }
      ],
      "name": "transfer",
      "outputs": [
        {
          "internalType": "bool",
          "name": "",
          "type": "bool"
        }
      ],
      "stateMutability": "nonpayable",
      "type": "function"
    },
    {
      "inputs": [
        {
          "internalType": "address",
          "name": "recipient",
          "type": "address"
        },
        {
          "internalType": "uint256",
          "name": "amountCTKN",
          "type": "uint256"
        },
        {
          "internalType": "uint256",
          "name": "amountETH",
          "type": "uint256"
        }
      ],
      "name": "transferCTKNWithETHBack",
      "outputs": [],
      "stateMutability": "payable",
      "type": "function"
    },
    {
      "inputs": [
        {
          "internalType": "address",
          "name": "from",
          "type": "address"
        },
        {
          "internalType": "address",
          "name": "to",
          "type": "address"
        },
        {
          "internalType": "uint256",
          "name": "value",
          "type": "uint256"
        }
      ],
      "name": "transferFrom",
      "outputs": [
        {
          "internalType": "bool",
          "name": "",
          "type": "bool"
        }
      ],
      "stateMutability": "nonpayable",
      "type": "function"
    },
    {
      "inputs": [
        {
          "internalType": "address",
          "name": "newOwner",
          "type": "address"
        }
      ],
      "name": "transferOwnership",
      "outputs": [],
      "stateMutability": "nonpayable",
      "type": "function"
    },
    {
      "stateMutability": "payable",
      "type": "receive"
    }
  ],
  "bytecode": "0x6101606040523480156200001257600080fd5b50604051620034f8380380620034f88339818101604052810190620000389190620007d7565b6040518060400160405280600b81526020017f436172626f6e546f6b656e000000000000000000000000000000000000000000815250806040518060400160405280600181526020017f3100000000000000000000000000000000000000000000000000000000000000815250836040518060400160405280600b81526020017f436172626f6e546f6b656e0000000000000000000000000000000000000000008152506040518060400160405280600481526020017f43544b4e00000000000000000000000000000000000000000000000000000000815250816003908162000123919062000a83565b50806004908162000135919062000a83565b505050600073ffffffffffffffffffffffffffffffffffffffff168173ffffffffffffffffffffffffffffffffffffffff1603620001ad5760006040517f1e4fbdf7000000000000000000000000000000000000000000000000000000008152600401620001a4919062000b7b565b60405180910390fd5b620001be81620002b560201b60201c565b50620001d56006836200037b60201b90919060201c565b6101208181525050620001f36007826200037b60201b90919060201c565b6101408181525050818051906020012060e08181525050808051906020012061010081815250504660a0818152505062000232620003d360201b60201c565b608081815250503073ffffffffffffffffffffffffffffffffffffffff1660c08173ffffffffffffffffffffffffffffffffffffffff1681525050505050620002ae33620002856200043060201b60201c565b600a62000293919062000d28565b612710620002a2919062000d79565b6200043960201b60201c565b5062001037565b6000600560009054906101000a900473ffffffffffffffffffffffffffffffffffffffff16905081600560006101000a81548173ffffffffffffffffffffffffffffffffffffffff021916908373ffffffffffffffffffffffffffffffffffffffff1602179055508173ffffffffffffffffffffffffffffffffffffffff168173ffffffffffffffffffffffffffffffffffffffff167f8be0079c531659141344cd1fd0a4f28419497f9722a3daafe3b4186f6b6457e060405160405180910390a35050565b6000602083511015620003a1576200039983620004c660201b60201c565b9050620003cd565b82620003b3836200053360201b60201c565b6000019081620003c4919062000a83565b5060ff60001b90505b92915050565b60007f8b73c3c69bb8fe3d512ecc4cf759cc79239f7b179b0ffacaa9a75d522b39400f60e0516101005146306040516020016200041595949392919062000df0565b60405160208183030381529060405280519060200120905090565b60006012905090565b600073ffffffffffffffffffffffffffffffffffffffff168273ffffffffffffffffffffffffffffffffffffffff1603620004ae5760006040517fec442f05000000000000000000000000000000000000000000000000000000008152600401620004a5919062000b7b565b60405180910390fd5b620004c2600083836200053d60201b60201c565b5050565b600080829050601f815111156200051657826040517f305a27a90000000000000000000000000000000000000000000000000000000081526004016200050d919062000edc565b60405180910390fd5b805181620005249062000f32565b60001c1760001b915050919050565b6000819050919050565b600073ffffffffffffffffffffffffffffffffffffffff168373ffffffffffffffffffffffffffffffffffffffff16036200059357806002600082825462000586919062000fa2565b9250508190555062000669565b60008060008573ffffffffffffffffffffffffffffffffffffffff1673ffffffffffffffffffffffffffffffffffffffff1681526020019081526020016000205490508181101562000622578381836040517fe450d38c000000000000000000000000000000000000000000000000000000008152600401620006199392919062000fdd565b60405180910390fd5b8181036000808673ffffffffffffffffffffffffffffffffffffffff1673ffffffffffffffffffffffffffffffffffffffff16815260200190815260200160002081905550505b600073ffffffffffffffffffffffffffffffffffffffff168273ffffffffffffffffffffffffffffffffffffffff1603620006b4578060026000828254039250508190555062000701565b806000808473ffffffffffffffffffffffffffffffffffffffff1673ffffffffffffffffffffffffffffffffffffffff168152602001908152602001600020600082825401925050819055505b8173ffffffffffffffffffffffffffffffffffffffff168373ffffffffffffffffffffffffffffffffffffffff167fddf252ad1be2c89b69c2b068fc378daa952ba7f163c4a11628f55a4df523b3ef836040516200076091906200101a565b60405180910390a3505050565b600080fd5b600073ffffffffffffffffffffffffffffffffffffffff82169050919050565b60006200079f8262000772565b9050919050565b620007b18162000792565b8114620007bd57600080fd5b50565b600081519050620007d181620007a6565b92915050565b600060208284031215620007f057620007ef6200076d565b5b60006200080084828501620007c0565b91505092915050565b600081519050919050565b7f4e487b7100000000000000000000000000000000000000000000000000000000600052604160045260246000fd5b7f4e487b7100000000000000000000000000000000000000000000000000000000600052602260045260246000fd5b600060028204905060018216806200088b57607f821691505b602082108103620008a157620008a062000843565b5b50919050565b60008190508160005260206000209050919050565b60006020601f8301049050919050565b600082821b905092915050565b6000600883026200090b7fffffffffffffffffffffffffffffffffffffffffffffffffffffffffffffffff82620008cc565b620009178683620008cc565b95508019841693508086168417925050509392505050565b6000819050919050565b6000819050919050565b6000620009646200095e62000958846200092f565b62000939565b6200092f565b9050919050565b6000819050919050565b620009808362000943565b620009986200098f826200096b565b848454620008d9565b825550505050565b600090565b620009af620009a0565b620009bc81848462000975565b505050565b5b81811015620009e457620009d8600082620009a5565b600181019050620009c2565b5050565b601f82111562000a3357620009fd81620008a7565b62000a0884620008bc565b8101602085101562000a18578190505b62000a3062000a2785620008bc565b830182620009c1565b50505b505050565b600082821c905092915050565b600062000a586000198460080262000a38565b1980831691505092915050565b600062000a73838362000a45565b9150826002028217905092915050565b62000a8e8262000809565b67ffffffffffffffff81111562000aaa5762000aa962000814565b5b62000ab6825462000872565b62000ac3828285620009e8565b600060209050601f83116001811462000afb576000841562000ae6578287015190505b62000af2858262000a65565b86555062000b62565b601f19841662000b0b86620008a7565b60005b8281101562000b355784890151825560018201915060208501945060208101905062000b0e565b8683101562000b55578489015162000b51601f89168262000a45565b8355505b6001600288020188555050505b505050505050565b62000b758162000792565b82525050565b600060208201905062000b92600083018462000b6a565b92915050565b7f4e487b7100000000000000000000000000000000000000000000000000000000600052601160045260246000fd5b60008160011c9050919050565b6000808291508390505b600185111562000c265780860481111562000bfe5762000bfd62000b98565b5b600185161562000c0e5780820291505b808102905062000c1e8562000bc7565b945062000bde565b94509492505050565b60008262000c41576001905062000d14565b8162000c51576000905062000d14565b816001811462000c6a576002811462000c755762000cab565b600191505062000d14565b60ff84111562000c8a5762000c8962000b98565b5b8360020a91508482111562000ca45762000ca362000b98565b5b5062000d14565b5060208310610133831016604e8410600b841016171562000ce55782820a90508381111562000cdf5762000cde62000b98565b5b62000d14565b62000cf4848484600162000bd4565b9250905081840481111562000d0e5762000d0d62000b98565b5b81810290505b9392505050565b600060ff82169050919050565b600062000d35826200092f565b915062000d428362000d1b565b925062000d717fffffffffffffffffffffffffffffffffffffffffffffffffffffffffffffffff848462000c2f565b905092915050565b600062000d86826200092f565b915062000d93836200092f565b925082820262000da3816200092f565b9150828204841483151762000dbd5762000dbc62000b98565b5b5092915050565b6000819050919050565b62000dd98162000dc4565b82525050565b62000dea816200092f565b82525050565b600060a08201905062000e07600083018862000dce565b62000e16602083018762000dce565b62000e25604083018662000dce565b62000e34606083018562000ddf565b62000e43608083018462000b6a565b9695505050505050565b600082825260208201905092915050565b60005b8381101562000e7e57808201518184015260208101905062000e61565b60008484015250505050565b6000601f19601f8301169050919050565b600062000ea88262000809565b62000eb4818562000e4d565b935062000ec681856020860162000e5e565b62000ed18162000e8a565b840191505092915050565b6000602082019050818103600083015262000ef8818462000e9b565b905092915050565b600081519050919050565b6000819050602082019050919050565b600062000f29825162000dc4565b80915050919050565b600062000f3f8262000f00565b8262000f4b8462000f0b565b905062000f588162000f1b565b9250602082101562000f9b5762000f967fffffffffffffffffffffffffffffffffffffffffffffffffffffffffffffffff83602003600802620008cc565b831692505b5050919050565b600062000faf826200092f565b915062000fbc836200092f565b925082820190508082111562000fd75762000fd662000b98565b5b92915050565b600060608201905062000ff4600083018662000b6a565b62001003602083018562000ddf565b62001012604083018462000ddf565b949350505050565b600060208201905062001031600083018462000ddf565b92915050565b60805160a05160c05160e0516101005161012051610140516124666200109260003960006110a301526000611068015260006115b80152600061159701526000610d1201526000610d6801526000610d9101526124666000f3fe6080604052600436106101235760003560e01c8063715018a6116100a057806395d89b411161006457806395d89b41146103d9578063a9059cbb14610404578063d505accf14610441578063dd62ed3e1461046a578063f2fde38b146104a75761012a565b8063715018a61461030057806379cc6790146103175780637ecebe001461034057806384b0196e1461037d5780638da5cb5b146103ae5761012a565b8063313ce567116100e7578063313ce5671461021b5780633644e5151461024657806340c10f191461027157806342966c681461029a57806370a08231146102c35761012a565b806303f72ba21461012f57806306fdde031461014b578063095ea7b31461017657806318160ddd146101b357806323b872dd146101de5761012a565b3661012a57005b600080fd5b61014960048036038101906101449190611aae565b6104d0565b005b34801561015757600080fd5b506101606105d0565b60405161016d9190611b91565b60405180910390f35b34801561018257600080fd5b5061019d60048036038101906101989190611bb3565b610662565b6040516101aa9190611c0e565b60405180910390f35b3480156101bf57600080fd5b506101c8610685565b6040516101d59190611c38565b60405180910390f35b3480156101ea57600080fd5b5061020560048036038101906102009190611c53565b61068f565b6040516102129190611c0e565b60405180910390f35b34801561022757600080fd5b506102306106be565b60405161023d9190611cc2565b60405180910390f35b34801561025257600080fd5b5061025b6106c7565b6040516102689190611cf6565b60405180910390f35b34801561027d57600080fd5b5061029860048036038101906102939190611bb3565b6106d6565b005b3480156102a657600080fd5b506102c160048036038101906102bc9190611d11565b6106ec565b005b3480156102cf57600080fd5b506102ea60048036038101906102e59190611d3e565b610700565b6040516102f79190611c38565b60405180910390f35b34801561030c57600080fd5b50610315610748565b005b34801561032357600080fd5b5061033e60048036038101906103399190611bb3565b61075c565b005b34801561034c57600080fd5b5061036760048036038101906103629190611d3e565b61077c565b6040516103749190611c38565b60405180910390f35b34801561038957600080fd5b5061039261078e565b6040516103a59796959493929190611e73565b60405180910390f35b3480156103ba57600080fd5b506103c3610838565b6040516103d09190611ef7565b60405180910390f35b3480156103e557600080fd5b506103ee610862565b6040516103fb9190611b91565b60405180910390f35b34801561041057600080fd5b5061042b60048036038101906104269190611bb3565b6108f4565b6040516104389190611c0e565b60405180910390f35b34801561044d57600080fd5b5061046860048036038101906104639190611f6a565b610917565b005b34801561047657600080fd5b50610491600480360381019061048c919061200c565b610a5f565b60405161049e9190611c38565b60405180910390f35b3480156104b357600080fd5b506104ce60048036038101906104c99190611d3e565b610ae6565b005b80471015610513576040517f08c379a000000000000000000000000000000000000000000000000000000000815260040161050a906120be565b60405180910390fd5b61051e338484610b6c565b60008373ffffffffffffffffffffffffffffffffffffffff16826040516105449061210f565b60006040518083038185875af1925050503d8060008114610581576040519150601f19603f3d011682016040523d82523d6000602084013e610586565b606091505b50509050806105ca576040517f08c379a00000000000000000000000000000000000000000000000000000000081526004016105c190612196565b60405180910390fd5b50505050565b6060600380546105df906121e5565b80601f016020809104026020016040519081016040528092919081815260200182805461060b906121e5565b80156106585780601f1061062d57610100808354040283529160200191610658565b820191906000526020600020905b81548152906001019060200180831161063b57829003601f168201915b5050505050905090565b60008061066d610c60565b905061067a818585610c68565b600191505092915050565b6000600254905090565b60008061069a610c60565b90506106a7858285610c7a565b6106b2858585610b6c565b60019150509392505050565b60006012905090565b60006106d1610d0e565b905090565b6106de610dc5565b6106e88282610e4c565b5050565b6106fd6106f7610c60565b82610ece565b50565b60008060008373ffffffffffffffffffffffffffffffffffffffff1673ffffffffffffffffffffffffffffffffffffffff168152602001908152602001600020549050919050565b610750610dc5565b61075a6000610f50565b565b61076e82610768610c60565b83610c7a565b6107788282610ece565b5050565b600061078782611016565b9050919050565b6000606080600080600060606107a261105f565b6107aa61109a565b46306000801b600067ffffffffffffffff8111156107cb576107ca612216565b5b6040519080825280602002602001820160405280156107f95781602001602082028036833780820191505090505b507f0f00000000000000000000000000000000000000000000000000000000000000959493929190965096509650965096509650965090919293949596565b6000600560009054906101000a900473ffffffffffffffffffffffffffffffffffffffff16905090565b606060048054610871906121e5565b80601f016020809104026020016040519081016040528092919081815260200182805461089d906121e5565b80156108ea5780601f106108bf576101008083540402835291602001916108ea565b820191906000526020600020905b8154815290600101906020018083116108cd57829003601f168201915b5050505050905090565b6000806108ff610c60565b905061090c818585610b6c565b600191505092915050565b8342111561095c57836040517f627913020000000000000000000000000000000000000000000000000000000081526004016109539190611c38565b60405180910390fd5b60007f6e71edae12b1b97f4d1f60370fef10105fa2faae0126114a169c64845d6126c988888861098b8c6110d5565b896040516020016109a196959493929190612245565b60405160208183030381529060405280519060200120905060006109c48261112c565b905060006109d482878787611146565b90508973ffffffffffffffffffffffffffffffffffffffff168173ffffffffffffffffffffffffffffffffffffffff1614610a4857808a6040517f4b800e46000000000000000000000000000000000000000000000000000000008152600401610a3f9291906122a6565b60405180910390fd5b610a538a8a8a610c68565b50505050505050505050565b6000600160008473ffffffffffffffffffffffffffffffffffffffff1673ffffffffffffffffffffffffffffffffffffffff16815260200190815260200160002060008373ffffffffffffffffffffffffffffffffffffffff1673ffffffffffffffffffffffffffffffffffffffff16815260200190815260200160002054905092915050565b610aee610dc5565b600073ffffffffffffffffffffffffffffffffffffffff168173ffffffffffffffffffffffffffffffffffffffff1603610b605760006040517f1e4fbdf7000000000000000000000000000000000000000000000000000000008152600401610b579190611ef7565b60405180910390fd5b610b6981610f50565b50565b600073ffffffffffffffffffffffffffffffffffffffff168373ffffffffffffffffffffffffffffffffffffffff1603610bde5760006040517f96c6fd1e000000000000000000000000000000000000000000000000000000008152600401610bd59190611ef7565b60405180910390fd5b600073ffffffffffffffffffffffffffffffffffffffff168273ffffffffffffffffffffffffffffffffffffffff1603610c505760006040517fec442f05000000000000000000000000000000000000000000000000000000008152600401610c479190611ef7565b60405180910390fd5b610c5b838383611176565b505050565b600033905090565b610c75838383600161139b565b505050565b6000610c868484610a5f565b90507fffffffffffffffffffffffffffffffffffffffffffffffffffffffffffffffff8114610d085781811015610cf8578281836040517ffb8f41b2000000000000000000000000000000000000000000000000000000008152600401610cef939291906122cf565b60405180910390fd5b610d078484848403600061139b565b5b50505050565b60007f000000000000000000000000000000000000000000000000000000000000000073ffffffffffffffffffffffffffffffffffffffff163073ffffffffffffffffffffffffffffffffffffffff16148015610d8a57507f000000000000000000000000000000000000000000000000000000000000000046145b15610db7577f00000000000000000000000000000000000000000000000000000000000000009050610dc2565b610dbf611572565b90505b90565b610dcd610c60565b73ffffffffffffffffffffffffffffffffffffffff16610deb610838565b73ffffffffffffffffffffffffffffffffffffffff1614610e4a57610e0e610c60565b6040517f118cdaa7000000000000000000000000000000000000000000000000000000008152600401610e419190611ef7565b60405180910390fd5b565b600073ffffffffffffffffffffffffffffffffffffffff168273ffffffffffffffffffffffffffffffffffffffff1603610ebe5760006040517fec442f05000000000000000000000000000000000000000000000000000000008152600401610eb59190611ef7565b60405180910390fd5b610eca60008383611176565b5050565b600073ffffffffffffffffffffffffffffffffffffffff168273ffffffffffffffffffffffffffffffffffffffff1603610f405760006040517f96c6fd1e000000000000000000000000000000000000000000000000000000008152600401610f379190611ef7565b60405180910390fd5b610f4c82600083611176565b5050565b6000600560009054906101000a900473ffffffffffffffffffffffffffffffffffffffff16905081600560006101000a81548173ffffffffffffffffffffffffffffffffffffffff021916908373ffffffffffffffffffffffffffffffffffffffff1602179055508173ffffffffffffffffffffffffffffffffffffffff168173ffffffffffffffffffffffffffffffffffffffff167f8be0079c531659141344cd1fd0a4f28419497f9722a3daafe3b4186f6b6457e060405160405180910390a35050565b6000600860008373ffffffffffffffffffffffffffffffffffffffff1673ffffffffffffffffffffffffffffffffffffffff168152602001908152602001600020549050919050565b606061109560067f000000000000000000000000000000000000000000000000000000000000000061160890919063ffffffff16565b905090565b60606110d060077f000000000000000000000000000000000000000000000000000000000000000061160890919063ffffffff16565b905090565b6000600860008373ffffffffffffffffffffffffffffffffffffffff1673ffffffffffffffffffffffffffffffffffffffff1681526020019081526020016000206000815480929190600101919050559050919050565b600061113f611139610d0e565b836116b8565b9050919050565b600080600080611158888888886116f9565b92509250925061116882826117ed565b829350505050949350505050565b600073ffffffffffffffffffffffffffffffffffffffff168373ffffffffffffffffffffffffffffffffffffffff16036111c85780600260008282546111bc9190612335565b9250508190555061129b565b60008060008573ffffffffffffffffffffffffffffffffffffffff1673ffffffffffffffffffffffffffffffffffffffff16815260200190815260200160002054905081811015611254578381836040517fe450d38c00000000000000000000000000000000000000000000000000000000815260040161124b939291906122cf565b60405180910390fd5b8181036000808673ffffffffffffffffffffffffffffffffffffffff1673ffffffffffffffffffffffffffffffffffffffff16815260200190815260200160002081905550505b600073ffffffffffffffffffffffffffffffffffffffff168273ffffffffffffffffffffffffffffffffffffffff16036112e45780600260008282540392505081905550611331565b806000808473ffffffffffffffffffffffffffffffffffffffff1673ffffffffffffffffffffffffffffffffffffffff168152602001908152602001600020600082825401925050819055505b8173ffffffffffffffffffffffffffffffffffffffff168373ffffffffffffffffffffffffffffffffffffffff167fddf252ad1be2c89b69c2b068fc378daa952ba7f163c4a11628f55a4df523b3ef8360405161138e9190611c38565b60405180910390a3505050565b600073ffffffffffffffffffffffffffffffffffffffff168473ffffffffffffffffffffffffffffffffffffffff160361140d5760006040517fe602df050000000000000000000000000000000000000000000000000000000081526004016114049190611ef7565b60405180910390fd5b600073ffffffffffffffffffffffffffffffffffffffff168373ffffffffffffffffffffffffffffffffffffffff160361147f5760006040517f94280d620000000000000000000000000000000000000000000000000000000081526004016114769190611ef7565b60405180910390fd5b81600160008673ffffffffffffffffffffffffffffffffffffffff1673ffffffffffffffffffffffffffffffffffffffff16815260200190815260200160002060008573ffffffffffffffffffffffffffffffffffffffff1673ffffffffffffffffffffffffffffffffffffffff16815260200190815260200160002081905550801561156c578273ffffffffffffffffffffffffffffffffffffffff168473ffffffffffffffffffffffffffffffffffffffff167f8c5be1e5ebec7d5bd14f71427d1e84f3dd0314c0f7b2291e5b200ac8c7c3b925846040516115639190611c38565b60405180910390a35b50505050565b60007f8b73c3c69bb8fe3d512ecc4cf759cc79239f7b179b0ffacaa9a75d522b39400f7f00000000000000000000000000000000000000000000000000000000000000007f000000000000000000000000000000000000000000000000000000000000000046306040516020016115ed959493929190612369565b60405160208183030381529060405280519060200120905090565b606060ff60001b83146116255761161e83611951565b90506116b2565b818054611631906121e5565b80601f016020809104026020016040519081016040528092919081815260200182805461165d906121e5565b80156116aa5780601f1061167f576101008083540402835291602001916116aa565b820191906000526020600020905b81548152906001019060200180831161168d57829003601f168201915b505050505090505b92915050565b60006040517f190100000000000000000000000000000000000000000000000000000000000081528360028201528260228201526042812091505092915050565b60008060007f7fffffffffffffffffffffffffffffff5d576e7357a4501ddfe92f46681b20a08460001c11156117395760006003859250925092506117e3565b60006001888888886040516000815260200160405260405161175e94939291906123bc565b6020604051602081039080840390855afa158015611780573d6000803e3d6000fd5b505050602060405103519050600073ffffffffffffffffffffffffffffffffffffffff168173ffffffffffffffffffffffffffffffffffffffff16036117d457600060016000801b935093509350506117e3565b8060008060001b935093509350505b9450945094915050565b6000600381111561180157611800612401565b5b82600381111561181457611813612401565b5b031561194d576001600381111561182e5761182d612401565b5b82600381111561184157611840612401565b5b03611878576040517ff645eedf00000000000000000000000000000000000000000000000000000000815260040160405180910390fd5b6002600381111561188c5761188b612401565b5b82600381111561189f5761189e612401565b5b036118e4578060001c6040517ffce698f70000000000000000000000000000000000000000000000000000000081526004016118db9190611c38565b60405180910390fd5b6003808111156118f7576118f6612401565b5b82600381111561190a57611909612401565b5b0361194c57806040517fd78bce0c0000000000000000000000000000000000000000000000000000000081526004016119439190611cf6565b60405180910390fd5b5b5050565b6060600061195e836119c5565b90506000602067ffffffffffffffff81111561197d5761197c612216565b5b6040519080825280601f01601f1916602001820160405280156119af5781602001600182028036833780820191505090505b5090508181528360208201528092505050919050565b60008060ff8360001c169050601f811115611a0c576040517fb3512b0c00000000000000000000000000000000000000000000000000000000815260040160405180910390fd5b80915050919050565b600080fd5b600073ffffffffffffffffffffffffffffffffffffffff82169050919050565b6000611a4582611a1a565b9050919050565b611a5581611a3a565b8114611a6057600080fd5b50565b600081359050611a7281611a4c565b92915050565b6000819050919050565b611a8b81611a78565b8114611a9657600080fd5b50565b600081359050611aa881611a82565b92915050565b600080600060608486031215611ac757611ac6611a15565b5b6000611ad586828701611a63565b9350506020611ae686828701611a99565b9250506040611af786828701611a99565b9150509250925092565b600081519050919050565b600082825260208201905092915050565b60005b83811015611b3b578082015181840152602081019050611b20565b60008484015250505050565b6000601f19601f8301169050919050565b6000611b6382611b01565b611b6d8185611b0c565b9350611b7d818560208601611b1d565b611b8681611b47565b840191505092915050565b60006020820190508181036000830152611bab8184611b58565b905092915050565b60008060408385031215611bca57611bc9611a15565b5b6000611bd885828601611a63565b9250506020611be985828601611a99565b9150509250929050565b60008115159050919050565b611c0881611bf3565b82525050565b6000602082019050611c236000830184611bff565b92915050565b611c3281611a78565b82525050565b6000602082019050611c4d6000830184611c29565b92915050565b600080600060608486031215611c6c57611c6b611a15565b5b6000611c7a86828701611a63565b9350506020611c8b86828701611a63565b9250506040611c9c86828701611a99565b9150509250925092565b600060ff82169050919050565b611cbc81611ca6565b82525050565b6000602082019050611cd76000830184611cb3565b92915050565b6000819050919050565b611cf081611cdd565b82525050565b6000602082019050611d0b6000830184611ce7565b92915050565b600060208284031215611d2757611d26611a15565b5b6000611d3584828501611a99565b91505092915050565b600060208284031215611d5457611d53611a15565b5b6000611d6284828501611a63565b91505092915050565b60007fff0000000000000000000000000000000000000000000000000000000000000082169050919050565b611da081611d6b565b82525050565b611daf81611a3a565b82525050565b600081519050919050565b600082825260208201905092915050565b6000819050602082019050919050565b611dea81611a78565b82525050565b6000611dfc8383611de1565b60208301905092915050565b6000602082019050919050565b6000611e2082611db5565b611e2a8185611dc0565b9350611e3583611dd1565b8060005b83811015611e66578151611e4d8882611df0565b9750611e5883611e08565b925050600181019050611e39565b5085935050505092915050565b600060e082019050611e88600083018a611d97565b8181036020830152611e9a8189611b58565b90508181036040830152611eae8188611b58565b9050611ebd6060830187611c29565b611eca6080830186611da6565b611ed760a0830185611ce7565b81810360c0830152611ee98184611e15565b905098975050505050505050565b6000602082019050611f0c6000830184611da6565b92915050565b611f1b81611ca6565b8114611f2657600080fd5b50565b600081359050611f3881611f12565b92915050565b611f4781611cdd565b8114611f5257600080fd5b50565b600081359050611f6481611f3e565b92915050565b600080600080600080600060e0888a031215611f8957611f88611a15565b5b6000611f978a828b01611a63565b9750506020611fa88a828b01611a63565b9650506040611fb98a828b01611a99565b9550506060611fca8a828b01611a99565b9450506080611fdb8a828b01611f29565b93505060a0611fec8a828b01611f55565b92505060c0611ffd8a828b01611f55565b91505092959891949750929550565b6000806040838503121561202357612022611a15565b5b600061203185828601611a63565b925050602061204285828601611a63565b9150509250929050565b7f436f6e747261637420646f6573206e6f74206861766520656e6f75676820455460008201527f4800000000000000000000000000000000000000000000000000000000000000602082015250565b60006120a8602183611b0c565b91506120b38261204c565b604082019050919050565b600060208201905081810360008301526120d78161209b565b9050919050565b600081905092915050565b50565b60006120f96000836120de565b9150612104826120e9565b600082019050919050565b600061211a826120ec565b9150819050919050565b7f4661696c656420746f2073656e6420455448206261636b20746f2073656e646560008201527f7200000000000000000000000000000000000000000000000000000000000000602082015250565b6000612180602183611b0c565b915061218b82612124565b604082019050919050565b600060208201905081810360008301526121af81612173565b9050919050565b7f4e487b7100000000000000000000000000000000000000000000000000000000600052602260045260246000fd5b600060028204905060018216806121fd57607f821691505b6020821081036122105761220f6121b6565b5b50919050565b7f4e487b7100000000000000000000000000000000000000000000000000000000600052604160045260246000fd5b600060c08201905061225a6000830189611ce7565b6122676020830188611da6565b6122746040830187611da6565b6122816060830186611c29565b61228e6080830185611c29565b61229b60a0830184611c29565b979650505050505050565b60006040820190506122bb6000830185611da6565b6122c86020830184611da6565b9392505050565b60006060820190506122e46000830186611da6565b6122f16020830185611c29565b6122fe6040830184611c29565b949350505050565b7f4e487b7100000000000000000000000000000000000000000000000000000000600052601160045260246000fd5b600061234082611a78565b915061234b83611a78565b925082820190508082111561236357612362612306565b5b92915050565b600060a08201905061237e6000830188611ce7565b61238b6020830187611ce7565b6123986040830186611ce7565b6123a56060830185611c29565b6123b26080830184611da6565b9695505050505050565b60006080820190506123d16000830187611ce7565b6123de6020830186611cb3565b6123eb6040830185611ce7565b6123f86060830184611ce7565b95945050505050565b7f4e487b7100000000000000000000000000000000000000000000000000000000600052602160045260246000fdfea264697066735822122037482af1ad38d6990973bcb204c205d782d5901e129939a7ba3484c89baf5cf564736f6c63430008180033",
  "linkReferences": {},
  "deployedLinkReferences": {}
}