{
  "_format": "hh-sol-artifact-1",
  "contractName": "CarbonToken",
  "sourceName": "contracts/CarbonToken.sol",
  "abi": [
    {
      "inputs": [
        {
          "internalType": "address",
          "name": "initialOwner",
          "type": "address"
        },
        {
          "internalType": "string",
          "name": "_secretKey",
          "type": "string"
        }
      ],
      "stateMutability": "nonpayable",
      "type": "constructor"
    },
    {
      "inputs": [],
      "name": "ECDSAInvalidSignature",
      "type": "error"
    },
    {
      "inputs": [
        {
          "internalType": "uint256",
          "name": "length",
          "type": "uint256"
        }
      ],
      "name": "ECDSAInvalidSignatureLength",
      "type": "error"
    },
    {
      "inputs": [
        {
          "internalType": "bytes32",
          "name": "s",
          "type": "bytes32"
        }
      ],
      "name": "ECDSAInvalidSignatureS",
      "type": "error"
    },
    {
      "inputs": [
        {
          "internalType": "address",
          "name": "spender",
          "type": "address"
        },
        {
          "internalType": "uint256",
          "name": "allowance",
          "type": "uint256"
        },
        {
          "internalType": "uint256",
          "name": "needed",
          "type": "uint256"
        }
      ],
      "name": "ERC20InsufficientAllowance",
      "type": "error"
    },
    {
      "inputs": [
        {
          "internalType": "address",
          "name": "sender",
          "type": "address"
        },
        {
          "internalType": "uint256",
          "name": "balance",
          "type": "uint256"
        },
        {
          "internalType": "uint256",
          "name": "needed",
          "type": "uint256"
        }
      ],
      "name": "ERC20InsufficientBalance",
      "type": "error"
    },
    {
      "inputs": [
        {
          "internalType": "address",
          "name": "approver",
          "type": "address"
        }
      ],
      "name": "ERC20InvalidApprover",
      "type": "error"
    },
    {
      "inputs": [
        {
          "internalType": "address",
          "name": "receiver",
          "type": "address"
        }
      ],
      "name": "ERC20InvalidReceiver",
      "type": "error"
    },
    {
      "inputs": [
        {
          "internalType": "address",
          "name": "sender",
          "type": "address"
        }
      ],
      "name": "ERC20InvalidSender",
      "type": "error"
    },
    {
      "inputs": [
        {
          "internalType": "address",
          "name": "spender",
          "type": "address"
        }
      ],
      "name": "ERC20InvalidSpender",
      "type": "error"
    },
    {
      "inputs": [
        {
          "internalType": "uint256",
          "name": "deadline",
          "type": "uint256"
        }
      ],
      "name": "ERC2612ExpiredSignature",
      "type": "error"
    },
    {
      "inputs": [
        {
          "internalType": "address",
          "name": "signer",
          "type": "address"
        },
        {
          "internalType": "address",
          "name": "owner",
          "type": "address"
        }
      ],
      "name": "ERC2612InvalidSigner",
      "type": "error"
    },
    {
      "inputs": [
        {
          "internalType": "address",
          "name": "account",
          "type": "address"
        },
        {
          "internalType": "uint256",
          "name": "currentNonce",
          "type": "uint256"
        }
      ],
      "name": "InvalidAccountNonce",
      "type": "error"
    },
    {
      "inputs": [],
      "name": "InvalidShortString",
      "type": "error"
    },
    {
      "inputs": [
        {
          "internalType": "address",
          "name": "owner",
          "type": "address"
        }
      ],
      "name": "OwnableInvalidOwner",
      "type": "error"
    },
    {
      "inputs": [
        {
          "internalType": "address",
          "name": "account",
          "type": "address"
        }
      ],
      "name": "OwnableUnauthorizedAccount",
      "type": "error"
    },
    {
      "inputs": [
        {
          "internalType": "string",
          "name": "str",
          "type": "string"
        }
      ],
      "name": "StringTooLong",
      "type": "error"
    },
    {
      "anonymous": false,
      "inputs": [
        {
          "indexed": true,
          "internalType": "address",
          "name": "owner",
          "type": "address"
        },
        {
          "indexed": true,
          "internalType": "address",
          "name": "spender",
          "type": "address"
        },
        {
          "indexed": false,
          "internalType": "uint256",
          "name": "value",
          "type": "uint256"
        }
      ],
      "name": "Approval",
      "type": "event"
    },
    {
      "anonymous": false,
      "inputs": [],
      "name": "EIP712DomainChanged",
      "type": "event"
    },
    {
      "anonymous": false,
      "inputs": [
        {
          "indexed": true,
          "internalType": "address",
          "name": "seller",
          "type": "address"
        },
        {
          "indexed": false,
          "internalType": "uint256",
          "name": "listingIndex",
          "type": "uint256"
        }
      ],
      "name": "ListingDeleted",
      "type": "event"
    },
    {
      "anonymous": false,
      "inputs": [
        {
          "indexed": true,
          "internalType": "address",
          "name": "previousOwner",
          "type": "address"
        },
        {
          "indexed": true,
          "internalType": "address",
          "name": "newOwner",
          "type": "address"
        }
      ],
      "name": "OwnershipTransferred",
      "type": "event"
    },
    {
      "anonymous": false,
      "inputs": [
        {
          "indexed": true,
          "internalType": "address",
          "name": "seller",
          "type": "address"
        },
        {
          "indexed": false,
          "internalType": "uint256",
          "name": "amountCTKN",
          "type": "uint256"
        },
        {
          "indexed": false,
          "internalType": "uint256",
          "name": "priceETH",
          "type": "uint256"
        },
        {
          "indexed": false,
          "internalType": "uint256",
          "name": "listingIndex",
          "type": "uint256"
        }
      ],
      "name": "TokenListed",
      "type": "event"
    },
    {
      "anonymous": false,
      "inputs": [
        {
          "indexed": true,
          "internalType": "address",
          "name": "buyer",
          "type": "address"
        },
        {
          "indexed": true,
          "internalType": "address",
          "name": "seller",
          "type": "address"
        },
        {
          "indexed": false,
          "internalType": "uint256",
          "name": "amountCTKN",
          "type": "uint256"
        },
        {
          "indexed": false,
          "internalType": "uint256",
          "name": "priceETH",
          "type": "uint256"
        },
        {
          "indexed": false,
          "internalType": "uint256",
          "name": "listingIndex",
          "type": "uint256"
        }
      ],
      "name": "TokenPurchased",
      "type": "event"
    },
    {
      "anonymous": false,
      "inputs": [
        {
          "indexed": true,
          "internalType": "address",
          "name": "from",
          "type": "address"
        },
        {
          "indexed": true,
          "internalType": "address",
          "name": "to",
          "type": "address"
        },
        {
          "indexed": false,
          "internalType": "uint256",
          "name": "value",
          "type": "uint256"
        }
      ],
      "name": "Transfer",
      "type": "event"
    },
    {
      "inputs": [],
      "name": "DOMAIN_SEPARATOR",
      "outputs": [
        {
          "internalType": "bytes32",
          "name": "",
          "type": "bytes32"
        }
      ],
      "stateMutability": "view",
      "type": "function"
    },
    {
      "inputs": [
        {
          "internalType": "address",
          "name": "owner",
          "type": "address"
        },
        {
          "internalType": "address",
          "name": "spender",
          "type": "address"
        }
      ],
      "name": "allowance",
      "outputs": [
        {
          "internalType": "uint256",
          "name": "",
          "type": "uint256"
        }
      ],
      "stateMutability": "view",
      "type": "function"
    },
    {
      "inputs": [
        {
          "internalType": "address",
          "name": "spender",
          "type": "address"
        },
        {
          "internalType": "uint256",
          "name": "value",
          "type": "uint256"
        }
      ],
      "name": "approve",
      "outputs": [
        {
          "internalType": "bool",
          "name": "",
          "type": "bool"
        }
      ],
      "stateMutability": "nonpayable",
      "type": "function"
    },
    {
      "inputs": [
        {
          "internalType": "address",
          "name": "account",
          "type": "address"
        }
      ],
      "name": "balanceOf",
      "outputs": [
        {
          "internalType": "uint256",
          "name": "",
          "type": "uint256"
        }
      ],
      "stateMutability": "view",
      "type": "function"
    },
    {
      "inputs": [
        {
          "internalType": "uint256",
          "name": "value",
          "type": "uint256"
        }
      ],
      "name": "burn",
      "outputs": [],
      "stateMutability": "nonpayable",
      "type": "function"
    },
    {
      "inputs": [
        {
          "internalType": "address",
          "name": "account",
          "type": "address"
        },
        {
          "internalType": "uint256",
          "name": "value",
          "type": "uint256"
        }
      ],
      "name": "burnFrom",
      "outputs": [],
      "stateMutability": "nonpayable",
      "type": "function"
    },
    {
      "inputs": [
        {
          "internalType": "address",
          "name": "seller",
          "type": "address"
        },
        {
          "internalType": "uint256",
          "name": "listingIndex",
          "type": "uint256"
        },
        {
          "internalType": "string",
          "name": "_key",
          "type": "string"
        }
      ],
      "name": "buyToken",
      "outputs": [],
      "stateMutability": "payable",
      "type": "function"
    },
    {
      "inputs": [],
      "name": "decimals",
      "outputs": [
        {
          "internalType": "uint8",
          "name": "",
          "type": "uint8"
        }
      ],
      "stateMutability": "view",
      "type": "function"
    },
    {
      "inputs": [
        {
          "internalType": "uint256",
          "name": "listingIndex",
          "type": "uint256"
        },
        {
          "internalType": "string",
          "name": "_key",
          "type": "string"
        }
      ],
      "name": "deleteListing",
      "outputs": [],
      "stateMutability": "nonpayable",
      "type": "function"
    },
    {
      "inputs": [],
      "name": "eip712Domain",
      "outputs": [
        {
          "internalType": "bytes1",
          "name": "fields",
          "type": "bytes1"
        },
        {
          "internalType": "string",
          "name": "name",
          "type": "string"
        },
        {
          "internalType": "string",
          "name": "version",
          "type": "string"
        },
        {
          "internalType": "uint256",
          "name": "chainId",
          "type": "uint256"
        },
        {
          "internalType": "address",
          "name": "verifyingContract",
          "type": "address"
        },
        {
          "internalType": "bytes32",
          "name": "salt",
          "type": "bytes32"
        },
        {
          "internalType": "uint256[]",
          "name": "extensions",
          "type": "uint256[]"
        }
      ],
      "stateMutability": "view",
      "type": "function"
    },
    {
      "inputs": [
        {
          "internalType": "uint256",
          "name": "amountCTKN",
          "type": "uint256"
        },
        {
          "internalType": "uint256",
          "name": "priceETH",
          "type": "uint256"
        },
        {
          "internalType": "string",
          "name": "_key",
          "type": "string"
        }
      ],
      "name": "listTokenForSale",
      "outputs": [],
      "stateMutability": "nonpayable",
      "type": "function"
    },
    {
      "inputs": [
        {
          "internalType": "address",
          "name": "",
          "type": "address"
        },
        {
          "internalType": "uint256",
          "name": "",
          "type": "uint256"
        }
      ],
      "name": "listings",
      "outputs": [
        {
          "internalType": "uint256",
          "name": "amountCTKN",
          "type": "uint256"
        },
        {
          "internalType": "uint256",
          "name": "priceETH",
          "type": "uint256"
        },
        {
          "internalType": "bool",
          "name": "active",
          "type": "bool"
        }
      ],
      "stateMutability": "view",
      "type": "function"
    },
    {
      "inputs": [
        {
          "internalType": "address",
          "name": "to",
          "type": "address"
        },
        {
          "internalType": "uint256",
          "name": "amount",
          "type": "uint256"
        },
        {
          "internalType": "string",
          "name": "_key",
          "type": "string"
        }
      ],
      "name": "mint",
      "outputs": [],
      "stateMutability": "nonpayable",
      "type": "function"
    },
    {
      "inputs": [],
      "name": "name",
      "outputs": [
        {
          "internalType": "string",
          "name": "",
          "type": "string"
        }
      ],
      "stateMutability": "view",
      "type": "function"
    },
    {
      "inputs": [
        {
          "internalType": "address",
          "name": "owner",
          "type": "address"
        }
      ],
      "name": "nonces",
      "outputs": [
        {
          "internalType": "uint256",
          "name": "",
          "type": "uint256"
        }
      ],
      "stateMutability": "view",
      "type": "function"
    },
    {
      "inputs": [],
      "name": "owner",
      "outputs": [
        {
          "internalType": "address",
          "name": "",
          "type": "address"
        }
      ],
      "stateMutability": "view",
      "type": "function"
    },
    {
      "inputs": [
        {
          "internalType": "address",
          "name": "owner",
          "type": "address"
        },
        {
          "internalType": "address",
          "name": "spender",
          "type": "address"
        },
        {
          "internalType": "uint256",
          "name": "value",
          "type": "uint256"
        },
        {
          "internalType": "uint256",
          "name": "deadline",
          "type": "uint256"
        },
        {
          "internalType": "uint8",
          "name": "v",
          "type": "uint8"
        },
        {
          "internalType": "bytes32",
          "name": "r",
          "type": "bytes32"
        },
        {
          "internalType": "bytes32",
          "name": "s",
          "type": "bytes32"
        }
      ],
      "name": "permit",
      "outputs": [],
      "stateMutability": "nonpayable",
      "type": "function"
    },
    {
      "inputs": [],
      "name": "renounceOwnership",
      "outputs": [],
      "stateMutability": "nonpayable",
      "type": "function"
    },
    {
      "inputs": [],
      "name": "symbol",
      "outputs": [
        {
          "internalType": "string",
          "name": "",
          "type": "string"
        }
      ],
      "stateMutability": "view",
      "type": "function"
    },
    {
      "inputs": [],
      "name": "totalSupply",
      "outputs": [
        {
          "internalType": "uint256",
          "name": "",
          "type": "uint256"
        }
      ],
      "stateMutability": "view",
      "type": "function"
    },
    {
      "inputs": [
        {
          "internalType": "address",
          "name": "to",
          "type": "address"
        },
        {
          "internalType": "uint256",
          "name": "value",
          "type": "uint256"
        }
      ],
      "name": "transfer",
      "outputs": [
        {
          "internalType": "bool",
          "name": "",
          "type": "bool"
        }
      ],
      "stateMutability": "nonpayable",
      "type": "function"
    },
    {
      "inputs": [
        {
          "internalType": "address",
          "name": "from",
          "type": "address"
        },
        {
          "internalType": "address",
          "name": "to",
          "type": "address"
        },
        {
          "internalType": "uint256",
          "name": "value",
          "type": "uint256"
        }
      ],
      "name": "transferFrom",
      "outputs": [
        {
          "internalType": "bool",
          "name": "",
          "type": "bool"
        }
      ],
      "stateMutability": "nonpayable",
      "type": "function"
    },
    {
      "inputs": [
        {
          "internalType": "address",
          "name": "newOwner",
          "type": "address"
        }
      ],
      "name": "transferOwnership",
      "outputs": [],
      "stateMutability": "nonpayable",
      "type": "function"
    },
    {
      "inputs": [
        {
          "internalType": "string",
          "name": "newSecretKey",
          "type": "string"
        }
      ],
      "name": "updateSecretKey",
      "outputs": [],
      "stateMutability": "nonpayable",
      "type": "function"
    },
    {
      "stateMutability": "payable",
      "type": "receive"
    }
  ],
  "bytecode": "0x6101606040523480156200001257600080fd5b5060405162003d2e38038062003d2e833981810160405281019062000038919062000691565b6040518060400160405280600b81526020017f436172626f6e546f6b656e000000000000000000000000000000000000000000815250806040518060400160405280600181526020017f3100000000000000000000000000000000000000000000000000000000000000815250846040518060400160405280600b81526020017f436172626f6e546f6b656e0000000000000000000000000000000000000000008152506040518060400160405280600481526020017f43544b4e00000000000000000000000000000000000000000000000000000000815250816003908162000123919062000942565b50806004908162000135919062000942565b505050600073ffffffffffffffffffffffffffffffffffffffff168173ffffffffffffffffffffffffffffffffffffffff1603620001ad5760006040517f1e4fbdf7000000000000000000000000000000000000000000000000000000008152600401620001a4919062000a3a565b60405180910390fd5b620001be81620002a760201b60201c565b50620001d56006836200036d60201b90919060201c565b6101208181525050620001f36007826200036d60201b90919060201c565b6101408181525050818051906020012060e08181525050808051906020012061010081815250504660a0818152505062000232620003c560201b60201c565b608081815250503073ffffffffffffffffffffffffffffffffffffffff1660c08173ffffffffffffffffffffffffffffffffffffffff16815250505050508060405160200162000283919062000a99565b60405160208183030381529060405280519060200120600a81905550505062000c53565b6000600560009054906101000a900473ffffffffffffffffffffffffffffffffffffffff16905081600560006101000a81548173ffffffffffffffffffffffffffffffffffffffff021916908373ffffffffffffffffffffffffffffffffffffffff1602179055508173ffffffffffffffffffffffffffffffffffffffff168173ffffffffffffffffffffffffffffffffffffffff167f8be0079c531659141344cd1fd0a4f28419497f9722a3daafe3b4186f6b6457e060405160405180910390a35050565b600060208351101562000393576200038b836200042260201b60201c565b9050620003bf565b82620003a5836200048f60201b60201c565b6000019081620003b6919062000942565b5060ff60001b90505b92915050565b60007f8b73c3c69bb8fe3d512ecc4cf759cc79239f7b179b0ffacaa9a75d522b39400f60e0516101005146306040516020016200040795949392919062000ade565b60405160208183030381529060405280519060200120905090565b600080829050601f815111156200047257826040517f305a27a900000000000000000000000000000000000000000000000000000000815260040162000469919062000b8d565b60405180910390fd5b805181620004809062000be3565b60001c1760001b915050919050565b6000819050919050565b6000604051905090565b600080fd5b600080fd5b600073ffffffffffffffffffffffffffffffffffffffff82169050919050565b6000620004da82620004ad565b9050919050565b620004ec81620004cd565b8114620004f857600080fd5b50565b6000815190506200050c81620004e1565b92915050565b600080fd5b600080fd5b6000601f19601f8301169050919050565b7f4e487b7100000000000000000000000000000000000000000000000000000000600052604160045260246000fd5b62000567826200051c565b810181811067ffffffffffffffff821117156200058957620005886200052d565b5b80604052505050565b60006200059e62000499565b9050620005ac82826200055c565b919050565b600067ffffffffffffffff821115620005cf57620005ce6200052d565b5b620005da826200051c565b9050602081019050919050565b60005b8381101562000607578082015181840152602081019050620005ea565b60008484015250505050565b60006200062a6200062484620005b1565b62000592565b90508281526020810184848401111562000649576200064862000517565b5b62000656848285620005e7565b509392505050565b600082601f83011262000676576200067562000512565b5b81516200068884826020860162000613565b91505092915050565b60008060408385031215620006ab57620006aa620004a3565b5b6000620006bb85828601620004fb565b925050602083015167ffffffffffffffff811115620006df57620006de620004a8565b5b620006ed858286016200065e565b9150509250929050565b600081519050919050565b7f4e487b7100000000000000000000000000000000000000000000000000000000600052602260045260246000fd5b600060028204905060018216806200074a57607f821691505b60208210810362000760576200075f62000702565b5b50919050565b60008190508160005260206000209050919050565b60006020601f8301049050919050565b600082821b905092915050565b600060088302620007ca7fffffffffffffffffffffffffffffffffffffffffffffffffffffffffffffffff826200078b565b620007d686836200078b565b95508019841693508086168417925050509392505050565b6000819050919050565b6000819050919050565b6000620008236200081d6200081784620007ee565b620007f8565b620007ee565b9050919050565b6000819050919050565b6200083f8362000802565b620008576200084e826200082a565b84845462000798565b825550505050565b600090565b6200086e6200085f565b6200087b81848462000834565b505050565b5b81811015620008a3576200089760008262000864565b60018101905062000881565b5050565b601f821115620008f257620008bc8162000766565b620008c7846200077b565b81016020851015620008d7578190505b620008ef620008e6856200077b565b83018262000880565b50505b505050565b600082821c905092915050565b60006200091760001984600802620008f7565b1980831691505092915050565b600062000932838362000904565b9150826002028217905092915050565b6200094d82620006f7565b67ffffffffffffffff8111156200096957620009686200052d565b5b62000975825462000731565b62000982828285620008a7565b600060209050601f831160018114620009ba5760008415620009a5578287015190505b620009b1858262000924565b86555062000a21565b601f198416620009ca8662000766565b60005b82811015620009f457848901518255600182019150602085019450602081019050620009cd565b8683101562000a14578489015162000a10601f89168262000904565b8355505b6001600288020188555050505b505050505050565b62000a3481620004cd565b82525050565b600060208201905062000a51600083018462000a29565b92915050565b600081905092915050565b600062000a6f82620006f7565b62000a7b818562000a57565b935062000a8d818560208601620005e7565b80840191505092915050565b600062000aa7828462000a62565b915081905092915050565b6000819050919050565b62000ac78162000ab2565b82525050565b62000ad881620007ee565b82525050565b600060a08201905062000af5600083018862000abc565b62000b04602083018762000abc565b62000b13604083018662000abc565b62000b22606083018562000acd565b62000b31608083018462000a29565b9695505050505050565b600082825260208201905092915050565b600062000b5982620006f7565b62000b65818562000b3b565b935062000b77818560208601620005e7565b62000b82816200051c565b840191505092915050565b6000602082019050818103600083015262000ba9818462000b4c565b905092915050565b600081519050919050565b6000819050602082019050919050565b600062000bda825162000ab2565b80915050919050565b600062000bf08262000bb1565b8262000bfc8462000bbc565b905062000c098162000bcc565b9250602082101562000c4c5762000c477fffffffffffffffffffffffffffffffffffffffffffffffffffffffffffffffff836020036008026200078b565b831692505b5050919050565b60805160a05160c05160e05161010051610120516101405161308062000cae600039600061178e0152600061175301526000611d2501526000611d040152600061147f015260006114d5015260006114fe01526130806000f3fe60806040526004361061014e5760003560e01c8063715018a6116100b6578063a9059cbb1161006f578063a9059cbb14610497578063d3fc9864146104d4578063d505accf146104fd578063dd62ed3e14610526578063ee2d12b414610563578063f2fde38b1461058c57610155565b8063715018a61461039357806379cc6790146103aa5780637ecebe00146103d357806384b0196e146104105780638da5cb5b1461044157806395d89b411461046c57610155565b8063313ce56711610108578063313ce567146102925780633644e515146102bd57806337f4ce0b146102e857806342966c6814610304578063578eaf441461032d57806370a082311461035657610155565b806207df301461015a57806306fdde0314610199578063095ea7b3146101c4578063102b32231461020157806318160ddd1461022a57806323b872dd1461025557610155565b3661015557005b600080fd5b34801561016657600080fd5b50610181600480360381019061017c919061222a565b6105b5565b60405161019093929190612294565b60405180910390f35b3480156101a557600080fd5b506101ae610609565b6040516101bb919061235b565b60405180910390f35b3480156101d057600080fd5b506101eb60048036038101906101e6919061222a565b61069b565b6040516101f8919061237d565b60405180910390f35b34801561020d57600080fd5b50610228600480360381019061022391906124cd565b6106be565b005b34801561023657600080fd5b5061023f6108e1565b60405161024c9190612529565b60405180910390f35b34801561026157600080fd5b5061027c60048036038101906102779190612544565b6108eb565b604051610289919061237d565b60405180910390f35b34801561029e57600080fd5b506102a761091a565b6040516102b491906125b3565b60405180910390f35b3480156102c957600080fd5b506102d2610923565b6040516102df91906125e7565b60405180910390f35b61030260048036038101906102fd9190612602565b610932565b005b34801561031057600080fd5b5061032b60048036038101906103269190612671565b610b83565b005b34801561033957600080fd5b50610354600480360381019061034f919061269e565b610b97565b005b34801561036257600080fd5b5061037d6004803603810190610378919061270d565b610dba565b60405161038a9190612529565b60405180910390f35b34801561039f57600080fd5b506103a8610e02565b005b3480156103b657600080fd5b506103d160048036038101906103cc919061222a565b610e16565b005b3480156103df57600080fd5b506103fa60048036038101906103f5919061270d565b610e36565b6040516104079190612529565b60405180910390f35b34801561041c57600080fd5b50610425610e48565b6040516104389796959493929190612842565b60405180910390f35b34801561044d57600080fd5b50610456610ef2565b60405161046391906128c6565b60405180910390f35b34801561047857600080fd5b50610481610f1c565b60405161048e919061235b565b60405180910390f35b3480156104a357600080fd5b506104be60048036038101906104b9919061222a565b610fae565b6040516104cb919061237d565b60405180910390f35b3480156104e057600080fd5b506104fb60048036038101906104f69190612602565b610fd1565b005b34801561050957600080fd5b50610524600480360381019061051f9190612939565b61104c565b005b34801561053257600080fd5b5061054d600480360381019061054891906129db565b611194565b60405161055a9190612529565b60405180910390f35b34801561056f57600080fd5b5061058a60048036038101906105859190612a1b565b61121b565b005b34801561059857600080fd5b506105b360048036038101906105ae919061270d565b611253565b005b600960205281600052604060002081815481106105d157600080fd5b9060005260206000209060030201600091509150508060000154908060010154908060020160009054906101000a900460ff16905083565b60606003805461061890612a93565b80601f016020809104026020016040519081016040528092919081815260200182805461064490612a93565b80156106915780601f1061066657610100808354040283529160200191610691565b820191906000526020600020905b81548152906001019060200180831161067457829003601f168201915b5050505050905090565b6000806106a66112d9565b90506106b38185856112e1565b600191505092915050565b80600a54816040516020016106d39190612b00565b6040516020818303038152906040528051906020012014610729576040517f08c379a000000000000000000000000000000000000000000000000000000000815260040161072090612b63565b60405180910390fd5b600960003373ffffffffffffffffffffffffffffffffffffffff1673ffffffffffffffffffffffffffffffffffffffff1681526020019081526020016000208054905083106107ad576040517f08c379a00000000000000000000000000000000000000000000000000000000081526004016107a490612bcf565b60405180910390fd5b6000600960003373ffffffffffffffffffffffffffffffffffffffff1673ffffffffffffffffffffffffffffffffffffffff1681526020019081526020016000208481548110610800576107ff612bef565b5b906000526020600020906003020190508060020160009054906101000a900460ff16610861576040517f08c379a000000000000000000000000000000000000000000000000000000000815260040161085890612c90565b60405180910390fd5b610870303383600001546112f3565b60008160020160006101000a81548160ff0219169083151502179055503373ffffffffffffffffffffffffffffffffffffffff167f53df6f80c006573b58e17d6440b870b40592881a21c175cde20004a4135dd460856040516108d39190612529565b60405180910390a250505050565b6000600254905090565b6000806108f66112d9565b90506109038582856113e7565b61090e8585856112f3565b60019150509392505050565b60006012905090565b600061092d61147b565b905090565b80600a54816040516020016109479190612b00565b604051602081830303815290604052805190602001201461099d576040517f08c379a000000000000000000000000000000000000000000000000000000000815260040161099490612b63565b60405180910390fd5b6000600960008673ffffffffffffffffffffffffffffffffffffffff1673ffffffffffffffffffffffffffffffffffffffff16815260200190815260200160002084815481106109f0576109ef612bef565b5b906000526020600020906003020190508060020160009054906101000a900460ff16610a51576040517f08c379a0000000000000000000000000000000000000000000000000000000008152600401610a4890612cfc565b60405180910390fd5b8060010154341015610a98576040517f08c379a0000000000000000000000000000000000000000000000000000000008152600401610a8f90612d68565b60405180910390fd5b610aa7303383600001546112f3565b8473ffffffffffffffffffffffffffffffffffffffff166108fc349081150290604051600060405180830381858888f19350505050158015610aed573d6000803e3d6000fd5b5060008160020160006101000a81548160ff0219169083151502179055508473ffffffffffffffffffffffffffffffffffffffff163373ffffffffffffffffffffffffffffffffffffffff167f0a9521815fb3c5bc7dd6f4c9f89dc270322e46b945b104c18981f81c3f2cd1aa8360000154846001015488604051610b7493929190612d88565b60405180910390a35050505050565b610b94610b8e6112d9565b82611532565b50565b80600a5481604051602001610bac9190612b00565b6040516020818303038152906040528051906020012014610c02576040517f08c379a0000000000000000000000000000000000000000000000000000000008152600401610bf990612b63565b60405180910390fd5b83610c0c33610dba565b1015610c4d576040517f08c379a0000000000000000000000000000000000000000000000000000000008152600401610c4490612e0b565b60405180910390fd5b610c583330866112f3565b600960003373ffffffffffffffffffffffffffffffffffffffff1673ffffffffffffffffffffffffffffffffffffffff1681526020019081526020016000206040518060600160405280868152602001858152602001600115158152509080600181540180825580915050600190039060005260206000209060030201600090919091909150600082015181600001556020820151816001015560408201518160020160006101000a81548160ff02191690831515021790555050503373ffffffffffffffffffffffffffffffffffffffff167fda2d7fa13c443a4ce51bb68b8ce92f41fac2c10d9d5bdb6a9e9a91429020b7c385856001600960003373ffffffffffffffffffffffffffffffffffffffff1673ffffffffffffffffffffffffffffffffffffffff16815260200190815260200160002080549050610d9d9190612e5a565b604051610dac93929190612d88565b60405180910390a250505050565b60008060008373ffffffffffffffffffffffffffffffffffffffff1673ffffffffffffffffffffffffffffffffffffffff168152602001908152602001600020549050919050565b610e0a6115b4565b610e14600061163b565b565b610e2882610e226112d9565b836113e7565b610e328282611532565b5050565b6000610e4182611701565b9050919050565b600060608060008060006060610e5c61174a565b610e64611785565b46306000801b600067ffffffffffffffff811115610e8557610e846123a2565b5b604051908082528060200260200182016040528015610eb35781602001602082028036833780820191505090505b507f0f00000000000000000000000000000000000000000000000000000000000000959493929190965096509650965096509650965090919293949596565b6000600560009054906101000a900473ffffffffffffffffffffffffffffffffffffffff16905090565b606060048054610f2b90612a93565b80601f0160208091040260200160405190810160405280929190818152602001828054610f5790612a93565b8015610fa45780601f10610f7957610100808354040283529160200191610fa4565b820191906000526020600020905b815481529060010190602001808311610f8757829003601f168201915b5050505050905090565b600080610fb96112d9565b9050610fc68185856112f3565b600191505092915050565b80600a5481604051602001610fe69190612b00565b604051602081830303815290604052805190602001201461103c576040517f08c379a000000000000000000000000000000000000000000000000000000000815260040161103390612b63565b60405180910390fd5b61104684846117c0565b50505050565b8342111561109157836040517f627913020000000000000000000000000000000000000000000000000000000081526004016110889190612529565b60405180910390fd5b60007f6e71edae12b1b97f4d1f60370fef10105fa2faae0126114a169c64845d6126c98888886110c08c611842565b896040516020016110d696959493929190612e8e565b60405160208183030381529060405280519060200120905060006110f982611899565b90506000611109828787876118b3565b90508973ffffffffffffffffffffffffffffffffffffffff168173ffffffffffffffffffffffffffffffffffffffff161461117d57808a6040517f4b800e46000000000000000000000000000000000000000000000000000000008152600401611174929190612eef565b60405180910390fd5b6111888a8a8a6112e1565b50505050505050505050565b6000600160008473ffffffffffffffffffffffffffffffffffffffff1673ffffffffffffffffffffffffffffffffffffffff16815260200190815260200160002060008373ffffffffffffffffffffffffffffffffffffffff1673ffffffffffffffffffffffffffffffffffffffff16815260200190815260200160002054905092915050565b6112236115b4565b806040516020016112349190612b00565b60405160208183030381529060405280519060200120600a8190555050565b61125b6115b4565b600073ffffffffffffffffffffffffffffffffffffffff168173ffffffffffffffffffffffffffffffffffffffff16036112cd5760006040517f1e4fbdf70000000000000000000000000000000000000000000000000000000081526004016112c491906128c6565b60405180910390fd5b6112d68161163b565b50565b600033905090565b6112ee83838360016118e3565b505050565b600073ffffffffffffffffffffffffffffffffffffffff168373ffffffffffffffffffffffffffffffffffffffff16036113655760006040517f96c6fd1e00000000000000000000000000000000000000000000000000000000815260040161135c91906128c6565b60405180910390fd5b600073ffffffffffffffffffffffffffffffffffffffff168273ffffffffffffffffffffffffffffffffffffffff16036113d75760006040517fec442f050000000000000000000000000000000000000000000000000000000081526004016113ce91906128c6565b60405180910390fd5b6113e2838383611aba565b505050565b60006113f38484611194565b90507fffffffffffffffffffffffffffffffffffffffffffffffffffffffffffffffff81146114755781811015611465578281836040517ffb8f41b200000000000000000000000000000000000000000000000000000000815260040161145c93929190612f18565b60405180910390fd5b611474848484840360006118e3565b5b50505050565b60007f000000000000000000000000000000000000000000000000000000000000000073ffffffffffffffffffffffffffffffffffffffff163073ffffffffffffffffffffffffffffffffffffffff161480156114f757507f000000000000000000000000000000000000000000000000000000000000000046145b15611524577f0000000000000000000000000000000000000000000000000000000000000000905061152f565b61152c611cdf565b90505b90565b600073ffffffffffffffffffffffffffffffffffffffff168273ffffffffffffffffffffffffffffffffffffffff16036115a45760006040517f96c6fd1e00000000000000000000000000000000000000000000000000000000815260040161159b91906128c6565b60405180910390fd5b6115b082600083611aba565b5050565b6115bc6112d9565b73ffffffffffffffffffffffffffffffffffffffff166115da610ef2565b73ffffffffffffffffffffffffffffffffffffffff1614611639576115fd6112d9565b6040517f118cdaa700000000000000000000000000000000000000000000000000000000815260040161163091906128c6565b60405180910390fd5b565b6000600560009054906101000a900473ffffffffffffffffffffffffffffffffffffffff16905081600560006101000a81548173ffffffffffffffffffffffffffffffffffffffff021916908373ffffffffffffffffffffffffffffffffffffffff1602179055508173ffffffffffffffffffffffffffffffffffffffff168173ffffffffffffffffffffffffffffffffffffffff167f8be0079c531659141344cd1fd0a4f28419497f9722a3daafe3b4186f6b6457e060405160405180910390a35050565b6000600860008373ffffffffffffffffffffffffffffffffffffffff1673ffffffffffffffffffffffffffffffffffffffff168152602001908152602001600020549050919050565b606061178060067f0000000000000000000000000000000000000000000000000000000000000000611d7590919063ffffffff16565b905090565b60606117bb60077f0000000000000000000000000000000000000000000000000000000000000000611d7590919063ffffffff16565b905090565b600073ffffffffffffffffffffffffffffffffffffffff168273ffffffffffffffffffffffffffffffffffffffff16036118325760006040517fec442f0500000000000000000000000000000000000000000000000000000000815260040161182991906128c6565b60405180910390fd5b61183e60008383611aba565b5050565b6000600860008373ffffffffffffffffffffffffffffffffffffffff1673ffffffffffffffffffffffffffffffffffffffff1681526020019081526020016000206000815480929190600101919050559050919050565b60006118ac6118a661147b565b83611e25565b9050919050565b6000806000806118c588888888611e66565b9250925092506118d58282611f5a565b829350505050949350505050565b600073ffffffffffffffffffffffffffffffffffffffff168473ffffffffffffffffffffffffffffffffffffffff16036119555760006040517fe602df0500000000000000000000000000000000000000000000000000000000815260040161194c91906128c6565b60405180910390fd5b600073ffffffffffffffffffffffffffffffffffffffff168373ffffffffffffffffffffffffffffffffffffffff16036119c75760006040517f94280d620000000000000000000000000000000000000000000000000000000081526004016119be91906128c6565b60405180910390fd5b81600160008673ffffffffffffffffffffffffffffffffffffffff1673ffffffffffffffffffffffffffffffffffffffff16815260200190815260200160002060008573ffffffffffffffffffffffffffffffffffffffff1673ffffffffffffffffffffffffffffffffffffffff168152602001908152602001600020819055508015611ab4578273ffffffffffffffffffffffffffffffffffffffff168473ffffffffffffffffffffffffffffffffffffffff167f8c5be1e5ebec7d5bd14f71427d1e84f3dd0314c0f7b2291e5b200ac8c7c3b92584604051611aab9190612529565b60405180910390a35b50505050565b600073ffffffffffffffffffffffffffffffffffffffff168373ffffffffffffffffffffffffffffffffffffffff1603611b0c578060026000828254611b009190612f4f565b92505081905550611bdf565b60008060008573ffffffffffffffffffffffffffffffffffffffff1673ffffffffffffffffffffffffffffffffffffffff16815260200190815260200160002054905081811015611b98578381836040517fe450d38c000000000000000000000000000000000000000000000000000000008152600401611b8f93929190612f18565b60405180910390fd5b8181036000808673ffffffffffffffffffffffffffffffffffffffff1673ffffffffffffffffffffffffffffffffffffffff16815260200190815260200160002081905550505b600073ffffffffffffffffffffffffffffffffffffffff168273ffffffffffffffffffffffffffffffffffffffff1603611c285780600260008282540392505081905550611c75565b806000808473ffffffffffffffffffffffffffffffffffffffff1673ffffffffffffffffffffffffffffffffffffffff168152602001908152602001600020600082825401925050819055505b8173ffffffffffffffffffffffffffffffffffffffff168373ffffffffffffffffffffffffffffffffffffffff167fddf252ad1be2c89b69c2b068fc378daa952ba7f163c4a11628f55a4df523b3ef83604051611cd29190612529565b60405180910390a3505050565b60007f8b73c3c69bb8fe3d512ecc4cf759cc79239f7b179b0ffacaa9a75d522b39400f7f00000000000000000000000000000000000000000000000000000000000000007f00000000000000000000000000000000000000000000000000000000000000004630604051602001611d5a959493929190612f83565b60405160208183030381529060405280519060200120905090565b606060ff60001b8314611d9257611d8b836120be565b9050611e1f565b818054611d9e90612a93565b80601f0160208091040260200160405190810160405280929190818152602001828054611dca90612a93565b8015611e175780601f10611dec57610100808354040283529160200191611e17565b820191906000526020600020905b815481529060010190602001808311611dfa57829003601f168201915b505050505090505b92915050565b60006040517f190100000000000000000000000000000000000000000000000000000000000081528360028201528260228201526042812091505092915050565b60008060007f7fffffffffffffffffffffffffffffff5d576e7357a4501ddfe92f46681b20a08460001c1115611ea6576000600385925092509250611f50565b600060018888888860405160008152602001604052604051611ecb9493929190612fd6565b6020604051602081039080840390855afa158015611eed573d6000803e3d6000fd5b505050602060405103519050600073ffffffffffffffffffffffffffffffffffffffff168173ffffffffffffffffffffffffffffffffffffffff1603611f4157600060016000801b93509350935050611f50565b8060008060001b935093509350505b9450945094915050565b60006003811115611f6e57611f6d61301b565b5b826003811115611f8157611f8061301b565b5b03156120ba5760016003811115611f9b57611f9a61301b565b5b826003811115611fae57611fad61301b565b5b03611fe5576040517ff645eedf00000000000000000000000000000000000000000000000000000000815260040160405180910390fd5b60026003811115611ff957611ff861301b565b5b82600381111561200c5761200b61301b565b5b03612051578060001c6040517ffce698f70000000000000000000000000000000000000000000000000000000081526004016120489190612529565b60405180910390fd5b6003808111156120645761206361301b565b5b8260038111156120775761207661301b565b5b036120b957806040517fd78bce0c0000000000000000000000000000000000000000000000000000000081526004016120b091906125e7565b60405180910390fd5b5b5050565b606060006120cb83612132565b90506000602067ffffffffffffffff8111156120ea576120e96123a2565b5b6040519080825280601f01601f19166020018201604052801561211c5781602001600182028036833780820191505090505b5090508181528360208201528092505050919050565b60008060ff8360001c169050601f811115612179576040517fb3512b0c00000000000000000000000000000000000000000000000000000000815260040160405180910390fd5b80915050919050565b6000604051905090565b600080fd5b600080fd5b600073ffffffffffffffffffffffffffffffffffffffff82169050919050565b60006121c182612196565b9050919050565b6121d1816121b6565b81146121dc57600080fd5b50565b6000813590506121ee816121c8565b92915050565b6000819050919050565b612207816121f4565b811461221257600080fd5b50565b600081359050612224816121fe565b92915050565b600080604083850312156122415761224061218c565b5b600061224f858286016121df565b925050602061226085828601612215565b9150509250929050565b612273816121f4565b82525050565b60008115159050919050565b61228e81612279565b82525050565b60006060820190506122a9600083018661226a565b6122b6602083018561226a565b6122c36040830184612285565b949350505050565b600081519050919050565b600082825260208201905092915050565b60005b838110156123055780820151818401526020810190506122ea565b60008484015250505050565b6000601f19601f8301169050919050565b600061232d826122cb565b61233781856122d6565b93506123478185602086016122e7565b61235081612311565b840191505092915050565b600060208201905081810360008301526123758184612322565b905092915050565b60006020820190506123926000830184612285565b92915050565b600080fd5b600080fd5b7f4e487b7100000000000000000000000000000000000000000000000000000000600052604160045260246000fd5b6123da82612311565b810181811067ffffffffffffffff821117156123f9576123f86123a2565b5b80604052505050565b600061240c612182565b905061241882826123d1565b919050565b600067ffffffffffffffff821115612438576124376123a2565b5b61244182612311565b9050602081019050919050565b82818337600083830152505050565b600061247061246b8461241d565b612402565b90508281526020810184848401111561248c5761248b61239d565b5b61249784828561244e565b509392505050565b600082601f8301126124b4576124b3612398565b5b81356124c484826020860161245d565b91505092915050565b600080604083850312156124e4576124e361218c565b5b60006124f285828601612215565b925050602083013567ffffffffffffffff81111561251357612512612191565b5b61251f8582860161249f565b9150509250929050565b600060208201905061253e600083018461226a565b92915050565b60008060006060848603121561255d5761255c61218c565b5b600061256b868287016121df565b935050602061257c868287016121df565b925050604061258d86828701612215565b9150509250925092565b600060ff82169050919050565b6125ad81612597565b82525050565b60006020820190506125c860008301846125a4565b92915050565b6000819050919050565b6125e1816125ce565b82525050565b60006020820190506125fc60008301846125d8565b92915050565b60008060006060848603121561261b5761261a61218c565b5b6000612629868287016121df565b935050602061263a86828701612215565b925050604084013567ffffffffffffffff81111561265b5761265a612191565b5b6126678682870161249f565b9150509250925092565b6000602082840312156126875761268661218c565b5b600061269584828501612215565b91505092915050565b6000806000606084860312156126b7576126b661218c565b5b60006126c586828701612215565b93505060206126d686828701612215565b925050604084013567ffffffffffffffff8111156126f7576126f6612191565b5b6127038682870161249f565b9150509250925092565b6000602082840312156127235761272261218c565b5b6000612731848285016121df565b91505092915050565b60007fff0000000000000000000000000000000000000000000000000000000000000082169050919050565b61276f8161273a565b82525050565b61277e816121b6565b82525050565b600081519050919050565b600082825260208201905092915050565b6000819050602082019050919050565b6127b9816121f4565b82525050565b60006127cb83836127b0565b60208301905092915050565b6000602082019050919050565b60006127ef82612784565b6127f9818561278f565b9350612804836127a0565b8060005b8381101561283557815161281c88826127bf565b9750612827836127d7565b925050600181019050612808565b5085935050505092915050565b600060e082019050612857600083018a612766565b81810360208301526128698189612322565b9050818103604083015261287d8188612322565b905061288c606083018761226a565b6128996080830186612775565b6128a660a08301856125d8565b81810360c08301526128b881846127e4565b905098975050505050505050565b60006020820190506128db6000830184612775565b92915050565b6128ea81612597565b81146128f557600080fd5b50565b600081359050612907816128e1565b92915050565b612916816125ce565b811461292157600080fd5b50565b6000813590506129338161290d565b92915050565b600080600080600080600060e0888a0312156129585761295761218c565b5b60006129668a828b016121df565b97505060206129778a828b016121df565b96505060406129888a828b01612215565b95505060606129998a828b01612215565b94505060806129aa8a828b016128f8565b93505060a06129bb8a828b01612924565b92505060c06129cc8a828b01612924565b91505092959891949750929550565b600080604083850312156129f2576129f161218c565b5b6000612a00858286016121df565b9250506020612a11858286016121df565b9150509250929050565b600060208284031215612a3157612a3061218c565b5b600082013567ffffffffffffffff811115612a4f57612a4e612191565b5b612a5b8482850161249f565b91505092915050565b7f4e487b7100000000000000000000000000000000000000000000000000000000600052602260045260246000fd5b60006002820490506001821680612aab57607f821691505b602082108103612abe57612abd612a64565b5b50919050565b600081905092915050565b6000612ada826122cb565b612ae48185612ac4565b9350612af48185602086016122e7565b80840191505092915050565b6000612b0c8284612acf565b915081905092915050565b7f496e76616c696420736563726574206b65790000000000000000000000000000600082015250565b6000612b4d6012836122d6565b9150612b5882612b17565b602082019050919050565b60006020820190508181036000830152612b7c81612b40565b9050919050565b7f496e76616c6964206c697374696e6720696e6465780000000000000000000000600082015250565b6000612bb96015836122d6565b9150612bc482612b83565b602082019050919050565b60006020820190508181036000830152612be881612bac565b9050919050565b7f4e487b7100000000000000000000000000000000000000000000000000000000600052603260045260246000fd5b7f43616e6e6f742064656c65746520616e20696e616374697665206c697374696e60008201527f6700000000000000000000000000000000000000000000000000000000000000602082015250565b6000612c7a6021836122d6565b9150612c8582612c1e565b604082019050919050565b60006020820190508181036000830152612ca981612c6d565b9050919050565b7f4c697374696e67206973206e6f74206163746976650000000000000000000000600082015250565b6000612ce66015836122d6565b9150612cf182612cb0565b602082019050919050565b60006020820190508181036000830152612d1581612cd9565b9050919050565b7f496e73756666696369656e74204554482073656e740000000000000000000000600082015250565b6000612d526015836122d6565b9150612d5d82612d1c565b602082019050919050565b60006020820190508181036000830152612d8181612d45565b9050919050565b6000606082019050612d9d600083018661226a565b612daa602083018561226a565b612db7604083018461226a565b949350505050565b7f496e73756666696369656e742043544b4e2062616c616e636500000000000000600082015250565b6000612df56019836122d6565b9150612e0082612dbf565b602082019050919050565b60006020820190508181036000830152612e2481612de8565b9050919050565b7f4e487b7100000000000000000000000000000000000000000000000000000000600052601160045260246000fd5b6000612e65826121f4565b9150612e70836121f4565b9250828203905081811115612e8857612e87612e2b565b5b92915050565b600060c082019050612ea360008301896125d8565b612eb06020830188612775565b612ebd6040830187612775565b612eca606083018661226a565b612ed7608083018561226a565b612ee460a083018461226a565b979650505050505050565b6000604082019050612f046000830185612775565b612f116020830184612775565b9392505050565b6000606082019050612f2d6000830186612775565b612f3a602083018561226a565b612f47604083018461226a565b949350505050565b6000612f5a826121f4565b9150612f65836121f4565b9250828201905080821115612f7d57612f7c612e2b565b5b92915050565b600060a082019050612f9860008301886125d8565b612fa560208301876125d8565b612fb260408301866125d8565b612fbf606083018561226a565b612fcc6080830184612775565b9695505050505050565b6000608082019050612feb60008301876125d8565b612ff860208301866125a4565b61300560408301856125d8565b61301260608301846125d8565b95945050505050565b7f4e487b7100000000000000000000000000000000000000000000000000000000600052602160045260246000fdfea2646970667358221220a53c553d52ace9e957c7e1afa59686aa45036e1b58dfb4a1464260b0588ec5da64736f6c63430008180033",
  "linkReferences": {},
  "deployedLinkReferences": {}
}