{
  "_format": "hh-sol-artifact-1",
  "contractName": "CarbonToken",
  "sourceName": "contracts/CarbonToken.sol",
  "abi": [
    {
      "inputs": [
        {
          "internalType": "address",
          "name": "initialOwner",
          "type": "address"
        },
        {
          "internalType": "string",
          "name": "_secretKey",
          "type": "string"
        }
      ],
      "stateMutability": "nonpayable",
      "type": "constructor"
    },
    {
      "inputs": [],
      "name": "ECDSAInvalidSignature",
      "type": "error"
    },
    {
      "inputs": [
        {
          "internalType": "uint256",
          "name": "length",
          "type": "uint256"
        }
      ],
      "name": "ECDSAInvalidSignatureLength",
      "type": "error"
    },
    {
      "inputs": [
        {
          "internalType": "bytes32",
          "name": "s",
          "type": "bytes32"
        }
      ],
      "name": "ECDSAInvalidSignatureS",
      "type": "error"
    },
    {
      "inputs": [
        {
          "internalType": "address",
          "name": "spender",
          "type": "address"
        },
        {
          "internalType": "uint256",
          "name": "allowance",
          "type": "uint256"
        },
        {
          "internalType": "uint256",
          "name": "needed",
          "type": "uint256"
        }
      ],
      "name": "ERC20InsufficientAllowance",
      "type": "error"
    },
    {
      "inputs": [
        {
          "internalType": "address",
          "name": "sender",
          "type": "address"
        },
        {
          "internalType": "uint256",
          "name": "balance",
          "type": "uint256"
        },
        {
          "internalType": "uint256",
          "name": "needed",
          "type": "uint256"
        }
      ],
      "name": "ERC20InsufficientBalance",
      "type": "error"
    },
    {
      "inputs": [
        {
          "internalType": "address",
          "name": "approver",
          "type": "address"
        }
      ],
      "name": "ERC20InvalidApprover",
      "type": "error"
    },
    {
      "inputs": [
        {
          "internalType": "address",
          "name": "receiver",
          "type": "address"
        }
      ],
      "name": "ERC20InvalidReceiver",
      "type": "error"
    },
    {
      "inputs": [
        {
          "internalType": "address",
          "name": "sender",
          "type": "address"
        }
      ],
      "name": "ERC20InvalidSender",
      "type": "error"
    },
    {
      "inputs": [
        {
          "internalType": "address",
          "name": "spender",
          "type": "address"
        }
      ],
      "name": "ERC20InvalidSpender",
      "type": "error"
    },
    {
      "inputs": [
        {
          "internalType": "uint256",
          "name": "deadline",
          "type": "uint256"
        }
      ],
      "name": "ERC2612ExpiredSignature",
      "type": "error"
    },
    {
      "inputs": [
        {
          "internalType": "address",
          "name": "signer",
          "type": "address"
        },
        {
          "internalType": "address",
          "name": "owner",
          "type": "address"
        }
      ],
      "name": "ERC2612InvalidSigner",
      "type": "error"
    },
    {
      "inputs": [
        {
          "internalType": "address",
          "name": "account",
          "type": "address"
        },
        {
          "internalType": "uint256",
          "name": "currentNonce",
          "type": "uint256"
        }
      ],
      "name": "InvalidAccountNonce",
      "type": "error"
    },
    {
      "inputs": [],
      "name": "InvalidShortString",
      "type": "error"
    },
    {
      "inputs": [
        {
          "internalType": "address",
          "name": "owner",
          "type": "address"
        }
      ],
      "name": "OwnableInvalidOwner",
      "type": "error"
    },
    {
      "inputs": [
        {
          "internalType": "address",
          "name": "account",
          "type": "address"
        }
      ],
      "name": "OwnableUnauthorizedAccount",
      "type": "error"
    },
    {
      "inputs": [
        {
          "internalType": "string",
          "name": "str",
          "type": "string"
        }
      ],
      "name": "StringTooLong",
      "type": "error"
    },
    {
      "anonymous": false,
      "inputs": [
        {
          "indexed": true,
          "internalType": "address",
          "name": "owner",
          "type": "address"
        },
        {
          "indexed": true,
          "internalType": "address",
          "name": "spender",
          "type": "address"
        },
        {
          "indexed": false,
          "internalType": "uint256",
          "name": "value",
          "type": "uint256"
        }
      ],
      "name": "Approval",
      "type": "event"
    },
    {
      "anonymous": false,
      "inputs": [],
      "name": "EIP712DomainChanged",
      "type": "event"
    },
    {
      "anonymous": false,
      "inputs": [
        {
          "indexed": true,
          "internalType": "address",
          "name": "seller",
          "type": "address"
        },
        {
          "indexed": false,
          "internalType": "uint256",
          "name": "listingIndex",
          "type": "uint256"
        }
      ],
      "name": "ListingDeleted",
      "type": "event"
    },
    {
      "anonymous": false,
      "inputs": [
        {
          "indexed": true,
          "internalType": "address",
          "name": "previousOwner",
          "type": "address"
        },
        {
          "indexed": true,
          "internalType": "address",
          "name": "newOwner",
          "type": "address"
        }
      ],
      "name": "OwnershipTransferred",
      "type": "event"
    },
    {
      "anonymous": false,
      "inputs": [
        {
          "indexed": true,
          "internalType": "address",
          "name": "seller",
          "type": "address"
        },
        {
          "indexed": false,
          "internalType": "uint256",
          "name": "amountCTKN",
          "type": "uint256"
        },
        {
          "indexed": false,
          "internalType": "uint256",
          "name": "priceETH",
          "type": "uint256"
        },
        {
          "indexed": false,
          "internalType": "uint256",
          "name": "listingIndex",
          "type": "uint256"
        },
        {
          "indexed": false,
          "internalType": "string",
          "name": "ipfsHash",
          "type": "string"
        }
      ],
      "name": "TokenListed",
      "type": "event"
    },
    {
      "anonymous": false,
      "inputs": [
        {
          "indexed": true,
          "internalType": "address",
          "name": "buyer",
          "type": "address"
        },
        {
          "indexed": true,
          "internalType": "address",
          "name": "seller",
          "type": "address"
        },
        {
          "indexed": false,
          "internalType": "uint256",
          "name": "amountCTKN",
          "type": "uint256"
        },
        {
          "indexed": false,
          "internalType": "uint256",
          "name": "priceETH",
          "type": "uint256"
        },
        {
          "indexed": false,
          "internalType": "uint256",
          "name": "listingIndex",
          "type": "uint256"
        },
        {
          "indexed": false,
          "internalType": "string",
          "name": "ipfsHash",
          "type": "string"
        }
      ],
      "name": "TokenPurchased",
      "type": "event"
    },
    {
      "anonymous": false,
      "inputs": [
        {
          "indexed": true,
          "internalType": "address",
          "name": "from",
          "type": "address"
        },
        {
          "indexed": true,
          "internalType": "address",
          "name": "to",
          "type": "address"
        },
        {
          "indexed": false,
          "internalType": "uint256",
          "name": "value",
          "type": "uint256"
        }
      ],
      "name": "Transfer",
      "type": "event"
    },
    {
      "inputs": [],
      "name": "DOMAIN_SEPARATOR",
      "outputs": [
        {
          "internalType": "bytes32",
          "name": "",
          "type": "bytes32"
        }
      ],
      "stateMutability": "view",
      "type": "function"
    },
    {
      "inputs": [
        {
          "internalType": "address",
          "name": "owner",
          "type": "address"
        },
        {
          "internalType": "address",
          "name": "spender",
          "type": "address"
        }
      ],
      "name": "allowance",
      "outputs": [
        {
          "internalType": "uint256",
          "name": "",
          "type": "uint256"
        }
      ],
      "stateMutability": "view",
      "type": "function"
    },
    {
      "inputs": [
        {
          "internalType": "address",
          "name": "spender",
          "type": "address"
        },
        {
          "internalType": "uint256",
          "name": "value",
          "type": "uint256"
        }
      ],
      "name": "approve",
      "outputs": [
        {
          "internalType": "bool",
          "name": "",
          "type": "bool"
        }
      ],
      "stateMutability": "nonpayable",
      "type": "function"
    },
    {
      "inputs": [
        {
          "internalType": "address",
          "name": "account",
          "type": "address"
        }
      ],
      "name": "balanceOf",
      "outputs": [
        {
          "internalType": "uint256",
          "name": "",
          "type": "uint256"
        }
      ],
      "stateMutability": "view",
      "type": "function"
    },
    {
      "inputs": [
        {
          "internalType": "uint256",
          "name": "value",
          "type": "uint256"
        }
      ],
      "name": "burn",
      "outputs": [],
      "stateMutability": "nonpayable",
      "type": "function"
    },
    {
      "inputs": [
        {
          "internalType": "address",
          "name": "account",
          "type": "address"
        },
        {
          "internalType": "uint256",
          "name": "value",
          "type": "uint256"
        }
      ],
      "name": "burnFrom",
      "outputs": [],
      "stateMutability": "nonpayable",
      "type": "function"
    },
    {
      "inputs": [
        {
          "internalType": "address",
          "name": "seller",
          "type": "address"
        },
        {
          "internalType": "uint256",
          "name": "listingIndex",
          "type": "uint256"
        },
        {
          "internalType": "string",
          "name": "_key",
          "type": "string"
        }
      ],
      "name": "buyToken",
      "outputs": [],
      "stateMutability": "payable",
      "type": "function"
    },
    {
      "inputs": [],
      "name": "decimals",
      "outputs": [
        {
          "internalType": "uint8",
          "name": "",
          "type": "uint8"
        }
      ],
      "stateMutability": "view",
      "type": "function"
    },
    {
      "inputs": [
        {
          "internalType": "uint256",
          "name": "listingIndex",
          "type": "uint256"
        },
        {
          "internalType": "string",
          "name": "_key",
          "type": "string"
        }
      ],
      "name": "deleteListing",
      "outputs": [],
      "stateMutability": "nonpayable",
      "type": "function"
    },
    {
      "inputs": [],
      "name": "eip712Domain",
      "outputs": [
        {
          "internalType": "bytes1",
          "name": "fields",
          "type": "bytes1"
        },
        {
          "internalType": "string",
          "name": "name",
          "type": "string"
        },
        {
          "internalType": "string",
          "name": "version",
          "type": "string"
        },
        {
          "internalType": "uint256",
          "name": "chainId",
          "type": "uint256"
        },
        {
          "internalType": "address",
          "name": "verifyingContract",
          "type": "address"
        },
        {
          "internalType": "bytes32",
          "name": "salt",
          "type": "bytes32"
        },
        {
          "internalType": "uint256[]",
          "name": "extensions",
          "type": "uint256[]"
        }
      ],
      "stateMutability": "view",
      "type": "function"
    },
    {
      "inputs": [
        {
          "internalType": "uint256",
          "name": "amountCTKN",
          "type": "uint256"
        },
        {
          "internalType": "uint256",
          "name": "priceETH",
          "type": "uint256"
        },
        {
          "internalType": "string",
          "name": "ipfsHash",
          "type": "string"
        },
        {
          "internalType": "string",
          "name": "_key",
          "type": "string"
        }
      ],
      "name": "listTokenForSale",
      "outputs": [],
      "stateMutability": "nonpayable",
      "type": "function"
    },
    {
      "inputs": [
        {
          "internalType": "address",
          "name": "",
          "type": "address"
        },
        {
          "internalType": "uint256",
          "name": "",
          "type": "uint256"
        }
      ],
      "name": "listings",
      "outputs": [
        {
          "internalType": "uint256",
          "name": "amountCTKN",
          "type": "uint256"
        },
        {
          "internalType": "uint256",
          "name": "priceETH",
          "type": "uint256"
        },
        {
          "internalType": "bool",
          "name": "active",
          "type": "bool"
        },
        {
          "internalType": "string",
          "name": "ipfsHash",
          "type": "string"
        }
      ],
      "stateMutability": "view",
      "type": "function"
    },
    {
      "inputs": [
        {
          "internalType": "address",
          "name": "to",
          "type": "address"
        },
        {
          "internalType": "uint256",
          "name": "amount",
          "type": "uint256"
        },
        {
          "internalType": "string",
          "name": "_key",
          "type": "string"
        }
      ],
      "name": "mint",
      "outputs": [],
      "stateMutability": "nonpayable",
      "type": "function"
    },
    {
      "inputs": [],
      "name": "name",
      "outputs": [
        {
          "internalType": "string",
          "name": "",
          "type": "string"
        }
      ],
      "stateMutability": "view",
      "type": "function"
    },
    {
      "inputs": [
        {
          "internalType": "address",
          "name": "owner",
          "type": "address"
        }
      ],
      "name": "nonces",
      "outputs": [
        {
          "internalType": "uint256",
          "name": "",
          "type": "uint256"
        }
      ],
      "stateMutability": "view",
      "type": "function"
    },
    {
      "inputs": [],
      "name": "owner",
      "outputs": [
        {
          "internalType": "address",
          "name": "",
          "type": "address"
        }
      ],
      "stateMutability": "view",
      "type": "function"
    },
    {
      "inputs": [
        {
          "internalType": "address",
          "name": "owner",
          "type": "address"
        },
        {
          "internalType": "address",
          "name": "spender",
          "type": "address"
        },
        {
          "internalType": "uint256",
          "name": "value",
          "type": "uint256"
        },
        {
          "internalType": "uint256",
          "name": "deadline",
          "type": "uint256"
        },
        {
          "internalType": "uint8",
          "name": "v",
          "type": "uint8"
        },
        {
          "internalType": "bytes32",
          "name": "r",
          "type": "bytes32"
        },
        {
          "internalType": "bytes32",
          "name": "s",
          "type": "bytes32"
        }
      ],
      "name": "permit",
      "outputs": [],
      "stateMutability": "nonpayable",
      "type": "function"
    },
    {
      "inputs": [],
      "name": "renounceOwnership",
      "outputs": [],
      "stateMutability": "nonpayable",
      "type": "function"
    },
    {
      "inputs": [],
      "name": "symbol",
      "outputs": [
        {
          "internalType": "string",
          "name": "",
          "type": "string"
        }
      ],
      "stateMutability": "view",
      "type": "function"
    },
    {
      "inputs": [],
      "name": "totalSupply",
      "outputs": [
        {
          "internalType": "uint256",
          "name": "",
          "type": "uint256"
        }
      ],
      "stateMutability": "view",
      "type": "function"
    },
    {
      "inputs": [
        {
          "internalType": "address",
          "name": "to",
          "type": "address"
        },
        {
          "internalType": "uint256",
          "name": "value",
          "type": "uint256"
        }
      ],
      "name": "transfer",
      "outputs": [
        {
          "internalType": "bool",
          "name": "",
          "type": "bool"
        }
      ],
      "stateMutability": "nonpayable",
      "type": "function"
    },
    {
      "inputs": [
        {
          "internalType": "address",
          "name": "from",
          "type": "address"
        },
        {
          "internalType": "address",
          "name": "to",
          "type": "address"
        },
        {
          "internalType": "uint256",
          "name": "value",
          "type": "uint256"
        }
      ],
      "name": "transferFrom",
      "outputs": [
        {
          "internalType": "bool",
          "name": "",
          "type": "bool"
        }
      ],
      "stateMutability": "nonpayable",
      "type": "function"
    },
    {
      "inputs": [
        {
          "internalType": "address",
          "name": "newOwner",
          "type": "address"
        }
      ],
      "name": "transferOwnership",
      "outputs": [],
      "stateMutability": "nonpayable",
      "type": "function"
    },
    {
      "stateMutability": "payable",
      "type": "receive"
    }
  ],
  "bytecode": "0x6101606040523480156200001257600080fd5b50604051620041af380380620041af833981810160405281019062000038919062000691565b6040518060400160405280600b81526020017f436172626f6e546f6b656e000000000000000000000000000000000000000000815250806040518060400160405280600181526020017f3100000000000000000000000000000000000000000000000000000000000000815250846040518060400160405280600b81526020017f436172626f6e546f6b656e0000000000000000000000000000000000000000008152506040518060400160405280600481526020017f43544b4e00000000000000000000000000000000000000000000000000000000815250816003908162000123919062000942565b50806004908162000135919062000942565b505050600073ffffffffffffffffffffffffffffffffffffffff168173ffffffffffffffffffffffffffffffffffffffff1603620001ad5760006040517f1e4fbdf7000000000000000000000000000000000000000000000000000000008152600401620001a4919062000a3a565b60405180910390fd5b620001be81620002a760201b60201c565b50620001d56006836200036d60201b90919060201c565b6101208181525050620001f36007826200036d60201b90919060201c565b6101408181525050818051906020012060e08181525050808051906020012061010081815250504660a0818152505062000232620003c560201b60201c565b608081815250503073ffffffffffffffffffffffffffffffffffffffff1660c08173ffffffffffffffffffffffffffffffffffffffff16815250505050508060405160200162000283919062000a99565b60405160208183030381529060405280519060200120600a81905550505062000c53565b6000600560009054906101000a900473ffffffffffffffffffffffffffffffffffffffff16905081600560006101000a81548173ffffffffffffffffffffffffffffffffffffffff021916908373ffffffffffffffffffffffffffffffffffffffff1602179055508173ffffffffffffffffffffffffffffffffffffffff168173ffffffffffffffffffffffffffffffffffffffff167f8be0079c531659141344cd1fd0a4f28419497f9722a3daafe3b4186f6b6457e060405160405180910390a35050565b600060208351101562000393576200038b836200042260201b60201c565b9050620003bf565b82620003a5836200048f60201b60201c565b6000019081620003b6919062000942565b5060ff60001b90505b92915050565b60007f8b73c3c69bb8fe3d512ecc4cf759cc79239f7b179b0ffacaa9a75d522b39400f60e0516101005146306040516020016200040795949392919062000ade565b60405160208183030381529060405280519060200120905090565b600080829050601f815111156200047257826040517f305a27a900000000000000000000000000000000000000000000000000000000815260040162000469919062000b8d565b60405180910390fd5b805181620004809062000be3565b60001c1760001b915050919050565b6000819050919050565b6000604051905090565b600080fd5b600080fd5b600073ffffffffffffffffffffffffffffffffffffffff82169050919050565b6000620004da82620004ad565b9050919050565b620004ec81620004cd565b8114620004f857600080fd5b50565b6000815190506200050c81620004e1565b92915050565b600080fd5b600080fd5b6000601f19601f8301169050919050565b7f4e487b7100000000000000000000000000000000000000000000000000000000600052604160045260246000fd5b62000567826200051c565b810181811067ffffffffffffffff821117156200058957620005886200052d565b5b80604052505050565b60006200059e62000499565b9050620005ac82826200055c565b919050565b600067ffffffffffffffff821115620005cf57620005ce6200052d565b5b620005da826200051c565b9050602081019050919050565b60005b8381101562000607578082015181840152602081019050620005ea565b60008484015250505050565b60006200062a6200062484620005b1565b62000592565b90508281526020810184848401111562000649576200064862000517565b5b62000656848285620005e7565b509392505050565b600082601f83011262000676576200067562000512565b5b81516200068884826020860162000613565b91505092915050565b60008060408385031215620006ab57620006aa620004a3565b5b6000620006bb85828601620004fb565b925050602083015167ffffffffffffffff811115620006df57620006de620004a8565b5b620006ed858286016200065e565b9150509250929050565b600081519050919050565b7f4e487b7100000000000000000000000000000000000000000000000000000000600052602260045260246000fd5b600060028204905060018216806200074a57607f821691505b60208210810362000760576200075f62000702565b5b50919050565b60008190508160005260206000209050919050565b60006020601f8301049050919050565b600082821b905092915050565b600060088302620007ca7fffffffffffffffffffffffffffffffffffffffffffffffffffffffffffffffff826200078b565b620007d686836200078b565b95508019841693508086168417925050509392505050565b6000819050919050565b6000819050919050565b6000620008236200081d6200081784620007ee565b620007f8565b620007ee565b9050919050565b6000819050919050565b6200083f8362000802565b620008576200084e826200082a565b84845462000798565b825550505050565b600090565b6200086e6200085f565b6200087b81848462000834565b505050565b5b81811015620008a3576200089760008262000864565b60018101905062000881565b5050565b601f821115620008f257620008bc8162000766565b620008c7846200077b565b81016020851015620008d7578190505b620008ef620008e6856200077b565b83018262000880565b50505b505050565b600082821c905092915050565b60006200091760001984600802620008f7565b1980831691505092915050565b600062000932838362000904565b9150826002028217905092915050565b6200094d82620006f7565b67ffffffffffffffff8111156200096957620009686200052d565b5b62000975825462000731565b62000982828285620008a7565b600060209050601f831160018114620009ba5760008415620009a5578287015190505b620009b1858262000924565b86555062000a21565b601f198416620009ca8662000766565b60005b82811015620009f457848901518255600182019150602085019450602081019050620009cd565b8683101562000a14578489015162000a10601f89168262000904565b8355505b6001600288020188555050505b505050505050565b62000a3481620004cd565b82525050565b600060208201905062000a51600083018462000a29565b92915050565b600081905092915050565b600062000a6f82620006f7565b62000a7b818562000a57565b935062000a8d818560208601620005e7565b80840191505092915050565b600062000aa7828462000a62565b915081905092915050565b6000819050919050565b62000ac78162000ab2565b82525050565b62000ad881620007ee565b82525050565b600060a08201905062000af5600083018862000abc565b62000b04602083018762000abc565b62000b13604083018662000abc565b62000b22606083018562000acd565b62000b31608083018462000a29565b9695505050505050565b600082825260208201905092915050565b600062000b5982620006f7565b62000b65818562000b3b565b935062000b77818560208601620005e7565b62000b82816200051c565b840191505092915050565b6000602082019050818103600083015262000ba9818462000b4c565b905092915050565b600081519050919050565b6000819050602082019050919050565b600062000bda825162000ab2565b80915050919050565b600062000bf08262000bb1565b8262000bfc8462000bbc565b905062000c098162000bcc565b9250602082101562000c4c5762000c477fffffffffffffffffffffffffffffffffffffffffffffffffffffffffffffffff836020036008026200078b565b831692505b5050919050565b60805160a05160c05160e05161010051610120516101405161350162000cae600039600061181c015260006117e101526000611db301526000611d920152600061150d015260006115630152600061158c01526135016000f3fe6080604052600436106101435760003560e01c8063715018a6116100b657806395d89b411161006f57806395d89b4114610462578063a9059cbb1461048d578063d3fc9864146104ca578063d505accf146104f3578063dd62ed3e1461051c578063f2fde38b146105595761014a565b8063715018a61461036057806379cc6790146103775780637ead4a29146103a05780637ecebe00146103c957806384b0196e146104065780638da5cb5b146104375761014a565b806323b872dd1161010857806323b872dd1461024b578063313ce567146102885780633644e515146102b357806337f4ce0b146102de57806342966c68146102fa57806370a08231146103235761014a565b806207df301461014f57806306fdde031461018f578063095ea7b3146101ba578063102b3223146101f757806318160ddd146102205761014a565b3661014a57005b600080fd5b34801561015b57600080fd5b50610176600480360381019061017191906122b8565b610582565b60405161018694939291906123b2565b60405180910390f35b34801561019b57600080fd5b506101a4610664565b6040516101b191906123fe565b60405180910390f35b3480156101c657600080fd5b506101e160048036038101906101dc91906122b8565b6106f6565b6040516101ee9190612420565b60405180910390f35b34801561020357600080fd5b5061021e60048036038101906102199190612570565b610719565b005b34801561022c57600080fd5b5061023561093c565b60405161024291906125cc565b60405180910390f35b34801561025757600080fd5b50610272600480360381019061026d91906125e7565b610946565b60405161027f9190612420565b60405180910390f35b34801561029457600080fd5b5061029d610975565b6040516102aa9190612656565b60405180910390f35b3480156102bf57600080fd5b506102c861097e565b6040516102d5919061268a565b60405180910390f35b6102f860048036038101906102f391906126a5565b61098d565b005b34801561030657600080fd5b50610321600480360381019061031c9190612714565b610be3565b005b34801561032f57600080fd5b5061034a60048036038101906103459190612741565b610bf7565b60405161035791906125cc565b60405180910390f35b34801561036c57600080fd5b50610375610c3f565b005b34801561038357600080fd5b5061039e600480360381019061039991906122b8565b610c53565b005b3480156103ac57600080fd5b506103c760048036038101906103c291906127ce565b610c73565b005b3480156103d557600080fd5b506103f060048036038101906103eb9190612741565b610efc565b6040516103fd91906125cc565b60405180910390f35b34801561041257600080fd5b5061041b610f0e565b60405161042e979695949392919061297a565b60405180910390f35b34801561044357600080fd5b5061044c610fb8565b60405161045991906129fe565b60405180910390f35b34801561046e57600080fd5b50610477610fe2565b60405161048491906123fe565b60405180910390f35b34801561049957600080fd5b506104b460048036038101906104af91906122b8565b611074565b6040516104c19190612420565b60405180910390f35b3480156104d657600080fd5b506104f160048036038101906104ec91906126a5565b611097565b005b3480156104ff57600080fd5b5061051a60048036038101906105159190612a71565b611112565b005b34801561052857600080fd5b50610543600480360381019061053e9190612b13565b61125a565b60405161055091906125cc565b60405180910390f35b34801561056557600080fd5b50610580600480360381019061057b9190612741565b6112e1565b005b6009602052816000526040600020818154811061059e57600080fd5b9060005260206000209060040201600091509150508060000154908060010154908060020160009054906101000a900460ff16908060030180546105e190612b82565b80601f016020809104026020016040519081016040528092919081815260200182805461060d90612b82565b801561065a5780601f1061062f5761010080835404028352916020019161065a565b820191906000526020600020905b81548152906001019060200180831161063d57829003601f168201915b5050505050905084565b60606003805461067390612b82565b80601f016020809104026020016040519081016040528092919081815260200182805461069f90612b82565b80156106ec5780601f106106c1576101008083540402835291602001916106ec565b820191906000526020600020905b8154815290600101906020018083116106cf57829003601f168201915b5050505050905090565b600080610701611367565b905061070e81858561136f565b600191505092915050565b80600a548160405160200161072e9190612bef565b6040516020818303038152906040528051906020012014610784576040517f08c379a000000000000000000000000000000000000000000000000000000000815260040161077b90612c52565b60405180910390fd5b600960003373ffffffffffffffffffffffffffffffffffffffff1673ffffffffffffffffffffffffffffffffffffffff168152602001908152602001600020805490508310610808576040517f08c379a00000000000000000000000000000000000000000000000000000000081526004016107ff90612cbe565b60405180910390fd5b6000600960003373ffffffffffffffffffffffffffffffffffffffff1673ffffffffffffffffffffffffffffffffffffffff168152602001908152602001600020848154811061085b5761085a612cde565b5b906000526020600020906004020190508060020160009054906101000a900460ff166108bc576040517f08c379a00000000000000000000000000000000000000000000000000000000081526004016108b390612d7f565b60405180910390fd5b6108cb30338360000154611381565b60008160020160006101000a81548160ff0219169083151502179055503373ffffffffffffffffffffffffffffffffffffffff167f53df6f80c006573b58e17d6440b870b40592881a21c175cde20004a4135dd4608560405161092e91906125cc565b60405180910390a250505050565b6000600254905090565b600080610951611367565b905061095e858285611475565b610969858585611381565b60019150509392505050565b60006012905090565b6000610988611509565b905090565b80600a54816040516020016109a29190612bef565b60405160208183030381529060405280519060200120146109f8576040517f08c379a00000000000000000000000000000000000000000000000000000000081526004016109ef90612c52565b60405180910390fd5b6000600960008673ffffffffffffffffffffffffffffffffffffffff1673ffffffffffffffffffffffffffffffffffffffff1681526020019081526020016000208481548110610a4b57610a4a612cde565b5b906000526020600020906004020190508060020160009054906101000a900460ff16610aac576040517f08c379a0000000000000000000000000000000000000000000000000000000008152600401610aa390612deb565b60405180910390fd5b8060010154341015610af3576040517f08c379a0000000000000000000000000000000000000000000000000000000008152600401610aea90612e57565b60405180910390fd5b610b0230338360000154611381565b8473ffffffffffffffffffffffffffffffffffffffff166108fc349081150290604051600060405180830381858888f19350505050158015610b48573d6000803e3d6000fd5b5060008160020160006101000a81548160ff0219169083151502179055508473ffffffffffffffffffffffffffffffffffffffff163373ffffffffffffffffffffffffffffffffffffffff167f879ce5d9a83c5375f03acbee15e01aee132bdc35c50ef9772f4388ca616e66d8836000015484600101548886600301604051610bd49493929190612f10565b60405180910390a35050505050565b610bf4610bee611367565b826115c0565b50565b60008060008373ffffffffffffffffffffffffffffffffffffffff1673ffffffffffffffffffffffffffffffffffffffff168152602001908152602001600020549050919050565b610c47611642565b610c5160006116c9565b565b610c6582610c5f611367565b83611475565b610c6f82826115c0565b5050565b80600a5481604051602001610c889190612bef565b6040516020818303038152906040528051906020012014610cde576040517f08c379a0000000000000000000000000000000000000000000000000000000008152600401610cd590612c52565b60405180910390fd5b85610ce833610bf7565b1015610d29576040517f08c379a0000000000000000000000000000000000000000000000000000000008152600401610d2090612fa8565b60405180910390fd5b610d34333088611381565b600960003373ffffffffffffffffffffffffffffffffffffffff1673ffffffffffffffffffffffffffffffffffffffff168152602001908152602001600020604051806080016040528088815260200187815260200160011515815260200186868080601f016020809104026020016040519081016040528093929190818152602001838380828437600081840152601f19601f820116905080830192505050505050508152509080600181540180825580915050600190039060005260206000209060040201600090919091909150600082015181600001556020820151816001015560408201518160020160006101000a81548160ff0219169083151502179055506060820151816003019081610e4d919061315f565b5050503373ffffffffffffffffffffffffffffffffffffffff167f677f640fff44f1465dbdee3f24378ef772f9204c75fc64e640062090b74b258587876001600960003373ffffffffffffffffffffffffffffffffffffffff1673ffffffffffffffffffffffffffffffffffffffff16815260200190815260200160002080549050610ed99190613260565b8888604051610eec9594939291906132c1565b60405180910390a2505050505050565b6000610f078261178f565b9050919050565b600060608060008060006060610f226117d8565b610f2a611813565b46306000801b600067ffffffffffffffff811115610f4b57610f4a612445565b5b604051908082528060200260200182016040528015610f795781602001602082028036833780820191505090505b507f0f00000000000000000000000000000000000000000000000000000000000000959493929190965096509650965096509650965090919293949596565b6000600560009054906101000a900473ffffffffffffffffffffffffffffffffffffffff16905090565b606060048054610ff190612b82565b80601f016020809104026020016040519081016040528092919081815260200182805461101d90612b82565b801561106a5780601f1061103f5761010080835404028352916020019161106a565b820191906000526020600020905b81548152906001019060200180831161104d57829003601f168201915b5050505050905090565b60008061107f611367565b905061108c818585611381565b600191505092915050565b80600a54816040516020016110ac9190612bef565b6040516020818303038152906040528051906020012014611102576040517f08c379a00000000000000000000000000000000000000000000000000000000081526004016110f990612c52565b60405180910390fd5b61110c848461184e565b50505050565b8342111561115757836040517f6279130200000000000000000000000000000000000000000000000000000000815260040161114e91906125cc565b60405180910390fd5b60007f6e71edae12b1b97f4d1f60370fef10105fa2faae0126114a169c64845d6126c98888886111868c6118d0565b8960405160200161119c9695949392919061330f565b60405160208183030381529060405280519060200120905060006111bf82611927565b905060006111cf82878787611941565b90508973ffffffffffffffffffffffffffffffffffffffff168173ffffffffffffffffffffffffffffffffffffffff161461124357808a6040517f4b800e4600000000000000000000000000000000000000000000000000000000815260040161123a929190613370565b60405180910390fd5b61124e8a8a8a61136f565b50505050505050505050565b6000600160008473ffffffffffffffffffffffffffffffffffffffff1673ffffffffffffffffffffffffffffffffffffffff16815260200190815260200160002060008373ffffffffffffffffffffffffffffffffffffffff1673ffffffffffffffffffffffffffffffffffffffff16815260200190815260200160002054905092915050565b6112e9611642565b600073ffffffffffffffffffffffffffffffffffffffff168173ffffffffffffffffffffffffffffffffffffffff160361135b5760006040517f1e4fbdf700000000000000000000000000000000000000000000000000000000815260040161135291906129fe565b60405180910390fd5b611364816116c9565b50565b600033905090565b61137c8383836001611971565b505050565b600073ffffffffffffffffffffffffffffffffffffffff168373ffffffffffffffffffffffffffffffffffffffff16036113f35760006040517f96c6fd1e0000000000000000000000000000000000000000000000000000000081526004016113ea91906129fe565b60405180910390fd5b600073ffffffffffffffffffffffffffffffffffffffff168273ffffffffffffffffffffffffffffffffffffffff16036114655760006040517fec442f0500000000000000000000000000000000000000000000000000000000815260040161145c91906129fe565b60405180910390fd5b611470838383611b48565b505050565b6000611481848461125a565b90507fffffffffffffffffffffffffffffffffffffffffffffffffffffffffffffffff811461150357818110156114f3578281836040517ffb8f41b20000000000000000000000000000000000000000000000000000000081526004016114ea93929190613399565b60405180910390fd5b61150284848484036000611971565b5b50505050565b60007f000000000000000000000000000000000000000000000000000000000000000073ffffffffffffffffffffffffffffffffffffffff163073ffffffffffffffffffffffffffffffffffffffff1614801561158557507f000000000000000000000000000000000000000000000000000000000000000046145b156115b2577f000000000000000000000000000000000000000000000000000000000000000090506115bd565b6115ba611d6d565b90505b90565b600073ffffffffffffffffffffffffffffffffffffffff168273ffffffffffffffffffffffffffffffffffffffff16036116325760006040517f96c6fd1e00000000000000000000000000000000000000000000000000000000815260040161162991906129fe565b60405180910390fd5b61163e82600083611b48565b5050565b61164a611367565b73ffffffffffffffffffffffffffffffffffffffff16611668610fb8565b73ffffffffffffffffffffffffffffffffffffffff16146116c75761168b611367565b6040517f118cdaa70000000000000000000000000000000000000000000000000000000081526004016116be91906129fe565b60405180910390fd5b565b6000600560009054906101000a900473ffffffffffffffffffffffffffffffffffffffff16905081600560006101000a81548173ffffffffffffffffffffffffffffffffffffffff021916908373ffffffffffffffffffffffffffffffffffffffff1602179055508173ffffffffffffffffffffffffffffffffffffffff168173ffffffffffffffffffffffffffffffffffffffff167f8be0079c531659141344cd1fd0a4f28419497f9722a3daafe3b4186f6b6457e060405160405180910390a35050565b6000600860008373ffffffffffffffffffffffffffffffffffffffff1673ffffffffffffffffffffffffffffffffffffffff168152602001908152602001600020549050919050565b606061180e60067f0000000000000000000000000000000000000000000000000000000000000000611e0390919063ffffffff16565b905090565b606061184960077f0000000000000000000000000000000000000000000000000000000000000000611e0390919063ffffffff16565b905090565b600073ffffffffffffffffffffffffffffffffffffffff168273ffffffffffffffffffffffffffffffffffffffff16036118c05760006040517fec442f050000000000000000000000000000000000000000000000000000000081526004016118b791906129fe565b60405180910390fd5b6118cc60008383611b48565b5050565b6000600860008373ffffffffffffffffffffffffffffffffffffffff1673ffffffffffffffffffffffffffffffffffffffff1681526020019081526020016000206000815480929190600101919050559050919050565b600061193a611934611509565b83611eb3565b9050919050565b60008060008061195388888888611ef4565b9250925092506119638282611fe8565b829350505050949350505050565b600073ffffffffffffffffffffffffffffffffffffffff168473ffffffffffffffffffffffffffffffffffffffff16036119e35760006040517fe602df050000000000000000000000000000000000000000000000000000000081526004016119da91906129fe565b60405180910390fd5b600073ffffffffffffffffffffffffffffffffffffffff168373ffffffffffffffffffffffffffffffffffffffff1603611a555760006040517f94280d62000000000000000000000000000000000000000000000000000000008152600401611a4c91906129fe565b60405180910390fd5b81600160008673ffffffffffffffffffffffffffffffffffffffff1673ffffffffffffffffffffffffffffffffffffffff16815260200190815260200160002060008573ffffffffffffffffffffffffffffffffffffffff1673ffffffffffffffffffffffffffffffffffffffff168152602001908152602001600020819055508015611b42578273ffffffffffffffffffffffffffffffffffffffff168473ffffffffffffffffffffffffffffffffffffffff167f8c5be1e5ebec7d5bd14f71427d1e84f3dd0314c0f7b2291e5b200ac8c7c3b92584604051611b3991906125cc565b60405180910390a35b50505050565b600073ffffffffffffffffffffffffffffffffffffffff168373ffffffffffffffffffffffffffffffffffffffff1603611b9a578060026000828254611b8e91906133d0565b92505081905550611c6d565b60008060008573ffffffffffffffffffffffffffffffffffffffff1673ffffffffffffffffffffffffffffffffffffffff16815260200190815260200160002054905081811015611c26578381836040517fe450d38c000000000000000000000000000000000000000000000000000000008152600401611c1d93929190613399565b60405180910390fd5b8181036000808673ffffffffffffffffffffffffffffffffffffffff1673ffffffffffffffffffffffffffffffffffffffff16815260200190815260200160002081905550505b600073ffffffffffffffffffffffffffffffffffffffff168273ffffffffffffffffffffffffffffffffffffffff1603611cb65780600260008282540392505081905550611d03565b806000808473ffffffffffffffffffffffffffffffffffffffff1673ffffffffffffffffffffffffffffffffffffffff168152602001908152602001600020600082825401925050819055505b8173ffffffffffffffffffffffffffffffffffffffff168373ffffffffffffffffffffffffffffffffffffffff167fddf252ad1be2c89b69c2b068fc378daa952ba7f163c4a11628f55a4df523b3ef83604051611d6091906125cc565b60405180910390a3505050565b60007f8b73c3c69bb8fe3d512ecc4cf759cc79239f7b179b0ffacaa9a75d522b39400f7f00000000000000000000000000000000000000000000000000000000000000007f00000000000000000000000000000000000000000000000000000000000000004630604051602001611de8959493929190613404565b60405160208183030381529060405280519060200120905090565b606060ff60001b8314611e2057611e198361214c565b9050611ead565b818054611e2c90612b82565b80601f0160208091040260200160405190810160405280929190818152602001828054611e5890612b82565b8015611ea55780601f10611e7a57610100808354040283529160200191611ea5565b820191906000526020600020905b815481529060010190602001808311611e8857829003601f168201915b505050505090505b92915050565b60006040517f190100000000000000000000000000000000000000000000000000000000000081528360028201528260228201526042812091505092915050565b60008060007f7fffffffffffffffffffffffffffffff5d576e7357a4501ddfe92f46681b20a08460001c1115611f34576000600385925092509250611fde565b600060018888888860405160008152602001604052604051611f599493929190613457565b6020604051602081039080840390855afa158015611f7b573d6000803e3d6000fd5b505050602060405103519050600073ffffffffffffffffffffffffffffffffffffffff168173ffffffffffffffffffffffffffffffffffffffff1603611fcf57600060016000801b93509350935050611fde565b8060008060001b935093509350505b9450945094915050565b60006003811115611ffc57611ffb61349c565b5b82600381111561200f5761200e61349c565b5b031561214857600160038111156120295761202861349c565b5b82600381111561203c5761203b61349c565b5b03612073576040517ff645eedf00000000000000000000000000000000000000000000000000000000815260040160405180910390fd5b600260038111156120875761208661349c565b5b82600381111561209a5761209961349c565b5b036120df578060001c6040517ffce698f70000000000000000000000000000000000000000000000000000000081526004016120d691906125cc565b60405180910390fd5b6003808111156120f2576120f161349c565b5b8260038111156121055761210461349c565b5b0361214757806040517fd78bce0c00000000000000000000000000000000000000000000000000000000815260040161213e919061268a565b60405180910390fd5b5b5050565b60606000612159836121c0565b90506000602067ffffffffffffffff81111561217857612177612445565b5b6040519080825280601f01601f1916602001820160405280156121aa5781602001600182028036833780820191505090505b5090508181528360208201528092505050919050565b60008060ff8360001c169050601f811115612207576040517fb3512b0c00000000000000000000000000000000000000000000000000000000815260040160405180910390fd5b80915050919050565b6000604051905090565b600080fd5b600080fd5b600073ffffffffffffffffffffffffffffffffffffffff82169050919050565b600061224f82612224565b9050919050565b61225f81612244565b811461226a57600080fd5b50565b60008135905061227c81612256565b92915050565b6000819050919050565b61229581612282565b81146122a057600080fd5b50565b6000813590506122b28161228c565b92915050565b600080604083850312156122cf576122ce61221a565b5b60006122dd8582860161226d565b92505060206122ee858286016122a3565b9150509250929050565b61230181612282565b82525050565b60008115159050919050565b61231c81612307565b82525050565b600081519050919050565b600082825260208201905092915050565b60005b8381101561235c578082015181840152602081019050612341565b60008484015250505050565b6000601f19601f8301169050919050565b600061238482612322565b61238e818561232d565b935061239e81856020860161233e565b6123a781612368565b840191505092915050565b60006080820190506123c760008301876122f8565b6123d460208301866122f8565b6123e16040830185612313565b81810360608301526123f38184612379565b905095945050505050565b600060208201905081810360008301526124188184612379565b905092915050565b60006020820190506124356000830184612313565b92915050565b600080fd5b600080fd5b7f4e487b7100000000000000000000000000000000000000000000000000000000600052604160045260246000fd5b61247d82612368565b810181811067ffffffffffffffff8211171561249c5761249b612445565b5b80604052505050565b60006124af612210565b90506124bb8282612474565b919050565b600067ffffffffffffffff8211156124db576124da612445565b5b6124e482612368565b9050602081019050919050565b82818337600083830152505050565b600061251361250e846124c0565b6124a5565b90508281526020810184848401111561252f5761252e612440565b5b61253a8482856124f1565b509392505050565b600082601f8301126125575761255661243b565b5b8135612567848260208601612500565b91505092915050565b600080604083850312156125875761258661221a565b5b6000612595858286016122a3565b925050602083013567ffffffffffffffff8111156125b6576125b561221f565b5b6125c285828601612542565b9150509250929050565b60006020820190506125e160008301846122f8565b92915050565b600080600060608486031215612600576125ff61221a565b5b600061260e8682870161226d565b935050602061261f8682870161226d565b9250506040612630868287016122a3565b9150509250925092565b600060ff82169050919050565b6126508161263a565b82525050565b600060208201905061266b6000830184612647565b92915050565b6000819050919050565b61268481612671565b82525050565b600060208201905061269f600083018461267b565b92915050565b6000806000606084860312156126be576126bd61221a565b5b60006126cc8682870161226d565b93505060206126dd868287016122a3565b925050604084013567ffffffffffffffff8111156126fe576126fd61221f565b5b61270a86828701612542565b9150509250925092565b60006020828403121561272a5761272961221a565b5b6000612738848285016122a3565b91505092915050565b6000602082840312156127575761275661221a565b5b60006127658482850161226d565b91505092915050565b600080fd5b600080fd5b60008083601f84011261278e5761278d61243b565b5b8235905067ffffffffffffffff8111156127ab576127aa61276e565b5b6020830191508360018202830111156127c7576127c6612773565b5b9250929050565b6000806000806000608086880312156127ea576127e961221a565b5b60006127f8888289016122a3565b9550506020612809888289016122a3565b945050604086013567ffffffffffffffff81111561282a5761282961221f565b5b61283688828901612778565b9350935050606086013567ffffffffffffffff8111156128595761285861221f565b5b61286588828901612542565b9150509295509295909350565b60007fff0000000000000000000000000000000000000000000000000000000000000082169050919050565b6128a781612872565b82525050565b6128b681612244565b82525050565b600081519050919050565b600082825260208201905092915050565b6000819050602082019050919050565b6128f181612282565b82525050565b600061290383836128e8565b60208301905092915050565b6000602082019050919050565b6000612927826128bc565b61293181856128c7565b935061293c836128d8565b8060005b8381101561296d57815161295488826128f7565b975061295f8361290f565b925050600181019050612940565b5085935050505092915050565b600060e08201905061298f600083018a61289e565b81810360208301526129a18189612379565b905081810360408301526129b58188612379565b90506129c460608301876122f8565b6129d160808301866128ad565b6129de60a083018561267b565b81810360c08301526129f0818461291c565b905098975050505050505050565b6000602082019050612a1360008301846128ad565b92915050565b612a228161263a565b8114612a2d57600080fd5b50565b600081359050612a3f81612a19565b92915050565b612a4e81612671565b8114612a5957600080fd5b50565b600081359050612a6b81612a45565b92915050565b600080600080600080600060e0888a031215612a9057612a8f61221a565b5b6000612a9e8a828b0161226d565b9750506020612aaf8a828b0161226d565b9650506040612ac08a828b016122a3565b9550506060612ad18a828b016122a3565b9450506080612ae28a828b01612a30565b93505060a0612af38a828b01612a5c565b92505060c0612b048a828b01612a5c565b91505092959891949750929550565b60008060408385031215612b2a57612b2961221a565b5b6000612b388582860161226d565b9250506020612b498582860161226d565b9150509250929050565b7f4e487b7100000000000000000000000000000000000000000000000000000000600052602260045260246000fd5b60006002820490506001821680612b9a57607f821691505b602082108103612bad57612bac612b53565b5b50919050565b600081905092915050565b6000612bc982612322565b612bd38185612bb3565b9350612be381856020860161233e565b80840191505092915050565b6000612bfb8284612bbe565b915081905092915050565b7f496e76616c696420736563726574206b65790000000000000000000000000000600082015250565b6000612c3c60128361232d565b9150612c4782612c06565b602082019050919050565b60006020820190508181036000830152612c6b81612c2f565b9050919050565b7f496e76616c6964206c697374696e6720696e6465780000000000000000000000600082015250565b6000612ca860158361232d565b9150612cb382612c72565b602082019050919050565b60006020820190508181036000830152612cd781612c9b565b9050919050565b7f4e487b7100000000000000000000000000000000000000000000000000000000600052603260045260246000fd5b7f43616e6e6f742064656c65746520616e20696e616374697665206c697374696e60008201527f6700000000000000000000000000000000000000000000000000000000000000602082015250565b6000612d6960218361232d565b9150612d7482612d0d565b604082019050919050565b60006020820190508181036000830152612d9881612d5c565b9050919050565b7f4c697374696e67206973206e6f74206163746976650000000000000000000000600082015250565b6000612dd560158361232d565b9150612de082612d9f565b602082019050919050565b60006020820190508181036000830152612e0481612dc8565b9050919050565b7f496e73756666696369656e74204554482073656e740000000000000000000000600082015250565b6000612e4160158361232d565b9150612e4c82612e0b565b602082019050919050565b60006020820190508181036000830152612e7081612e34565b9050919050565b60008190508160005260206000209050919050565b60008154612e9981612b82565b612ea3818661232d565b94506001821660008114612ebe5760018114612ed457612f07565b60ff198316865281151560200286019350612f07565b612edd85612e77565b60005b83811015612eff57815481890152600182019150602081019050612ee0565b808801955050505b50505092915050565b6000608082019050612f2560008301876122f8565b612f3260208301866122f8565b612f3f60408301856122f8565b8181036060830152612f518184612e8c565b905095945050505050565b7f496e73756666696369656e742043544b4e2062616c616e636500000000000000600082015250565b6000612f9260198361232d565b9150612f9d82612f5c565b602082019050919050565b60006020820190508181036000830152612fc181612f85565b9050919050565b60006020601f8301049050919050565b600082821b905092915050565b6000600883026130157fffffffffffffffffffffffffffffffffffffffffffffffffffffffffffffffff82612fd8565b61301f8683612fd8565b95508019841693508086168417925050509392505050565b6000819050919050565b600061305c61305761305284612282565b613037565b612282565b9050919050565b6000819050919050565b61307683613041565b61308a61308282613063565b848454612fe5565b825550505050565b600090565b61309f613092565b6130aa81848461306d565b505050565b5b818110156130ce576130c3600082613097565b6001810190506130b0565b5050565b601f821115613113576130e481612e77565b6130ed84612fc8565b810160208510156130fc578190505b61311061310885612fc8565b8301826130af565b50505b505050565b600082821c905092915050565b600061313660001984600802613118565b1980831691505092915050565b600061314f8383613125565b9150826002028217905092915050565b61316882612322565b67ffffffffffffffff81111561318157613180612445565b5b61318b8254612b82565b6131968282856130d2565b600060209050601f8311600181146131c957600084156131b7578287015190505b6131c18582613143565b865550613229565b601f1984166131d786612e77565b60005b828110156131ff578489015182556001820191506020850194506020810190506131da565b8683101561321c5784890151613218601f891682613125565b8355505b6001600288020188555050505b505050505050565b7f4e487b7100000000000000000000000000000000000000000000000000000000600052601160045260246000fd5b600061326b82612282565b915061327683612282565b925082820390508181111561328e5761328d613231565b5b92915050565b60006132a0838561232d565b93506132ad8385846124f1565b6132b683612368565b840190509392505050565b60006080820190506132d660008301886122f8565b6132e360208301876122f8565b6132f060408301866122f8565b8181036060830152613303818486613294565b90509695505050505050565b600060c082019050613324600083018961267b565b61333160208301886128ad565b61333e60408301876128ad565b61334b60608301866122f8565b61335860808301856122f8565b61336560a08301846122f8565b979650505050505050565b600060408201905061338560008301856128ad565b61339260208301846128ad565b9392505050565b60006060820190506133ae60008301866128ad565b6133bb60208301856122f8565b6133c860408301846122f8565b949350505050565b60006133db82612282565b91506133e683612282565b92508282019050808211156133fe576133fd613231565b5b92915050565b600060a082019050613419600083018861267b565b613426602083018761267b565b613433604083018661267b565b61344060608301856122f8565b61344d60808301846128ad565b9695505050505050565b600060808201905061346c600083018761267b565b6134796020830186612647565b613486604083018561267b565b613493606083018461267b565b95945050505050565b7f4e487b7100000000000000000000000000000000000000000000000000000000600052602160045260246000fdfea26469706673582212206068049eaf1d64c846e1744e02bf0236ad6bba97b63ab39fb3b11adf8b50e9b364736f6c63430008180033",
  "linkReferences": {},
  "deployedLinkReferences": {}
}