{
  "_format": "hh-sol-artifact-1",
  "contractName": "CarbonToken",
  "sourceName": "contracts/CarbonToken.sol",
  "abi": [
    {
      "inputs": [
        {
          "internalType": "address",
          "name": "initialOwner",
          "type": "address"
        }
      ],
      "stateMutability": "nonpayable",
      "type": "constructor"
    },
    {
      "inputs": [],
      "name": "ECDSAInvalidSignature",
      "type": "error"
    },
    {
      "inputs": [
        {
          "internalType": "uint256",
          "name": "length",
          "type": "uint256"
        }
      ],
      "name": "ECDSAInvalidSignatureLength",
      "type": "error"
    },
    {
      "inputs": [
        {
          "internalType": "bytes32",
          "name": "s",
          "type": "bytes32"
        }
      ],
      "name": "ECDSAInvalidSignatureS",
      "type": "error"
    },
    {
      "inputs": [
        {
          "internalType": "address",
          "name": "spender",
          "type": "address"
        },
        {
          "internalType": "uint256",
          "name": "allowance",
          "type": "uint256"
        },
        {
          "internalType": "uint256",
          "name": "needed",
          "type": "uint256"
        }
      ],
      "name": "ERC20InsufficientAllowance",
      "type": "error"
    },
    {
      "inputs": [
        {
          "internalType": "address",
          "name": "sender",
          "type": "address"
        },
        {
          "internalType": "uint256",
          "name": "balance",
          "type": "uint256"
        },
        {
          "internalType": "uint256",
          "name": "needed",
          "type": "uint256"
        }
      ],
      "name": "ERC20InsufficientBalance",
      "type": "error"
    },
    {
      "inputs": [
        {
          "internalType": "address",
          "name": "approver",
          "type": "address"
        }
      ],
      "name": "ERC20InvalidApprover",
      "type": "error"
    },
    {
      "inputs": [
        {
          "internalType": "address",
          "name": "receiver",
          "type": "address"
        }
      ],
      "name": "ERC20InvalidReceiver",
      "type": "error"
    },
    {
      "inputs": [
        {
          "internalType": "address",
          "name": "sender",
          "type": "address"
        }
      ],
      "name": "ERC20InvalidSender",
      "type": "error"
    },
    {
      "inputs": [
        {
          "internalType": "address",
          "name": "spender",
          "type": "address"
        }
      ],
      "name": "ERC20InvalidSpender",
      "type": "error"
    },
    {
      "inputs": [
        {
          "internalType": "uint256",
          "name": "deadline",
          "type": "uint256"
        }
      ],
      "name": "ERC2612ExpiredSignature",
      "type": "error"
    },
    {
      "inputs": [
        {
          "internalType": "address",
          "name": "signer",
          "type": "address"
        },
        {
          "internalType": "address",
          "name": "owner",
          "type": "address"
        }
      ],
      "name": "ERC2612InvalidSigner",
      "type": "error"
    },
    {
      "inputs": [
        {
          "internalType": "address",
          "name": "account",
          "type": "address"
        },
        {
          "internalType": "uint256",
          "name": "currentNonce",
          "type": "uint256"
        }
      ],
      "name": "InvalidAccountNonce",
      "type": "error"
    },
    {
      "inputs": [],
      "name": "InvalidShortString",
      "type": "error"
    },
    {
      "inputs": [
        {
          "internalType": "address",
          "name": "owner",
          "type": "address"
        }
      ],
      "name": "OwnableInvalidOwner",
      "type": "error"
    },
    {
      "inputs": [
        {
          "internalType": "address",
          "name": "account",
          "type": "address"
        }
      ],
      "name": "OwnableUnauthorizedAccount",
      "type": "error"
    },
    {
      "inputs": [
        {
          "internalType": "string",
          "name": "str",
          "type": "string"
        }
      ],
      "name": "StringTooLong",
      "type": "error"
    },
    {
      "anonymous": false,
      "inputs": [
        {
          "indexed": true,
          "internalType": "address",
          "name": "owner",
          "type": "address"
        },
        {
          "indexed": true,
          "internalType": "address",
          "name": "spender",
          "type": "address"
        },
        {
          "indexed": false,
          "internalType": "uint256",
          "name": "value",
          "type": "uint256"
        }
      ],
      "name": "Approval",
      "type": "event"
    },
    {
      "anonymous": false,
      "inputs": [],
      "name": "EIP712DomainChanged",
      "type": "event"
    },
    {
      "anonymous": false,
      "inputs": [
        {
          "indexed": true,
          "internalType": "uint256",
          "name": "listingId",
          "type": "uint256"
        },
        {
          "indexed": true,
          "internalType": "address",
          "name": "seller",
          "type": "address"
        },
        {
          "indexed": false,
          "internalType": "uint256",
          "name": "amountCTKN",
          "type": "uint256"
        },
        {
          "indexed": false,
          "internalType": "uint256",
          "name": "priceETH",
          "type": "uint256"
        }
      ],
      "name": "ListingCreated",
      "type": "event"
    },
    {
      "anonymous": false,
      "inputs": [
        {
          "indexed": true,
          "internalType": "address",
          "name": "previousOwner",
          "type": "address"
        },
        {
          "indexed": true,
          "internalType": "address",
          "name": "newOwner",
          "type": "address"
        }
      ],
      "name": "OwnershipTransferred",
      "type": "event"
    },
    {
      "anonymous": false,
      "inputs": [
        {
          "indexed": true,
          "internalType": "address",
          "name": "from",
          "type": "address"
        },
        {
          "indexed": true,
          "internalType": "address",
          "name": "to",
          "type": "address"
        },
        {
          "indexed": false,
          "internalType": "uint256",
          "name": "value",
          "type": "uint256"
        }
      ],
      "name": "Transfer",
      "type": "event"
    },
    {
      "inputs": [],
      "name": "DOMAIN_SEPARATOR",
      "outputs": [
        {
          "internalType": "bytes32",
          "name": "",
          "type": "bytes32"
        }
      ],
      "stateMutability": "view",
      "type": "function"
    },
    {
      "inputs": [
        {
          "internalType": "address",
          "name": "owner",
          "type": "address"
        },
        {
          "internalType": "address",
          "name": "spender",
          "type": "address"
        }
      ],
      "name": "allowance",
      "outputs": [
        {
          "internalType": "uint256",
          "name": "",
          "type": "uint256"
        }
      ],
      "stateMutability": "view",
      "type": "function"
    },
    {
      "inputs": [
        {
          "internalType": "address",
          "name": "spender",
          "type": "address"
        },
        {
          "internalType": "uint256",
          "name": "value",
          "type": "uint256"
        }
      ],
      "name": "approve",
      "outputs": [
        {
          "internalType": "bool",
          "name": "",
          "type": "bool"
        }
      ],
      "stateMutability": "nonpayable",
      "type": "function"
    },
    {
      "inputs": [
        {
          "internalType": "address",
          "name": "account",
          "type": "address"
        }
      ],
      "name": "balanceOf",
      "outputs": [
        {
          "internalType": "uint256",
          "name": "",
          "type": "uint256"
        }
      ],
      "stateMutability": "view",
      "type": "function"
    },
    {
      "inputs": [
        {
          "internalType": "uint256",
          "name": "value",
          "type": "uint256"
        }
      ],
      "name": "burn",
      "outputs": [],
      "stateMutability": "nonpayable",
      "type": "function"
    },
    {
      "inputs": [
        {
          "internalType": "address",
          "name": "account",
          "type": "address"
        },
        {
          "internalType": "uint256",
          "name": "value",
          "type": "uint256"
        }
      ],
      "name": "burnFrom",
      "outputs": [],
      "stateMutability": "nonpayable",
      "type": "function"
    },
    {
      "inputs": [
        {
          "internalType": "uint256",
          "name": "listingId",
          "type": "uint256"
        },
        {
          "internalType": "uint256",
          "name": "priceETH",
          "type": "uint256"
        }
      ],
      "name": "buyCTKNFromListing",
      "outputs": [],
      "stateMutability": "payable",
      "type": "function"
    },
    {
      "inputs": [],
      "name": "decimals",
      "outputs": [
        {
          "internalType": "uint8",
          "name": "",
          "type": "uint8"
        }
      ],
      "stateMutability": "view",
      "type": "function"
    },
    {
      "inputs": [],
      "name": "eip712Domain",
      "outputs": [
        {
          "internalType": "bytes1",
          "name": "fields",
          "type": "bytes1"
        },
        {
          "internalType": "string",
          "name": "name",
          "type": "string"
        },
        {
          "internalType": "string",
          "name": "version",
          "type": "string"
        },
        {
          "internalType": "uint256",
          "name": "chainId",
          "type": "uint256"
        },
        {
          "internalType": "address",
          "name": "verifyingContract",
          "type": "address"
        },
        {
          "internalType": "bytes32",
          "name": "salt",
          "type": "bytes32"
        },
        {
          "internalType": "uint256[]",
          "name": "extensions",
          "type": "uint256[]"
        }
      ],
      "stateMutability": "view",
      "type": "function"
    },
    {
      "inputs": [
        {
          "internalType": "uint256",
          "name": "amountCTKN",
          "type": "uint256"
        },
        {
          "internalType": "uint256",
          "name": "priceETH",
          "type": "uint256"
        }
      ],
      "name": "listCTKNForSale",
      "outputs": [],
      "stateMutability": "nonpayable",
      "type": "function"
    },
    {
      "inputs": [
        {
          "internalType": "uint256",
          "name": "",
          "type": "uint256"
        }
      ],
      "name": "listings",
      "outputs": [
        {
          "internalType": "uint256",
          "name": "amountCTKN",
          "type": "uint256"
        },
        {
          "internalType": "uint256",
          "name": "priceETH",
          "type": "uint256"
        },
        {
          "internalType": "address",
          "name": "seller",
          "type": "address"
        }
      ],
      "stateMutability": "view",
      "type": "function"
    },
    {
      "inputs": [
        {
          "internalType": "address",
          "name": "to",
          "type": "address"
        },
        {
          "internalType": "uint256",
          "name": "amount",
          "type": "uint256"
        }
      ],
      "name": "mint",
      "outputs": [],
      "stateMutability": "nonpayable",
      "type": "function"
    },
    {
      "inputs": [],
      "name": "name",
      "outputs": [
        {
          "internalType": "string",
          "name": "",
          "type": "string"
        }
      ],
      "stateMutability": "view",
      "type": "function"
    },
    {
      "inputs": [],
      "name": "nextListingId",
      "outputs": [
        {
          "internalType": "uint256",
          "name": "",
          "type": "uint256"
        }
      ],
      "stateMutability": "view",
      "type": "function"
    },
    {
      "inputs": [
        {
          "internalType": "address",
          "name": "owner",
          "type": "address"
        }
      ],
      "name": "nonces",
      "outputs": [
        {
          "internalType": "uint256",
          "name": "",
          "type": "uint256"
        }
      ],
      "stateMutability": "view",
      "type": "function"
    },
    {
      "inputs": [],
      "name": "owner",
      "outputs": [
        {
          "internalType": "address",
          "name": "",
          "type": "address"
        }
      ],
      "stateMutability": "view",
      "type": "function"
    },
    {
      "inputs": [
        {
          "internalType": "address",
          "name": "owner",
          "type": "address"
        },
        {
          "internalType": "address",
          "name": "spender",
          "type": "address"
        },
        {
          "internalType": "uint256",
          "name": "value",
          "type": "uint256"
        },
        {
          "internalType": "uint256",
          "name": "deadline",
          "type": "uint256"
        },
        {
          "internalType": "uint8",
          "name": "v",
          "type": "uint8"
        },
        {
          "internalType": "bytes32",
          "name": "r",
          "type": "bytes32"
        },
        {
          "internalType": "bytes32",
          "name": "s",
          "type": "bytes32"
        }
      ],
      "name": "permit",
      "outputs": [],
      "stateMutability": "nonpayable",
      "type": "function"
    },
    {
      "inputs": [],
      "name": "renounceOwnership",
      "outputs": [],
      "stateMutability": "nonpayable",
      "type": "function"
    },
    {
      "inputs": [],
      "name": "symbol",
      "outputs": [
        {
          "internalType": "string",
          "name": "",
          "type": "string"
        }
      ],
      "stateMutability": "view",
      "type": "function"
    },
    {
      "inputs": [],
      "name": "totalSupply",
      "outputs": [
        {
          "internalType": "uint256",
          "name": "",
          "type": "uint256"
        }
      ],
      "stateMutability": "view",
      "type": "function"
    },
    {
      "inputs": [
        {
          "internalType": "address",
          "name": "to",
          "type": "address"
        },
        {
          "internalType": "uint256",
          "name": "value",
          "type": "uint256"
        }
      ],
      "name": "transfer",
      "outputs": [
        {
          "internalType": "bool",
          "name": "",
          "type": "bool"
        }
      ],
      "stateMutability": "nonpayable",
      "type": "function"
    },
    {
      "inputs": [
        {
          "internalType": "address",
          "name": "recipient",
          "type": "address"
        },
        {
          "internalType": "uint256",
          "name": "amountCTKN",
          "type": "uint256"
        },
        {
          "internalType": "uint256",
          "name": "amountETH",
          "type": "uint256"
        }
      ],
      "name": "transferCTKNWithETHBack",
      "outputs": [],
      "stateMutability": "payable",
      "type": "function"
    },
    {
      "inputs": [
        {
          "internalType": "address",
          "name": "from",
          "type": "address"
        },
        {
          "internalType": "address",
          "name": "to",
          "type": "address"
        },
        {
          "internalType": "uint256",
          "name": "value",
          "type": "uint256"
        }
      ],
      "name": "transferFrom",
      "outputs": [
        {
          "internalType": "bool",
          "name": "",
          "type": "bool"
        }
      ],
      "stateMutability": "nonpayable",
      "type": "function"
    },
    {
      "inputs": [
        {
          "internalType": "address",
          "name": "newOwner",
          "type": "address"
        }
      ],
      "name": "transferOwnership",
      "outputs": [],
      "stateMutability": "nonpayable",
      "type": "function"
    },
    {
      "stateMutability": "payable",
      "type": "receive"
    }
  ],
  "bytecode": "0x6101606040523480156200001257600080fd5b5060405162003b3138038062003b318339818101604052810190620000389190620007d7565b6040518060400160405280600b81526020017f436172626f6e546f6b656e000000000000000000000000000000000000000000815250806040518060400160405280600181526020017f3100000000000000000000000000000000000000000000000000000000000000815250836040518060400160405280600b81526020017f436172626f6e546f6b656e0000000000000000000000000000000000000000008152506040518060400160405280600481526020017f43544b4e00000000000000000000000000000000000000000000000000000000815250816003908162000123919062000a83565b50806004908162000135919062000a83565b505050600073ffffffffffffffffffffffffffffffffffffffff168173ffffffffffffffffffffffffffffffffffffffff1603620001ad5760006040517f1e4fbdf7000000000000000000000000000000000000000000000000000000008152600401620001a4919062000b7b565b60405180910390fd5b620001be81620002b560201b60201c565b50620001d56006836200037b60201b90919060201c565b6101208181525050620001f36007826200037b60201b90919060201c565b6101408181525050818051906020012060e08181525050808051906020012061010081815250504660a0818152505062000232620003d360201b60201c565b608081815250503073ffffffffffffffffffffffffffffffffffffffff1660c08173ffffffffffffffffffffffffffffffffffffffff1681525050505050620002ae33620002856200043060201b60201c565b600a62000293919062000d28565b612710620002a2919062000d79565b6200043960201b60201c565b5062001037565b6000600560009054906101000a900473ffffffffffffffffffffffffffffffffffffffff16905081600560006101000a81548173ffffffffffffffffffffffffffffffffffffffff021916908373ffffffffffffffffffffffffffffffffffffffff1602179055508173ffffffffffffffffffffffffffffffffffffffff168173ffffffffffffffffffffffffffffffffffffffff167f8be0079c531659141344cd1fd0a4f28419497f9722a3daafe3b4186f6b6457e060405160405180910390a35050565b6000602083511015620003a1576200039983620004c660201b60201c565b9050620003cd565b82620003b3836200053360201b60201c565b6000019081620003c4919062000a83565b5060ff60001b90505b92915050565b60007f8b73c3c69bb8fe3d512ecc4cf759cc79239f7b179b0ffacaa9a75d522b39400f60e0516101005146306040516020016200041595949392919062000df0565b60405160208183030381529060405280519060200120905090565b60006012905090565b600073ffffffffffffffffffffffffffffffffffffffff168273ffffffffffffffffffffffffffffffffffffffff1603620004ae5760006040517fec442f05000000000000000000000000000000000000000000000000000000008152600401620004a5919062000b7b565b60405180910390fd5b620004c2600083836200053d60201b60201c565b5050565b600080829050601f815111156200051657826040517f305a27a90000000000000000000000000000000000000000000000000000000081526004016200050d919062000edc565b60405180910390fd5b805181620005249062000f32565b60001c1760001b915050919050565b6000819050919050565b600073ffffffffffffffffffffffffffffffffffffffff168373ffffffffffffffffffffffffffffffffffffffff16036200059357806002600082825462000586919062000fa2565b9250508190555062000669565b60008060008573ffffffffffffffffffffffffffffffffffffffff1673ffffffffffffffffffffffffffffffffffffffff1681526020019081526020016000205490508181101562000622578381836040517fe450d38c000000000000000000000000000000000000000000000000000000008152600401620006199392919062000fdd565b60405180910390fd5b8181036000808673ffffffffffffffffffffffffffffffffffffffff1673ffffffffffffffffffffffffffffffffffffffff16815260200190815260200160002081905550505b600073ffffffffffffffffffffffffffffffffffffffff168273ffffffffffffffffffffffffffffffffffffffff1603620006b4578060026000828254039250508190555062000701565b806000808473ffffffffffffffffffffffffffffffffffffffff1673ffffffffffffffffffffffffffffffffffffffff168152602001908152602001600020600082825401925050819055505b8173ffffffffffffffffffffffffffffffffffffffff168373ffffffffffffffffffffffffffffffffffffffff167fddf252ad1be2c89b69c2b068fc378daa952ba7f163c4a11628f55a4df523b3ef836040516200076091906200101a565b60405180910390a3505050565b600080fd5b600073ffffffffffffffffffffffffffffffffffffffff82169050919050565b60006200079f8262000772565b9050919050565b620007b18162000792565b8114620007bd57600080fd5b50565b600081519050620007d181620007a6565b92915050565b600060208284031215620007f057620007ef6200076d565b5b60006200080084828501620007c0565b91505092915050565b600081519050919050565b7f4e487b7100000000000000000000000000000000000000000000000000000000600052604160045260246000fd5b7f4e487b7100000000000000000000000000000000000000000000000000000000600052602260045260246000fd5b600060028204905060018216806200088b57607f821691505b602082108103620008a157620008a062000843565b5b50919050565b60008190508160005260206000209050919050565b60006020601f8301049050919050565b600082821b905092915050565b6000600883026200090b7fffffffffffffffffffffffffffffffffffffffffffffffffffffffffffffffff82620008cc565b620009178683620008cc565b95508019841693508086168417925050509392505050565b6000819050919050565b6000819050919050565b6000620009646200095e62000958846200092f565b62000939565b6200092f565b9050919050565b6000819050919050565b620009808362000943565b620009986200098f826200096b565b848454620008d9565b825550505050565b600090565b620009af620009a0565b620009bc81848462000975565b505050565b5b81811015620009e457620009d8600082620009a5565b600181019050620009c2565b5050565b601f82111562000a3357620009fd81620008a7565b62000a0884620008bc565b8101602085101562000a18578190505b62000a3062000a2785620008bc565b830182620009c1565b50505b505050565b600082821c905092915050565b600062000a586000198460080262000a38565b1980831691505092915050565b600062000a73838362000a45565b9150826002028217905092915050565b62000a8e8262000809565b67ffffffffffffffff81111562000aaa5762000aa962000814565b5b62000ab6825462000872565b62000ac3828285620009e8565b600060209050601f83116001811462000afb576000841562000ae6578287015190505b62000af2858262000a65565b86555062000b62565b601f19841662000b0b86620008a7565b60005b8281101562000b355784890151825560018201915060208501945060208101905062000b0e565b8683101562000b55578489015162000b51601f89168262000a45565b8355505b6001600288020188555050505b505050505050565b62000b758162000792565b82525050565b600060208201905062000b92600083018462000b6a565b92915050565b7f4e487b7100000000000000000000000000000000000000000000000000000000600052601160045260246000fd5b60008160011c9050919050565b6000808291508390505b600185111562000c265780860481111562000bfe5762000bfd62000b98565b5b600185161562000c0e5780820291505b808102905062000c1e8562000bc7565b945062000bde565b94509492505050565b60008262000c41576001905062000d14565b8162000c51576000905062000d14565b816001811462000c6a576002811462000c755762000cab565b600191505062000d14565b60ff84111562000c8a5762000c8962000b98565b5b8360020a91508482111562000ca45762000ca362000b98565b5b5062000d14565b5060208310610133831016604e8410600b841016171562000ce55782820a90508381111562000cdf5762000cde62000b98565b5b62000d14565b62000cf4848484600162000bd4565b9250905081840481111562000d0e5762000d0d62000b98565b5b81810290505b9392505050565b600060ff82169050919050565b600062000d35826200092f565b915062000d428362000d1b565b925062000d717fffffffffffffffffffffffffffffffffffffffffffffffffffffffffffffffff848462000c2f565b905092915050565b600062000d86826200092f565b915062000d93836200092f565b925082820262000da3816200092f565b9150828204841483151762000dbd5762000dbc62000b98565b5b5092915050565b6000819050919050565b62000dd98162000dc4565b82525050565b62000dea816200092f565b82525050565b600060a08201905062000e07600083018862000dce565b62000e16602083018762000dce565b62000e25604083018662000dce565b62000e34606083018562000ddf565b62000e43608083018462000b6a565b9695505050505050565b600082825260208201905092915050565b60005b8381101562000e7e57808201518184015260208101905062000e61565b60008484015250505050565b6000601f19601f8301169050919050565b600062000ea88262000809565b62000eb4818562000e4d565b935062000ec681856020860162000e5e565b62000ed18162000e8a565b840191505092915050565b6000602082019050818103600083015262000ef8818462000e9b565b905092915050565b600081519050919050565b6000819050602082019050919050565b600062000f29825162000dc4565b80915050919050565b600062000f3f8262000f00565b8262000f4b8462000f0b565b905062000f588162000f1b565b9250602082101562000f9b5762000f967fffffffffffffffffffffffffffffffffffffffffffffffffffffffffffffffff83602003600802620008cc565b831692505b5050919050565b600062000faf826200092f565b915062000fbc836200092f565b925082820190508082111562000fd75762000fd662000b98565b5b92915050565b600060608201905062000ff4600083018662000b6a565b62001003602083018562000ddf565b62001012604083018462000ddf565b949350505050565b600060208201905062001031600083018462000ddf565b92915050565b60805160a05160c05160e051610100516101205161014051612a9f6200109260003960006114b001526000611475015260006119c5015260006119a40152600061111f015260006111750152600061119e0152612a9f6000f3fe60806040526004361061014f5760003560e01c806379cc6790116100b6578063a9059cbb1161006f578063a9059cbb14610475578063aaccf1ec146104b2578063d505accf146104dd578063dd62ed3e14610506578063de74e57b14610543578063f2fde38b1461058257610156565b806379cc67901461036c5780637ecebe001461039557806384b0196e146103d25780638da5cb5b1461040357806395d89b411461042e578063a65e9bfa1461045957610156565b80633644e515116101085780633644e5151461027257806340c10f191461029d57806342966c68146102c657806370a08231146102ef578063715018a61461032c578063790a52ed1461034357610156565b806303f72ba21461015b57806306fdde0314610177578063095ea7b3146101a257806318160ddd146101df57806323b872dd1461020a578063313ce5671461024757610156565b3661015657005b600080fd5b61017560048036038101906101709190611ebb565b6105ab565b005b34801561018357600080fd5b5061018c6106ab565b6040516101999190611f9e565b60405180910390f35b3480156101ae57600080fd5b506101c960048036038101906101c49190611fc0565b61073d565b6040516101d6919061201b565b60405180910390f35b3480156101eb57600080fd5b506101f4610760565b6040516102019190612045565b60405180910390f35b34801561021657600080fd5b50610231600480360381019061022c9190612060565b61076a565b60405161023e919061201b565b60405180910390f35b34801561025357600080fd5b5061025c610799565b60405161026991906120cf565b60405180910390f35b34801561027e57600080fd5b506102876107a2565b6040516102949190612103565b60405180910390f35b3480156102a957600080fd5b506102c460048036038101906102bf9190611fc0565b6107b1565b005b3480156102d257600080fd5b506102ed60048036038101906102e8919061211e565b6107c7565b005b3480156102fb57600080fd5b506103166004803603810190610311919061214b565b6107db565b6040516103239190612045565b60405180910390f35b34801561033857600080fd5b50610341610823565b005b34801561034f57600080fd5b5061036a60048036038101906103659190612178565b610837565b005b34801561037857600080fd5b50610393600480360381019061038e9190611fc0565b6109ef565b005b3480156103a157600080fd5b506103bc60048036038101906103b7919061214b565b610a0f565b6040516103c99190612045565b60405180910390f35b3480156103de57600080fd5b506103e7610a21565b6040516103fa97969594939291906122c0565b60405180910390f35b34801561040f57600080fd5b50610418610acb565b6040516104259190612344565b60405180910390f35b34801561043a57600080fd5b50610443610af5565b6040516104509190611f9e565b60405180910390f35b610473600480360381019061046e9190612178565b610b87565b005b34801561048157600080fd5b5061049c60048036038101906104979190611fc0565b610cb1565b6040516104a9919061201b565b60405180910390f35b3480156104be57600080fd5b506104c7610cd4565b6040516104d49190612045565b60405180910390f35b3480156104e957600080fd5b5061050460048036038101906104ff91906123b7565b610cda565b005b34801561051257600080fd5b5061052d60048036038101906105289190612459565b610e22565b60405161053a9190612045565b60405180910390f35b34801561054f57600080fd5b5061056a6004803603810190610565919061211e565b610ea9565b60405161057993929190612499565b60405180910390f35b34801561058e57600080fd5b506105a960048036038101906105a4919061214b565b610ef3565b005b804710156105ee576040517f08c379a00000000000000000000000000000000000000000000000000000000081526004016105e590612542565b60405180910390fd5b6105f9338484610f79565b60008373ffffffffffffffffffffffffffffffffffffffff168260405161061f90612593565b60006040518083038185875af1925050503d806000811461065c576040519150601f19603f3d011682016040523d82523d6000602084013e610661565b606091505b50509050806106a5576040517f08c379a000000000000000000000000000000000000000000000000000000000815260040161069c9061261a565b60405180910390fd5b50505050565b6060600380546106ba90612669565b80601f01602080910402602001604051908101604052809291908181526020018280546106e690612669565b80156107335780601f1061070857610100808354040283529160200191610733565b820191906000526020600020905b81548152906001019060200180831161071657829003601f168201915b5050505050905090565b60008061074861106d565b9050610755818585611075565b600191505092915050565b6000600254905090565b60008061077561106d565b9050610782858285611087565b61078d858585610f79565b60019150509392505050565b60006012905090565b60006107ac61111b565b905090565b6107b96111d2565b6107c38282611259565b5050565b6107d86107d261106d565b826112db565b50565b60008060008373ffffffffffffffffffffffffffffffffffffffff1673ffffffffffffffffffffffffffffffffffffffff168152602001908152602001600020549050919050565b61082b6111d2565b610835600061135d565b565b81610841336107db565b1015610882576040517f08c379a0000000000000000000000000000000000000000000000000000000008152600401610879906126e6565b60405180910390fd5b6000821180156108925750600081115b6108d1576040517f08c379a00000000000000000000000000000000000000000000000000000000081526004016108c890612752565b60405180910390fd5b6108db3083610cb1565b5060405180606001604052808381526020018281526020013373ffffffffffffffffffffffffffffffffffffffff1681525060096000600a548152602001908152602001600020600082015181600001556020820151816001015560408201518160020160006101000a81548173ffffffffffffffffffffffffffffffffffffffff021916908373ffffffffffffffffffffffffffffffffffffffff1602179055509050503373ffffffffffffffffffffffffffffffffffffffff16600a547f12dc294b81a709d694b1337a350a12a00076c19a77a25aab67a5f0c07e0f164d84846040516109cb929190612772565b60405180910390a3600a60008154809291906109e6906127ca565b91905055505050565b610a01826109fb61106d565b83611087565b610a0b82826112db565b5050565b6000610a1a82611423565b9050919050565b600060608060008060006060610a3561146c565b610a3d6114a7565b46306000801b600067ffffffffffffffff811115610a5e57610a5d612812565b5b604051908082528060200260200182016040528015610a8c5781602001602082028036833780820191505090505b507f0f00000000000000000000000000000000000000000000000000000000000000959493929190965096509650965096509650965090919293949596565b6000600560009054906101000a900473ffffffffffffffffffffffffffffffffffffffff16905090565b606060048054610b0490612669565b80601f0160208091040260200160405190810160405280929190818152602001828054610b3090612669565b8015610b7d5780601f10610b5257610100808354040283529160200191610b7d565b820191906000526020600020905b815481529060010190602001808311610b6057829003601f168201915b5050505050905090565b60006009600084815260200190815260200160002090506000816000015411610be5576040517f08c379a0000000000000000000000000000000000000000000000000000000008152600401610bdc9061288d565b60405180910390fd5b610bf3338260000154610cb1565b508060020160009054906101000a900473ffffffffffffffffffffffffffffffffffffffff1673ffffffffffffffffffffffffffffffffffffffff166108fc839081150290604051600060405180830381858888f19350505050158015610c5e573d6000803e3d6000fd5b506009600084815260200190815260200160002060008082016000905560018201600090556002820160006101000a81549073ffffffffffffffffffffffffffffffffffffffff02191690555050505050565b600080610cbc61106d565b9050610cc9818585610f79565b600191505092915050565b600a5481565b83421115610d1f57836040517f62791302000000000000000000000000000000000000000000000000000000008152600401610d169190612045565b60405180910390fd5b60007f6e71edae12b1b97f4d1f60370fef10105fa2faae0126114a169c64845d6126c9888888610d4e8c6114e2565b89604051602001610d64969594939291906128ad565b6040516020818303038152906040528051906020012090506000610d8782611539565b90506000610d9782878787611553565b90508973ffffffffffffffffffffffffffffffffffffffff168173ffffffffffffffffffffffffffffffffffffffff1614610e0b57808a6040517f4b800e46000000000000000000000000000000000000000000000000000000008152600401610e0292919061290e565b60405180910390fd5b610e168a8a8a611075565b50505050505050505050565b6000600160008473ffffffffffffffffffffffffffffffffffffffff1673ffffffffffffffffffffffffffffffffffffffff16815260200190815260200160002060008373ffffffffffffffffffffffffffffffffffffffff1673ffffffffffffffffffffffffffffffffffffffff16815260200190815260200160002054905092915050565b60096020528060005260406000206000915090508060000154908060010154908060020160009054906101000a900473ffffffffffffffffffffffffffffffffffffffff16905083565b610efb6111d2565b600073ffffffffffffffffffffffffffffffffffffffff168173ffffffffffffffffffffffffffffffffffffffff1603610f6d5760006040517f1e4fbdf7000000000000000000000000000000000000000000000000000000008152600401610f649190612344565b60405180910390fd5b610f768161135d565b50565b600073ffffffffffffffffffffffffffffffffffffffff168373ffffffffffffffffffffffffffffffffffffffff1603610feb5760006040517f96c6fd1e000000000000000000000000000000000000000000000000000000008152600401610fe29190612344565b60405180910390fd5b600073ffffffffffffffffffffffffffffffffffffffff168273ffffffffffffffffffffffffffffffffffffffff160361105d5760006040517fec442f050000000000000000000000000000000000000000000000000000000081526004016110549190612344565b60405180910390fd5b611068838383611583565b505050565b600033905090565b61108283838360016117a8565b505050565b60006110938484610e22565b90507fffffffffffffffffffffffffffffffffffffffffffffffffffffffffffffffff81146111155781811015611105578281836040517ffb8f41b20000000000000000000000000000000000000000000000000000000081526004016110fc93929190612937565b60405180910390fd5b611114848484840360006117a8565b5b50505050565b60007f000000000000000000000000000000000000000000000000000000000000000073ffffffffffffffffffffffffffffffffffffffff163073ffffffffffffffffffffffffffffffffffffffff1614801561119757507f000000000000000000000000000000000000000000000000000000000000000046145b156111c4577f000000000000000000000000000000000000000000000000000000000000000090506111cf565b6111cc61197f565b90505b90565b6111da61106d565b73ffffffffffffffffffffffffffffffffffffffff166111f8610acb565b73ffffffffffffffffffffffffffffffffffffffff16146112575761121b61106d565b6040517f118cdaa700000000000000000000000000000000000000000000000000000000815260040161124e9190612344565b60405180910390fd5b565b600073ffffffffffffffffffffffffffffffffffffffff168273ffffffffffffffffffffffffffffffffffffffff16036112cb5760006040517fec442f050000000000000000000000000000000000000000000000000000000081526004016112c29190612344565b60405180910390fd5b6112d760008383611583565b5050565b600073ffffffffffffffffffffffffffffffffffffffff168273ffffffffffffffffffffffffffffffffffffffff160361134d5760006040517f96c6fd1e0000000000000000000000000000000000000000000000000000000081526004016113449190612344565b60405180910390fd5b61135982600083611583565b5050565b6000600560009054906101000a900473ffffffffffffffffffffffffffffffffffffffff16905081600560006101000a81548173ffffffffffffffffffffffffffffffffffffffff021916908373ffffffffffffffffffffffffffffffffffffffff1602179055508173ffffffffffffffffffffffffffffffffffffffff168173ffffffffffffffffffffffffffffffffffffffff167f8be0079c531659141344cd1fd0a4f28419497f9722a3daafe3b4186f6b6457e060405160405180910390a35050565b6000600860008373ffffffffffffffffffffffffffffffffffffffff1673ffffffffffffffffffffffffffffffffffffffff168152602001908152602001600020549050919050565b60606114a260067f0000000000000000000000000000000000000000000000000000000000000000611a1590919063ffffffff16565b905090565b60606114dd60077f0000000000000000000000000000000000000000000000000000000000000000611a1590919063ffffffff16565b905090565b6000600860008373ffffffffffffffffffffffffffffffffffffffff1673ffffffffffffffffffffffffffffffffffffffff1681526020019081526020016000206000815480929190600101919050559050919050565b600061154c61154661111b565b83611ac5565b9050919050565b60008060008061156588888888611b06565b9250925092506115758282611bfa565b829350505050949350505050565b600073ffffffffffffffffffffffffffffffffffffffff168373ffffffffffffffffffffffffffffffffffffffff16036115d55780600260008282546115c9919061296e565b925050819055506116a8565b60008060008573ffffffffffffffffffffffffffffffffffffffff1673ffffffffffffffffffffffffffffffffffffffff16815260200190815260200160002054905081811015611661578381836040517fe450d38c00000000000000000000000000000000000000000000000000000000815260040161165893929190612937565b60405180910390fd5b8181036000808673ffffffffffffffffffffffffffffffffffffffff1673ffffffffffffffffffffffffffffffffffffffff16815260200190815260200160002081905550505b600073ffffffffffffffffffffffffffffffffffffffff168273ffffffffffffffffffffffffffffffffffffffff16036116f1578060026000828254039250508190555061173e565b806000808473ffffffffffffffffffffffffffffffffffffffff1673ffffffffffffffffffffffffffffffffffffffff168152602001908152602001600020600082825401925050819055505b8173ffffffffffffffffffffffffffffffffffffffff168373ffffffffffffffffffffffffffffffffffffffff167fddf252ad1be2c89b69c2b068fc378daa952ba7f163c4a11628f55a4df523b3ef8360405161179b9190612045565b60405180910390a3505050565b600073ffffffffffffffffffffffffffffffffffffffff168473ffffffffffffffffffffffffffffffffffffffff160361181a5760006040517fe602df050000000000000000000000000000000000000000000000000000000081526004016118119190612344565b60405180910390fd5b600073ffffffffffffffffffffffffffffffffffffffff168373ffffffffffffffffffffffffffffffffffffffff160361188c5760006040517f94280d620000000000000000000000000000000000000000000000000000000081526004016118839190612344565b60405180910390fd5b81600160008673ffffffffffffffffffffffffffffffffffffffff1673ffffffffffffffffffffffffffffffffffffffff16815260200190815260200160002060008573ffffffffffffffffffffffffffffffffffffffff1673ffffffffffffffffffffffffffffffffffffffff168152602001908152602001600020819055508015611979578273ffffffffffffffffffffffffffffffffffffffff168473ffffffffffffffffffffffffffffffffffffffff167f8c5be1e5ebec7d5bd14f71427d1e84f3dd0314c0f7b2291e5b200ac8c7c3b925846040516119709190612045565b60405180910390a35b50505050565b60007f8b73c3c69bb8fe3d512ecc4cf759cc79239f7b179b0ffacaa9a75d522b39400f7f00000000000000000000000000000000000000000000000000000000000000007f000000000000000000000000000000000000000000000000000000000000000046306040516020016119fa9594939291906129a2565b60405160208183030381529060405280519060200120905090565b606060ff60001b8314611a3257611a2b83611d5e565b9050611abf565b818054611a3e90612669565b80601f0160208091040260200160405190810160405280929190818152602001828054611a6a90612669565b8015611ab75780601f10611a8c57610100808354040283529160200191611ab7565b820191906000526020600020905b815481529060010190602001808311611a9a57829003601f168201915b505050505090505b92915050565b60006040517f190100000000000000000000000000000000000000000000000000000000000081528360028201528260228201526042812091505092915050565b60008060007f7fffffffffffffffffffffffffffffff5d576e7357a4501ddfe92f46681b20a08460001c1115611b46576000600385925092509250611bf0565b600060018888888860405160008152602001604052604051611b6b94939291906129f5565b6020604051602081039080840390855afa158015611b8d573d6000803e3d6000fd5b505050602060405103519050600073ffffffffffffffffffffffffffffffffffffffff168173ffffffffffffffffffffffffffffffffffffffff1603611be157600060016000801b93509350935050611bf0565b8060008060001b935093509350505b9450945094915050565b60006003811115611c0e57611c0d612a3a565b5b826003811115611c2157611c20612a3a565b5b0315611d5a5760016003811115611c3b57611c3a612a3a565b5b826003811115611c4e57611c4d612a3a565b5b03611c85576040517ff645eedf00000000000000000000000000000000000000000000000000000000815260040160405180910390fd5b60026003811115611c9957611c98612a3a565b5b826003811115611cac57611cab612a3a565b5b03611cf1578060001c6040517ffce698f7000000000000000000000000000000000000000000000000000000008152600401611ce89190612045565b60405180910390fd5b600380811115611d0457611d03612a3a565b5b826003811115611d1757611d16612a3a565b5b03611d5957806040517fd78bce0c000000000000000000000000000000000000000000000000000000008152600401611d509190612103565b60405180910390fd5b5b5050565b60606000611d6b83611dd2565b90506000602067ffffffffffffffff811115611d8a57611d89612812565b5b6040519080825280601f01601f191660200182016040528015611dbc5781602001600182028036833780820191505090505b5090508181528360208201528092505050919050565b60008060ff8360001c169050601f811115611e19576040517fb3512b0c00000000000000000000000000000000000000000000000000000000815260040160405180910390fd5b80915050919050565b600080fd5b600073ffffffffffffffffffffffffffffffffffffffff82169050919050565b6000611e5282611e27565b9050919050565b611e6281611e47565b8114611e6d57600080fd5b50565b600081359050611e7f81611e59565b92915050565b6000819050919050565b611e9881611e85565b8114611ea357600080fd5b50565b600081359050611eb581611e8f565b92915050565b600080600060608486031215611ed457611ed3611e22565b5b6000611ee286828701611e70565b9350506020611ef386828701611ea6565b9250506040611f0486828701611ea6565b9150509250925092565b600081519050919050565b600082825260208201905092915050565b60005b83811015611f48578082015181840152602081019050611f2d565b60008484015250505050565b6000601f19601f8301169050919050565b6000611f7082611f0e565b611f7a8185611f19565b9350611f8a818560208601611f2a565b611f9381611f54565b840191505092915050565b60006020820190508181036000830152611fb88184611f65565b905092915050565b60008060408385031215611fd757611fd6611e22565b5b6000611fe585828601611e70565b9250506020611ff685828601611ea6565b9150509250929050565b60008115159050919050565b61201581612000565b82525050565b6000602082019050612030600083018461200c565b92915050565b61203f81611e85565b82525050565b600060208201905061205a6000830184612036565b92915050565b60008060006060848603121561207957612078611e22565b5b600061208786828701611e70565b935050602061209886828701611e70565b92505060406120a986828701611ea6565b9150509250925092565b600060ff82169050919050565b6120c9816120b3565b82525050565b60006020820190506120e460008301846120c0565b92915050565b6000819050919050565b6120fd816120ea565b82525050565b600060208201905061211860008301846120f4565b92915050565b60006020828403121561213457612133611e22565b5b600061214284828501611ea6565b91505092915050565b60006020828403121561216157612160611e22565b5b600061216f84828501611e70565b91505092915050565b6000806040838503121561218f5761218e611e22565b5b600061219d85828601611ea6565b92505060206121ae85828601611ea6565b9150509250929050565b60007fff0000000000000000000000000000000000000000000000000000000000000082169050919050565b6121ed816121b8565b82525050565b6121fc81611e47565b82525050565b600081519050919050565b600082825260208201905092915050565b6000819050602082019050919050565b61223781611e85565b82525050565b6000612249838361222e565b60208301905092915050565b6000602082019050919050565b600061226d82612202565b612277818561220d565b93506122828361221e565b8060005b838110156122b357815161229a888261223d565b97506122a583612255565b925050600181019050612286565b5085935050505092915050565b600060e0820190506122d5600083018a6121e4565b81810360208301526122e78189611f65565b905081810360408301526122fb8188611f65565b905061230a6060830187612036565b61231760808301866121f3565b61232460a08301856120f4565b81810360c08301526123368184612262565b905098975050505050505050565b600060208201905061235960008301846121f3565b92915050565b612368816120b3565b811461237357600080fd5b50565b6000813590506123858161235f565b92915050565b612394816120ea565b811461239f57600080fd5b50565b6000813590506123b18161238b565b92915050565b600080600080600080600060e0888a0312156123d6576123d5611e22565b5b60006123e48a828b01611e70565b97505060206123f58a828b01611e70565b96505060406124068a828b01611ea6565b95505060606124178a828b01611ea6565b94505060806124288a828b01612376565b93505060a06124398a828b016123a2565b92505060c061244a8a828b016123a2565b91505092959891949750929550565b600080604083850312156124705761246f611e22565b5b600061247e85828601611e70565b925050602061248f85828601611e70565b9150509250929050565b60006060820190506124ae6000830186612036565b6124bb6020830185612036565b6124c860408301846121f3565b949350505050565b7f436f6e747261637420646f6573206e6f74206861766520656e6f75676820455460008201527f4800000000000000000000000000000000000000000000000000000000000000602082015250565b600061252c602183611f19565b9150612537826124d0565b604082019050919050565b6000602082019050818103600083015261255b8161251f565b9050919050565b600081905092915050565b50565b600061257d600083612562565b91506125888261256d565b600082019050919050565b600061259e82612570565b9150819050919050565b7f4661696c656420746f2073656e6420455448206261636b20746f2073656e646560008201527f7200000000000000000000000000000000000000000000000000000000000000602082015250565b6000612604602183611f19565b915061260f826125a8565b604082019050919050565b60006020820190508181036000830152612633816125f7565b9050919050565b7f4e487b7100000000000000000000000000000000000000000000000000000000600052602260045260246000fd5b6000600282049050600182168061268157607f821691505b6020821081036126945761269361263a565b5b50919050565b7f496e73756666696369656e742062616c616e6365000000000000000000000000600082015250565b60006126d0601483611f19565b91506126db8261269a565b602082019050919050565b600060208201905081810360008301526126ff816126c3565b9050919050565b7f496e76616c6964206c697374696e6720706172616d6574657273000000000000600082015250565b600061273c601a83611f19565b915061274782612706565b602082019050919050565b6000602082019050818103600083015261276b8161272f565b9050919050565b60006040820190506127876000830185612036565b6127946020830184612036565b9392505050565b7f4e487b7100000000000000000000000000000000000000000000000000000000600052601160045260246000fd5b60006127d582611e85565b91507fffffffffffffffffffffffffffffffffffffffffffffffffffffffffffffffff82036128075761280661279b565b5b600182019050919050565b7f4e487b7100000000000000000000000000000000000000000000000000000000600052604160045260246000fd5b7f4c697374696e67206e6f7420666f756e64000000000000000000000000000000600082015250565b6000612877601183611f19565b915061288282612841565b602082019050919050565b600060208201905081810360008301526128a68161286a565b9050919050565b600060c0820190506128c260008301896120f4565b6128cf60208301886121f3565b6128dc60408301876121f3565b6128e96060830186612036565b6128f66080830185612036565b61290360a0830184612036565b979650505050505050565b600060408201905061292360008301856121f3565b61293060208301846121f3565b9392505050565b600060608201905061294c60008301866121f3565b6129596020830185612036565b6129666040830184612036565b949350505050565b600061297982611e85565b915061298483611e85565b925082820190508082111561299c5761299b61279b565b5b92915050565b600060a0820190506129b760008301886120f4565b6129c460208301876120f4565b6129d160408301866120f4565b6129de6060830185612036565b6129eb60808301846121f3565b9695505050505050565b6000608082019050612a0a60008301876120f4565b612a1760208301866120c0565b612a2460408301856120f4565b612a3160608301846120f4565b95945050505050565b7f4e487b7100000000000000000000000000000000000000000000000000000000600052602160045260246000fdfea2646970667358221220d238e4183ed761874d175656455163281fd78edfe96e69191aaf60c03b6e2d5064736f6c63430008180033",
  "linkReferences": {},
  "deployedLinkReferences": {}
}