{
  "_format": "hh-sol-artifact-1",
  "contractName": "CarbonToken",
  "sourceName": "contracts/CarbonToken.sol",
  "abi": [
    {
      "inputs": [
        {
          "internalType": "address",
          "name": "initialOwner",
          "type": "address"
        },
        {
          "internalType": "string",
          "name": "_secretKey",
          "type": "string"
        }
      ],
      "stateMutability": "nonpayable",
      "type": "constructor"
    },
    {
      "inputs": [],
      "name": "ECDSAInvalidSignature",
      "type": "error"
    },
    {
      "inputs": [
        {
          "internalType": "uint256",
          "name": "length",
          "type": "uint256"
        }
      ],
      "name": "ECDSAInvalidSignatureLength",
      "type": "error"
    },
    {
      "inputs": [
        {
          "internalType": "bytes32",
          "name": "s",
          "type": "bytes32"
        }
      ],
      "name": "ECDSAInvalidSignatureS",
      "type": "error"
    },
    {
      "inputs": [
        {
          "internalType": "address",
          "name": "spender",
          "type": "address"
        },
        {
          "internalType": "uint256",
          "name": "allowance",
          "type": "uint256"
        },
        {
          "internalType": "uint256",
          "name": "needed",
          "type": "uint256"
        }
      ],
      "name": "ERC20InsufficientAllowance",
      "type": "error"
    },
    {
      "inputs": [
        {
          "internalType": "address",
          "name": "sender",
          "type": "address"
        },
        {
          "internalType": "uint256",
          "name": "balance",
          "type": "uint256"
        },
        {
          "internalType": "uint256",
          "name": "needed",
          "type": "uint256"
        }
      ],
      "name": "ERC20InsufficientBalance",
      "type": "error"
    },
    {
      "inputs": [
        {
          "internalType": "address",
          "name": "approver",
          "type": "address"
        }
      ],
      "name": "ERC20InvalidApprover",
      "type": "error"
    },
    {
      "inputs": [
        {
          "internalType": "address",
          "name": "receiver",
          "type": "address"
        }
      ],
      "name": "ERC20InvalidReceiver",
      "type": "error"
    },
    {
      "inputs": [
        {
          "internalType": "address",
          "name": "sender",
          "type": "address"
        }
      ],
      "name": "ERC20InvalidSender",
      "type": "error"
    },
    {
      "inputs": [
        {
          "internalType": "address",
          "name": "spender",
          "type": "address"
        }
      ],
      "name": "ERC20InvalidSpender",
      "type": "error"
    },
    {
      "inputs": [
        {
          "internalType": "uint256",
          "name": "deadline",
          "type": "uint256"
        }
      ],
      "name": "ERC2612ExpiredSignature",
      "type": "error"
    },
    {
      "inputs": [
        {
          "internalType": "address",
          "name": "signer",
          "type": "address"
        },
        {
          "internalType": "address",
          "name": "owner",
          "type": "address"
        }
      ],
      "name": "ERC2612InvalidSigner",
      "type": "error"
    },
    {
      "inputs": [
        {
          "internalType": "address",
          "name": "account",
          "type": "address"
        },
        {
          "internalType": "uint256",
          "name": "currentNonce",
          "type": "uint256"
        }
      ],
      "name": "InvalidAccountNonce",
      "type": "error"
    },
    {
      "inputs": [],
      "name": "InvalidShortString",
      "type": "error"
    },
    {
      "inputs": [
        {
          "internalType": "address",
          "name": "owner",
          "type": "address"
        }
      ],
      "name": "OwnableInvalidOwner",
      "type": "error"
    },
    {
      "inputs": [
        {
          "internalType": "address",
          "name": "account",
          "type": "address"
        }
      ],
      "name": "OwnableUnauthorizedAccount",
      "type": "error"
    },
    {
      "inputs": [
        {
          "internalType": "string",
          "name": "str",
          "type": "string"
        }
      ],
      "name": "StringTooLong",
      "type": "error"
    },
    {
      "anonymous": false,
      "inputs": [
        {
          "indexed": true,
          "internalType": "address",
          "name": "owner",
          "type": "address"
        },
        {
          "indexed": true,
          "internalType": "address",
          "name": "spender",
          "type": "address"
        },
        {
          "indexed": false,
          "internalType": "uint256",
          "name": "value",
          "type": "uint256"
        }
      ],
      "name": "Approval",
      "type": "event"
    },
    {
      "anonymous": false,
      "inputs": [],
      "name": "EIP712DomainChanged",
      "type": "event"
    },
    {
      "anonymous": false,
      "inputs": [
        {
          "indexed": true,
          "internalType": "address",
          "name": "seller",
          "type": "address"
        },
        {
          "indexed": false,
          "internalType": "uint256",
          "name": "listingIndex",
          "type": "uint256"
        }
      ],
      "name": "ListingDeleted",
      "type": "event"
    },
    {
      "anonymous": false,
      "inputs": [
        {
          "indexed": true,
          "internalType": "address",
          "name": "previousOwner",
          "type": "address"
        },
        {
          "indexed": true,
          "internalType": "address",
          "name": "newOwner",
          "type": "address"
        }
      ],
      "name": "OwnershipTransferred",
      "type": "event"
    },
    {
      "anonymous": false,
      "inputs": [
        {
          "indexed": true,
          "internalType": "address",
          "name": "seller",
          "type": "address"
        },
        {
          "indexed": false,
          "internalType": "uint256",
          "name": "amountCTKN",
          "type": "uint256"
        },
        {
          "indexed": false,
          "internalType": "uint256",
          "name": "priceETH",
          "type": "uint256"
        },
        {
          "indexed": false,
          "internalType": "uint256",
          "name": "listingIndex",
          "type": "uint256"
        },
        {
          "indexed": false,
          "internalType": "string",
          "name": "ipfsHash",
          "type": "string"
        }
      ],
      "name": "TokenListed",
      "type": "event"
    },
    {
      "anonymous": false,
      "inputs": [
        {
          "indexed": true,
          "internalType": "address",
          "name": "buyer",
          "type": "address"
        },
        {
          "indexed": true,
          "internalType": "address",
          "name": "seller",
          "type": "address"
        },
        {
          "indexed": false,
          "internalType": "uint256",
          "name": "amountCTKN",
          "type": "uint256"
        },
        {
          "indexed": false,
          "internalType": "uint256",
          "name": "priceETH",
          "type": "uint256"
        },
        {
          "indexed": false,
          "internalType": "uint256",
          "name": "listingIndex",
          "type": "uint256"
        },
        {
          "indexed": false,
          "internalType": "string",
          "name": "ipfsHash",
          "type": "string"
        }
      ],
      "name": "TokenPurchased",
      "type": "event"
    },
    {
      "anonymous": false,
      "inputs": [
        {
          "indexed": true,
          "internalType": "address",
          "name": "from",
          "type": "address"
        },
        {
          "indexed": true,
          "internalType": "address",
          "name": "to",
          "type": "address"
        },
        {
          "indexed": false,
          "internalType": "uint256",
          "name": "value",
          "type": "uint256"
        }
      ],
      "name": "Transfer",
      "type": "event"
    },
    {
      "inputs": [],
      "name": "DOMAIN_SEPARATOR",
      "outputs": [
        {
          "internalType": "bytes32",
          "name": "",
          "type": "bytes32"
        }
      ],
      "stateMutability": "view",
      "type": "function"
    },
    {
      "inputs": [
        {
          "internalType": "address",
          "name": "owner",
          "type": "address"
        },
        {
          "internalType": "address",
          "name": "spender",
          "type": "address"
        }
      ],
      "name": "allowance",
      "outputs": [
        {
          "internalType": "uint256",
          "name": "",
          "type": "uint256"
        }
      ],
      "stateMutability": "view",
      "type": "function"
    },
    {
      "inputs": [
        {
          "internalType": "address",
          "name": "spender",
          "type": "address"
        },
        {
          "internalType": "uint256",
          "name": "value",
          "type": "uint256"
        }
      ],
      "name": "approve",
      "outputs": [
        {
          "internalType": "bool",
          "name": "",
          "type": "bool"
        }
      ],
      "stateMutability": "nonpayable",
      "type": "function"
    },
    {
      "inputs": [
        {
          "internalType": "address",
          "name": "account",
          "type": "address"
        }
      ],
      "name": "balanceOf",
      "outputs": [
        {
          "internalType": "uint256",
          "name": "",
          "type": "uint256"
        }
      ],
      "stateMutability": "view",
      "type": "function"
    },
    {
      "inputs": [
        {
          "internalType": "uint256",
          "name": "value",
          "type": "uint256"
        }
      ],
      "name": "burn",
      "outputs": [],
      "stateMutability": "nonpayable",
      "type": "function"
    },
    {
      "inputs": [
        {
          "internalType": "address",
          "name": "account",
          "type": "address"
        },
        {
          "internalType": "uint256",
          "name": "value",
          "type": "uint256"
        }
      ],
      "name": "burnFrom",
      "outputs": [],
      "stateMutability": "nonpayable",
      "type": "function"
    },
    {
      "inputs": [
        {
          "internalType": "address",
          "name": "seller",
          "type": "address"
        },
        {
          "internalType": "uint256",
          "name": "listingIndex",
          "type": "uint256"
        },
        {
          "internalType": "string",
          "name": "_key",
          "type": "string"
        }
      ],
      "name": "buyToken",
      "outputs": [],
      "stateMutability": "payable",
      "type": "function"
    },
    {
      "inputs": [],
      "name": "decimals",
      "outputs": [
        {
          "internalType": "uint8",
          "name": "",
          "type": "uint8"
        }
      ],
      "stateMutability": "view",
      "type": "function"
    },
    {
      "inputs": [
        {
          "internalType": "uint256",
          "name": "listingIndex",
          "type": "uint256"
        },
        {
          "internalType": "string",
          "name": "_key",
          "type": "string"
        }
      ],
      "name": "deleteListing",
      "outputs": [],
      "stateMutability": "nonpayable",
      "type": "function"
    },
    {
      "inputs": [],
      "name": "eip712Domain",
      "outputs": [
        {
          "internalType": "bytes1",
          "name": "fields",
          "type": "bytes1"
        },
        {
          "internalType": "string",
          "name": "name",
          "type": "string"
        },
        {
          "internalType": "string",
          "name": "version",
          "type": "string"
        },
        {
          "internalType": "uint256",
          "name": "chainId",
          "type": "uint256"
        },
        {
          "internalType": "address",
          "name": "verifyingContract",
          "type": "address"
        },
        {
          "internalType": "bytes32",
          "name": "salt",
          "type": "bytes32"
        },
        {
          "internalType": "uint256[]",
          "name": "extensions",
          "type": "uint256[]"
        }
      ],
      "stateMutability": "view",
      "type": "function"
    },
    {
      "inputs": [
        {
          "internalType": "uint256",
          "name": "amountCTKN",
          "type": "uint256"
        },
        {
          "internalType": "uint256",
          "name": "priceETH",
          "type": "uint256"
        },
        {
          "internalType": "string",
          "name": "ipfsHash",
          "type": "string"
        },
        {
          "internalType": "string",
          "name": "_key",
          "type": "string"
        }
      ],
      "name": "listTokenForSale",
      "outputs": [],
      "stateMutability": "nonpayable",
      "type": "function"
    },
    {
      "inputs": [
        {
          "internalType": "address",
          "name": "",
          "type": "address"
        },
        {
          "internalType": "uint256",
          "name": "",
          "type": "uint256"
        }
      ],
      "name": "listings",
      "outputs": [
        {
          "internalType": "uint256",
          "name": "amountCTKN",
          "type": "uint256"
        },
        {
          "internalType": "uint256",
          "name": "priceETH",
          "type": "uint256"
        },
        {
          "internalType": "bool",
          "name": "active",
          "type": "bool"
        },
        {
          "internalType": "string",
          "name": "ipfsHash",
          "type": "string"
        }
      ],
      "stateMutability": "view",
      "type": "function"
    },
    {
      "inputs": [
        {
          "internalType": "address",
          "name": "to",
          "type": "address"
        },
        {
          "internalType": "uint256",
          "name": "amount",
          "type": "uint256"
        },
        {
          "internalType": "string",
          "name": "_key",
          "type": "string"
        }
      ],
      "name": "mint",
      "outputs": [],
      "stateMutability": "nonpayable",
      "type": "function"
    },
    {
      "inputs": [],
      "name": "name",
      "outputs": [
        {
          "internalType": "string",
          "name": "",
          "type": "string"
        }
      ],
      "stateMutability": "view",
      "type": "function"
    },
    {
      "inputs": [
        {
          "internalType": "address",
          "name": "owner",
          "type": "address"
        }
      ],
      "name": "nonces",
      "outputs": [
        {
          "internalType": "uint256",
          "name": "",
          "type": "uint256"
        }
      ],
      "stateMutability": "view",
      "type": "function"
    },
    {
      "inputs": [],
      "name": "owner",
      "outputs": [
        {
          "internalType": "address",
          "name": "",
          "type": "address"
        }
      ],
      "stateMutability": "view",
      "type": "function"
    },
    {
      "inputs": [
        {
          "internalType": "address",
          "name": "owner",
          "type": "address"
        },
        {
          "internalType": "address",
          "name": "spender",
          "type": "address"
        },
        {
          "internalType": "uint256",
          "name": "value",
          "type": "uint256"
        },
        {
          "internalType": "uint256",
          "name": "deadline",
          "type": "uint256"
        },
        {
          "internalType": "uint8",
          "name": "v",
          "type": "uint8"
        },
        {
          "internalType": "bytes32",
          "name": "r",
          "type": "bytes32"
        },
        {
          "internalType": "bytes32",
          "name": "s",
          "type": "bytes32"
        }
      ],
      "name": "permit",
      "outputs": [],
      "stateMutability": "nonpayable",
      "type": "function"
    },
    {
      "inputs": [],
      "name": "renounceOwnership",
      "outputs": [],
      "stateMutability": "nonpayable",
      "type": "function"
    },
    {
      "inputs": [],
      "name": "symbol",
      "outputs": [
        {
          "internalType": "string",
          "name": "",
          "type": "string"
        }
      ],
      "stateMutability": "view",
      "type": "function"
    },
    {
      "inputs": [],
      "name": "totalSupply",
      "outputs": [
        {
          "internalType": "uint256",
          "name": "",
          "type": "uint256"
        }
      ],
      "stateMutability": "view",
      "type": "function"
    },
    {
      "inputs": [
        {
          "internalType": "address",
          "name": "to",
          "type": "address"
        },
        {
          "internalType": "uint256",
          "name": "value",
          "type": "uint256"
        }
      ],
      "name": "transfer",
      "outputs": [
        {
          "internalType": "bool",
          "name": "",
          "type": "bool"
        }
      ],
      "stateMutability": "nonpayable",
      "type": "function"
    },
    {
      "inputs": [
        {
          "internalType": "address",
          "name": "from",
          "type": "address"
        },
        {
          "internalType": "address",
          "name": "to",
          "type": "address"
        },
        {
          "internalType": "uint256",
          "name": "value",
          "type": "uint256"
        }
      ],
      "name": "transferFrom",
      "outputs": [
        {
          "internalType": "bool",
          "name": "",
          "type": "bool"
        }
      ],
      "stateMutability": "nonpayable",
      "type": "function"
    },
    {
      "inputs": [
        {
          "internalType": "address",
          "name": "newOwner",
          "type": "address"
        }
      ],
      "name": "transferOwnership",
      "outputs": [],
      "stateMutability": "nonpayable",
      "type": "function"
    },
    {
      "stateMutability": "payable",
      "type": "receive"
    }
  ],
  "bytecode": "0x6101606040523480156200001257600080fd5b506040516200426538038062004265833981810160405281019062000038919062000674565b6040518060400160405280600b81526020017f436172626f6e546f6b656e000000000000000000000000000000000000000000815250806040518060400160405280600181526020017f3100000000000000000000000000000000000000000000000000000000000000815250846040518060400160405280600b81526020017f436172626f6e546f6b656e0000000000000000000000000000000000000000008152506040518060400160405280600481526020017f43544b4e00000000000000000000000000000000000000000000000000000000815250816003908162000123919062000925565b50806004908162000135919062000925565b505050600073ffffffffffffffffffffffffffffffffffffffff168173ffffffffffffffffffffffffffffffffffffffff1603620001ad5760006040517f1e4fbdf7000000000000000000000000000000000000000000000000000000008152600401620001a4919062000a1d565b60405180910390fd5b620001be816200028a60201b60201c565b50620001d56006836200035060201b90919060201c565b6101208181525050620001f36007826200035060201b90919060201c565b6101408181525050818051906020012060e08181525050808051906020012061010081815250504660a0818152505062000232620003a860201b60201c565b608081815250503073ffffffffffffffffffffffffffffffffffffffff1660c08173ffffffffffffffffffffffffffffffffffffffff168152505050505080600a908162000281919062000925565b50505062000bdb565b6000600560009054906101000a900473ffffffffffffffffffffffffffffffffffffffff16905081600560006101000a81548173ffffffffffffffffffffffffffffffffffffffff021916908373ffffffffffffffffffffffffffffffffffffffff1602179055508173ffffffffffffffffffffffffffffffffffffffff168173ffffffffffffffffffffffffffffffffffffffff167f8be0079c531659141344cd1fd0a4f28419497f9722a3daafe3b4186f6b6457e060405160405180910390a35050565b600060208351101562000376576200036e836200040560201b60201c565b9050620003a2565b8262000388836200047260201b60201c565b600001908162000399919062000925565b5060ff60001b90505b92915050565b60007f8b73c3c69bb8fe3d512ecc4cf759cc79239f7b179b0ffacaa9a75d522b39400f60e051610100514630604051602001620003ea95949392919062000a66565b60405160208183030381529060405280519060200120905090565b600080829050601f815111156200045557826040517f305a27a90000000000000000000000000000000000000000000000000000000081526004016200044c919062000b15565b60405180910390fd5b805181620004639062000b6b565b60001c1760001b915050919050565b6000819050919050565b6000604051905090565b600080fd5b600080fd5b600073ffffffffffffffffffffffffffffffffffffffff82169050919050565b6000620004bd8262000490565b9050919050565b620004cf81620004b0565b8114620004db57600080fd5b50565b600081519050620004ef81620004c4565b92915050565b600080fd5b600080fd5b6000601f19601f8301169050919050565b7f4e487b7100000000000000000000000000000000000000000000000000000000600052604160045260246000fd5b6200054a82620004ff565b810181811067ffffffffffffffff821117156200056c576200056b62000510565b5b80604052505050565b6000620005816200047c565b90506200058f82826200053f565b919050565b600067ffffffffffffffff821115620005b257620005b162000510565b5b620005bd82620004ff565b9050602081019050919050565b60005b83811015620005ea578082015181840152602081019050620005cd565b60008484015250505050565b60006200060d620006078462000594565b62000575565b9050828152602081018484840111156200062c576200062b620004fa565b5b62000639848285620005ca565b509392505050565b600082601f830112620006595762000658620004f5565b5b81516200066b848260208601620005f6565b91505092915050565b600080604083850312156200068e576200068d62000486565b5b60006200069e85828601620004de565b925050602083015167ffffffffffffffff811115620006c257620006c16200048b565b5b620006d08582860162000641565b9150509250929050565b600081519050919050565b7f4e487b7100000000000000000000000000000000000000000000000000000000600052602260045260246000fd5b600060028204905060018216806200072d57607f821691505b602082108103620007435762000742620006e5565b5b50919050565b60008190508160005260206000209050919050565b60006020601f8301049050919050565b600082821b905092915050565b600060088302620007ad7fffffffffffffffffffffffffffffffffffffffffffffffffffffffffffffffff826200076e565b620007b986836200076e565b95508019841693508086168417925050509392505050565b6000819050919050565b6000819050919050565b60006200080662000800620007fa84620007d1565b620007db565b620007d1565b9050919050565b6000819050919050565b6200082283620007e5565b6200083a62000831826200080d565b8484546200077b565b825550505050565b600090565b6200085162000842565b6200085e81848462000817565b505050565b5b8181101562000886576200087a60008262000847565b60018101905062000864565b5050565b601f821115620008d5576200089f8162000749565b620008aa846200075e565b81016020851015620008ba578190505b620008d2620008c9856200075e565b83018262000863565b50505b505050565b600082821c905092915050565b6000620008fa60001984600802620008da565b1980831691505092915050565b6000620009158383620008e7565b9150826002028217905092915050565b6200093082620006da565b67ffffffffffffffff8111156200094c576200094b62000510565b5b62000958825462000714565b620009658282856200088a565b600060209050601f8311600181146200099d576000841562000988578287015190505b62000994858262000907565b86555062000a04565b601f198416620009ad8662000749565b60005b82811015620009d757848901518255600182019150602085019450602081019050620009b0565b86831015620009f75784890151620009f3601f891682620008e7565b8355505b6001600288020188555050505b505050505050565b62000a1781620004b0565b82525050565b600060208201905062000a34600083018462000a0c565b92915050565b6000819050919050565b62000a4f8162000a3a565b82525050565b62000a6081620007d1565b82525050565b600060a08201905062000a7d600083018862000a44565b62000a8c602083018762000a44565b62000a9b604083018662000a44565b62000aaa606083018562000a55565b62000ab9608083018462000a0c565b9695505050505050565b600082825260208201905092915050565b600062000ae182620006da565b62000aed818562000ac3565b935062000aff818560208601620005ca565b62000b0a81620004ff565b840191505092915050565b6000602082019050818103600083015262000b31818462000ad4565b905092915050565b600081519050919050565b6000819050602082019050919050565b600062000b62825162000a3a565b80915050919050565b600062000b788262000b39565b8262000b848462000b44565b905062000b918162000b54565b9250602082101562000bd45762000bcf7fffffffffffffffffffffffffffffffffffffffffffffffffffffffffffffffff836020036008026200076e565b831692505b5050919050565b60805160a05160c05160e05161010051610120516101405161362f62000c3660003960006118b00152600061187501526000611e4701526000611e26015260006115a1015260006115f701526000611620015261362f6000f3fe6080604052600436106101435760003560e01c8063715018a6116100b657806395d89b411161006f57806395d89b4114610462578063a9059cbb1461048d578063d3fc9864146104ca578063d505accf146104f3578063dd62ed3e1461051c578063f2fde38b146105595761014a565b8063715018a61461036057806379cc6790146103775780637ead4a29146103a05780637ecebe00146103c957806384b0196e146104065780638da5cb5b146104375761014a565b806323b872dd1161010857806323b872dd1461024b578063313ce567146102885780633644e515146102b357806337f4ce0b146102de57806342966c68146102fa57806370a08231146103235761014a565b806207df301461014f57806306fdde031461018f578063095ea7b3146101ba578063102b3223146101f757806318160ddd146102205761014a565b3661014a57005b600080fd5b34801561015b57600080fd5b506101766004803603810190610171919061234c565b610582565b6040516101869493929190612446565b60405180910390f35b34801561019b57600080fd5b506101a4610664565b6040516101b19190612492565b60405180910390f35b3480156101c657600080fd5b506101e160048036038101906101dc919061234c565b6106f6565b6040516101ee91906124b4565b60405180910390f35b34801561020357600080fd5b5061021e60048036038101906102199190612604565b610719565b005b34801561022c57600080fd5b50610235610961565b6040516102429190612660565b60405180910390f35b34801561025757600080fd5b50610272600480360381019061026d919061267b565b61096b565b60405161027f91906124b4565b60405180910390f35b34801561029457600080fd5b5061029d61099a565b6040516102aa91906126ea565b60405180910390f35b3480156102bf57600080fd5b506102c86109a3565b6040516102d5919061271e565b60405180910390f35b6102f860048036038101906102f39190612739565b6109b2565b005b34801561030657600080fd5b50610321600480360381019061031c91906127a8565b610c2d565b005b34801561032f57600080fd5b5061034a600480360381019061034591906127d5565b610c41565b6040516103579190612660565b60405180910390f35b34801561036c57600080fd5b50610375610c89565b005b34801561038357600080fd5b5061039e6004803603810190610399919061234c565b610c9d565b005b3480156103ac57600080fd5b506103c760048036038101906103c29190612862565b610cbd565b005b3480156103d557600080fd5b506103f060048036038101906103eb91906127d5565b610f6b565b6040516103fd9190612660565b60405180910390f35b34801561041257600080fd5b5061041b610f7d565b60405161042e9796959493929190612a0e565b60405180910390f35b34801561044357600080fd5b5061044c611027565b6040516104599190612a92565b60405180910390f35b34801561046e57600080fd5b50610477611051565b6040516104849190612492565b60405180910390f35b34801561049957600080fd5b506104b460048036038101906104af919061234c565b6110e3565b6040516104c191906124b4565b60405180910390f35b3480156104d657600080fd5b506104f160048036038101906104ec9190612739565b611106565b005b3480156104ff57600080fd5b5061051a60048036038101906105159190612b05565b6111a6565b005b34801561052857600080fd5b50610543600480360381019061053e9190612ba7565b6112ee565b6040516105509190612660565b60405180910390f35b34801561056557600080fd5b50610580600480360381019061057b91906127d5565b611375565b005b6009602052816000526040600020818154811061059e57600080fd5b9060005260206000209060040201600091509150508060000154908060010154908060020160009054906101000a900460ff16908060030180546105e190612c16565b80601f016020809104026020016040519081016040528092919081815260200182805461060d90612c16565b801561065a5780601f1061062f5761010080835404028352916020019161065a565b820191906000526020600020905b81548152906001019060200180831161063d57829003601f168201915b5050505050905084565b60606003805461067390612c16565b80601f016020809104026020016040519081016040528092919081815260200182805461069f90612c16565b80156106ec5780601f106106c1576101008083540402835291602001916106ec565b820191906000526020600020905b8154815290600101906020018083116106cf57829003601f168201915b5050505050905090565b6000806107016113fb565b905061070e818585611403565b600191505092915050565b80600a60405160200161072c9190612cea565b60405160208183030381529060405280519060200120816040516020016107539190612d32565b60405160208183030381529060405280519060200120146107a9576040517f08c379a00000000000000000000000000000000000000000000000000000000081526004016107a090612d95565b60405180910390fd5b600960003373ffffffffffffffffffffffffffffffffffffffff1673ffffffffffffffffffffffffffffffffffffffff16815260200190815260200160002080549050831061082d576040517f08c379a000000000000000000000000000000000000000000000000000000000815260040161082490612e01565b60405180910390fd5b6000600960003373ffffffffffffffffffffffffffffffffffffffff1673ffffffffffffffffffffffffffffffffffffffff16815260200190815260200160002084815481106108805761087f612e21565b5b906000526020600020906004020190508060020160009054906101000a900460ff166108e1576040517f08c379a00000000000000000000000000000000000000000000000000000000081526004016108d890612ec2565b60405180910390fd5b6108f030338360000154611415565b60008160020160006101000a81548160ff0219169083151502179055503373ffffffffffffffffffffffffffffffffffffffff167f53df6f80c006573b58e17d6440b870b40592881a21c175cde20004a4135dd460856040516109539190612660565b60405180910390a250505050565b6000600254905090565b6000806109766113fb565b9050610983858285611509565b61098e858585611415565b60019150509392505050565b60006012905090565b60006109ad61159d565b905090565b80600a6040516020016109c59190612cea565b60405160208183030381529060405280519060200120816040516020016109ec9190612d32565b6040516020818303038152906040528051906020012014610a42576040517f08c379a0000000000000000000000000000000000000000000000000000000008152600401610a3990612d95565b60405180910390fd5b6000600960008673ffffffffffffffffffffffffffffffffffffffff1673ffffffffffffffffffffffffffffffffffffffff1681526020019081526020016000208481548110610a9557610a94612e21565b5b906000526020600020906004020190508060020160009054906101000a900460ff16610af6576040517f08c379a0000000000000000000000000000000000000000000000000000000008152600401610aed90612f2e565b60405180910390fd5b8060010154341015610b3d576040517f08c379a0000000000000000000000000000000000000000000000000000000008152600401610b3490612f9a565b60405180910390fd5b610b4c30338360000154611415565b8473ffffffffffffffffffffffffffffffffffffffff166108fc349081150290604051600060405180830381858888f19350505050158015610b92573d6000803e3d6000fd5b5060008160020160006101000a81548160ff0219169083151502179055508473ffffffffffffffffffffffffffffffffffffffff163373ffffffffffffffffffffffffffffffffffffffff167f879ce5d9a83c5375f03acbee15e01aee132bdc35c50ef9772f4388ca616e66d8836000015484600101548886600301604051610c1e949392919061303e565b60405180910390a35050505050565b610c3e610c386113fb565b82611654565b50565b60008060008373ffffffffffffffffffffffffffffffffffffffff1673ffffffffffffffffffffffffffffffffffffffff168152602001908152602001600020549050919050565b610c916116d6565b610c9b600061175d565b565b610caf82610ca96113fb565b83611509565b610cb98282611654565b5050565b80600a604051602001610cd09190612cea565b6040516020818303038152906040528051906020012081604051602001610cf79190612d32565b6040516020818303038152906040528051906020012014610d4d576040517f08c379a0000000000000000000000000000000000000000000000000000000008152600401610d4490612d95565b60405180910390fd5b85610d5733610c41565b1015610d98576040517f08c379a0000000000000000000000000000000000000000000000000000000008152600401610d8f906130d6565b60405180910390fd5b610da3333088611415565b600960003373ffffffffffffffffffffffffffffffffffffffff1673ffffffffffffffffffffffffffffffffffffffff168152602001908152602001600020604051806080016040528088815260200187815260200160011515815260200186868080601f016020809104026020016040519081016040528093929190818152602001838380828437600081840152601f19601f820116905080830192505050505050508152509080600181540180825580915050600190039060005260206000209060040201600090919091909150600082015181600001556020820151816001015560408201518160020160006101000a81548160ff0219169083151502179055506060820151816003019081610ebc919061328d565b5050503373ffffffffffffffffffffffffffffffffffffffff167f677f640fff44f1465dbdee3f24378ef772f9204c75fc64e640062090b74b258587876001600960003373ffffffffffffffffffffffffffffffffffffffff1673ffffffffffffffffffffffffffffffffffffffff16815260200190815260200160002080549050610f48919061338e565b8888604051610f5b9594939291906133ef565b60405180910390a2505050505050565b6000610f7682611823565b9050919050565b600060608060008060006060610f9161186c565b610f996118a7565b46306000801b600067ffffffffffffffff811115610fba57610fb96124d9565b5b604051908082528060200260200182016040528015610fe85781602001602082028036833780820191505090505b507f0f00000000000000000000000000000000000000000000000000000000000000959493929190965096509650965096509650965090919293949596565b6000600560009054906101000a900473ffffffffffffffffffffffffffffffffffffffff16905090565b60606004805461106090612c16565b80601f016020809104026020016040519081016040528092919081815260200182805461108c90612c16565b80156110d95780601f106110ae576101008083540402835291602001916110d9565b820191906000526020600020905b8154815290600101906020018083116110bc57829003601f168201915b5050505050905090565b6000806110ee6113fb565b90506110fb818585611415565b600191505092915050565b80600a6040516020016111199190612cea565b60405160208183030381529060405280519060200120816040516020016111409190612d32565b6040516020818303038152906040528051906020012014611196576040517f08c379a000000000000000000000000000000000000000000000000000000000815260040161118d90612d95565b60405180910390fd5b6111a084846118e2565b50505050565b834211156111eb57836040517f627913020000000000000000000000000000000000000000000000000000000081526004016111e29190612660565b60405180910390fd5b60007f6e71edae12b1b97f4d1f60370fef10105fa2faae0126114a169c64845d6126c988888861121a8c611964565b896040516020016112309695949392919061343d565b6040516020818303038152906040528051906020012090506000611253826119bb565b90506000611263828787876119d5565b90508973ffffffffffffffffffffffffffffffffffffffff168173ffffffffffffffffffffffffffffffffffffffff16146112d757808a6040517f4b800e460000000000000000000000000000000000000000000000000000000081526004016112ce92919061349e565b60405180910390fd5b6112e28a8a8a611403565b50505050505050505050565b6000600160008473ffffffffffffffffffffffffffffffffffffffff1673ffffffffffffffffffffffffffffffffffffffff16815260200190815260200160002060008373ffffffffffffffffffffffffffffffffffffffff1673ffffffffffffffffffffffffffffffffffffffff16815260200190815260200160002054905092915050565b61137d6116d6565b600073ffffffffffffffffffffffffffffffffffffffff168173ffffffffffffffffffffffffffffffffffffffff16036113ef5760006040517f1e4fbdf70000000000000000000000000000000000000000000000000000000081526004016113e69190612a92565b60405180910390fd5b6113f88161175d565b50565b600033905090565b6114108383836001611a05565b505050565b600073ffffffffffffffffffffffffffffffffffffffff168373ffffffffffffffffffffffffffffffffffffffff16036114875760006040517f96c6fd1e00000000000000000000000000000000000000000000000000000000815260040161147e9190612a92565b60405180910390fd5b600073ffffffffffffffffffffffffffffffffffffffff168273ffffffffffffffffffffffffffffffffffffffff16036114f95760006040517fec442f050000000000000000000000000000000000000000000000000000000081526004016114f09190612a92565b60405180910390fd5b611504838383611bdc565b505050565b600061151584846112ee565b90507fffffffffffffffffffffffffffffffffffffffffffffffffffffffffffffffff81146115975781811015611587578281836040517ffb8f41b200000000000000000000000000000000000000000000000000000000815260040161157e939291906134c7565b60405180910390fd5b61159684848484036000611a05565b5b50505050565b60007f000000000000000000000000000000000000000000000000000000000000000073ffffffffffffffffffffffffffffffffffffffff163073ffffffffffffffffffffffffffffffffffffffff1614801561161957507f000000000000000000000000000000000000000000000000000000000000000046145b15611646577f00000000000000000000000000000000000000000000000000000000000000009050611651565b61164e611e01565b90505b90565b600073ffffffffffffffffffffffffffffffffffffffff168273ffffffffffffffffffffffffffffffffffffffff16036116c65760006040517f96c6fd1e0000000000000000000000000000000000000000000000000000000081526004016116bd9190612a92565b60405180910390fd5b6116d282600083611bdc565b5050565b6116de6113fb565b73ffffffffffffffffffffffffffffffffffffffff166116fc611027565b73ffffffffffffffffffffffffffffffffffffffff161461175b5761171f6113fb565b6040517f118cdaa70000000000000000000000000000000000000000000000000000000081526004016117529190612a92565b60405180910390fd5b565b6000600560009054906101000a900473ffffffffffffffffffffffffffffffffffffffff16905081600560006101000a81548173ffffffffffffffffffffffffffffffffffffffff021916908373ffffffffffffffffffffffffffffffffffffffff1602179055508173ffffffffffffffffffffffffffffffffffffffff168173ffffffffffffffffffffffffffffffffffffffff167f8be0079c531659141344cd1fd0a4f28419497f9722a3daafe3b4186f6b6457e060405160405180910390a35050565b6000600860008373ffffffffffffffffffffffffffffffffffffffff1673ffffffffffffffffffffffffffffffffffffffff168152602001908152602001600020549050919050565b60606118a260067f0000000000000000000000000000000000000000000000000000000000000000611e9790919063ffffffff16565b905090565b60606118dd60077f0000000000000000000000000000000000000000000000000000000000000000611e9790919063ffffffff16565b905090565b600073ffffffffffffffffffffffffffffffffffffffff168273ffffffffffffffffffffffffffffffffffffffff16036119545760006040517fec442f0500000000000000000000000000000000000000000000000000000000815260040161194b9190612a92565b60405180910390fd5b61196060008383611bdc565b5050565b6000600860008373ffffffffffffffffffffffffffffffffffffffff1673ffffffffffffffffffffffffffffffffffffffff1681526020019081526020016000206000815480929190600101919050559050919050565b60006119ce6119c861159d565b83611f47565b9050919050565b6000806000806119e788888888611f88565b9250925092506119f7828261207c565b829350505050949350505050565b600073ffffffffffffffffffffffffffffffffffffffff168473ffffffffffffffffffffffffffffffffffffffff1603611a775760006040517fe602df05000000000000000000000000000000000000000000000000000000008152600401611a6e9190612a92565b60405180910390fd5b600073ffffffffffffffffffffffffffffffffffffffff168373ffffffffffffffffffffffffffffffffffffffff1603611ae95760006040517f94280d62000000000000000000000000000000000000000000000000000000008152600401611ae09190612a92565b60405180910390fd5b81600160008673ffffffffffffffffffffffffffffffffffffffff1673ffffffffffffffffffffffffffffffffffffffff16815260200190815260200160002060008573ffffffffffffffffffffffffffffffffffffffff1673ffffffffffffffffffffffffffffffffffffffff168152602001908152602001600020819055508015611bd6578273ffffffffffffffffffffffffffffffffffffffff168473ffffffffffffffffffffffffffffffffffffffff167f8c5be1e5ebec7d5bd14f71427d1e84f3dd0314c0f7b2291e5b200ac8c7c3b92584604051611bcd9190612660565b60405180910390a35b50505050565b600073ffffffffffffffffffffffffffffffffffffffff168373ffffffffffffffffffffffffffffffffffffffff1603611c2e578060026000828254611c2291906134fe565b92505081905550611d01565b60008060008573ffffffffffffffffffffffffffffffffffffffff1673ffffffffffffffffffffffffffffffffffffffff16815260200190815260200160002054905081811015611cba578381836040517fe450d38c000000000000000000000000000000000000000000000000000000008152600401611cb1939291906134c7565b60405180910390fd5b8181036000808673ffffffffffffffffffffffffffffffffffffffff1673ffffffffffffffffffffffffffffffffffffffff16815260200190815260200160002081905550505b600073ffffffffffffffffffffffffffffffffffffffff168273ffffffffffffffffffffffffffffffffffffffff1603611d4a5780600260008282540392505081905550611d97565b806000808473ffffffffffffffffffffffffffffffffffffffff1673ffffffffffffffffffffffffffffffffffffffff168152602001908152602001600020600082825401925050819055505b8173ffffffffffffffffffffffffffffffffffffffff168373ffffffffffffffffffffffffffffffffffffffff167fddf252ad1be2c89b69c2b068fc378daa952ba7f163c4a11628f55a4df523b3ef83604051611df49190612660565b60405180910390a3505050565b60007f8b73c3c69bb8fe3d512ecc4cf759cc79239f7b179b0ffacaa9a75d522b39400f7f00000000000000000000000000000000000000000000000000000000000000007f00000000000000000000000000000000000000000000000000000000000000004630604051602001611e7c959493929190613532565b60405160208183030381529060405280519060200120905090565b606060ff60001b8314611eb457611ead836121e0565b9050611f41565b818054611ec090612c16565b80601f0160208091040260200160405190810160405280929190818152602001828054611eec90612c16565b8015611f395780601f10611f0e57610100808354040283529160200191611f39565b820191906000526020600020905b815481529060010190602001808311611f1c57829003601f168201915b505050505090505b92915050565b60006040517f190100000000000000000000000000000000000000000000000000000000000081528360028201528260228201526042812091505092915050565b60008060007f7fffffffffffffffffffffffffffffff5d576e7357a4501ddfe92f46681b20a08460001c1115611fc8576000600385925092509250612072565b600060018888888860405160008152602001604052604051611fed9493929190613585565b6020604051602081039080840390855afa15801561200f573d6000803e3d6000fd5b505050602060405103519050600073ffffffffffffffffffffffffffffffffffffffff168173ffffffffffffffffffffffffffffffffffffffff160361206357600060016000801b93509350935050612072565b8060008060001b935093509350505b9450945094915050565b600060038111156120905761208f6135ca565b5b8260038111156120a3576120a26135ca565b5b03156121dc57600160038111156120bd576120bc6135ca565b5b8260038111156120d0576120cf6135ca565b5b03612107576040517ff645eedf00000000000000000000000000000000000000000000000000000000815260040160405180910390fd5b6002600381111561211b5761211a6135ca565b5b82600381111561212e5761212d6135ca565b5b03612173578060001c6040517ffce698f700000000000000000000000000000000000000000000000000000000815260040161216a9190612660565b60405180910390fd5b600380811115612186576121856135ca565b5b826003811115612199576121986135ca565b5b036121db57806040517fd78bce0c0000000000000000000000000000000000000000000000000000000081526004016121d2919061271e565b60405180910390fd5b5b5050565b606060006121ed83612254565b90506000602067ffffffffffffffff81111561220c5761220b6124d9565b5b6040519080825280601f01601f19166020018201604052801561223e5781602001600182028036833780820191505090505b5090508181528360208201528092505050919050565b60008060ff8360001c169050601f81111561229b576040517fb3512b0c00000000000000000000000000000000000000000000000000000000815260040160405180910390fd5b80915050919050565b6000604051905090565b600080fd5b600080fd5b600073ffffffffffffffffffffffffffffffffffffffff82169050919050565b60006122e3826122b8565b9050919050565b6122f3816122d8565b81146122fe57600080fd5b50565b600081359050612310816122ea565b92915050565b6000819050919050565b61232981612316565b811461233457600080fd5b50565b60008135905061234681612320565b92915050565b60008060408385031215612363576123626122ae565b5b600061237185828601612301565b925050602061238285828601612337565b9150509250929050565b61239581612316565b82525050565b60008115159050919050565b6123b08161239b565b82525050565b600081519050919050565b600082825260208201905092915050565b60005b838110156123f05780820151818401526020810190506123d5565b60008484015250505050565b6000601f19601f8301169050919050565b6000612418826123b6565b61242281856123c1565b93506124328185602086016123d2565b61243b816123fc565b840191505092915050565b600060808201905061245b600083018761238c565b612468602083018661238c565b61247560408301856123a7565b8181036060830152612487818461240d565b905095945050505050565b600060208201905081810360008301526124ac818461240d565b905092915050565b60006020820190506124c960008301846123a7565b92915050565b600080fd5b600080fd5b7f4e487b7100000000000000000000000000000000000000000000000000000000600052604160045260246000fd5b612511826123fc565b810181811067ffffffffffffffff821117156125305761252f6124d9565b5b80604052505050565b60006125436122a4565b905061254f8282612508565b919050565b600067ffffffffffffffff82111561256f5761256e6124d9565b5b612578826123fc565b9050602081019050919050565b82818337600083830152505050565b60006125a76125a284612554565b612539565b9050828152602081018484840111156125c3576125c26124d4565b5b6125ce848285612585565b509392505050565b600082601f8301126125eb576125ea6124cf565b5b81356125fb848260208601612594565b91505092915050565b6000806040838503121561261b5761261a6122ae565b5b600061262985828601612337565b925050602083013567ffffffffffffffff81111561264a576126496122b3565b5b612656858286016125d6565b9150509250929050565b6000602082019050612675600083018461238c565b92915050565b600080600060608486031215612694576126936122ae565b5b60006126a286828701612301565b93505060206126b386828701612301565b92505060406126c486828701612337565b9150509250925092565b600060ff82169050919050565b6126e4816126ce565b82525050565b60006020820190506126ff60008301846126db565b92915050565b6000819050919050565b61271881612705565b82525050565b6000602082019050612733600083018461270f565b92915050565b600080600060608486031215612752576127516122ae565b5b600061276086828701612301565b935050602061277186828701612337565b925050604084013567ffffffffffffffff811115612792576127916122b3565b5b61279e868287016125d6565b9150509250925092565b6000602082840312156127be576127bd6122ae565b5b60006127cc84828501612337565b91505092915050565b6000602082840312156127eb576127ea6122ae565b5b60006127f984828501612301565b91505092915050565b600080fd5b600080fd5b60008083601f840112612822576128216124cf565b5b8235905067ffffffffffffffff81111561283f5761283e612802565b5b60208301915083600182028301111561285b5761285a612807565b5b9250929050565b60008060008060006080868803121561287e5761287d6122ae565b5b600061288c88828901612337565b955050602061289d88828901612337565b945050604086013567ffffffffffffffff8111156128be576128bd6122b3565b5b6128ca8882890161280c565b9350935050606086013567ffffffffffffffff8111156128ed576128ec6122b3565b5b6128f9888289016125d6565b9150509295509295909350565b60007fff0000000000000000000000000000000000000000000000000000000000000082169050919050565b61293b81612906565b82525050565b61294a816122d8565b82525050565b600081519050919050565b600082825260208201905092915050565b6000819050602082019050919050565b61298581612316565b82525050565b6000612997838361297c565b60208301905092915050565b6000602082019050919050565b60006129bb82612950565b6129c5818561295b565b93506129d08361296c565b8060005b83811015612a015781516129e8888261298b565b97506129f3836129a3565b9250506001810190506129d4565b5085935050505092915050565b600060e082019050612a23600083018a612932565b8181036020830152612a35818961240d565b90508181036040830152612a49818861240d565b9050612a58606083018761238c565b612a656080830186612941565b612a7260a083018561270f565b81810360c0830152612a8481846129b0565b905098975050505050505050565b6000602082019050612aa76000830184612941565b92915050565b612ab6816126ce565b8114612ac157600080fd5b50565b600081359050612ad381612aad565b92915050565b612ae281612705565b8114612aed57600080fd5b50565b600081359050612aff81612ad9565b92915050565b600080600080600080600060e0888a031215612b2457612b236122ae565b5b6000612b328a828b01612301565b9750506020612b438a828b01612301565b9650506040612b548a828b01612337565b9550506060612b658a828b01612337565b9450506080612b768a828b01612ac4565b93505060a0612b878a828b01612af0565b92505060c0612b988a828b01612af0565b91505092959891949750929550565b60008060408385031215612bbe57612bbd6122ae565b5b6000612bcc85828601612301565b9250506020612bdd85828601612301565b9150509250929050565b7f4e487b7100000000000000000000000000000000000000000000000000000000600052602260045260246000fd5b60006002820490506001821680612c2e57607f821691505b602082108103612c4157612c40612be7565b5b50919050565b600081905092915050565b60008190508160005260206000209050919050565b60008154612c7481612c16565b612c7e8186612c47565b94506001821660008114612c995760018114612cae57612ce1565b60ff1983168652811515820286019350612ce1565b612cb785612c52565b60005b83811015612cd957815481890152600182019150602081019050612cba565b838801955050505b50505092915050565b6000612cf68284612c67565b915081905092915050565b6000612d0c826123b6565b612d168185612c47565b9350612d268185602086016123d2565b80840191505092915050565b6000612d3e8284612d01565b915081905092915050565b7f496e76616c696420736563726574206b65790000000000000000000000000000600082015250565b6000612d7f6012836123c1565b9150612d8a82612d49565b602082019050919050565b60006020820190508181036000830152612dae81612d72565b9050919050565b7f496e76616c6964206c697374696e6720696e6465780000000000000000000000600082015250565b6000612deb6015836123c1565b9150612df682612db5565b602082019050919050565b60006020820190508181036000830152612e1a81612dde565b9050919050565b7f4e487b7100000000000000000000000000000000000000000000000000000000600052603260045260246000fd5b7f43616e6e6f742064656c65746520616e20696e616374697665206c697374696e60008201527f6700000000000000000000000000000000000000000000000000000000000000602082015250565b6000612eac6021836123c1565b9150612eb782612e50565b604082019050919050565b60006020820190508181036000830152612edb81612e9f565b9050919050565b7f4c697374696e67206973206e6f74206163746976650000000000000000000000600082015250565b6000612f186015836123c1565b9150612f2382612ee2565b602082019050919050565b60006020820190508181036000830152612f4781612f0b565b9050919050565b7f496e73756666696369656e74204554482073656e740000000000000000000000600082015250565b6000612f846015836123c1565b9150612f8f82612f4e565b602082019050919050565b60006020820190508181036000830152612fb381612f77565b9050919050565b60008154612fc781612c16565b612fd181866123c1565b94506001821660008114612fec576001811461300257613035565b60ff198316865281151560200286019350613035565b61300b85612c52565b60005b8381101561302d5781548189015260018201915060208101905061300e565b808801955050505b50505092915050565b6000608082019050613053600083018761238c565b613060602083018661238c565b61306d604083018561238c565b818103606083015261307f8184612fba565b905095945050505050565b7f496e73756666696369656e742043544b4e2062616c616e636500000000000000600082015250565b60006130c06019836123c1565b91506130cb8261308a565b602082019050919050565b600060208201905081810360008301526130ef816130b3565b9050919050565b60006020601f8301049050919050565b600082821b905092915050565b6000600883026131437fffffffffffffffffffffffffffffffffffffffffffffffffffffffffffffffff82613106565b61314d8683613106565b95508019841693508086168417925050509392505050565b6000819050919050565b600061318a61318561318084612316565b613165565b612316565b9050919050565b6000819050919050565b6131a48361316f565b6131b86131b082613191565b848454613113565b825550505050565b600090565b6131cd6131c0565b6131d881848461319b565b505050565b5b818110156131fc576131f16000826131c5565b6001810190506131de565b5050565b601f8211156132415761321281612c52565b61321b846130f6565b8101602085101561322a578190505b61323e613236856130f6565b8301826131dd565b50505b505050565b600082821c905092915050565b600061326460001984600802613246565b1980831691505092915050565b600061327d8383613253565b9150826002028217905092915050565b613296826123b6565b67ffffffffffffffff8111156132af576132ae6124d9565b5b6132b98254612c16565b6132c4828285613200565b600060209050601f8311600181146132f757600084156132e5578287015190505b6132ef8582613271565b865550613357565b601f19841661330586612c52565b60005b8281101561332d57848901518255600182019150602085019450602081019050613308565b8683101561334a5784890151613346601f891682613253565b8355505b6001600288020188555050505b505050505050565b7f4e487b7100000000000000000000000000000000000000000000000000000000600052601160045260246000fd5b600061339982612316565b91506133a483612316565b92508282039050818111156133bc576133bb61335f565b5b92915050565b60006133ce83856123c1565b93506133db838584612585565b6133e4836123fc565b840190509392505050565b6000608082019050613404600083018861238c565b613411602083018761238c565b61341e604083018661238c565b81810360608301526134318184866133c2565b90509695505050505050565b600060c082019050613452600083018961270f565b61345f6020830188612941565b61346c6040830187612941565b613479606083018661238c565b613486608083018561238c565b61349360a083018461238c565b979650505050505050565b60006040820190506134b36000830185612941565b6134c06020830184612941565b9392505050565b60006060820190506134dc6000830186612941565b6134e9602083018561238c565b6134f6604083018461238c565b949350505050565b600061350982612316565b915061351483612316565b925082820190508082111561352c5761352b61335f565b5b92915050565b600060a082019050613547600083018861270f565b613554602083018761270f565b613561604083018661270f565b61356e606083018561238c565b61357b6080830184612941565b9695505050505050565b600060808201905061359a600083018761270f565b6135a760208301866126db565b6135b4604083018561270f565b6135c1606083018461270f565b95945050505050565b7f4e487b7100000000000000000000000000000000000000000000000000000000600052602160045260246000fdfea26469706673582212204167006eee71c60e8f1bf7e6674ead906f96f4ad47520cedaef65398cd9ef5f464736f6c63430008180033",
  "linkReferences": {},
  "deployedLinkReferences": {}
}