{
  "_format": "hh-sol-artifact-1",
  "contractName": "CarbonToken",
  "sourceName": "contracts/CarbonToken.sol",
  "abi": [
    {
      "inputs": [
        {
          "internalType": "address",
          "name": "initialOwner",
          "type": "address"
        }
      ],
      "stateMutability": "nonpayable",
      "type": "constructor"
    },
    {
      "inputs": [],
      "name": "ECDSAInvalidSignature",
      "type": "error"
    },
    {
      "inputs": [
        {
          "internalType": "uint256",
          "name": "length",
          "type": "uint256"
        }
      ],
      "name": "ECDSAInvalidSignatureLength",
      "type": "error"
    },
    {
      "inputs": [
        {
          "internalType": "bytes32",
          "name": "s",
          "type": "bytes32"
        }
      ],
      "name": "ECDSAInvalidSignatureS",
      "type": "error"
    },
    {
      "inputs": [
        {
          "internalType": "address",
          "name": "spender",
          "type": "address"
        },
        {
          "internalType": "uint256",
          "name": "allowance",
          "type": "uint256"
        },
        {
          "internalType": "uint256",
          "name": "needed",
          "type": "uint256"
        }
      ],
      "name": "ERC20InsufficientAllowance",
      "type": "error"
    },
    {
      "inputs": [
        {
          "internalType": "address",
          "name": "sender",
          "type": "address"
        },
        {
          "internalType": "uint256",
          "name": "balance",
          "type": "uint256"
        },
        {
          "internalType": "uint256",
          "name": "needed",
          "type": "uint256"
        }
      ],
      "name": "ERC20InsufficientBalance",
      "type": "error"
    },
    {
      "inputs": [
        {
          "internalType": "address",
          "name": "approver",
          "type": "address"
        }
      ],
      "name": "ERC20InvalidApprover",
      "type": "error"
    },
    {
      "inputs": [
        {
          "internalType": "address",
          "name": "receiver",
          "type": "address"
        }
      ],
      "name": "ERC20InvalidReceiver",
      "type": "error"
    },
    {
      "inputs": [
        {
          "internalType": "address",
          "name": "sender",
          "type": "address"
        }
      ],
      "name": "ERC20InvalidSender",
      "type": "error"
    },
    {
      "inputs": [
        {
          "internalType": "address",
          "name": "spender",
          "type": "address"
        }
      ],
      "name": "ERC20InvalidSpender",
      "type": "error"
    },
    {
      "inputs": [
        {
          "internalType": "uint256",
          "name": "deadline",
          "type": "uint256"
        }
      ],
      "name": "ERC2612ExpiredSignature",
      "type": "error"
    },
    {
      "inputs": [
        {
          "internalType": "address",
          "name": "signer",
          "type": "address"
        },
        {
          "internalType": "address",
          "name": "owner",
          "type": "address"
        }
      ],
      "name": "ERC2612InvalidSigner",
      "type": "error"
    },
    {
      "inputs": [
        {
          "internalType": "address",
          "name": "account",
          "type": "address"
        },
        {
          "internalType": "uint256",
          "name": "currentNonce",
          "type": "uint256"
        }
      ],
      "name": "InvalidAccountNonce",
      "type": "error"
    },
    {
      "inputs": [],
      "name": "InvalidShortString",
      "type": "error"
    },
    {
      "inputs": [
        {
          "internalType": "address",
          "name": "owner",
          "type": "address"
        }
      ],
      "name": "OwnableInvalidOwner",
      "type": "error"
    },
    {
      "inputs": [
        {
          "internalType": "address",
          "name": "account",
          "type": "address"
        }
      ],
      "name": "OwnableUnauthorizedAccount",
      "type": "error"
    },
    {
      "inputs": [
        {
          "internalType": "string",
          "name": "str",
          "type": "string"
        }
      ],
      "name": "StringTooLong",
      "type": "error"
    },
    {
      "anonymous": false,
      "inputs": [
        {
          "indexed": true,
          "internalType": "address",
          "name": "owner",
          "type": "address"
        },
        {
          "indexed": true,
          "internalType": "address",
          "name": "spender",
          "type": "address"
        },
        {
          "indexed": false,
          "internalType": "uint256",
          "name": "value",
          "type": "uint256"
        }
      ],
      "name": "Approval",
      "type": "event"
    },
    {
      "anonymous": false,
      "inputs": [
        {
          "indexed": true,
          "internalType": "address",
          "name": "account",
          "type": "address"
        },
        {
          "indexed": false,
          "internalType": "uint256",
          "name": "amount",
          "type": "uint256"
        },
        {
          "indexed": false,
          "internalType": "string",
          "name": "ipfsHash",
          "type": "string"
        }
      ],
      "name": "CertificateMinted",
      "type": "event"
    },
    {
      "anonymous": false,
      "inputs": [],
      "name": "EIP712DomainChanged",
      "type": "event"
    },
    {
      "anonymous": false,
      "inputs": [
        {
          "indexed": true,
          "internalType": "address",
          "name": "seller",
          "type": "address"
        },
        {
          "indexed": false,
          "internalType": "uint256",
          "name": "listingIndex",
          "type": "uint256"
        }
      ],
      "name": "ListingDeleted",
      "type": "event"
    },
    {
      "anonymous": false,
      "inputs": [
        {
          "indexed": true,
          "internalType": "address",
          "name": "previousOwner",
          "type": "address"
        },
        {
          "indexed": true,
          "internalType": "address",
          "name": "newOwner",
          "type": "address"
        }
      ],
      "name": "OwnershipTransferred",
      "type": "event"
    },
    {
      "anonymous": false,
      "inputs": [
        {
          "indexed": true,
          "internalType": "address",
          "name": "seller",
          "type": "address"
        },
        {
          "indexed": false,
          "internalType": "uint256",
          "name": "amountCTKN",
          "type": "uint256"
        },
        {
          "indexed": false,
          "internalType": "uint256",
          "name": "priceETH",
          "type": "uint256"
        },
        {
          "indexed": false,
          "internalType": "uint256",
          "name": "listingIndex",
          "type": "uint256"
        }
      ],
      "name": "TokenListed",
      "type": "event"
    },
    {
      "anonymous": false,
      "inputs": [
        {
          "indexed": true,
          "internalType": "address",
          "name": "buyer",
          "type": "address"
        },
        {
          "indexed": true,
          "internalType": "address",
          "name": "seller",
          "type": "address"
        },
        {
          "indexed": false,
          "internalType": "uint256",
          "name": "amountCTKN",
          "type": "uint256"
        },
        {
          "indexed": false,
          "internalType": "uint256",
          "name": "priceETH",
          "type": "uint256"
        },
        {
          "indexed": false,
          "internalType": "uint256",
          "name": "listingIndex",
          "type": "uint256"
        }
      ],
      "name": "TokenPurchased",
      "type": "event"
    },
    {
      "anonymous": false,
      "inputs": [
        {
          "indexed": true,
          "internalType": "address",
          "name": "from",
          "type": "address"
        },
        {
          "indexed": true,
          "internalType": "address",
          "name": "to",
          "type": "address"
        },
        {
          "indexed": false,
          "internalType": "uint256",
          "name": "value",
          "type": "uint256"
        }
      ],
      "name": "Transfer",
      "type": "event"
    },
    {
      "inputs": [],
      "name": "DOMAIN_SEPARATOR",
      "outputs": [
        {
          "internalType": "bytes32",
          "name": "",
          "type": "bytes32"
        }
      ],
      "stateMutability": "view",
      "type": "function"
    },
    {
      "inputs": [
        {
          "internalType": "address",
          "name": "owner",
          "type": "address"
        },
        {
          "internalType": "address",
          "name": "spender",
          "type": "address"
        }
      ],
      "name": "allowance",
      "outputs": [
        {
          "internalType": "uint256",
          "name": "",
          "type": "uint256"
        }
      ],
      "stateMutability": "view",
      "type": "function"
    },
    {
      "inputs": [
        {
          "internalType": "address",
          "name": "spender",
          "type": "address"
        },
        {
          "internalType": "uint256",
          "name": "value",
          "type": "uint256"
        }
      ],
      "name": "approve",
      "outputs": [
        {
          "internalType": "bool",
          "name": "",
          "type": "bool"
        }
      ],
      "stateMutability": "nonpayable",
      "type": "function"
    },
    {
      "inputs": [
        {
          "internalType": "address",
          "name": "account",
          "type": "address"
        }
      ],
      "name": "balanceOf",
      "outputs": [
        {
          "internalType": "uint256",
          "name": "",
          "type": "uint256"
        }
      ],
      "stateMutability": "view",
      "type": "function"
    },
    {
      "inputs": [
        {
          "internalType": "uint256",
          "name": "value",
          "type": "uint256"
        }
      ],
      "name": "burn",
      "outputs": [],
      "stateMutability": "nonpayable",
      "type": "function"
    },
    {
      "inputs": [
        {
          "internalType": "address",
          "name": "account",
          "type": "address"
        },
        {
          "internalType": "uint256",
          "name": "value",
          "type": "uint256"
        }
      ],
      "name": "burnFrom",
      "outputs": [],
      "stateMutability": "nonpayable",
      "type": "function"
    },
    {
      "inputs": [
        {
          "internalType": "address",
          "name": "seller",
          "type": "address"
        },
        {
          "internalType": "uint256",
          "name": "listingIndex",
          "type": "uint256"
        },
        {
          "internalType": "bytes",
          "name": "signature",
          "type": "bytes"
        }
      ],
      "name": "buyToken",
      "outputs": [],
      "stateMutability": "payable",
      "type": "function"
    },
    {
      "inputs": [],
      "name": "decimals",
      "outputs": [
        {
          "internalType": "uint8",
          "name": "",
          "type": "uint8"
        }
      ],
      "stateMutability": "view",
      "type": "function"
    },
    {
      "inputs": [
        {
          "internalType": "uint256",
          "name": "listingIndex",
          "type": "uint256"
        },
        {
          "internalType": "bytes",
          "name": "signature",
          "type": "bytes"
        }
      ],
      "name": "deleteListing",
      "outputs": [],
      "stateMutability": "nonpayable",
      "type": "function"
    },
    {
      "inputs": [],
      "name": "eip712Domain",
      "outputs": [
        {
          "internalType": "bytes1",
          "name": "fields",
          "type": "bytes1"
        },
        {
          "internalType": "string",
          "name": "name",
          "type": "string"
        },
        {
          "internalType": "string",
          "name": "version",
          "type": "string"
        },
        {
          "internalType": "uint256",
          "name": "chainId",
          "type": "uint256"
        },
        {
          "internalType": "address",
          "name": "verifyingContract",
          "type": "address"
        },
        {
          "internalType": "bytes32",
          "name": "salt",
          "type": "bytes32"
        },
        {
          "internalType": "uint256[]",
          "name": "extensions",
          "type": "uint256[]"
        }
      ],
      "stateMutability": "view",
      "type": "function"
    },
    {
      "inputs": [
        {
          "internalType": "uint256",
          "name": "amountCTKN",
          "type": "uint256"
        },
        {
          "internalType": "uint256",
          "name": "priceETH",
          "type": "uint256"
        },
        {
          "internalType": "bytes",
          "name": "signature",
          "type": "bytes"
        }
      ],
      "name": "listTokenForSale",
      "outputs": [],
      "stateMutability": "nonpayable",
      "type": "function"
    },
    {
      "inputs": [
        {
          "internalType": "address",
          "name": "",
          "type": "address"
        },
        {
          "internalType": "uint256",
          "name": "",
          "type": "uint256"
        }
      ],
      "name": "listings",
      "outputs": [
        {
          "internalType": "uint256",
          "name": "amountCTKN",
          "type": "uint256"
        },
        {
          "internalType": "uint256",
          "name": "priceETH",
          "type": "uint256"
        },
        {
          "internalType": "bool",
          "name": "active",
          "type": "bool"
        }
      ],
      "stateMutability": "view",
      "type": "function"
    },
    {
      "inputs": [
        {
          "internalType": "address",
          "name": "to",
          "type": "address"
        },
        {
          "internalType": "uint256",
          "name": "amount",
          "type": "uint256"
        },
        {
          "internalType": "string",
          "name": "ipfsHash",
          "type": "string"
        },
        {
          "internalType": "bytes",
          "name": "signature",
          "type": "bytes"
        }
      ],
      "name": "mint",
      "outputs": [],
      "stateMutability": "nonpayable",
      "type": "function"
    },
    {
      "inputs": [],
      "name": "name",
      "outputs": [
        {
          "internalType": "string",
          "name": "",
          "type": "string"
        }
      ],
      "stateMutability": "view",
      "type": "function"
    },
    {
      "inputs": [
        {
          "internalType": "address",
          "name": "owner",
          "type": "address"
        }
      ],
      "name": "nonces",
      "outputs": [
        {
          "internalType": "uint256",
          "name": "",
          "type": "uint256"
        }
      ],
      "stateMutability": "view",
      "type": "function"
    },
    {
      "inputs": [],
      "name": "owner",
      "outputs": [
        {
          "internalType": "address",
          "name": "",
          "type": "address"
        }
      ],
      "stateMutability": "view",
      "type": "function"
    },
    {
      "inputs": [
        {
          "internalType": "address",
          "name": "owner",
          "type": "address"
        },
        {
          "internalType": "address",
          "name": "spender",
          "type": "address"
        },
        {
          "internalType": "uint256",
          "name": "value",
          "type": "uint256"
        },
        {
          "internalType": "uint256",
          "name": "deadline",
          "type": "uint256"
        },
        {
          "internalType": "uint8",
          "name": "v",
          "type": "uint8"
        },
        {
          "internalType": "bytes32",
          "name": "r",
          "type": "bytes32"
        },
        {
          "internalType": "bytes32",
          "name": "s",
          "type": "bytes32"
        }
      ],
      "name": "permit",
      "outputs": [],
      "stateMutability": "nonpayable",
      "type": "function"
    },
    {
      "inputs": [],
      "name": "renounceOwnership",
      "outputs": [],
      "stateMutability": "nonpayable",
      "type": "function"
    },
    {
      "inputs": [],
      "name": "symbol",
      "outputs": [
        {
          "internalType": "string",
          "name": "",
          "type": "string"
        }
      ],
      "stateMutability": "view",
      "type": "function"
    },
    {
      "inputs": [],
      "name": "totalSupply",
      "outputs": [
        {
          "internalType": "uint256",
          "name": "",
          "type": "uint256"
        }
      ],
      "stateMutability": "view",
      "type": "function"
    },
    {
      "inputs": [
        {
          "internalType": "address",
          "name": "to",
          "type": "address"
        },
        {
          "internalType": "uint256",
          "name": "value",
          "type": "uint256"
        }
      ],
      "name": "transfer",
      "outputs": [
        {
          "internalType": "bool",
          "name": "",
          "type": "bool"
        }
      ],
      "stateMutability": "nonpayable",
      "type": "function"
    },
    {
      "inputs": [
        {
          "internalType": "address",
          "name": "from",
          "type": "address"
        },
        {
          "internalType": "address",
          "name": "to",
          "type": "address"
        },
        {
          "internalType": "uint256",
          "name": "value",
          "type": "uint256"
        }
      ],
      "name": "transferFrom",
      "outputs": [
        {
          "internalType": "bool",
          "name": "",
          "type": "bool"
        }
      ],
      "stateMutability": "nonpayable",
      "type": "function"
    },
    {
      "inputs": [
        {
          "internalType": "address",
          "name": "newOwner",
          "type": "address"
        }
      ],
      "name": "transferOwnership",
      "outputs": [],
      "stateMutability": "nonpayable",
      "type": "function"
    },
    {
      "stateMutability": "payable",
      "type": "receive"
    }
  ],
  "bytecode": "0x6101606040523480156200001257600080fd5b5060405162003dec38038062003dec8339818101604052810190620000389190620004d3565b6040518060400160405280600b81526020017f436172626f6e546f6b656e000000000000000000000000000000000000000000815250806040518060400160405280600181526020017f3100000000000000000000000000000000000000000000000000000000000000815250836040518060400160405280600b81526020017f436172626f6e546f6b656e0000000000000000000000000000000000000000008152506040518060400160405280600481526020017f43544b4e0000000000000000000000000000000000000000000000000000000081525081600390816200012391906200077f565b5080600490816200013591906200077f565b505050600073ffffffffffffffffffffffffffffffffffffffff168173ffffffffffffffffffffffffffffffffffffffff1603620001ad5760006040517f1e4fbdf7000000000000000000000000000000000000000000000000000000008152600401620001a4919062000877565b60405180910390fd5b620001be816200027760201b60201c565b50620001d56006836200033d60201b90919060201c565b6101208181525050620001f36007826200033d60201b90919060201c565b6101408181525050818051906020012060e08181525050808051906020012061010081815250504660a08181525050620002326200039560201b60201c565b608081815250503073ffffffffffffffffffffffffffffffffffffffff1660c08173ffffffffffffffffffffffffffffffffffffffff16815250505050505062000a72565b6000600560009054906101000a900473ffffffffffffffffffffffffffffffffffffffff16905081600560006101000a81548173ffffffffffffffffffffffffffffffffffffffff021916908373ffffffffffffffffffffffffffffffffffffffff1602179055508173ffffffffffffffffffffffffffffffffffffffff168173ffffffffffffffffffffffffffffffffffffffff167f8be0079c531659141344cd1fd0a4f28419497f9722a3daafe3b4186f6b6457e060405160405180910390a35050565b600060208351101562000363576200035b83620003f260201b60201c565b90506200038f565b8262000375836200045f60201b60201c565b60000190816200038691906200077f565b5060ff60001b90505b92915050565b60007f8b73c3c69bb8fe3d512ecc4cf759cc79239f7b179b0ffacaa9a75d522b39400f60e051610100514630604051602001620003d7959493929190620008c0565b60405160208183030381529060405280519060200120905090565b600080829050601f815111156200044257826040517f305a27a9000000000000000000000000000000000000000000000000000000008152600401620004399190620009ac565b60405180910390fd5b805181620004509062000a02565b60001c1760001b915050919050565b6000819050919050565b600080fd5b600073ffffffffffffffffffffffffffffffffffffffff82169050919050565b60006200049b826200046e565b9050919050565b620004ad816200048e565b8114620004b957600080fd5b50565b600081519050620004cd81620004a2565b92915050565b600060208284031215620004ec57620004eb62000469565b5b6000620004fc84828501620004bc565b91505092915050565b600081519050919050565b7f4e487b7100000000000000000000000000000000000000000000000000000000600052604160045260246000fd5b7f4e487b7100000000000000000000000000000000000000000000000000000000600052602260045260246000fd5b600060028204905060018216806200058757607f821691505b6020821081036200059d576200059c6200053f565b5b50919050565b60008190508160005260206000209050919050565b60006020601f8301049050919050565b600082821b905092915050565b600060088302620006077fffffffffffffffffffffffffffffffffffffffffffffffffffffffffffffffff82620005c8565b620006138683620005c8565b95508019841693508086168417925050509392505050565b6000819050919050565b6000819050919050565b6000620006606200065a62000654846200062b565b62000635565b6200062b565b9050919050565b6000819050919050565b6200067c836200063f565b620006946200068b8262000667565b848454620005d5565b825550505050565b600090565b620006ab6200069c565b620006b881848462000671565b505050565b5b81811015620006e057620006d4600082620006a1565b600181019050620006be565b5050565b601f8211156200072f57620006f981620005a3565b6200070484620005b8565b8101602085101562000714578190505b6200072c6200072385620005b8565b830182620006bd565b50505b505050565b600082821c905092915050565b6000620007546000198460080262000734565b1980831691505092915050565b60006200076f838362000741565b9150826002028217905092915050565b6200078a8262000505565b67ffffffffffffffff811115620007a657620007a562000510565b5b620007b282546200056e565b620007bf828285620006e4565b600060209050601f831160018114620007f75760008415620007e2578287015190505b620007ee858262000761565b8655506200085e565b601f1984166200080786620005a3565b60005b8281101562000831578489015182556001820191506020850194506020810190506200080a565b868310156200085157848901516200084d601f89168262000741565b8355505b6001600288020188555050505b505050505050565b62000871816200048e565b82525050565b60006020820190506200088e600083018462000866565b92915050565b6000819050919050565b620008a98162000894565b82525050565b620008ba816200062b565b82525050565b600060a082019050620008d760008301886200089e565b620008e660208301876200089e565b620008f560408301866200089e565b620009046060830185620008af565b62000913608083018462000866565b9695505050505050565b600082825260208201905092915050565b60005b838110156200094e57808201518184015260208101905062000931565b60008484015250505050565b6000601f19601f8301169050919050565b6000620009788262000505565b6200098481856200091d565b9350620009968185602086016200092e565b620009a1816200095a565b840191505092915050565b60006020820190508181036000830152620009c881846200096b565b905092915050565b600081519050919050565b6000819050602082019050919050565b6000620009f9825162000894565b80915050919050565b600062000a0f82620009d0565b8262000a1b84620009db565b905062000a2881620009eb565b9250602082101562000a6b5762000a667fffffffffffffffffffffffffffffffffffffffffffffffffffffffffffffffff83602003600802620005c8565b831692505b5050919050565b60805160a05160c05160e05161010051610120516101405161331f62000acd60003960006118fd015260006118c20152600061205401526000612033015260006115ee015260006116440152600061166d015261331f6000f3fe6080604052600436106101435760003560e01c8063715018a6116100b6578063a9059cbb1161006f578063a9059cbb14610463578063ab8114b1146104a0578063d2b04fd6146104c9578063d505accf146104f2578063dd62ed3e1461051b578063f2fde38b146105585761014a565b8063715018a61461035f57806379cc6790146103765780637ecebe001461039f57806384b0196e146103dc5780638da5cb5b1461040d57806395d89b41146104385761014a565b806323b872dd1161010857806323b872dd1461023d578063313ce5671461027a5780633644e515146102a557806342966c68146102d05780636bf59c07146102f957806370a08231146103225761014a565b806207df301461014f57806305e573be1461018e57806306fdde03146101aa578063095ea7b3146101d557806318160ddd146102125761014a565b3661014a57005b600080fd5b34801561015b57600080fd5b50610176600480360381019061017191906123f5565b610581565b6040516101859392919061245f565b60405180910390f35b6101a860048036038101906101a391906125dc565b6105d5565b005b3480156101b657600080fd5b506101bf610870565b6040516101cc91906126ca565b60405180910390f35b3480156101e157600080fd5b506101fc60048036038101906101f791906123f5565b610902565b60405161020991906126ec565b60405180910390f35b34801561021e57600080fd5b50610227610925565b6040516102349190612707565b60405180910390f35b34801561024957600080fd5b50610264600480360381019061025f9190612722565b61092f565b60405161027191906126ec565b60405180910390f35b34801561028657600080fd5b5061028f61095e565b60405161029c9190612791565b60405180910390f35b3480156102b157600080fd5b506102ba610967565b6040516102c791906127c5565b60405180910390f35b3480156102dc57600080fd5b506102f760048036038101906102f291906127e0565b610976565b005b34801561030557600080fd5b50610320600480360381019061031b919061280d565b61098a565b005b34801561032e57600080fd5b5061034960048036038101906103449190612869565b610bf7565b6040516103569190612707565b60405180910390f35b34801561036b57600080fd5b50610374610c3f565b005b34801561038257600080fd5b5061039d600480360381019061039891906123f5565b610c53565b005b3480156103ab57600080fd5b506103c660048036038101906103c19190612869565b610c73565b6040516103d39190612707565b60405180910390f35b3480156103e857600080fd5b506103f1610c85565b604051610404979695949392919061299e565b60405180910390f35b34801561041957600080fd5b50610422610d2f565b60405161042f9190612a22565b60405180910390f35b34801561044457600080fd5b5061044d610d59565b60405161045a91906126ca565b60405180910390f35b34801561046f57600080fd5b5061048a600480360381019061048591906123f5565b610deb565b60405161049791906126ec565b60405180910390f35b3480156104ac57600080fd5b506104c760048036038101906104c29190612a3d565b610e0e565b005b3480156104d557600080fd5b506104f060048036038101906104eb9190612b4d565b61107b565b005b3480156104fe57600080fd5b5061051960048036038101906105149190612c44565b611191565b005b34801561052757600080fd5b50610542600480360381019061053d9190612ce6565b6112d9565b60405161054f9190612707565b60405180910390f35b34801561056457600080fd5b5061057f600480360381019061057a9190612869565b611360565b005b6009602052816000526040600020818154811061059d57600080fd5b9060005260206000209060030201600091509150508060000154908060010154908060020160009054906101000a900460ff16905083565b8060006106017ff064acadedfca501470edf51421a27289a0bf1fee0b152d52f92f9c9bf39865a6113e6565b90506000610618838361141c90919063ffffffff16565b90503373ffffffffffffffffffffffffffffffffffffffff168173ffffffffffffffffffffffffffffffffffffffff1614610688576040517f08c379a000000000000000000000000000000000000000000000000000000000815260040161067f90612d72565b60405180910390fd5b6000600960008873ffffffffffffffffffffffffffffffffffffffff1673ffffffffffffffffffffffffffffffffffffffff16815260200190815260200160002086815481106106db576106da612d92565b5b906000526020600020906003020190508060020160009054906101000a900460ff1661073c576040517f08c379a000000000000000000000000000000000000000000000000000000000815260040161073390612e0d565b60405180910390fd5b8060010154341015610783576040517f08c379a000000000000000000000000000000000000000000000000000000000815260040161077a90612e79565b60405180910390fd5b61079230338360000154611448565b8673ffffffffffffffffffffffffffffffffffffffff166108fc349081150290604051600060405180830381858888f193505050501580156107d8573d6000803e3d6000fd5b5060008160020160006101000a81548160ff0219169083151502179055508673ffffffffffffffffffffffffffffffffffffffff163373ffffffffffffffffffffffffffffffffffffffff167f0a9521815fb3c5bc7dd6f4c9f89dc270322e46b945b104c18981f81c3f2cd1aa836000015484600101548a60405161085f93929190612e99565b60405180910390a350505050505050565b60606003805461087f90612eff565b80601f01602080910402602001604051908101604052809291908181526020018280546108ab90612eff565b80156108f85780601f106108cd576101008083540402835291602001916108f8565b820191906000526020600020905b8154815290600101906020018083116108db57829003601f168201915b5050505050905090565b60008061090d61153c565b905061091a818585611544565b600191505092915050565b6000600254905090565b60008061093a61153c565b9050610947858285611556565b610952858585611448565b60019150509392505050565b60006012905090565b60006109716115ea565b905090565b61098761098161153c565b826116a1565b50565b8060006109b67ff064acadedfca501470edf51421a27289a0bf1fee0b152d52f92f9c9bf39865a6113e6565b905060006109cd838361141c90919063ffffffff16565b90503373ffffffffffffffffffffffffffffffffffffffff168173ffffffffffffffffffffffffffffffffffffffff1614610a3d576040517f08c379a0000000000000000000000000000000000000000000000000000000008152600401610a3490612d72565b60405180910390fd5b600960003373ffffffffffffffffffffffffffffffffffffffff1673ffffffffffffffffffffffffffffffffffffffff168152602001908152602001600020805490508510610ac1576040517f08c379a0000000000000000000000000000000000000000000000000000000008152600401610ab890612f7c565b60405180910390fd5b6000600960003373ffffffffffffffffffffffffffffffffffffffff1673ffffffffffffffffffffffffffffffffffffffff1681526020019081526020016000208681548110610b1457610b13612d92565b5b906000526020600020906003020190508060020160009054906101000a900460ff16610b75576040517f08c379a0000000000000000000000000000000000000000000000000000000008152600401610b6c9061300e565b60405180910390fd5b610b8430338360000154611448565b60008160020160006101000a81548160ff0219169083151502179055503373ffffffffffffffffffffffffffffffffffffffff167f53df6f80c006573b58e17d6440b870b40592881a21c175cde20004a4135dd46087604051610be79190612707565b60405180910390a2505050505050565b60008060008373ffffffffffffffffffffffffffffffffffffffff1673ffffffffffffffffffffffffffffffffffffffff168152602001908152602001600020549050919050565b610c47611723565b610c5160006117aa565b565b610c6582610c5f61153c565b83611556565b610c6f82826116a1565b5050565b6000610c7e82611870565b9050919050565b600060608060008060006060610c996118b9565b610ca16118f4565b46306000801b600067ffffffffffffffff811115610cc257610cc16124b1565b5b604051908082528060200260200182016040528015610cf05781602001602082028036833780820191505090505b507f0f00000000000000000000000000000000000000000000000000000000000000959493929190965096509650965096509650965090919293949596565b6000600560009054906101000a900473ffffffffffffffffffffffffffffffffffffffff16905090565b606060048054610d6890612eff565b80601f0160208091040260200160405190810160405280929190818152602001828054610d9490612eff565b8015610de15780601f10610db657610100808354040283529160200191610de1565b820191906000526020600020905b815481529060010190602001808311610dc457829003601f168201915b5050505050905090565b600080610df661153c565b9050610e03818585611448565b600191505092915050565b806000610e3a7ff064acadedfca501470edf51421a27289a0bf1fee0b152d52f92f9c9bf39865a6113e6565b90506000610e51838361141c90919063ffffffff16565b90503373ffffffffffffffffffffffffffffffffffffffff168173ffffffffffffffffffffffffffffffffffffffff1614610ec1576040517f08c379a0000000000000000000000000000000000000000000000000000000008152600401610eb890612d72565b60405180910390fd5b85610ecb33610bf7565b1015610f0c576040517f08c379a0000000000000000000000000000000000000000000000000000000008152600401610f039061307a565b60405180910390fd5b610f17333088611448565b600960003373ffffffffffffffffffffffffffffffffffffffff1673ffffffffffffffffffffffffffffffffffffffff1681526020019081526020016000206040518060600160405280888152602001878152602001600115158152509080600181540180825580915050600190039060005260206000209060030201600090919091909150600082015181600001556020820151816001015560408201518160020160006101000a81548160ff02191690831515021790555050503373ffffffffffffffffffffffffffffffffffffffff167fda2d7fa13c443a4ce51bb68b8ce92f41fac2c10d9d5bdb6a9e9a91429020b7c387876001600960003373ffffffffffffffffffffffffffffffffffffffff1673ffffffffffffffffffffffffffffffffffffffff1681526020019081526020016000208054905061105c91906130c9565b60405161106b93929190612e99565b60405180910390a2505050505050565b8060006110a77ff064acadedfca501470edf51421a27289a0bf1fee0b152d52f92f9c9bf39865a6113e6565b905060006110be838361141c90919063ffffffff16565b90503373ffffffffffffffffffffffffffffffffffffffff168173ffffffffffffffffffffffffffffffffffffffff161461112e576040517f08c379a000000000000000000000000000000000000000000000000000000000815260040161112590612d72565b60405180910390fd5b611138878761192f565b8673ffffffffffffffffffffffffffffffffffffffff167fde5d6fd45e32fffb472bcbaeedf6a2e3944633c9701eec7d99adfa07ad6104c187876040516111809291906130fd565b60405180910390a250505050505050565b834211156111d657836040517f627913020000000000000000000000000000000000000000000000000000000081526004016111cd9190612707565b60405180910390fd5b60007f6e71edae12b1b97f4d1f60370fef10105fa2faae0126114a169c64845d6126c98888886112058c6119b1565b8960405160200161121b9695949392919061312d565b604051602081830303815290604052805190602001209050600061123e82611a08565b9050600061124e82878787611a22565b90508973ffffffffffffffffffffffffffffffffffffffff168173ffffffffffffffffffffffffffffffffffffffff16146112c257808a6040517f4b800e460000000000000000000000000000000000000000000000000000000081526004016112b992919061318e565b60405180910390fd5b6112cd8a8a8a611544565b50505050505050505050565b6000600160008473ffffffffffffffffffffffffffffffffffffffff1673ffffffffffffffffffffffffffffffffffffffff16815260200190815260200160002060008373ffffffffffffffffffffffffffffffffffffffff1673ffffffffffffffffffffffffffffffffffffffff16815260200190815260200160002054905092915050565b611368611723565b600073ffffffffffffffffffffffffffffffffffffffff168173ffffffffffffffffffffffffffffffffffffffff16036113da5760006040517f1e4fbdf70000000000000000000000000000000000000000000000000000000081526004016113d19190612a22565b60405180910390fd5b6113e3816117aa565b50565b60007f19457468657265756d205369676e6564204d6573736167653a0a33320000000060005281601c52603c6000209050919050565b60008060008061142c8686611a52565b92509250925061143c8282611aae565b82935050505092915050565b600073ffffffffffffffffffffffffffffffffffffffff168373ffffffffffffffffffffffffffffffffffffffff16036114ba5760006040517f96c6fd1e0000000000000000000000000000000000000000000000000000000081526004016114b19190612a22565b60405180910390fd5b600073ffffffffffffffffffffffffffffffffffffffff168273ffffffffffffffffffffffffffffffffffffffff160361152c5760006040517fec442f050000000000000000000000000000000000000000000000000000000081526004016115239190612a22565b60405180910390fd5b611537838383611c12565b505050565b600033905090565b6115518383836001611e37565b505050565b600061156284846112d9565b90507fffffffffffffffffffffffffffffffffffffffffffffffffffffffffffffffff81146115e457818110156115d4578281836040517ffb8f41b20000000000000000000000000000000000000000000000000000000081526004016115cb939291906131b7565b60405180910390fd5b6115e384848484036000611e37565b5b50505050565b60007f000000000000000000000000000000000000000000000000000000000000000073ffffffffffffffffffffffffffffffffffffffff163073ffffffffffffffffffffffffffffffffffffffff1614801561166657507f000000000000000000000000000000000000000000000000000000000000000046145b15611693577f0000000000000000000000000000000000000000000000000000000000000000905061169e565b61169b61200e565b90505b90565b600073ffffffffffffffffffffffffffffffffffffffff168273ffffffffffffffffffffffffffffffffffffffff16036117135760006040517f96c6fd1e00000000000000000000000000000000000000000000000000000000815260040161170a9190612a22565b60405180910390fd5b61171f82600083611c12565b5050565b61172b61153c565b73ffffffffffffffffffffffffffffffffffffffff16611749610d2f565b73ffffffffffffffffffffffffffffffffffffffff16146117a85761176c61153c565b6040517f118cdaa700000000000000000000000000000000000000000000000000000000815260040161179f9190612a22565b60405180910390fd5b565b6000600560009054906101000a900473ffffffffffffffffffffffffffffffffffffffff16905081600560006101000a81548173ffffffffffffffffffffffffffffffffffffffff021916908373ffffffffffffffffffffffffffffffffffffffff1602179055508173ffffffffffffffffffffffffffffffffffffffff168173ffffffffffffffffffffffffffffffffffffffff167f8be0079c531659141344cd1fd0a4f28419497f9722a3daafe3b4186f6b6457e060405160405180910390a35050565b6000600860008373ffffffffffffffffffffffffffffffffffffffff1673ffffffffffffffffffffffffffffffffffffffff168152602001908152602001600020549050919050565b60606118ef60067f00000000000000000000000000000000000000000000000000000000000000006120a490919063ffffffff16565b905090565b606061192a60077f00000000000000000000000000000000000000000000000000000000000000006120a490919063ffffffff16565b905090565b600073ffffffffffffffffffffffffffffffffffffffff168273ffffffffffffffffffffffffffffffffffffffff16036119a15760006040517fec442f050000000000000000000000000000000000000000000000000000000081526004016119989190612a22565b60405180910390fd5b6119ad60008383611c12565b5050565b6000600860008373ffffffffffffffffffffffffffffffffffffffff1673ffffffffffffffffffffffffffffffffffffffff1681526020019081526020016000206000815480929190600101919050559050919050565b6000611a1b611a156115ea565b83612154565b9050919050565b600080600080611a3488888888612195565b925092509250611a448282611aae565b829350505050949350505050565b60008060006041845103611a975760008060006020870151925060408701519150606087015160001a9050611a8988828585612195565b955095509550505050611aa7565b60006002855160001b9250925092505b9250925092565b60006003811115611ac257611ac16131ee565b5b826003811115611ad557611ad46131ee565b5b0315611c0e5760016003811115611aef57611aee6131ee565b5b826003811115611b0257611b016131ee565b5b03611b39576040517ff645eedf00000000000000000000000000000000000000000000000000000000815260040160405180910390fd5b60026003811115611b4d57611b4c6131ee565b5b826003811115611b6057611b5f6131ee565b5b03611ba5578060001c6040517ffce698f7000000000000000000000000000000000000000000000000000000008152600401611b9c9190612707565b60405180910390fd5b600380811115611bb857611bb76131ee565b5b826003811115611bcb57611bca6131ee565b5b03611c0d57806040517fd78bce0c000000000000000000000000000000000000000000000000000000008152600401611c0491906127c5565b60405180910390fd5b5b5050565b600073ffffffffffffffffffffffffffffffffffffffff168373ffffffffffffffffffffffffffffffffffffffff1603611c64578060026000828254611c58919061321d565b92505081905550611d37565b60008060008573ffffffffffffffffffffffffffffffffffffffff1673ffffffffffffffffffffffffffffffffffffffff16815260200190815260200160002054905081811015611cf0578381836040517fe450d38c000000000000000000000000000000000000000000000000000000008152600401611ce7939291906131b7565b60405180910390fd5b8181036000808673ffffffffffffffffffffffffffffffffffffffff1673ffffffffffffffffffffffffffffffffffffffff16815260200190815260200160002081905550505b600073ffffffffffffffffffffffffffffffffffffffff168273ffffffffffffffffffffffffffffffffffffffff1603611d805780600260008282540392505081905550611dcd565b806000808473ffffffffffffffffffffffffffffffffffffffff1673ffffffffffffffffffffffffffffffffffffffff168152602001908152602001600020600082825401925050819055505b8173ffffffffffffffffffffffffffffffffffffffff168373ffffffffffffffffffffffffffffffffffffffff167fddf252ad1be2c89b69c2b068fc378daa952ba7f163c4a11628f55a4df523b3ef83604051611e2a9190612707565b60405180910390a3505050565b600073ffffffffffffffffffffffffffffffffffffffff168473ffffffffffffffffffffffffffffffffffffffff1603611ea95760006040517fe602df05000000000000000000000000000000000000000000000000000000008152600401611ea09190612a22565b60405180910390fd5b600073ffffffffffffffffffffffffffffffffffffffff168373ffffffffffffffffffffffffffffffffffffffff1603611f1b5760006040517f94280d62000000000000000000000000000000000000000000000000000000008152600401611f129190612a22565b60405180910390fd5b81600160008673ffffffffffffffffffffffffffffffffffffffff1673ffffffffffffffffffffffffffffffffffffffff16815260200190815260200160002060008573ffffffffffffffffffffffffffffffffffffffff1673ffffffffffffffffffffffffffffffffffffffff168152602001908152602001600020819055508015612008578273ffffffffffffffffffffffffffffffffffffffff168473ffffffffffffffffffffffffffffffffffffffff167f8c5be1e5ebec7d5bd14f71427d1e84f3dd0314c0f7b2291e5b200ac8c7c3b92584604051611fff9190612707565b60405180910390a35b50505050565b60007f8b73c3c69bb8fe3d512ecc4cf759cc79239f7b179b0ffacaa9a75d522b39400f7f00000000000000000000000000000000000000000000000000000000000000007f00000000000000000000000000000000000000000000000000000000000000004630604051602001612089959493929190613251565b60405160208183030381529060405280519060200120905090565b606060ff60001b83146120c1576120ba83612289565b905061214e565b8180546120cd90612eff565b80601f01602080910402602001604051908101604052809291908181526020018280546120f990612eff565b80156121465780601f1061211b57610100808354040283529160200191612146565b820191906000526020600020905b81548152906001019060200180831161212957829003601f168201915b505050505090505b92915050565b60006040517f190100000000000000000000000000000000000000000000000000000000000081528360028201528260228201526042812091505092915050565b60008060007f7fffffffffffffffffffffffffffffff5d576e7357a4501ddfe92f46681b20a08460001c11156121d557600060038592509250925061227f565b6000600188888888604051600081526020016040526040516121fa94939291906132a4565b6020604051602081039080840390855afa15801561221c573d6000803e3d6000fd5b505050602060405103519050600073ffffffffffffffffffffffffffffffffffffffff168173ffffffffffffffffffffffffffffffffffffffff160361227057600060016000801b9350935093505061227f565b8060008060001b935093509350505b9450945094915050565b60606000612296836122fd565b90506000602067ffffffffffffffff8111156122b5576122b46124b1565b5b6040519080825280601f01601f1916602001820160405280156122e75781602001600182028036833780820191505090505b5090508181528360208201528092505050919050565b60008060ff8360001c169050601f811115612344576040517fb3512b0c00000000000000000000000000000000000000000000000000000000815260040160405180910390fd5b80915050919050565b6000604051905090565b600080fd5b600080fd5b600073ffffffffffffffffffffffffffffffffffffffff82169050919050565b600061238c82612361565b9050919050565b61239c81612381565b81146123a757600080fd5b50565b6000813590506123b981612393565b92915050565b6000819050919050565b6123d2816123bf565b81146123dd57600080fd5b50565b6000813590506123ef816123c9565b92915050565b6000806040838503121561240c5761240b612357565b5b600061241a858286016123aa565b925050602061242b858286016123e0565b9150509250929050565b61243e816123bf565b82525050565b60008115159050919050565b61245981612444565b82525050565b60006060820190506124746000830186612435565b6124816020830185612435565b61248e6040830184612450565b949350505050565b600080fd5b600080fd5b6000601f19601f8301169050919050565b7f4e487b7100000000000000000000000000000000000000000000000000000000600052604160045260246000fd5b6124e9826124a0565b810181811067ffffffffffffffff82111715612508576125076124b1565b5b80604052505050565b600061251b61234d565b905061252782826124e0565b919050565b600067ffffffffffffffff821115612547576125466124b1565b5b612550826124a0565b9050602081019050919050565b82818337600083830152505050565b600061257f61257a8461252c565b612511565b90508281526020810184848401111561259b5761259a61249b565b5b6125a684828561255d565b509392505050565b600082601f8301126125c3576125c2612496565b5b81356125d384826020860161256c565b91505092915050565b6000806000606084860312156125f5576125f4612357565b5b6000612603868287016123aa565b9350506020612614868287016123e0565b925050604084013567ffffffffffffffff8111156126355761263461235c565b5b612641868287016125ae565b9150509250925092565b600081519050919050565b600082825260208201905092915050565b60005b8381101561268557808201518184015260208101905061266a565b60008484015250505050565b600061269c8261264b565b6126a68185612656565b93506126b6818560208601612667565b6126bf816124a0565b840191505092915050565b600060208201905081810360008301526126e48184612691565b905092915050565b60006020820190506127016000830184612450565b92915050565b600060208201905061271c6000830184612435565b92915050565b60008060006060848603121561273b5761273a612357565b5b6000612749868287016123aa565b935050602061275a868287016123aa565b925050604061276b868287016123e0565b9150509250925092565b600060ff82169050919050565b61278b81612775565b82525050565b60006020820190506127a66000830184612782565b92915050565b6000819050919050565b6127bf816127ac565b82525050565b60006020820190506127da60008301846127b6565b92915050565b6000602082840312156127f6576127f5612357565b5b6000612804848285016123e0565b91505092915050565b6000806040838503121561282457612823612357565b5b6000612832858286016123e0565b925050602083013567ffffffffffffffff8111156128535761285261235c565b5b61285f858286016125ae565b9150509250929050565b60006020828403121561287f5761287e612357565b5b600061288d848285016123aa565b91505092915050565b60007fff0000000000000000000000000000000000000000000000000000000000000082169050919050565b6128cb81612896565b82525050565b6128da81612381565b82525050565b600081519050919050565b600082825260208201905092915050565b6000819050602082019050919050565b612915816123bf565b82525050565b6000612927838361290c565b60208301905092915050565b6000602082019050919050565b600061294b826128e0565b61295581856128eb565b9350612960836128fc565b8060005b83811015612991578151612978888261291b565b975061298383612933565b925050600181019050612964565b5085935050505092915050565b600060e0820190506129b3600083018a6128c2565b81810360208301526129c58189612691565b905081810360408301526129d98188612691565b90506129e86060830187612435565b6129f560808301866128d1565b612a0260a08301856127b6565b81810360c0830152612a148184612940565b905098975050505050505050565b6000602082019050612a3760008301846128d1565b92915050565b600080600060608486031215612a5657612a55612357565b5b6000612a64868287016123e0565b9350506020612a75868287016123e0565b925050604084013567ffffffffffffffff811115612a9657612a9561235c565b5b612aa2868287016125ae565b9150509250925092565b600067ffffffffffffffff821115612ac757612ac66124b1565b5b612ad0826124a0565b9050602081019050919050565b6000612af0612aeb84612aac565b612511565b905082815260208101848484011115612b0c57612b0b61249b565b5b612b1784828561255d565b509392505050565b600082601f830112612b3457612b33612496565b5b8135612b44848260208601612add565b91505092915050565b60008060008060808587031215612b6757612b66612357565b5b6000612b75878288016123aa565b9450506020612b86878288016123e0565b935050604085013567ffffffffffffffff811115612ba757612ba661235c565b5b612bb387828801612b1f565b925050606085013567ffffffffffffffff811115612bd457612bd361235c565b5b612be0878288016125ae565b91505092959194509250565b612bf581612775565b8114612c0057600080fd5b50565b600081359050612c1281612bec565b92915050565b612c21816127ac565b8114612c2c57600080fd5b50565b600081359050612c3e81612c18565b92915050565b600080600080600080600060e0888a031215612c6357612c62612357565b5b6000612c718a828b016123aa565b9750506020612c828a828b016123aa565b9650506040612c938a828b016123e0565b9550506060612ca48a828b016123e0565b9450506080612cb58a828b01612c03565b93505060a0612cc68a828b01612c2f565b92505060c0612cd78a828b01612c2f565b91505092959891949750929550565b60008060408385031215612cfd57612cfc612357565b5b6000612d0b858286016123aa565b9250506020612d1c858286016123aa565b9150509250929050565b7f496e76616c6964207369676e6174757265000000000000000000000000000000600082015250565b6000612d5c601183612656565b9150612d6782612d26565b602082019050919050565b60006020820190508181036000830152612d8b81612d4f565b9050919050565b7f4e487b7100000000000000000000000000000000000000000000000000000000600052603260045260246000fd5b7f4c697374696e67206973206e6f74206163746976650000000000000000000000600082015250565b6000612df7601583612656565b9150612e0282612dc1565b602082019050919050565b60006020820190508181036000830152612e2681612dea565b9050919050565b7f496e73756666696369656e74204554482073656e740000000000000000000000600082015250565b6000612e63601583612656565b9150612e6e82612e2d565b602082019050919050565b60006020820190508181036000830152612e9281612e56565b9050919050565b6000606082019050612eae6000830186612435565b612ebb6020830185612435565b612ec86040830184612435565b949350505050565b7f4e487b7100000000000000000000000000000000000000000000000000000000600052602260045260246000fd5b60006002820490506001821680612f1757607f821691505b602082108103612f2a57612f29612ed0565b5b50919050565b7f496e76616c6964206c697374696e6720696e6465780000000000000000000000600082015250565b6000612f66601583612656565b9150612f7182612f30565b602082019050919050565b60006020820190508181036000830152612f9581612f59565b9050919050565b7f43616e6e6f742064656c65746520616e20696e616374697665206c697374696e60008201527f6700000000000000000000000000000000000000000000000000000000000000602082015250565b6000612ff8602183612656565b915061300382612f9c565b604082019050919050565b6000602082019050818103600083015261302781612feb565b9050919050565b7f496e73756666696369656e742043544b4e2062616c616e636500000000000000600082015250565b6000613064601983612656565b915061306f8261302e565b602082019050919050565b6000602082019050818103600083015261309381613057565b9050919050565b7f4e487b7100000000000000000000000000000000000000000000000000000000600052601160045260246000fd5b60006130d4826123bf565b91506130df836123bf565b92508282039050818111156130f7576130f661309a565b5b92915050565b60006040820190506131126000830185612435565b81810360208301526131248184612691565b90509392505050565b600060c08201905061314260008301896127b6565b61314f60208301886128d1565b61315c60408301876128d1565b6131696060830186612435565b6131766080830185612435565b61318360a0830184612435565b979650505050505050565b60006040820190506131a360008301856128d1565b6131b060208301846128d1565b9392505050565b60006060820190506131cc60008301866128d1565b6131d96020830185612435565b6131e66040830184612435565b949350505050565b7f4e487b7100000000000000000000000000000000000000000000000000000000600052602160045260246000fd5b6000613228826123bf565b9150613233836123bf565b925082820190508082111561324b5761324a61309a565b5b92915050565b600060a08201905061326660008301886127b6565b61327360208301876127b6565b61328060408301866127b6565b61328d6060830185612435565b61329a60808301846128d1565b9695505050505050565b60006080820190506132b960008301876127b6565b6132c66020830186612782565b6132d360408301856127b6565b6132e060608301846127b6565b9594505050505056fea26469706673582212205f5cdd1c715c94182ead295e3e15b7f0ae93a70f7773f501758be200ea353da064736f6c63430008180033",
  "linkReferences": {},
  "deployedLinkReferences": {}
}